{
  "_format": "hh-sol-artifact-1",
  "contractName": "IdentityRegistry",
  "sourceName": "contracts/IdentityRegistry.sol",
  "abi": [
    {
      "inputs": [],
      "stateMutability": "nonpayable",
      "type": "constructor"
    },
    {
      "inputs": [
        {
          "internalType": "uint256",
          "name": "agentId",
          "type": "uint256"
        }
      ],
      "name": "AgentNotExists",
      "type": "error"
    },
    {
      "inputs": [
        {
          "internalType": "address",
          "name": "sender",
          "type": "address"
        },
        {
          "internalType": "uint256",
          "name": "tokenId",
          "type": "uint256"
        },
        {
          "internalType": "address",
          "name": "owner",
          "type": "address"
        }
      ],
      "name": "ERC721IncorrectOwner",
      "type": "error"
    },
    {
      "inputs": [
        {
          "internalType": "address",
          "name": "operator",
          "type": "address"
        },
        {
          "internalType": "uint256",
          "name": "tokenId",
          "type": "uint256"
        }
      ],
      "name": "ERC721InsufficientApproval",
      "type": "error"
    },
    {
      "inputs": [
        {
          "internalType": "address",
          "name": "approver",
          "type": "address"
        }
      ],
      "name": "ERC721InvalidApprover",
      "type": "error"
    },
    {
      "inputs": [
        {
          "internalType": "address",
          "name": "operator",
          "type": "address"
        }
      ],
      "name": "ERC721InvalidOperator",
      "type": "error"
    },
    {
      "inputs": [
        {
          "internalType": "address",
          "name": "owner",
          "type": "address"
        }
      ],
      "name": "ERC721InvalidOwner",
      "type": "error"
    },
    {
      "inputs": [
        {
          "internalType": "address",
          "name": "receiver",
          "type": "address"
        }
      ],
      "name": "ERC721InvalidReceiver",
      "type": "error"
    },
    {
      "inputs": [
        {
          "internalType": "address",
          "name": "sender",
          "type": "address"
        }
      ],
      "name": "ERC721InvalidSender",
      "type": "error"
    },
    {
      "inputs": [
        {
          "internalType": "uint256",
          "name": "tokenId",
          "type": "uint256"
        }
      ],
      "name": "ERC721NonexistentToken",
      "type": "error"
    },
    {
      "inputs": [
        {
          "internalType": "uint256",
          "name": "agentId",
          "type": "uint256"
        },
        {
          "internalType": "address",
          "name": "caller",
          "type": "address"
        }
      ],
      "name": "NotAuthorized",
      "type": "error"
    },
    {
      "inputs": [
        {
          "internalType": "address",
          "name": "owner",
          "type": "address"
        }
      ],
      "name": "OwnableInvalidOwner",
      "type": "error"
    },
    {
      "inputs": [
        {
          "internalType": "address",
          "name": "account",
          "type": "address"
        }
      ],
      "name": "OwnableUnauthorizedAccount",
      "type": "error"
    },
    {
      "inputs": [
        {
          "internalType": "string",
          "name": "key",
          "type": "string"
        }
      ],
      "name": "ReservedKey",
      "type": "error"
    },
    {
      "anonymous": false,
      "inputs": [
        {
          "indexed": true,
          "internalType": "uint256",
          "name": "agentId",
          "type": "uint256"
        },
        {
          "indexed": true,
          "internalType": "address",
          "name": "owner",
          "type": "address"
        },
        {
          "indexed": false,
          "internalType": "string",
          "name": "agentURI",
          "type": "string"
        }
      ],
      "name": "AgentRegistered",
      "type": "event"
    },
    {
      "anonymous": false,
      "inputs": [
        {
          "indexed": true,
          "internalType": "uint256",
          "name": "agentId",
          "type": "uint256"
        },
        {
          "indexed": false,
          "internalType": "string",
          "name": "newURI",
          "type": "string"
        }
      ],
      "name": "AgentURIUpdated",
      "type": "event"
    },
    {
      "anonymous": false,
      "inputs": [
        {
          "indexed": true,
          "internalType": "uint256",
          "name": "agentId",
          "type": "uint256"
        },
        {
          "indexed": true,
          "internalType": "address",
          "name": "newWallet",
          "type": "address"
        },
        {
          "indexed": false,
          "internalType": "bytes",
          "name": "proof",
          "type": "bytes"
        }
      ],
      "name": "AgentWalletUpdated",
      "type": "event"
    },
    {
      "anonymous": false,
      "inputs": [
        {
          "indexed": true,
          "internalType": "address",
          "name": "owner",
          "type": "address"
        },
        {
          "indexed": true,
          "internalType": "address",
          "name": "approved",
          "type": "address"
        },
        {
          "indexed": true,
          "internalType": "uint256",
          "name": "tokenId",
          "type": "uint256"
        }
      ],
      "name": "Approval",
      "type": "event"
    },
    {
      "anonymous": false,
      "inputs": [
        {
          "indexed": true,
          "internalType": "address",
          "name": "owner",
          "type": "address"
        },
        {
          "indexed": true,
          "internalType": "address",
          "name": "operator",
          "type": "address"
        },
        {
          "indexed": false,
          "internalType": "bool",
          "name": "approved",
          "type": "bool"
        }
      ],
      "name": "ApprovalForAll",
      "type": "event"
    },
    {
      "anonymous": false,
      "inputs": [
        {
          "indexed": false,
          "internalType": "uint256",
          "name": "_fromTokenId",
          "type": "uint256"
        },
        {
          "indexed": false,
          "internalType": "uint256",
          "name": "_toTokenId",
          "type": "uint256"
        }
      ],
      "name": "BatchMetadataUpdate",
      "type": "event"
    },
    {
      "anonymous": false,
      "inputs": [
        {
          "indexed": true,
          "internalType": "uint256",
          "name": "agentId",
          "type": "uint256"
        },
        {
          "indexed": true,
          "internalType": "string",
          "name": "indexedMetadataKey",
          "type": "string"
        },
        {
          "indexed": false,
          "internalType": "string",
          "name": "metadataKey",
          "type": "string"
        },
        {
          "indexed": false,
          "internalType": "bytes",
          "name": "metadataValue",
          "type": "bytes"
        }
      ],
      "name": "MetadataSet",
      "type": "event"
    },
    {
      "anonymous": false,
      "inputs": [
        {
          "indexed": false,
          "internalType": "uint256",
          "name": "_tokenId",
          "type": "uint256"
        }
      ],
      "name": "MetadataUpdate",
      "type": "event"
    },
    {
      "anonymous": false,
      "inputs": [
        {
          "indexed": true,
          "internalType": "uint256",
          "name": "agentId",
          "type": "uint256"
        },
        {
          "indexed": true,
          "internalType": "address",
          "name": "operator",
          "type": "address"
        }
      ],
      "name": "OperatorSet",
      "type": "event"
    },
    {
      "anonymous": false,
      "inputs": [
        {
          "indexed": true,
          "internalType": "address",
          "name": "previousOwner",
          "type": "address"
        },
        {
          "indexed": true,
          "internalType": "address",
          "name": "newOwner",
          "type": "address"
        }
      ],
      "name": "OwnershipTransferred",
      "type": "event"
    },
    {
      "anonymous": false,
      "inputs": [
        {
          "indexed": true,
          "internalType": "address",
          "name": "from",
          "type": "address"
        },
        {
          "indexed": true,
          "internalType": "address",
          "name": "to",
          "type": "address"
        },
        {
          "indexed": true,
          "internalType": "uint256",
          "name": "tokenId",
          "type": "uint256"
        }
      ],
      "name": "Transfer",
      "type": "event"
    },
    {
      "inputs": [
        {
          "internalType": "uint256",
          "name": "agentId",
          "type": "uint256"
        }
      ],
      "name": "agentURI",
      "outputs": [
        {
          "internalType": "string",
          "name": "",
          "type": "string"
        }
      ],
      "stateMutability": "view",
      "type": "function"
    },
    {
      "inputs": [
        {
          "internalType": "uint256",
          "name": "",
          "type": "uint256"
        }
      ],
      "name": "agentWallets",
      "outputs": [
        {
          "internalType": "address",
          "name": "",
          "type": "address"
        }
      ],
      "stateMutability": "view",
      "type": "function"
    },
    {
      "inputs": [
        {
          "internalType": "address",
          "name": "to",
          "type": "address"
        },
        {
          "internalType": "uint256",
          "name": "tokenId",
          "type": "uint256"
        }
      ],
      "name": "approve",
      "outputs": [],
      "stateMutability": "nonpayable",
      "type": "function"
    },
    {
      "inputs": [
        {
          "internalType": "address",
          "name": "owner",
          "type": "address"
        }
      ],
      "name": "balanceOf",
      "outputs": [
        {
          "internalType": "uint256",
          "name": "",
          "type": "uint256"
        }
      ],
      "stateMutability": "view",
      "type": "function"
    },
    {
      "inputs": [
        {
          "internalType": "uint256",
          "name": "tokenId",
          "type": "uint256"
        }
      ],
      "name": "getApproved",
      "outputs": [
        {
          "internalType": "address",
          "name": "",
          "type": "address"
        }
      ],
      "stateMutability": "view",
      "type": "function"
    },
    {
      "inputs": [
        {
          "internalType": "uint256",
          "name": "agentId",
          "type": "uint256"
        },
        {
          "internalType": "string",
          "name": "metadataKey",
          "type": "string"
        }
      ],
      "name": "getMetadata",
      "outputs": [
        {
          "internalType": "bytes",
          "name": "",
          "type": "bytes"
        }
      ],
      "stateMutability": "view",
      "type": "function"
    },
    {
      "inputs": [
        {
          "internalType": "address",
          "name": "owner",
          "type": "address"
        },
        {
          "internalType": "address",
          "name": "operator",
          "type": "address"
        }
      ],
      "name": "isApprovedForAll",
      "outputs": [
        {
          "internalType": "bool",
          "name": "",
          "type": "bool"
        }
      ],
      "stateMutability": "view",
      "type": "function"
    },
    {
      "inputs": [],
      "name": "name",
      "outputs": [
        {
          "internalType": "string",
          "name": "",
          "type": "string"
        }
      ],
      "stateMutability": "view",
      "type": "function"
    },
    {
      "inputs": [
        {
          "internalType": "uint256",
          "name": "",
          "type": "uint256"
        }
      ],
      "name": "operators",
      "outputs": [
        {
          "internalType": "address",
          "name": "",
          "type": "address"
        }
      ],
      "stateMutability": "view",
      "type": "function"
    },
    {
      "inputs": [],
      "name": "owner",
      "outputs": [
        {
          "internalType": "address",
          "name": "",
          "type": "address"
        }
      ],
      "stateMutability": "view",
      "type": "function"
    },
    {
      "inputs": [
        {
          "internalType": "uint256",
          "name": "tokenId",
          "type": "uint256"
        }
      ],
      "name": "ownerOf",
      "outputs": [
        {
          "internalType": "address",
          "name": "",
          "type": "address"
        }
      ],
      "stateMutability": "view",
      "type": "function"
    },
    {
      "inputs": [
        {
          "internalType": "string",
          "name": "agentURI",
          "type": "string"
        },
        {
          "internalType": "string[]",
          "name": "keys",
          "type": "string[]"
        },
        {
          "internalType": "bytes[]",
          "name": "values",
          "type": "bytes[]"
        }
      ],
      "name": "register",
      "outputs": [
        {
          "internalType": "uint256",
          "name": "agentId",
          "type": "uint256"
        }
      ],
      "stateMutability": "nonpayable",
      "type": "function"
    },
    {
      "inputs": [
        {
          "internalType": "string",
          "name": "agentURI",
          "type": "string"
        }
      ],
      "name": "register",
      "outputs": [
        {
          "internalType": "uint256",
          "name": "agentId",
          "type": "uint256"
        }
      ],
      "stateMutability": "nonpayable",
      "type": "function"
    },
    {
      "inputs": [],
      "name": "renounceOwnership",
      "outputs": [],
      "stateMutability": "nonpayable",
      "type": "function"
    },
    {
      "inputs": [
        {
          "internalType": "address",
          "name": "from",
          "type": "address"
        },
        {
          "internalType": "address",
          "name": "to",
          "type": "address"
        },
        {
          "internalType": "uint256",
          "name": "tokenId",
          "type": "uint256"
        }
      ],
      "name": "safeTransferFrom",
      "outputs": [],
      "stateMutability": "nonpayable",
      "type": "function"
    },
    {
      "inputs": [
        {
          "internalType": "address",
          "name": "from",
          "type": "address"
        },
        {
          "internalType": "address",
          "name": "to",
          "type": "address"
        },
        {
          "internalType": "uint256",
          "name": "tokenId",
          "type": "uint256"
        },
        {
          "internalType": "bytes",
          "name": "data",
          "type": "bytes"
        }
      ],
      "name": "safeTransferFrom",
      "outputs": [],
      "stateMutability": "nonpayable",
      "type": "function"
    },
    {
      "inputs": [
        {
          "internalType": "uint256",
          "name": "agentId",
          "type": "uint256"
        },
        {
          "internalType": "string",
          "name": "newURI",
          "type": "string"
        }
      ],
      "name": "setAgentURI",
      "outputs": [],
      "stateMutability": "nonpayable",
      "type": "function"
    },
    {
      "inputs": [
        {
          "internalType": "address",
          "name": "operator",
          "type": "address"
        },
        {
          "internalType": "bool",
          "name": "approved",
          "type": "bool"
        }
      ],
      "name": "setApprovalForAll",
      "outputs": [],
      "stateMutability": "nonpayable",
      "type": "function"
    },
    {
      "inputs": [
        {
          "internalType": "uint256",
          "name": "agentId",
          "type": "uint256"
        },
        {
          "internalType": "string",
          "name": "metadataKey",
          "type": "string"
        },
        {
          "internalType": "bytes",
          "name": "metadataValue",
          "type": "bytes"
        }
      ],
      "name": "setMetadata",
      "outputs": [],
      "stateMutability": "nonpayable",
      "type": "function"
    },
    {
      "inputs": [
        {
          "internalType": "uint256",
          "name": "agentId",
          "type": "uint256"
        },
        {
          "internalType": "address",
          "name": "operator",
          "type": "address"
        }
      ],
      "name": "setOperator",
      "outputs": [],
      "stateMutability": "nonpayable",
      "type": "function"
    },
    {
      "inputs": [
        {
          "internalType": "bytes4",
          "name": "interfaceId",
          "type": "bytes4"
        }
      ],
      "name": "supportsInterface",
      "outputs": [
        {
          "internalType": "bool",
          "name": "",
          "type": "bool"
        }
      ],
      "stateMutability": "view",
      "type": "function"
    },
    {
      "inputs": [],
      "name": "symbol",
      "outputs": [
        {
          "internalType": "string",
          "name": "",
          "type": "string"
        }
      ],
      "stateMutability": "view",
      "type": "function"
    },
    {
      "inputs": [
        {
          "internalType": "uint256",
          "name": "tokenId",
          "type": "uint256"
        }
      ],
      "name": "tokenURI",
      "outputs": [
        {
          "internalType": "string",
          "name": "",
          "type": "string"
        }
      ],
      "stateMutability": "view",
      "type": "function"
    },
    {
      "inputs": [],
      "name": "totalAgents",
      "outputs": [
        {
          "internalType": "uint256",
          "name": "",
          "type": "uint256"
        }
      ],
      "stateMutability": "view",
      "type": "function"
    },
    {
      "inputs": [
        {
          "internalType": "address",
          "name": "from",
          "type": "address"
        },
        {
          "internalType": "address",
          "name": "to",
          "type": "address"
        },
        {
          "internalType": "uint256",
          "name": "tokenId",
          "type": "uint256"
        }
      ],
      "name": "transferFrom",
      "outputs": [],
      "stateMutability": "nonpayable",
      "type": "function"
    },
    {
      "inputs": [
        {
          "internalType": "address",
          "name": "newOwner",
          "type": "address"
        }
      ],
      "name": "transferOwnership",
      "outputs": [],
      "stateMutability": "nonpayable",
      "type": "function"
    },
    {
      "inputs": [
        {
          "internalType": "uint256",
          "name": "agentId",
          "type": "uint256"
        },
        {
          "internalType": "address",
          "name": "newWallet",
          "type": "address"
        },
        {
          "internalType": "bytes",
          "name": "proof",
          "type": "bytes"
        }
      ],
      "name": "updateAgentWallet",
      "outputs": [],
      "stateMutability": "nonpayable",
      "type": "function"
    }
  ],
  "bytecode": "0x60803462000390576001600160401b0390604090808201838111828210176200037a578252601781526020917f4552432d38303034204167656e74204964656e7469747900000000000000000083830152805193818501858110828211176200037a57825260058552641051d1539560da1b8486015282518181116200037a576000948554916001958684811c941680156200036f575b838510146200035b578190601f9485811162000308575b508390858311600114620002a457899262000298575b5050600019600383901b1c191690861b1786555b8651928311620002845784548581811c9116801562000279575b8282101462000265578281116200021d575b5080918311600114620001b4575084958293949592620001a8575b5050600019600383901b1c191690831b1782555b3315620001915760078054336001600160a01b03198216811790925591519390916001600160a01b0316907f8be0079c531659141344cd1fd0a4f28419497f9722a3daafe3b4186f6b6457e09080a3600855611d179081620003968239f35b51631e4fbdf760e01b815260048101839052602490fd5b0151905038806200011e565b90601f198316968587528287209287905b898210620002055750508386979896959610620001eb575b505050811b01825562000132565b015160001960f88460031b161c19169055388080620001dd565b808885968294968601518155019501930190620001c5565b8587528187208380860160051c8201928487106200025b575b0160051c019086905b8281106200024f57505062000103565b8881550186906200023f565b9250819262000236565b634e487b7160e01b87526022600452602487fd5b90607f1690620000f1565b634e487b7160e01b86526041600452602486fd5b015190503880620000c3565b898052848a208994509190601f1984168b5b87828210620002f15750508411620002d7575b505050811b018655620000d7565b015160001960f88460031b161c19169055388080620002c9565b8385015186558c97909501949384019301620002b6565b9091508880528389208580850160051c82019286861062000351575b918a91869594930160051c01915b82811062000342575050620000ad565b8b81558594508a910162000332565b9250819262000324565b634e487b7160e01b88526022600452602488fd5b93607f169362000096565b634e487b7160e01b600052604160045260246000fd5b600080fdfe608080604052600436101561001357600080fd5b60003560e01c90816301ffc9a71461116f5750806306fdde03146110c4578063081812fc14611086578063095ea7b314610f9f5780630af28bd314610f1857806323b872dd14610f0157806342842e0e14610ed3578063466648da14610cbd578063512c607414610b8e5780635491e75d146108195780636352211e146107e957806370a0823114610790578063715018a61461073357806378396cb3146104c65780638da5cb5b1461070a57806395d89b4114610627578063a22cb46514610582578063b88d4fde14610526578063c5053712146104e5578063c87b56dd146104c6578063cb4799f2146103fe578063e28d4906146103ca578063e7a1c1c014610325578063e985e9c5146102cf578063ebf1f8591461029b578063f2c298be146101d65763f2fde38b1461014857600080fd5b346101d15760203660031901126101d15761016161123c565b610169611b68565b6001600160a01b039081169081156101b857600754826001600160601b0360a01b821617600755167f8be0079c531659141344cd1fd0a4f28419497f9722a3daafe3b4186f6b6457e0600080a3005b604051631e4fbdf760e01b815260006004820152602490fd5b600080fd5b346101d15760203660031901126101d1576004356001600160401b0381116101d15761029061020b6020923690600401611268565b907f0d063c6022bff16d09991a9f91882ffa112f5fb2529136f65eb4c77bbd047e4360085493849261023c846116c3565b600855610249843361193a565b61025d610257368784611321565b85611800565b83600052600b87526040600020336001600160601b0360a01b825416179055604051918291888352339689840191611476565b0390a3604051908152f35b346101d15760203660031901126101d157600435600052600b602052602060018060a01b0360406000205416604051908152f35b346101d15760403660031901126101d1576102e861123c565b6102f0611252565b9060018060a01b03809116600052600560205260406000209116600052602052602060ff604060002054166040519015158152f35b346101d15760403660031901126101d157600435610341611252565b9061034b81611764565b6001600160a01b039033908216036103a7578160005260096020526040600020921691826001600160601b0360a01b8254161790557f712369dba77e7931b9ec3bd57319108256b9f79ea5b5255122e3c06117421593600080a3005b604051636fd3623960e01b815260048101839052336024820152604490fd5b0390fd5b346101d15760203660031901126101d1576004356000526009602052602060018060a01b0360406000205416604051908152f35b346101d15760403660031901126101d1576004356024356001600160401b0381116101d157610431903690600401611358565b90801515806104bb575b156104a35761048b61046f602061049f9461048494600052600a8252604060002082604051948386809551938492016111f4565b820190815203019020604051928380926113e0565b03826112e5565b604051918291602083526020830190611217565b0390f35b6024906040519063f0b2366d60e01b82526004820152fd5b50600854811061043b565b346101d15760203660031901126101d15761049f61048b600435611729565b346101d15760003660031901126101d157600854600019810190811161051057602090604051908152f35b634e487b7160e01b600052601160045260246000fd5b346101d15760803660031901126101d15761053f61123c565b610547611252565b90604435606435926001600160401b0384116101d15761056e610580943690600401611358565b9261057a838383611497565b33611b94565b005b346101d15760403660031901126101d15761059b61123c565b602435908115158092036101d1576001600160a01b031690811561060e57336000526005602052604060002082600052602052604060002060ff1981541660ff83161790556040519081527f17307eab39ab6107e8899845ad3d59bd9653f200f220920489ca2b5937696c3160203392a3005b604051630b61174360e31b815260048101839052602490fd5b346101d15760003660031901126101d15760405160006001826001549261064d846113a6565b92838352602094856001821691826000146106ea57505060011461068d575b50610679925003836112e5565b61049f604051928284938452830190611217565b84915060016000527fb10e2d527612073b26eecdfd717e6a320cf44b4afac2b0732d9fcbe2b7fa0cf6906000915b8583106106d257505061067993508201018561066c565b805483890185015287945086939092019181016106bb565b60ff19168582015261067995151560051b850101925087915061066c9050565b346101d15760003660031901126101d1576007546040516001600160a01b039091168152602090f35b346101d15760003660031901126101d15761074c611b68565b600780546001600160a01b031981169091556000906001600160a01b03167f8be0079c531659141344cd1fd0a4f28419497f9722a3daafe3b4186f6b6457e08280a3005b346101d15760203660031901126101d1576001600160a01b036107b161123c565b1680156107d05760005260036020526020604060002054604051908152f35b6040516322718ad960e21b815260006004820152602490fd5b346101d15760203660031901126101d1576020610807600435611764565b6040516001600160a01b039091168152f35b346101d15760603660031901126101d1576004356001600160401b0381116101d157610849903690600401611268565b6024356001600160401b0381116101d157610868903690600401611376565b91906044356001600160401b0381116101d157610889903690600401611376565b9093818103610b4957939190600854946108a2866116c3565b6008556108af863361193a565b6108c36108bd36878a611321565b87611800565b6000868152600b6020526040812080546001600160a01b03191633179055935b8185106109285760208787817f0d063c6022bff16d09991a9f91882ffa112f5fb2529136f65eb4c77bbd047e436102908d604051918291888352339689840191611476565b61094261093b8684879b9a99989b6116d2565b3691611321565b60208151910120610951611636565b6020815191012014610b1d576109688884836116d2565b8760009a929a52600a6020526040600020602061098684878a6116d2565b92836040519485938437820190815203019020906001600160401b038111610b07576109bc816109b684546113a6565b8461166d565b6000601f8211600114610a975790806109f6926001969798999a9b9c9d600092610a8c575b50508160011b916000199060031b1c19161790565b90555b7f2c149ed548c6d2993cd73efe187df6eccabe4538091b33adbd25fafdb8a1468b88610a2683878a6116d2565b9290610a7f610a36868a8d6116d2565b919092610a44888d8c6116d2565b97909181604051928392833781016000815203902096610a71604051958695604087526040870191611476565b918483036020860152611476565b0390a301939291906108e3565b013590508d806109e1565b8260005260206000209060005b601f1984168110610aef57509b600195969798999a9b9c83601f19811610610ad5575b505050831b830190556109f9565b0135600019600384901b60f8161c191690558b8080610ac7565b8d820135835560019092019160209182019101610aa4565b634e487b7160e01b600052604160045260246000fd5b6103c6610b28611636565b60405163c1e0918360e01b8152602060048201529182916024830190611217565b60405162461bcd60e51b815260206004820152601b60248201527f4b6579732f76616c756573206c656e677468206d69736d6174636800000000006044820152606490fd5b346101d15760603660031901126101d157600435610baa611252565b906044356001600160401b0381116101d157610bca903690600401611268565b9092610bd58361179f565b6001600160a01b0316928315610c7f578115610c49577f97fb1cd148e38c8a6cb69d8a9a375ae268c04aaa8cc44d668463a5aeb07f2e879183600052600b6020526040600020856001600160601b0360a01b825416179055610c44604051928392602084526020840191611476565b0390a3005b60405162461bcd60e51b815260206004820152600e60248201526d141c9bdbd9881c995c5d5a5c995960921b6044820152606490fd5b60405162461bcd60e51b8152602060048201526016602482015275496e76616c69642077616c6c6574206164647265737360501b6044820152606490fd5b346101d15760603660031901126101d1576001600160401b036004356024358281116101d157610cf1903690600401611358565b6044358381116101d157610d09903690600401611358565b92610d138361179f565b8151602091828401918220610d26611636565b84815191012014610ea75784600052600a835260406000208360405180928751610d518184896111f4565b820190815203019020908651908111610b0757610d72816109b684546113a6565b83601f8211600114610e14577f2c149ed548c6d2993cd73efe187df6eccabe4538091b33adbd25fafdb8a1468b9593610c4493610dce84610dfc9895610de295600091610e09575b508160011b916000199060031b1c19161790565b90555b6040518092819287519283916111f4565b810103902096604051948594604086526040860190611217565b9184830390850152611217565b90508c01518d610dba565b601f1982169083600052856000209160005b8a828210610e9057505093600184610de2947f2c149ed548c6d2993cd73efe187df6eccabe4538091b33adbd25fafdb8a1468b9a9894610dfc9a97610c449910610e77575b5050811b019055610dd1565b8d015160001960f88460031b161c191690558c80610e6b565b600184958a93958493015181550194019201610e26565b82610eb0611636565b906103c660405192839263c1e0918360e01b845260048401526024830190611217565b346101d157610580610ee436611295565b9060405192610ef2846112ca565b6000845261057a838383611497565b346101d157610580610f1236611295565b91611497565b346101d15760403660031901126101d1576004356024356001600160401b0381116101d157610f6c7fe335f4a32c56fb32eb92f5084017a5836fcdc9307d02f49f27dd61f0f6a434a8913690600401611268565b610f758461179f565b610f83610257368385611321565b610f9a604051928392602084526020840191611476565b0390a2005b346101d15760403660031901126101d157610fb861123c565b602435610fc481611764565b33151580611073575b80611046575b61102e576001600160a01b039283169282918491167f8c5be1e5ebec7d5bd14f71427d1e84f3dd0314c0f7b2291e5b200ac8c7c3b925600080a4600090815260046020526040902080546001600160a01b0319169091179055005b60405163a9fbf51f60e01b8152336004820152602490fd5b5060018060a01b038116600052600560205260406000203360005260205260ff6040600020541615610fd3565b506001600160a01b038116331415610fcd565b346101d15760203660031901126101d1576004356110a381611764565b506000526004602052602060018060a01b0360406000205416604051908152f35b346101d15760003660031901126101d1576040516000805490826110e7836113a6565b91828252602093600190856001821691826000146106ea5750506001146111155750610679925003836112e5565b6000808052859250907f290decd9548b62a8d60345a988386fc84ba6bc95484008f6362f93160ef3e5635b85831061115757505061067993508201018561066c565b80548389018501528794508693909201918101611140565b346101d15760203660031901126101d1576004359063ffffffff60e01b82168092036101d157602091632483248360e11b81149081156111b1575b5015158152f35b6380ac58cd60e01b8114915081156111e3575b81156111d2575b50836111aa565b6301ffc9a760e01b149050836111cb565b635b5e139f60e01b811491506111c4565b60005b8381106112075750506000910152565b81810151838201526020016111f7565b90602091611230815180928185528580860191016111f4565b601f01601f1916010190565b600435906001600160a01b03821682036101d157565b602435906001600160a01b03821682036101d157565b9181601f840112156101d1578235916001600160401b0383116101d157602083818601950101116101d157565b60609060031901126101d1576001600160a01b039060043582811681036101d1579160243590811681036101d1579060443590565b602081019081106001600160401b03821117610b0757604052565b90601f801991011681019081106001600160401b03821117610b0757604052565b6001600160401b038111610b0757601f01601f191660200190565b92919261132d82611306565b9161133b60405193846112e5565b8294818452818301116101d1578281602093846000960137010152565b9080601f830112156101d15781602061137393359101611321565b90565b9181601f840112156101d1578235916001600160401b0383116101d1576020808501948460051b0101116101d157565b90600182811c921680156113d6575b60208310146113c057565b634e487b7160e01b600052602260045260246000fd5b91607f16916113b5565b8054600093926113ef826113a6565b918282526020936001916001811690816000146114575750600114611416575b5050505050565b90939495506000929192528360002092846000945b8386106114435750505050010190388080808061140f565b80548587018301529401938590820161142b565b60ff19168685015250505090151560051b01019150388080808061140f565b908060209392818452848401376000828201840152601f01601f1916010190565b6001600160a01b03918216929091831561161d57600092828452826020956002875260409684888820541696879133151580611587575b509060027fddf252ad1be2c89b69c2b068fc378daa952ba7f163c4a11628f55a4df523b3ef9284611554575b858352600381528b8320805460010190558683525289812080546001600160a01b0319168517905580a416928383036115335750505050565b6064945051926364283d7b60e01b8452600484015260248301526044820152fd5b600087815260046020526040902080546001600160a01b0319169055848352600381528b832080546000190190556114fa565b919394509150806115dc575b156115a3578592918791386114ce565b8786886115c0576024915190637e27328960e01b82526004820152fd5b604491519063177e802f60e01b82523360048301526024820152fd5b503387148015611601575b806115935750858252600481523385898420541614611593565b5086825260058152878220338352815260ff88832054166115e7565b604051633250574960e11b815260006004820152602490fd5b60405190604082018281106001600160401b03821117610b0757604052600b82526a1859d95b9d15d85b1b195d60aa1b6020830152565b90601f811161167b57505050565b6000916000526020600020906020601f850160051c830194106116b9575b601f0160051c01915b8281106116ae57505050565b8181556001016116a2565b9092508290611699565b60001981146105105760010190565b91908110156117135760051b81013590601e19813603018212156101d15701908135916001600160401b0383116101d15760200182360381136101d1579190565b634e487b7160e01b600052603260045260246000fd5b61173281611764565b5060005260066020526104846117526040600020604051928380926113e0565b6000604051611760816112ca565b5290565b6000818152600260205260409020546001600160a01b0316908115611787575090565b60249060405190637e27328960e01b82526004820152fd5b6117a881611764565b336001600160a01b03918216141590816117e5575b506117c55750565b604051636fd3623960e01b81526004810191909152336024820152604490fd5b905081600052600960205260406000205416331415386117bd565b9190916000908082526020916006835260408120908551956001600160401b0387116119265761183a8761183485546113a6565b8561166d565b8491601f88116001146118a2579661188b9281927ff8e1a15aba9398e019f0b49df1a4fde98ee17ae345cb5f6b5e2c27f5033e8ce79899926118975750508160011b916000199060031b1c19161790565b90555b604051908152a1565b0151905038806109e1565b9190601f198816848452868420935b81811061190f57509160019391897ff8e1a15aba9398e019f0b49df1a4fde98ee17ae345cb5f6b5e2c27f5033e8ce7999a94106118f6575b505050811b01905561188e565b015160001960f88460031b161c191690553880806118e9565b9293876001819287860151815501950193016118b1565b634e487b7160e01b82526041600452602482fd5b60408051611947816112ca565b6000808252936001600160a01b03848116949092908515611b505782875260209360028552858820541683878215159283611b1d575b818b5260038852888b2080546001019055828b5260028852888b2080546001600160a01b031916831790557fddf252ad1be2c89b69c2b068fc378daa952ba7f163c4a11628f55a4df523b3ef8b80a4611b05573b6119de575b505050505050565b82611a1c918596979894955180938192630a85bd0160e11b968784523360048501528c60248501526044840152608060648401526084830190611217565b03818a8a5af1879181611ac1575b50611a8a575050503d600014611a81573d611a4481611306565b90611a51845192836112e5565b81528094823d92013e5b83519384611a7b578251633250574960e11b815260048101859052602490fd5b84925001fd5b60609350611a5b565b919550915063ffffffff60e01b1603611aaa5750503880808080806119d6565b602492505190633250574960e11b82526004820152fd5b9091508481813d8311611afe575b611ad981836112e5565b81010312611afa57516001600160e01b031981168103611afa579038611a2a565b8780fd5b503d611acf565b84516339e3563760e11b815260048101889052602490fd5b600083815260046020526040902080546001600160a01b0319169055808b5260038852888b20805460001901905561197d565b8451633250574960e11b815260048101889052602490fd5b6007546001600160a01b03163303611b7c57565b60405163118cdaa760e01b8152336004820152602490fd5b90939192833b611ba5575050505050565b604051630a85bd0160e11b8082526001600160a01b039384166004830152958316602482015260448101919091526080606482015294921692602092918590611bf2906084830190611217565b039483816000978189895af1869181611c9d575b50611c67575050503d600014611c5e573d611c2081611306565b90611c2e60405192836112e5565b81528093823d92013e5b82519283611c5957604051633250574960e11b815260048101849052602490fd5b019050fd5b60609250611c38565b919450915063ffffffff60e01b1603611c855750388080808061140f565b60249060405190633250574960e11b82526004820152fd5b9091508481813d8311611cda575b611cb581836112e5565b81010312611cd657516001600160e01b031981168103611cd6579038611c06565b8680fd5b503d611cab56fea2646970667358221220b4b8e2a1aea494904a6ad33986bb5cde5bdffab55f96e19d3071198c4ca15a8064736f6c63430008180033",
  "linkReferences": {},
  "deployedLinkReferences": {}
}