{
  "_format": "hh-sol-artifact-1",
  "contractName": "TailRiskUnderwriter",
  "sourceName": "contracts/TailRiskUnderwriter.sol",
  "abi": [
    {
      "anonymous": false,
      "inputs": [
        {
          "indexed": true,
          "internalType": "uint256",
          "name": "policyId",
          "type": "uint256"
        },
        {
          "indexed": true,
          "internalType": "address",
          "name": "owner",
          "type": "address"
        },
        {
          "indexed": false,
          "internalType": "uint256",
          "name": "payoutWei",
          "type": "uint256"
        },
        {
          "indexed": false,
          "internalType": "bytes32",
          "name": "reasonHash",
          "type": "bytes32"
        }
      ],
      "name": "ClaimSettled",
      "type": "event"
    },
    {
      "anonymous": false,
      "inputs": [
        {
          "indexed": true,
          "internalType": "uint256",
          "name": "policyId",
          "type": "uint256"
        },
        {
          "indexed": true,
          "internalType": "address",
          "name": "owner",
          "type": "address"
        },
        {
          "indexed": false,
          "internalType": "uint256",
          "name": "premiumWei",
          "type": "uint256"
        },
        {
          "indexed": false,
          "internalType": "uint256",
          "name": "coverageWei",
          "type": "uint256"
        },
        {
          "indexed": false,
          "internalType": "uint8",
          "name": "riskTier",
          "type": "uint8"
        }
      ],
      "name": "PolicyIssued",
      "type": "event"
    },
    {
      "inputs": [
        {
          "internalType": "uint256",
          "name": "coverageWei",
          "type": "uint256"
        },
        {
          "internalType": "uint8",
          "name": "riskTier",
          "type": "uint8"
        }
      ],
      "name": "issuePolicy",
      "outputs": [
        {
          "internalType": "uint256",
          "name": "policyId",
          "type": "uint256"
        }
      ],
      "stateMutability": "payable",
      "type": "function"
    },
    {
      "inputs": [],
      "name": "nextPolicyId",
      "outputs": [
        {
          "internalType": "uint256",
          "name": "",
          "type": "uint256"
        }
      ],
      "stateMutability": "view",
      "type": "function"
    },
    {
      "inputs": [
        {
          "internalType": "uint256",
          "name": "",
          "type": "uint256"
        }
      ],
      "name": "policies",
      "outputs": [
        {
          "internalType": "address",
          "name": "owner",
          "type": "address"
        },
        {
          "internalType": "uint256",
          "name": "premiumWei",
          "type": "uint256"
        },
        {
          "internalType": "uint256",
          "name": "coverageWei",
          "type": "uint256"
        },
        {
          "internalType": "uint8",
          "name": "riskTier",
          "type": "uint8"
        },
        {
          "internalType": "bool",
          "name": "active",
          "type": "bool"
        }
      ],
      "stateMutability": "view",
      "type": "function"
    },
    {
      "inputs": [
        {
          "internalType": "uint256",
          "name": "policyId",
          "type": "uint256"
        },
        {
          "internalType": "uint256",
          "name": "payoutWei",
          "type": "uint256"
        },
        {
          "internalType": "bytes32",
          "name": "reasonHash",
          "type": "bytes32"
        }
      ],
      "name": "settleClaim",
      "outputs": [],
      "stateMutability": "nonpayable",
      "type": "function"
    },
    {
      "stateMutability": "payable",
      "type": "receive"
    }
  ],
  "bytecode": "0x6080806040523461001657610461908161001c8239f35b600080fdfe608060409080825260049182361015610023575b505050361561002157600080fd5b005b600091823560e01c908163c6d99bb31461027e57508063cad0b8db14610262578063d3e89483146101fd5763f714f9910361001357806003193601126101f957823560243560ff81168091036101f55734156101bf5781156101885783549360001985146101755760018501815583519060a0820182811067ffffffffffffffff8211176101625760209750855233825260ff6003888401933485528781018781526060820195878752896080840196600188528c815260018e52209260018060a01b039051166bffffffffffffffffffffffff60a01b8454161783555160018301555160028201550192511661ff0083549251151560081b169161ffff1916171790558251913483528583015282820152827f2a2da2d9003c30a9d00973aaadaf4a69e22c51ae73193c15605163eb872cbd8560603393a351908152f35b634e487b7160e01b825260418852602482fd5b634e487b7160e01b815260118652602490fd5b825162461bcd60e51b8152602081870152601160248201527018dbdd995c9859d9481c995c5d5a5c9959607a1b6044820152606490fd5b825162461bcd60e51b8152602081870152601060248201526f1c1c995b5a5d5b481c995c5d5a5c995960821b6044820152606490fd5b8380fd5b5080fd5b50823461025e57602036600319011261025e578160a09360ff9235815260016020522091600180851b0383541692600181015491600360028301549201549281519586526020860152840152818116606084015260081c1615156080820152f35b8280fd5b50346101f957816003193601126101f957602091549051908152f35b8385843461025e57606036600319011261025e578135906024928335908386526020946001865283872097600389019081549060ff8260081c16156103f9575060028a015485116103c75761ff001916905587546001600160a01b039291908890819081908190889088165af13d156103c25767ffffffffffffffff3d8181116103b057875191601f8201601f19908116603f011683019081118382101761039e578852815289893d92013e5b1561036a5750507f095a89663162419d9c5ee3c0a4f80e5d8a8336f874f24078d5417fbd230e400893949596541694825191825260443590820152a380f35b845162461bcd60e51b8152918201879052600f908201526e1d1c985b9cd9995c8819985a5b1959608a1b6044820152606490fd5b634e487b7160e01b8c5260418652848cfd5b634e487b7160e01b8b5260418552838bfd5b61032b565b855162461bcd60e51b8152808501899052600d818501526c6f76657220636f76657261676560981b6044820152606490fd5b62461bcd60e51b8152848101899052600f848201526e696e61637469766520706f6c69637960881b6044820152606490fdfea26469706673582212207cdaae8dbbbd556f5f360e4cf6cc0c9d69b36bc3cd4497a01eeb52cf0a19bc7564736f6c63430008180033",
  "linkReferences": {},
  "deployedLinkReferences": {}
}