{
  "_format": "hh-sol-artifact-1",
  "contractName": "ReputationRegistry",
  "sourceName": "contracts/ReputationRegistry.sol",
  "abi": [
    {
      "inputs": [],
      "name": "InvalidAgentId",
      "type": "error"
    },
    {
      "inputs": [
        {
          "internalType": "uint8",
          "name": "score",
          "type": "uint8"
        }
      ],
      "name": "InvalidScore",
      "type": "error"
    },
    {
      "inputs": [
        {
          "internalType": "address",
          "name": "reviewer",
          "type": "address"
        },
        {
          "internalType": "uint256",
          "name": "cooldownEnds",
          "type": "uint256"
        }
      ],
      "name": "ReviewCooldownActive",
      "type": "error"
    },
    {
      "anonymous": false,
      "inputs": [
        {
          "indexed": true,
          "internalType": "uint256",
          "name": "agentId",
          "type": "uint256"
        },
        {
          "indexed": true,
          "internalType": "address",
          "name": "reviewer",
          "type": "address"
        },
        {
          "indexed": false,
          "internalType": "uint8",
          "name": "score",
          "type": "uint8"
        },
        {
          "indexed": false,
          "internalType": "enum ReputationRegistry.FeedbackType",
          "name": "feedbackType",
          "type": "uint8"
        },
        {
          "indexed": false,
          "internalType": "bytes32",
          "name": "evidenceHash",
          "type": "bytes32"
        }
      ],
      "name": "FeedbackPosted",
      "type": "event"
    },
    {
      "anonymous": false,
      "inputs": [
        {
          "indexed": true,
          "internalType": "uint256",
          "name": "agentId",
          "type": "uint256"
        },
        {
          "indexed": false,
          "internalType": "uint256",
          "name": "newAverageScore",
          "type": "uint256"
        },
        {
          "indexed": false,
          "internalType": "uint256",
          "name": "totalFeedback",
          "type": "uint256"
        }
      ],
      "name": "ReputationUpdated",
      "type": "event"
    },
    {
      "inputs": [],
      "name": "REVIEW_COOLDOWN",
      "outputs": [
        {
          "internalType": "uint256",
          "name": "",
          "type": "uint256"
        }
      ],
      "stateMutability": "view",
      "type": "function"
    },
    {
      "inputs": [
        {
          "internalType": "uint256",
          "name": "agentId",
          "type": "uint256"
        }
      ],
      "name": "getAverageScore",
      "outputs": [
        {
          "internalType": "uint256",
          "name": "",
          "type": "uint256"
        }
      ],
      "stateMutability": "view",
      "type": "function"
    },
    {
      "inputs": [
        {
          "internalType": "uint256",
          "name": "agentId",
          "type": "uint256"
        }
      ],
      "name": "getFeedbackCount",
      "outputs": [
        {
          "internalType": "uint256",
          "name": "",
          "type": "uint256"
        }
      ],
      "stateMutability": "view",
      "type": "function"
    },
    {
      "inputs": [
        {
          "internalType": "uint256",
          "name": "agentId",
          "type": "uint256"
        },
        {
          "internalType": "uint256",
          "name": "offset",
          "type": "uint256"
        },
        {
          "internalType": "uint256",
          "name": "limit",
          "type": "uint256"
        }
      ],
      "name": "getFeedbacks",
      "outputs": [
        {
          "components": [
            {
              "internalType": "address",
              "name": "reviewer",
              "type": "address"
            },
            {
              "internalType": "uint256",
              "name": "agentId",
              "type": "uint256"
            },
            {
              "internalType": "uint8",
              "name": "score",
              "type": "uint8"
            },
            {
              "internalType": "enum ReputationRegistry.FeedbackType",
              "name": "feedbackType",
              "type": "uint8"
            },
            {
              "internalType": "string",
              "name": "comment",
              "type": "string"
            },
            {
              "internalType": "uint256",
              "name": "timestamp",
              "type": "uint256"
            },
            {
              "internalType": "bytes32",
              "name": "evidenceHash",
              "type": "bytes32"
            }
          ],
          "internalType": "struct ReputationRegistry.Feedback[]",
          "name": "",
          "type": "tuple[]"
        }
      ],
      "stateMutability": "view",
      "type": "function"
    },
    {
      "inputs": [
        {
          "internalType": "uint256",
          "name": "agentId",
          "type": "uint256"
        }
      ],
      "name": "getTrustScore",
      "outputs": [
        {
          "internalType": "uint256",
          "name": "",
          "type": "uint256"
        }
      ],
      "stateMutability": "view",
      "type": "function"
    },
    {
      "inputs": [
        {
          "internalType": "address",
          "name": "",
          "type": "address"
        },
        {
          "internalType": "uint256",
          "name": "",
          "type": "uint256"
        }
      ],
      "name": "lastReviewTimestamp",
      "outputs": [
        {
          "internalType": "uint256",
          "name": "",
          "type": "uint256"
        }
      ],
      "stateMutability": "view",
      "type": "function"
    },
    {
      "inputs": [
        {
          "internalType": "uint256",
          "name": "agentId",
          "type": "uint256"
        },
        {
          "internalType": "uint8",
          "name": "score",
          "type": "uint8"
        },
        {
          "internalType": "enum ReputationRegistry.FeedbackType",
          "name": "feedbackType",
          "type": "uint8"
        },
        {
          "internalType": "string",
          "name": "comment",
          "type": "string"
        },
        {
          "internalType": "bytes32",
          "name": "evidenceHash",
          "type": "bytes32"
        }
      ],
      "name": "postFeedback",
      "outputs": [],
      "stateMutability": "nonpayable",
      "type": "function"
    },
    {
      "inputs": [
        {
          "internalType": "uint256",
          "name": "",
          "type": "uint256"
        }
      ],
      "name": "reputations",
      "outputs": [
        {
          "internalType": "uint256",
          "name": "totalFeedback",
          "type": "uint256"
        },
        {
          "internalType": "uint256",
          "name": "totalScore",
          "type": "uint256"
        },
        {
          "internalType": "uint256",
          "name": "claimPayouts",
          "type": "uint256"
        },
        {
          "internalType": "uint256",
          "name": "rebalances",
          "type": "uint256"
        },
        {
          "internalType": "uint256",
          "name": "premiumPricings",
          "type": "uint256"
        },
        {
          "internalType": "uint8",
          "name": "latestScore",
          "type": "uint8"
        }
      ],
      "stateMutability": "view",
      "type": "function"
    }
  ],
  "bytecode": "0x6080806040523461001657610c1a908161001c8239f35b600080fdfe608080604052600436101561001357600080fd5b60003560e01c90816314496ba7146104d9575080633b84d62b146101bb5780634537b7641461018f57806372fa9b851461012957806383f3d4481461010b578063de3a2b59146100e5578063e22fc561146100995763f53d6e171461007757600080fd5b34610094576000366003190112610094576020604051610e108152f35b600080fd5b34610094576040366003190112610094576004356001600160a01b0381169081900361009457600052600260205260406000206024356000526020526020604060002054604051908152f35b34610094576020366003190112610094576020610103600435610bb8565b604051908152f35b34610094576020366003190112610094576020610103600435610ae6565b3461009457602036600319011261009457600435600052600160205260c06040600020805490600181015490600281015460038201549060ff600560048501549401541693604051958652602086015260408501526060840152608083015260a0820152f35b346100945760203660031901126100945760043560005260006020526020604060002054604051908152f35b3461009457606036600319011261009457600435600052600060205260406000206101ea6044356024356109b2565b81548082116104d1575b506024358111156104c95760243581039081116104b3575b61021581610aba565b9161022360405193846109f1565b81835261022f82610aba565b601f190160005b81811061046b57505060005b82811061033b578360405160208101916020825280518093526040820192602060408260051b8501019201936000905b82821061027f5784840385f35b909192603f1985820301825285519060018060a01b0382511681526020820151602082015260ff60408301511660408201526102c36060830151606083019061098f565b608060e081840151918301528051908160e084015260005b828110610324575050600192602092839261010092600084838501015260a0808201519084015260c08091015190830152601f8019910116010197019201920190949291610272565b8060208092840101516101008287010152016102db565b61035061034a826024356109b2565b83610a1f565b506040519061035e826109bf565b80546001600160a01b0316825260018101546020830152600281015460ff80821660408501526103959160081c1660608401610a13565b6040516003820180546000916103aa82610a51565b8085529160018116908115610444575060011461040a575b505091816103d8600593600197969503826109f1565b6080840152600481015460a0840152015460c08201526103f88287610ad2565b526104038186610ad2565b5001610242565b6000908152602081209092505b81831061042e5750508101602001816103d86103c2565b6001816020925483868801015201920191610417565b60ff191660208087019190915292151560051b850190920192508391506103d890506103c2565b60209060405161047a816109bf565b60008152600083820152600060408201526000606082015260606080820152600060a0820152600060c082015282828801015201610236565b634e487b7160e01b600052601160045260246000fd5b50600061020c565b9050826101f4565b346100945760a03660031901126100945760249081359160ff831683036100945760046044351015610094576064359067ffffffffffffffff90818311610094573660238401121561009457826004013593828511610094573682868601011161009457600435156109805750606460ff861611610968573360005260026020526040600020600435600052602052604060002054610e1081018091116109535780421061093657506004356000526000602052604060002092604051936105a0856109bf565b33855260208501956004358752604086019160ff891683526000602060608901936105cd60443586610a13565b8088604051986105e685601f19601f860116018b6109f1565b828a52018389013786010152608087019384524260a088015260843560c088015280549068010000000000000000821015610921579061062b91600182018155610a1f565b97909761090c5760018060a01b038751166bffffffffffffffffffffffff60a01b89541617885551600188015560ff600288019251168254915160048110156108f75761ff009060081b169161ffff191617179055519081519283116108e357506106996003850154610a51565b601f811161089c575b50602090601f83116001146108295791806005949260c09460009261081e575b50508160011b916000199060031b1c19161760038501555b60a0810151600485015501519101553360005260026020526040600020600435600052602052426040600020556001602052604060002061071b8154610a8b565b81556107676001820161073260ff851682546109b2565b815560058301805460ff191660ff86161790556044356107e7576002830161075a8154610a8b565b90555b5491548092610a9a565b9160ff604051911681526107806020820160443561098f565b608435604082015233907f1f076cd1f3e165d476ee14de802db5b9336c6e60c19bde714b86f87ac72737b4606060043592a360405191825260208201527fd9f66501c000653403d74ddfa62a75c8dd44cc05d910ee81bf1d852262dd5fa1604060043592a2005b60443560010361080657600383016107ff8154610a8b565b905561075d565b60026044350361075d57600483016107ff8154610a8b565b0151905087806106c2565b90601f198316916003860160005260206000209260005b818110610884575092600192859260c096600598961061086b575b505050811b0160038501556106da565b015160001960f88460031b161c1916905587808061085b565b92936020600181928786015181550195019301610840565b600385016000526020600020601f840160051c8101602085106108dc575b601f830160051c820181106108d05750506106a2565b600081556001016108ba565b50806108ba565b634e487b7160e01b60009081526041600452fd5b85634e487b7160e01b60005260216004526000fd5b84634e487b7160e01b60005260006004526000fd5b85634e487b7160e01b60005260416004526000fd5b604051636e89a8f760e11b81523360048201529182015260449150fd5b50634e487b7160e01b60009081526011600452fd5b6040516306fae60560e11b815260ff86166004820152fd5b63e6394a7760e01b8152600490fd5b90600482101561099c5752565b634e487b7160e01b600052602160045260246000fd5b919082018092116104b357565b60e0810190811067ffffffffffffffff8211176109db57604052565b634e487b7160e01b600052604160045260246000fd5b90601f8019910116810190811067ffffffffffffffff8211176109db57604052565b600482101561099c5752565b8054821015610a3b576000526006602060002091020190600090565b634e487b7160e01b600052603260045260246000fd5b90600182811c92168015610a81575b6020831014610a6b57565b634e487b7160e01b600052602260045260246000fd5b91607f1691610a60565b60001981146104b35760010190565b8115610aa4570490565b634e487b7160e01b600052601260045260246000fd5b67ffffffffffffffff81116109db5760051b60200190565b8051821015610a3b5760209160051b010190565b6000908152600180602052604082208054908115610bb257816001610b0c920154610a9a565b9060018101809111610b9e579183925b818111610b89575050818102918183041490151715610b75576106a49182821115610b4957505050606490565b606482029180830460641490151715610b6157500490565b634e487b7160e01b81526011600452602490fd5b634e487b7160e01b82526011600452602482fd5b610b97908294921c91610a8b565b9290610b1c565b634e487b7160e01b84526011600452602484fd5b50505090565b6000526001602052604060002080548015610bdd576001610bda920154610a9a565b90565b505060009056fea2646970667358221220aeb73dd4b814b1ae9ef0e7c286a57a35aac203ea4572df7c99e83b802e828cbc64736f6c63430008180033",
  "linkReferences": {},
  "deployedLinkReferences": {}
}