{
  "_format": "hh-sol-artifact-1",
  "contractName": "AgentWallet",
  "sourceName": "contracts/AgentWallet.sol",
  "abi": [
    {
      "inputs": [
        {
          "internalType": "address",
          "name": "agentSigner",
          "type": "address"
        }
      ],
      "stateMutability": "nonpayable",
      "type": "constructor"
    },
    {
      "inputs": [
        {
          "internalType": "address",
          "name": "target",
          "type": "address"
        },
        {
          "internalType": "uint256",
          "name": "limit",
          "type": "uint256"
        },
        {
          "internalType": "uint256",
          "name": "spent",
          "type": "uint256"
        }
      ],
      "name": "DailyLimitExceeded",
      "type": "error"
    },
    {
      "inputs": [
        {
          "internalType": "uint256",
          "name": "deadline",
          "type": "uint256"
        },
        {
          "internalType": "uint256",
          "name": "current",
          "type": "uint256"
        }
      ],
      "name": "DeadlineExpired",
      "type": "error"
    },
    {
      "inputs": [],
      "name": "ECDSAInvalidSignature",
      "type": "error"
    },
    {
      "inputs": [
        {
          "internalType": "uint256",
          "name": "length",
          "type": "uint256"
        }
      ],
      "name": "ECDSAInvalidSignatureLength",
      "type": "error"
    },
    {
      "inputs": [
        {
          "internalType": "bytes32",
          "name": "s",
          "type": "bytes32"
        }
      ],
      "name": "ECDSAInvalidSignatureS",
      "type": "error"
    },
    {
      "inputs": [
        {
          "internalType": "bytes",
          "name": "returnData",
          "type": "bytes"
        }
      ],
      "name": "ExecutionFailed",
      "type": "error"
    },
    {
      "inputs": [
        {
          "internalType": "uint256",
          "name": "expected",
          "type": "uint256"
        },
        {
          "internalType": "uint256",
          "name": "provided",
          "type": "uint256"
        }
      ],
      "name": "InvalidNonce",
      "type": "error"
    },
    {
      "inputs": [],
      "name": "InvalidShortString",
      "type": "error"
    },
    {
      "inputs": [
        {
          "internalType": "address",
          "name": "owner",
          "type": "address"
        }
      ],
      "name": "OwnableInvalidOwner",
      "type": "error"
    },
    {
      "inputs": [
        {
          "internalType": "address",
          "name": "account",
          "type": "address"
        }
      ],
      "name": "OwnableUnauthorizedAccount",
      "type": "error"
    },
    {
      "inputs": [
        {
          "internalType": "string",
          "name": "str",
          "type": "string"
        }
      ],
      "name": "StringTooLong",
      "type": "error"
    },
    {
      "inputs": [
        {
          "internalType": "address",
          "name": "signer",
          "type": "address"
        }
      ],
      "name": "UnauthorizedSigner",
      "type": "error"
    },
    {
      "anonymous": false,
      "inputs": [
        {
          "indexed": true,
          "internalType": "address",
          "name": "target",
          "type": "address"
        },
        {
          "indexed": false,
          "internalType": "uint256",
          "name": "value",
          "type": "uint256"
        },
        {
          "indexed": false,
          "internalType": "bytes",
          "name": "data",
          "type": "bytes"
        },
        {
          "indexed": false,
          "internalType": "uint256",
          "name": "nonce",
          "type": "uint256"
        }
      ],
      "name": "ActionExecuted",
      "type": "event"
    },
    {
      "anonymous": false,
      "inputs": [
        {
          "indexed": true,
          "internalType": "address",
          "name": "target",
          "type": "address"
        },
        {
          "indexed": false,
          "internalType": "uint256",
          "name": "limit",
          "type": "uint256"
        }
      ],
      "name": "DailyLimitSet",
      "type": "event"
    },
    {
      "anonymous": false,
      "inputs": [],
      "name": "EIP712DomainChanged",
      "type": "event"
    },
    {
      "anonymous": false,
      "inputs": [
        {
          "indexed": true,
          "internalType": "address",
          "name": "previousOwner",
          "type": "address"
        },
        {
          "indexed": true,
          "internalType": "address",
          "name": "newOwner",
          "type": "address"
        }
      ],
      "name": "OwnershipTransferred",
      "type": "event"
    },
    {
      "anonymous": false,
      "inputs": [
        {
          "indexed": true,
          "internalType": "address",
          "name": "signer",
          "type": "address"
        },
        {
          "indexed": false,
          "internalType": "bool",
          "name": "authorized",
          "type": "bool"
        }
      ],
      "name": "SignerAuthorized",
      "type": "event"
    },
    {
      "stateMutability": "payable",
      "type": "fallback"
    },
    {
      "inputs": [
        {
          "internalType": "address",
          "name": "",
          "type": "address"
        }
      ],
      "name": "authorizedSigners",
      "outputs": [
        {
          "internalType": "bool",
          "name": "",
          "type": "bool"
        }
      ],
      "stateMutability": "view",
      "type": "function"
    },
    {
      "inputs": [
        {
          "internalType": "address",
          "name": "",
          "type": "address"
        }
      ],
      "name": "dailyLimit",
      "outputs": [
        {
          "internalType": "uint256",
          "name": "",
          "type": "uint256"
        }
      ],
      "stateMutability": "view",
      "type": "function"
    },
    {
      "inputs": [
        {
          "internalType": "address",
          "name": "",
          "type": "address"
        }
      ],
      "name": "dailySpent",
      "outputs": [
        {
          "internalType": "uint256",
          "name": "",
          "type": "uint256"
        }
      ],
      "stateMutability": "view",
      "type": "function"
    },
    {
      "inputs": [],
      "name": "eip712Domain",
      "outputs": [
        {
          "internalType": "bytes1",
          "name": "fields",
          "type": "bytes1"
        },
        {
          "internalType": "string",
          "name": "name",
          "type": "string"
        },
        {
          "internalType": "string",
          "name": "version",
          "type": "string"
        },
        {
          "internalType": "uint256",
          "name": "chainId",
          "type": "uint256"
        },
        {
          "internalType": "address",
          "name": "verifyingContract",
          "type": "address"
        },
        {
          "internalType": "bytes32",
          "name": "salt",
          "type": "bytes32"
        },
        {
          "internalType": "uint256[]",
          "name": "extensions",
          "type": "uint256[]"
        }
      ],
      "stateMutability": "view",
      "type": "function"
    },
    {
      "inputs": [
        {
          "components": [
            {
              "internalType": "address",
              "name": "target",
              "type": "address"
            },
            {
              "internalType": "uint256",
              "name": "value",
              "type": "uint256"
            },
            {
              "internalType": "bytes",
              "name": "data",
              "type": "bytes"
            },
            {
              "internalType": "uint256",
              "name": "nonce",
              "type": "uint256"
            },
            {
              "internalType": "uint256",
              "name": "deadline",
              "type": "uint256"
            }
          ],
          "internalType": "struct AgentWallet.AgentAction",
          "name": "action",
          "type": "tuple"
        },
        {
          "internalType": "bytes",
          "name": "signature",
          "type": "bytes"
        }
      ],
      "name": "execute",
      "outputs": [
        {
          "internalType": "bytes",
          "name": "returnData",
          "type": "bytes"
        }
      ],
      "stateMutability": "nonpayable",
      "type": "function"
    },
    {
      "inputs": [
        {
          "internalType": "bytes32",
          "name": "hash",
          "type": "bytes32"
        },
        {
          "internalType": "bytes",
          "name": "signature",
          "type": "bytes"
        }
      ],
      "name": "isValidSignature",
      "outputs": [
        {
          "internalType": "bytes4",
          "name": "",
          "type": "bytes4"
        }
      ],
      "stateMutability": "view",
      "type": "function"
    },
    {
      "inputs": [
        {
          "internalType": "address",
          "name": "",
          "type": "address"
        }
      ],
      "name": "lastSpendDay",
      "outputs": [
        {
          "internalType": "uint256",
          "name": "",
          "type": "uint256"
        }
      ],
      "stateMutability": "view",
      "type": "function"
    },
    {
      "inputs": [],
      "name": "nonce",
      "outputs": [
        {
          "internalType": "uint256",
          "name": "",
          "type": "uint256"
        }
      ],
      "stateMutability": "view",
      "type": "function"
    },
    {
      "inputs": [],
      "name": "owner",
      "outputs": [
        {
          "internalType": "address",
          "name": "",
          "type": "address"
        }
      ],
      "stateMutability": "view",
      "type": "function"
    },
    {
      "inputs": [],
      "name": "renounceOwnership",
      "outputs": [],
      "stateMutability": "nonpayable",
      "type": "function"
    },
    {
      "inputs": [
        {
          "internalType": "address",
          "name": "target",
          "type": "address"
        },
        {
          "internalType": "uint256",
          "name": "limit",
          "type": "uint256"
        }
      ],
      "name": "setDailyLimit",
      "outputs": [],
      "stateMutability": "nonpayable",
      "type": "function"
    },
    {
      "inputs": [
        {
          "internalType": "address",
          "name": "signer",
          "type": "address"
        },
        {
          "internalType": "bool",
          "name": "authorized",
          "type": "bool"
        }
      ],
      "name": "setSigner",
      "outputs": [],
      "stateMutability": "nonpayable",
      "type": "function"
    },
    {
      "inputs": [
        {
          "internalType": "address",
          "name": "newOwner",
          "type": "address"
        }
      ],
      "name": "transferOwnership",
      "outputs": [],
      "stateMutability": "nonpayable",
      "type": "function"
    },
    {
      "stateMutability": "payable",
      "type": "receive"
    }
  ],
  "bytecode": "0x610160346200023d576001600160401b0390601f620015ee38819003918201601f191683019291848411838510176200022757808392604095865283396020928391810103126200023d57516001600160a01b039290838116908190036200023d578151926200006f8462000242565b600b8452808401946a1059d95b9d15d85b1b195d60aa1b8652835196620000968862000242565b60018852828801603160f81b8152620000af876200025e565b97610120988952620000c18a62000431565b97610140988952519020988960e05251902061010098818a524660a052865191858301917f8b73c3c69bb8fe3d512ecc4cf759cc79239f7b179b0ffacaa9a75d522b39400f83528884015260608301524660808301523060a083015260a0825260c0820192828410908411176200022757828752815190206080523060c05233156200021057505060028054336001600160a01b03198216811790925585517fd71d7c88579d0d5858da8cb9f6c4ce94826a5391ff03edf44f6a431180a1a6f59493909291167f8be0079c531659141344cd1fd0a4f28419497f9722a3daafe3b4186f6b6457e0600080a3836000526004825284600020600160ff1982541617905560018152a2519161100f9384620005df853960805184610c56015260a05184610d22015260c05184610c20015260e05184610ca501525183610ccb015251826102520152518161027c0152f35b631e4fbdf760e01b8252600060c490910152602490fd5b634e487b7160e01b600052604160045260246000fd5b600080fd5b604081019081106001600160401b038211176200022757604052565b80516020919082811015620002fd575090601f8251116200029c57808251920151908083106200028d57501790565b82600019910360031b1b161790565b90604051809263305a27a960e01b82528060048301528251908160248401526000935b828510620002e3575050604492506000838284010152601f80199101168101030190fd5b8481018201518686016044015293810193859350620002bf565b6001600160401b03811162000227576000928354926001938481811c9116801562000426575b838210146200041257601f8111620003dc575b5081601f8411600114620003755750928293918392869462000369575b50501b916000199060031b1c191617905560ff90565b01519250388062000353565b919083601f1981168780528488209488905b88838310620003c15750505010620003a7575b505050811b01905560ff90565b015160001960f88460031b161c191690553880806200039a565b85870151885590960195948501948793509081019062000387565b85805284601f848820920160051c820191601f860160051c015b8281106200040657505062000336565b878155018590620003f6565b634e487b7160e01b86526022600452602486fd5b90607f169062000323565b805160209081811015620004bf5750601f8251116200045e57808251920151908083106200028d57501790565b90604051809263305a27a960e01b82528060048301528251908160248401526000935b828510620004a5575050604492506000838284010152601f80199101168101030190fd5b848101820151868601604401529381019385935062000481565b9192916001600160401b038111620002275760019182548381811c91168015620005d3575b82821014620005bd57601f811162000584575b5080601f8311600114620005375750819293946000926200052b575b5050600019600383901b1c191690821b17905560ff90565b01519050388062000513565b90601f198316958460005282600020926000905b8882106200056c5750508385969710620003a757505050811b01905560ff90565b8087859682949686015181550195019301906200054b565b8360005283601f83600020920160051c820191601f850160051c015b828110620005b0575050620004f7565b60008155018490620005a0565b634e487b7160e01b600052602260045260246000fd5b90607f1690620004e456fe6040608081526004908136101561001d575b5050361561001b57005b005b600091823560e01c9081631626ba7e1461091e5781632803212f146108b657816331cb61051461083a5781633e6fb639146103f75781635d2b6a4e146103ba578163715018a61461035a57816384b0196e1461023a5781638da5cb5b14610211578163affed0e0146101f2578163e10aa51f146101ba578163f2fde38b1461012657508063f3f51415146100ef5763ffc8ada60361001157346100eb5760203660031901126100eb5760209181906001600160a01b036100db610a2d565b1681526006845220549051908152f35b5080fd5b50346100eb5760203660031901126100eb5760209181906001600160a01b03610116610a2d565b1681526005845220549051908152f35b9050346101b65760203660031901126101b657610141610a2d565b9061014a610b30565b6001600160a01b039182169283156101a0575050600254826bffffffffffffffffffffffff60a01b821617600255167f8be0079c531659141344cd1fd0a4f28419497f9722a3daafe3b4186f6b6457e08380a380f35b51631e4fbdf760e01b8152908101849052602490fd5b8280fd5b5050346100eb5760203660031901126100eb5760209181906001600160a01b036101e2610a2d565b1681526007845220549051908152f35b5050346100eb57816003193601126100eb576020906003549051908152f35b5050346100eb57816003193601126100eb5760025490516001600160a01b039091168152602090f35b919050346101b657826003193601126101b6576102767f0000000000000000000000000000000000000000000000000000000000000000610d48565b926102a07f0000000000000000000000000000000000000000000000000000000000000000610e70565b90825192602092602085019585871067ffffffffffffffff88111761034757509260206102fd8388966102f0998b9996528686528151998a99600f60f81b8b5260e0868c015260e08b0190610a43565b91898303908a0152610a43565b924660608801523060808801528460a088015286840360c088015251928381520193925b82811061033057505050500390f35b835185528695509381019392810192600101610321565b634e487b7160e01b845260419052602483fd5b83346103b757806003193601126103b757610373610b30565b600280546001600160a01b0319811690915581906001600160a01b03167f8be0079c531659141344cd1fd0a4f28419497f9722a3daafe3b4186f6b6457e08280a380f35b80fd5b9050346101b65760203660031901126101b65760209260ff918391906001600160a01b036103e6610a2d565b168252855220541690519015158152f35b8383346100eb576003199181833601126103b757833567ffffffffffffffff938482116101b65760a08287019183360301126101b657602435908582116108365736602383011215610836578187013586811161083257366024828501011161083257608484013596874211610815576064850135916003548084036107f9575061048184610ac6565b94604460248801359701926104a06104998588610ada565b36916109f1565b9a8b516020809d0120918b51918d8301937fbe279b1059cf53c6ce8a69735f426c83210c85c739accac82d47d3553c82f93d85528d60018060a01b03809c16908501528b606085015260808401528760a084015260c083015260c0825260e0820190828210908211176107e55761055c9360428d610553958c989561054d95835251902061052c610c1d565b91519161190160f01b835260028301526022820152209260243692016109f1565b90610b5c565b90929192610b98565b1680875289895260ff8888205416156107cf5750841515806107b2575b6106ab575b600354600019811461069857600101600355858061059b85610ac6565b876105a68588610ada565b9190828d519384928337810185815203925af1983d15610690573d996105cb8b6109d5565b9a6105d88a519c8d6109b3565b8b523d888b8d013e5b1561066c5750937fb56464e8d66d94a0da93b5495a1a309fd739f8031e00f46008743a8e8d0c468093836080936106276106689a99986106218d98610ac6565b93610ada565b80999160608c51998a98895288015281606088015287870137848901860152888401521694601f01601f19168101030190a251928284938452830190610a43565b0390f35b87516315fcd67560e01b81529081018990528061068c602482018c610a43565b0390fd5b6060996105e1565b634e487b7160e01b875260118a52602487fd5b620151804204846106bb85610ac6565b16875260078952808888205410610781575b50836106d884610ac6565b168652600688526106ec8588882054610b0d565b846106f685610ac6565b16875260058952878720541061072c578361071084610ac6565b16865260068852868620610725868254610b0d565b905561057e565b50509260649692508490600661074186610ac6565b978461074c88610ac6565b1683528461075d8585205498610ac6565b1683525220549351631abec70560e11b815294169084015260248301526044820152fd5b8461078b85610ac6565b168752600689528688812055846107a185610ac6565b1687526007895287872055896106cd565b50836107bd84610ac6565b16865260058852868620541515610579565b8960249189519163e74c68bb60e01b8352820152fd5b50634e487b7160e01b8a5260418d5260248afd5b8a846044928b51926306427aeb60e01b84528301526024820152fd5b86516302a07ebf60e31b8152808a01899052426024820152604490fd5b8480fd5b8380fd5b919050346101b657806003193601126101b657610855610a2d565b602435801515809103610832577fd71d7c88579d0d5858da8cb9f6c4ce94826a5391ff03edf44f6a431180a1a6f59260209261088f610b30565b6001600160a01b0316808752948352808620805460ff191660ff841617905551908152a280f35b5050346100eb57806003193601126100eb577fd3d22ffd28b02735cf411bd7f925bd8da01212c7028153e0d632e2953ac3088e60206108f3610a2d565b602435906108ff610b30565b6001600160a01b0316808652600583528486208290559351908152a280f35b8284346103b757816003193601126103b7576024359067ffffffffffffffff82116103b757366023830112156103b7575060209261096861096f92369060248185013591016109f1565b9035610a83565b90516001600160e01b03199091168152f35b6040810190811067ffffffffffffffff82111761099d57604052565b634e487b7160e01b600052604160045260246000fd5b90601f8019910116810190811067ffffffffffffffff82111761099d57604052565b67ffffffffffffffff811161099d57601f01601f191660200190565b9291926109fd826109d5565b91610a0b60405193846109b3565b829481845281830111610a28578281602093846000960137010152565b600080fd5b600435906001600160a01b0382168203610a2857565b919082519283825260005b848110610a6f575050826000602080949584010152601f8019910116010190565b602081830181015184830182015201610a4e565b610a909161055391610b5c565b6001600160a01b031660009081526004602052604090205460ff16610abb576001600160e01b031990565b630b135d3f60e11b90565b356001600160a01b0381168103610a285790565b903590601e1981360301821215610a28570180359067ffffffffffffffff8211610a2857602001918136038313610a2857565b91908201809211610b1a57565b634e487b7160e01b600052601160045260246000fd5b6002546001600160a01b03163303610b4457565b60405163118cdaa760e01b8152336004820152602490fd5b8151919060418303610b8d57610b8692506020820151906060604084015193015160001a90610f49565b9192909190565b505060009160029190565b6004811015610c075780610baa575050565b60018103610bc45760405163f645eedf60e01b8152600490fd5b60028103610be55760405163fce698f760e01b815260048101839052602490fd5b600314610bef5750565b602490604051906335e2f38360e21b82526004820152fd5b634e487b7160e01b600052602160045260246000fd5b307f00000000000000000000000000000000000000000000000000000000000000006001600160a01b03161480610d1f575b15610c78577f000000000000000000000000000000000000000000000000000000000000000090565b60405160208101907f8b73c3c69bb8fe3d512ecc4cf759cc79239f7b179b0ffacaa9a75d522b39400f82527f000000000000000000000000000000000000000000000000000000000000000060408201527f000000000000000000000000000000000000000000000000000000000000000060608201524660808201523060a082015260a0815260c0810181811067ffffffffffffffff82111761099d5760405251902090565b507f00000000000000000000000000000000000000000000000000000000000000004614610c4f565b60ff8114610d865760ff811690601f8211610d745760405191610d6a83610981565b8252602082015290565b604051632cd44ac360e21b8152600490fd5b50604051600080549060018260011c9060018416938415610e66575b6020948584108114610e525783875286949392918115610e325750600114610dd6575b5050610dd3925003826109b3565b90565b60008080527f290decd9548b62a8d60345a988386fc84ba6bc95484008f6362f93160ef3e56395935091905b818310610e1a575050610dd393508201013880610dc5565b85548784018501529485019486945091830191610e02565b915050610dd394925060ff191682840152151560051b8201013880610dc5565b634e487b7160e01b85526022600452602485fd5b91607f1691610da2565b60ff8114610e925760ff811690601f8211610d745760405191610d6a83610981565b506040516000600190600154918260011c9060018416938415610f3f575b6020948584108114610e525783875286949392918115610e325750600114610ee0575050610dd3925003826109b3565b9093915060016000527fb10e2d527612073b26eecdfd717e6a320cf44b4afac2b0732d9fcbe2b7fa0cf6936000915b818310610f27575050610dd393508201013880610dc5565b85548784018501529485019486945091830191610f0f565b91607f1691610eb0565b91907f7fffffffffffffffffffffffffffffff5d576e7357a4501ddfe92f46681b20a08411610fcd57926020929160ff608095604051948552168484015260408301526060820152600092839182805260015afa15610fc15780516001600160a01b03811615610fb857918190565b50809160019190565b604051903d90823e3d90fd5b5050506000916003919056fea2646970667358221220d9acbdc59f2e3d6ed7585863fc624e539348160a36d11c5cc65cfeb3944fc2c164736f6c63430008180033",
  "linkReferences": {},
  "deployedLinkReferences": {}
}