{
  "_format": "hh-sol-artifact-1",
  "contractName": "TailRiskVault",
  "sourceName": "contracts/TailRiskVault.sol",
  "abi": [
    {
      "inputs": [
        {
          "internalType": "address",
          "name": "_usdc",
          "type": "address"
        },
        {
          "internalType": "address",
          "name": "_validationRegistry",
          "type": "address"
        },
        {
          "internalType": "uint256",
          "name": "_agentId",
          "type": "uint256"
        }
      ],
      "stateMutability": "nonpayable",
      "type": "constructor"
    },
    {
      "inputs": [
        {
          "internalType": "uint256",
          "name": "policyId",
          "type": "uint256"
        }
      ],
      "name": "AlreadyClaimed",
      "type": "error"
    },
    {
      "inputs": [],
      "name": "ClaimLimitReached",
      "type": "error"
    },
    {
      "inputs": [
        {
          "internalType": "uint256",
          "name": "available",
          "type": "uint256"
        },
        {
          "internalType": "uint256",
          "name": "required",
          "type": "uint256"
        }
      ],
      "name": "InsufficientLiquidity",
      "type": "error"
    },
    {
      "inputs": [
        {
          "internalType": "address",
          "name": "provider",
          "type": "address"
        },
        {
          "internalType": "uint256",
          "name": "shares",
          "type": "uint256"
        }
      ],
      "name": "InsufficientShares",
      "type": "error"
    },
    {
      "inputs": [
        {
          "internalType": "address",
          "name": "caller",
          "type": "address"
        },
        {
          "internalType": "uint256",
          "name": "policyId",
          "type": "uint256"
        }
      ],
      "name": "NotPolicyHolder",
      "type": "error"
    },
    {
      "inputs": [
        {
          "internalType": "address",
          "name": "owner",
          "type": "address"
        }
      ],
      "name": "OwnableInvalidOwner",
      "type": "error"
    },
    {
      "inputs": [
        {
          "internalType": "address",
          "name": "account",
          "type": "address"
        }
      ],
      "name": "OwnableUnauthorizedAccount",
      "type": "error"
    },
    {
      "inputs": [
        {
          "internalType": "uint256",
          "name": "policyId",
          "type": "uint256"
        }
      ],
      "name": "PolicyExpired",
      "type": "error"
    },
    {
      "inputs": [
        {
          "internalType": "uint256",
          "name": "policyId",
          "type": "uint256"
        }
      ],
      "name": "PolicyNotActive",
      "type": "error"
    },
    {
      "inputs": [],
      "name": "ReentrancyGuardReentrantCall",
      "type": "error"
    },
    {
      "inputs": [
        {
          "internalType": "address",
          "name": "token",
          "type": "address"
        }
      ],
      "name": "SafeERC20FailedOperation",
      "type": "error"
    },
    {
      "anonymous": false,
      "inputs": [
        {
          "indexed": false,
          "internalType": "uint256",
          "name": "newRateBps",
          "type": "uint256"
        }
      ],
      "name": "BaseRateUpdated",
      "type": "event"
    },
    {
      "anonymous": false,
      "inputs": [
        {
          "indexed": true,
          "internalType": "uint256",
          "name": "claimId",
          "type": "uint256"
        },
        {
          "indexed": true,
          "internalType": "uint256",
          "name": "policyId",
          "type": "uint256"
        },
        {
          "indexed": false,
          "internalType": "bool",
          "name": "approved",
          "type": "bool"
        },
        {
          "indexed": false,
          "internalType": "uint256",
          "name": "paidAmount",
          "type": "uint256"
        }
      ],
      "name": "ClaimProcessed",
      "type": "event"
    },
    {
      "anonymous": false,
      "inputs": [
        {
          "indexed": true,
          "internalType": "uint256",
          "name": "claimId",
          "type": "uint256"
        },
        {
          "indexed": true,
          "internalType": "uint256",
          "name": "policyId",
          "type": "uint256"
        },
        {
          "indexed": false,
          "internalType": "uint256",
          "name": "requestedAmount",
          "type": "uint256"
        }
      ],
      "name": "ClaimSubmitted",
      "type": "event"
    },
    {
      "anonymous": false,
      "inputs": [
        {
          "indexed": true,
          "internalType": "address",
          "name": "provider",
          "type": "address"
        },
        {
          "indexed": false,
          "internalType": "uint256",
          "name": "amount",
          "type": "uint256"
        },
        {
          "indexed": false,
          "internalType": "uint256",
          "name": "shares",
          "type": "uint256"
        }
      ],
      "name": "LiquidityAdded",
      "type": "event"
    },
    {
      "anonymous": false,
      "inputs": [
        {
          "indexed": true,
          "internalType": "address",
          "name": "provider",
          "type": "address"
        },
        {
          "indexed": false,
          "internalType": "uint256",
          "name": "shares",
          "type": "uint256"
        },
        {
          "indexed": false,
          "internalType": "uint256",
          "name": "amount",
          "type": "uint256"
        }
      ],
      "name": "LiquidityRemoved",
      "type": "event"
    },
    {
      "anonymous": false,
      "inputs": [
        {
          "indexed": true,
          "internalType": "address",
          "name": "previousOwner",
          "type": "address"
        },
        {
          "indexed": true,
          "internalType": "address",
          "name": "newOwner",
          "type": "address"
        }
      ],
      "name": "OwnershipTransferred",
      "type": "event"
    },
    {
      "anonymous": false,
      "inputs": [
        {
          "indexed": true,
          "internalType": "uint256",
          "name": "policyId",
          "type": "uint256"
        },
        {
          "indexed": true,
          "internalType": "address",
          "name": "holder",
          "type": "address"
        },
        {
          "indexed": false,
          "internalType": "uint256",
          "name": "premium",
          "type": "uint256"
        },
        {
          "indexed": false,
          "internalType": "uint256",
          "name": "coverage",
          "type": "uint256"
        },
        {
          "indexed": false,
          "internalType": "uint256",
          "name": "riskScore",
          "type": "uint256"
        }
      ],
      "name": "PolicyPurchased",
      "type": "event"
    },
    {
      "anonymous": false,
      "inputs": [
        {
          "indexed": false,
          "internalType": "uint256",
          "name": "newScore",
          "type": "uint256"
        }
      ],
      "name": "RiskScoreUpdated",
      "type": "event"
    },
    {
      "inputs": [
        {
          "internalType": "uint256",
          "name": "amount",
          "type": "uint256"
        }
      ],
      "name": "addLiquidity",
      "outputs": [],
      "stateMutability": "nonpayable",
      "type": "function"
    },
    {
      "inputs": [],
      "name": "agentId",
      "outputs": [
        {
          "internalType": "uint256",
          "name": "",
          "type": "uint256"
        }
      ],
      "stateMutability": "view",
      "type": "function"
    },
    {
      "inputs": [],
      "name": "baseRateBps",
      "outputs": [
        {
          "internalType": "uint256",
          "name": "",
          "type": "uint256"
        }
      ],
      "stateMutability": "view",
      "type": "function"
    },
    {
      "inputs": [
        {
          "internalType": "uint256",
          "name": "",
          "type": "uint256"
        }
      ],
      "name": "claims",
      "outputs": [
        {
          "internalType": "uint256",
          "name": "claimId",
          "type": "uint256"
        },
        {
          "internalType": "uint256",
          "name": "policyId",
          "type": "uint256"
        },
        {
          "internalType": "address",
          "name": "claimant",
          "type": "address"
        },
        {
          "internalType": "uint256",
          "name": "requestedAmount",
          "type": "uint256"
        },
        {
          "internalType": "uint256",
          "name": "approvedAmount",
          "type": "uint256"
        },
        {
          "internalType": "bool",
          "name": "processed",
          "type": "bool"
        },
        {
          "internalType": "bool",
          "name": "approved",
          "type": "bool"
        },
        {
          "internalType": "bytes32",
          "name": "evidenceHash",
          "type": "bytes32"
        },
        {
          "internalType": "uint256",
          "name": "validationRequestId",
          "type": "uint256"
        }
      ],
      "stateMutability": "view",
      "type": "function"
    },
    {
      "inputs": [],
      "name": "claimsToday",
      "outputs": [
        {
          "internalType": "uint256",
          "name": "",
          "type": "uint256"
        }
      ],
      "stateMutability": "view",
      "type": "function"
    },
    {
      "inputs": [
        {
          "internalType": "uint256",
          "name": "claimId",
          "type": "uint256"
        }
      ],
      "name": "getClaim",
      "outputs": [
        {
          "components": [
            {
              "internalType": "uint256",
              "name": "claimId",
              "type": "uint256"
            },
            {
              "internalType": "uint256",
              "name": "policyId",
              "type": "uint256"
            },
            {
              "internalType": "address",
              "name": "claimant",
              "type": "address"
            },
            {
              "internalType": "uint256",
              "name": "requestedAmount",
              "type": "uint256"
            },
            {
              "internalType": "uint256",
              "name": "approvedAmount",
              "type": "uint256"
            },
            {
              "internalType": "bool",
              "name": "processed",
              "type": "bool"
            },
            {
              "internalType": "bool",
              "name": "approved",
              "type": "bool"
            },
            {
              "internalType": "bytes32",
              "name": "evidenceHash",
              "type": "bytes32"
            },
            {
              "internalType": "uint256",
              "name": "validationRequestId",
              "type": "uint256"
            }
          ],
          "internalType": "struct TailRiskVault.Claim",
          "name": "",
          "type": "tuple"
        }
      ],
      "stateMutability": "view",
      "type": "function"
    },
    {
      "inputs": [
        {
          "internalType": "address",
          "name": "holder",
          "type": "address"
        }
      ],
      "name": "getHolderPolicies",
      "outputs": [
        {
          "internalType": "uint256[]",
          "name": "",
          "type": "uint256[]"
        }
      ],
      "stateMutability": "view",
      "type": "function"
    },
    {
      "inputs": [
        {
          "internalType": "address",
          "name": "provider",
          "type": "address"
        }
      ],
      "name": "getLPValue",
      "outputs": [
        {
          "internalType": "uint256",
          "name": "",
          "type": "uint256"
        }
      ],
      "stateMutability": "view",
      "type": "function"
    },
    {
      "inputs": [
        {
          "internalType": "uint256",
          "name": "policyId",
          "type": "uint256"
        }
      ],
      "name": "getPolicy",
      "outputs": [
        {
          "components": [
            {
              "internalType": "uint256",
              "name": "policyId",
              "type": "uint256"
            },
            {
              "internalType": "address",
              "name": "holder",
              "type": "address"
            },
            {
              "internalType": "uint256",
              "name": "premium",
              "type": "uint256"
            },
            {
              "internalType": "uint256",
              "name": "coverage",
              "type": "uint256"
            },
            {
              "internalType": "uint256",
              "name": "startTime",
              "type": "uint256"
            },
            {
              "internalType": "uint256",
              "name": "endTime",
              "type": "uint256"
            },
            {
              "internalType": "uint256",
              "name": "riskScore",
              "type": "uint256"
            },
            {
              "internalType": "bool",
              "name": "active",
              "type": "bool"
            },
            {
              "internalType": "bool",
              "name": "claimed",
              "type": "bool"
            }
          ],
          "internalType": "struct TailRiskVault.Policy",
          "name": "",
          "type": "tuple"
        }
      ],
      "stateMutability": "view",
      "type": "function"
    },
    {
      "inputs": [
        {
          "internalType": "address",
          "name": "",
          "type": "address"
        },
        {
          "internalType": "uint256",
          "name": "",
          "type": "uint256"
        }
      ],
      "name": "holderPolicies",
      "outputs": [
        {
          "internalType": "uint256",
          "name": "",
          "type": "uint256"
        }
      ],
      "stateMutability": "view",
      "type": "function"
    },
    {
      "inputs": [],
      "name": "lastClaimDay",
      "outputs": [
        {
          "internalType": "uint256",
          "name": "",
          "type": "uint256"
        }
      ],
      "stateMutability": "view",
      "type": "function"
    },
    {
      "inputs": [
        {
          "internalType": "address",
          "name": "",
          "type": "address"
        }
      ],
      "name": "lpShares",
      "outputs": [
        {
          "internalType": "uint256",
          "name": "",
          "type": "uint256"
        }
      ],
      "stateMutability": "view",
      "type": "function"
    },
    {
      "inputs": [],
      "name": "maxClaimsPerDay",
      "outputs": [
        {
          "internalType": "uint256",
          "name": "",
          "type": "uint256"
        }
      ],
      "stateMutability": "view",
      "type": "function"
    },
    {
      "inputs": [],
      "name": "maxCoverageRatio",
      "outputs": [
        {
          "internalType": "uint256",
          "name": "",
          "type": "uint256"
        }
      ],
      "stateMutability": "view",
      "type": "function"
    },
    {
      "inputs": [],
      "name": "owner",
      "outputs": [
        {
          "internalType": "address",
          "name": "",
          "type": "address"
        }
      ],
      "stateMutability": "view",
      "type": "function"
    },
    {
      "inputs": [
        {
          "internalType": "uint256",
          "name": "",
          "type": "uint256"
        }
      ],
      "name": "policies",
      "outputs": [
        {
          "internalType": "uint256",
          "name": "policyId",
          "type": "uint256"
        },
        {
          "internalType": "address",
          "name": "holder",
          "type": "address"
        },
        {
          "internalType": "uint256",
          "name": "premium",
          "type": "uint256"
        },
        {
          "internalType": "uint256",
          "name": "coverage",
          "type": "uint256"
        },
        {
          "internalType": "uint256",
          "name": "startTime",
          "type": "uint256"
        },
        {
          "internalType": "uint256",
          "name": "endTime",
          "type": "uint256"
        },
        {
          "internalType": "uint256",
          "name": "riskScore",
          "type": "uint256"
        },
        {
          "internalType": "bool",
          "name": "active",
          "type": "bool"
        },
        {
          "internalType": "bool",
          "name": "claimed",
          "type": "bool"
        }
      ],
      "stateMutability": "view",
      "type": "function"
    },
    {
      "inputs": [
        {
          "internalType": "uint256",
          "name": "claimId",
          "type": "uint256"
        },
        {
          "internalType": "bool",
          "name": "approved",
          "type": "bool"
        },
        {
          "internalType": "uint256",
          "name": "approvedAmount",
          "type": "uint256"
        }
      ],
      "name": "processClaim",
      "outputs": [],
      "stateMutability": "nonpayable",
      "type": "function"
    },
    {
      "inputs": [
        {
          "internalType": "uint256",
          "name": "coverage",
          "type": "uint256"
        },
        {
          "internalType": "uint256",
          "name": "duration",
          "type": "uint256"
        },
        {
          "internalType": "uint256",
          "name": "riskScore",
          "type": "uint256"
        }
      ],
      "name": "purchasePolicy",
      "outputs": [
        {
          "internalType": "uint256",
          "name": "policyId",
          "type": "uint256"
        }
      ],
      "stateMutability": "nonpayable",
      "type": "function"
    },
    {
      "inputs": [
        {
          "internalType": "uint256",
          "name": "shares",
          "type": "uint256"
        }
      ],
      "name": "removeLiquidity",
      "outputs": [],
      "stateMutability": "nonpayable",
      "type": "function"
    },
    {
      "inputs": [],
      "name": "renounceOwnership",
      "outputs": [],
      "stateMutability": "nonpayable",
      "type": "function"
    },
    {
      "inputs": [
        {
          "internalType": "uint256",
          "name": "rateBps",
          "type": "uint256"
        }
      ],
      "name": "setBaseRate",
      "outputs": [],
      "stateMutability": "nonpayable",
      "type": "function"
    },
    {
      "inputs": [
        {
          "internalType": "uint256",
          "name": "policyId",
          "type": "uint256"
        },
        {
          "internalType": "uint256",
          "name": "requestedAmount",
          "type": "uint256"
        },
        {
          "internalType": "bytes32",
          "name": "evidenceHash",
          "type": "bytes32"
        }
      ],
      "name": "submitClaim",
      "outputs": [
        {
          "internalType": "uint256",
          "name": "claimId",
          "type": "uint256"
        }
      ],
      "stateMutability": "nonpayable",
      "type": "function"
    },
    {
      "inputs": [],
      "name": "totalLiquidity",
      "outputs": [
        {
          "internalType": "uint256",
          "name": "",
          "type": "uint256"
        }
      ],
      "stateMutability": "view",
      "type": "function"
    },
    {
      "inputs": [],
      "name": "totalShares",
      "outputs": [
        {
          "internalType": "uint256",
          "name": "",
          "type": "uint256"
        }
      ],
      "stateMutability": "view",
      "type": "function"
    },
    {
      "inputs": [
        {
          "internalType": "address",
          "name": "newOwner",
          "type": "address"
        }
      ],
      "name": "transferOwnership",
      "outputs": [],
      "stateMutability": "nonpayable",
      "type": "function"
    },
    {
      "inputs": [],
      "name": "usdc",
      "outputs": [
        {
          "internalType": "contract IERC20",
          "name": "",
          "type": "address"
        }
      ],
      "stateMutability": "view",
      "type": "function"
    },
    {
      "inputs": [],
      "name": "validationRegistry",
      "outputs": [
        {
          "internalType": "contract ValidationRegistry",
          "name": "",
          "type": "address"
        }
      ],
      "stateMutability": "view",
      "type": "function"
    }
  ],
  "bytecode": "0x60c03461013757601f61186f38819003918201601f19168301916001600160401b0383118484101761013c578084926060946040528339810103126101375761004781610152565b604061005560208401610152565b920151906001600055331561011e5760018054336001600160a01b031982168117909255604051946001600160a01b03939092849283167f8be0079c531659141344cd1fd0a4f28419497f9722a3daafe3b4186f6b6457e0600080a36032600a55611f40600b55600a600d55166080521660a052600c5560016002556001600355611708908161016782396080518181816107850152818161091b01528181610ed201528181611022015261115d015260a0518181816103e901528181610ade0152610fdd0152f35b604051631e4fbdf760e01b815260006004820152602490fd5b600080fd5b634e487b7160e01b600052604160045260246000fd5b51906001600160a01b03821682036101375756fe608080604052600436101561001357600080fd5b60003560e01c908163061d8a73146113f3575080630c8c94d4146113d557806315770f92146113b75780631d08837b146113325780632b07fce31461123e57806334845a0f146112205780633a98ef39146112025780633ab979d8146110515780633e413bee1461100c5780634c6b993a14610fc757806351c6590a14610ea85780635aef244714610db5578063715018a614610d58578063857d0fda14610ca45780638da5cb5b14610c7b57806395501cbd1461085957806395a4dfd2146108015780639c8f9f23146106fc578063a27344b5146106d1578063a888c2cd1461063d578063aaa6a3911461061f578063ad71f248146102e0578063c109a6dc146102a6578063d3e8948314610212578063e84f43b7146101f4578063f2fde38b1461016b5763f607fc121461014857600080fd5b34610166576000366003190112610166576020600d54604051908152f35b600080fd5b346101665760203660031901126101665761018461140e565b61018c6115a2565b6001600160a01b039081169081156101db57600154826001600160601b0360a01b821617600155167f8be0079c531659141344cd1fd0a4f28419497f9722a3daafe3b4186f6b6457e0600080a3005b604051631e4fbdf760e01b815260006004820152602490fd5b34610166576000366003190112610166576020600c54604051908152f35b34610166576020366003190112610166576004356000526004602052610120604060002060ff81549160018060a01b0360018201541690600281015460038201546004830154906005840154926007600686015495015495604051988952602089015260408801526060870152608086015260a085015260c0840152818116151560e084015260081c161515610100820152f35b34610166576020366003190112610166576001600160a01b036102c761140e565b1660005260076020526020604060002054604051908152f35b34610166576060366003190112610166576044356024356004356103026115ce565b8060005260209260048452604060002060018060a01b03908160018201541633036106005760078101549060ff8216156105e7576005015442116105ce5760081c60ff166105b55762015180420480600f54106105a7575b50600e54600d541115610595576003549361037485611555565b600355604051908682019185835281604082015284606082015260608152608081019281841067ffffffffffffffff85111761057f578360405281519020600c5463de4cc54d60e01b85526084830152600260a483015260c4820152608060e48201526000610104820152878360a4816000887f0000000000000000000000000000000000000000000000000000000000000000165af1801561057357879489948893600093610537575b505090859661050b7fcf394f7701f2b1dae6f328cbc70c1f155122b124431f95bbf4a483bba6854555976007948860405197889261045c84611452565b848452828401918252604084019033825260608501928c8452600560808701956000875260a088019860008a5261010060c08a019960008b5260e081019d8e52019c8d526000525260406000209b518c555160018c015560028b019151166001600160601b0360a01b8254161790555160038901555160048801556104f46005880192511515839060ff801983541691151516179055565b51815461ff00191690151560081b61ff0016179055565b51600684015551910155610520600e54611555565b600e55604051908152a36001600055604051908152f35b92509550938092503d831161056c575b610551818761148b565b8101031261016657915185928792909186918661050b61041f565b503d610547565b6040513d6000823e3d90fd5b634e487b7160e01b600052604160045260246000fd5b604051639907008b60e01b8152600490fd5b6000600e55600f558561035a565b60405163598b3dfd60e11b815260048101849052602490fd5b60405163b22aa54160e01b815260048101859052602490fd5b60405163a3068e7b60e01b815260048101869052602490fd5b604051631b0a054d60e11b815233600482015260248101859052604490fd5b34610166576000366003190112610166576020600a54604051908152f35b34610166576020366003190112610166576004356000526005602052610120604060002080549060018101549060ff60018060a01b03600283015416600383015460048401549060058501549260076006870154960154966040519889526020890152604088015260608701526080860152818116151560a086015260081c16151560c084015260e0830152610100820152f35b346101665760203660031901126101665760206106f46106ef61140e565b611564565b604051908152f35b34610166576020366003190112610166576004356107186115ce565b33600052600760205280604060002054106107e15761074561073c60095483611515565b60085490611528565b336000526007602052604060002061075e8382546114f2565b905561076c826008546114f2565b60085561077b816009546114f2565b6009556107a981337f00000000000000000000000000000000000000000000000000000000000000006115f1565b60405191825260208201527f96cd817c6329656790ef8fba7675405193677d39619571282f5e21f3a98cd05960403392a26001600055005b6040516303c8c6fb60e51b81523360048201526024810191909152604490fd5b346101665760403660031901126101665761081a61140e565b6001600160a01b03166000908152600660205260409020805460243591908210156101665760209161084b91611424565b90546040519160031b1c8152f35b3461016657606036600319011261016657602480356108766115ce565b60043515610c4057620151808110610c0657606460443511610bcd576108a7600954612710918291600b5490611515565b048060043511610bad5750806108c1600a54600435611515565b046064604435026044358104606414604435151715610b9857820190818311610b985782916108ef91611515565b0481830290838204831484151715610b98576301e13380610911920490611515565b049161093f8330337f0000000000000000000000000000000000000000000000000000000000000000611634565b61094b83600954611548565b6009556109676002549261095e84611555565b60025542611548565b610a2c6040519161097783611452565b84835260208301923384526104f46007604083019289845260608101946004358652608082019042825260a0830190815260c0830191604435835260e084019760018952610100850197600089528d60005260046020526040600020955186556001860160018060a01b03809d51166001600160601b0360a01b8254161790555160028601555160038501555160048401555160058301555160068201550192511515839060ff801983541691151516179055565b336000526006602052604060002080549068010000000000000000821015610b8357602092610a668360a493600160009896018155611424565b81549060031b9088821b918819901b191617905584604051858101908882526004356040820152896060820152604435608082015260808152610aa88161146f565b51902091600c5492604051978896879563de4cc54d60e01b875260048701528501526044840152608060648401528160848401527f0000000000000000000000000000000000000000000000000000000000000000165af1801561057357610b58575b50602091604051908152600435838201526044356040820152817f377904bad423a6ba6d312d0aec8f4e6ff68cc78a99aa124259f57ecb7d06236660603393a36001600055604051908152f35b602090813d8311610b7c575b610b6e818361148b565b810103126101665782610b0b565b503d610b64565b83634e487b7160e01b60005260416004526000fd5b84634e487b7160e01b60005260116004526000fd5b604490846040519163a17e11d560e01b8352600483015260043590820152fd5b60405162461bcd60e51b81526020600482015260128184015271496e76616c6964207269736b2073636f726560701b6044820152606490fd5b60405162461bcd60e51b815260206004820152601381840152724d696e206475726174696f6e3a20312064617960681b6044820152606490fd5b60405162461bcd60e51b815260206004820152601481840152730436f766572616765206d757374206265203e20360641b6044820152606490fd5b34610166576000366003190112610166576001546040516001600160a01b039091168152602090f35b3461016657602080600319360112610166576001600160a01b03610cc661140e565b1660005260068152604060002060405190818382549182815201908192600052846000209060005b86828210610d44578686610d048288038361148b565b604051928392818401908285525180915260408401929160005b828110610d2d57505050500390f35b835185528695509381019392810192600101610d1e565b835485529093019260019283019201610cee565b3461016657600036600319011261016657610d716115a2565b600180546001600160a01b031981169091556000906001600160a01b03167f8be0079c531659141344cd1fd0a4f28419497f9722a3daafe3b4186f6b6457e08280a3005b3461016657602036600319011261016657610dce6114ad565b5060043560005260056020526101206040600020604051610dee81611452565b8154918282526001810154906020830191825260018060a01b0380600283015416604085019081526003830154606086019081526004840154906080870191825260058501549360a088019360ff86161515855260ff60c08a019660081c1615158652600760068801549760e08b01988952015497610100809a019889526040519a8b525160208b01525116604089015251606088015251608087015251151560a086015251151560c08501525160e08401525190820152f35b3461016657602036600319011261016657600435610ec46115ce565b8015610f8d57610ef68130337f0000000000000000000000000000000000000000000000000000000000000000611634565b60085480610f725750805b3360005260076020526040600020610f1a828254611548565b9055610f2881600854611548565b600855610f3782600954611548565b60095560405191825260208201527fac1d76749e5447b7b16f5ab61447e1bd502f3bb4807af3b28e620d1700a6ee4560403392a26001600055005b610f7f610f889183611515565b60095490611528565b610f01565b60405162461bcd60e51b81526020600482015260126024820152710416d6f756e74206d757374206265203e20360741b6044820152606490fd5b34610166576000366003190112610166576040517f00000000000000000000000000000000000000000000000000000000000000006001600160a01b03168152602090f35b34610166576000366003190112610166576040517f00000000000000000000000000000000000000000000000000000000000000006001600160a01b03168152602090f35b3461016657606036600319011261016657602435600435811515808303610166576044359261107e6115a2565b6110866115ce565b8260005260056020526040600020916005830180549360ff85166111c957600181019182546000526004602052604060002094600386015489116111915761ffff1990961686151560081b61ff00161760011790557f0e7f97a7bb56d93abd77948e67c2c809c82ac5ce49e0c5fc70c767b294d1d00e946040948891906007908360048601550161010061ffff1982541617905580611188575b61113b575b5050549482519182526020820152a36001600055005b6111819161114b826009546114f2565b600955600201546001600160a01b03167f00000000000000000000000000000000000000000000000000000000000000006115f1565b8686611125565b50801515611120565b60405162461bcd60e51b815260206004820152601060248201526f4578636565647320636f76657261676560801b6044820152606490fd5b60405162461bcd60e51b8152602060048201526011602482015270105b1c9958591e481c1c9bd8d95cdcd959607a1b6044820152606490fd5b34610166576000366003190112610166576020600854604051908152f35b34610166576000366003190112610166576020600f54604051908152f35b34610166576020366003190112610166576112576114ad565b506004356000526004602052610120604060002060405161127781611452565b81549182825260018060a01b03908160018201541690602084019182526002810154604085019081526003820154606086019081526004830154906080870191825260058401549260a08801938452600760068601549560c08a0196875201549660e089019660ff89161515885260ff610100809b019960081c16151589526040519a8b52511660208a01525160408901525160608801525160808701525160a08601525160c085015251151560e084015251151590820152f35b346101665760203660031901126101665760043561134e6115a2565b6103e88111611388576020817fc454ee9b76c52f782a256af821b857ca6e125d1e3333bcede402fec2bed9600c92600a55604051908152a1005b60405162461bcd60e51b81526020600482015260076024820152664d61782031302560c81b6044820152606490fd5b34610166576000366003190112610166576020600954604051908152f35b34610166576000366003190112610166576020600b54604051908152f35b3461016657600036600319011261016657602090600e548152f35b600435906001600160a01b038216820361016657565b805482101561143c5760005260206000200190600090565b634e487b7160e01b600052603260045260246000fd5b610120810190811067ffffffffffffffff82111761057f57604052565b60a0810190811067ffffffffffffffff82111761057f57604052565b90601f8019910116810190811067ffffffffffffffff82111761057f57604052565b604051906114ba82611452565b816101006000918281528260208201528260408201528260608201528260808201528260a08201528260c08201528260e08201520152565b919082039182116114ff57565b634e487b7160e01b600052601160045260246000fd5b818102929181159184041417156114ff57565b8115611532570490565b634e487b7160e01b600052601260045260246000fd5b919082018092116114ff57565b60001981146114ff5760010190565b600854801561159b576115989160018060a01b0316600052600760205261159360406000205460095490611515565b611528565b90565b5050600090565b6001546001600160a01b031633036115b657565b60405163118cdaa760e01b8152336004820152602490fd5b6002600054146115df576002600055565b604051633ee5aeb560e01b8152600490fd5b60405163a9059cbb60e01b60208201526001600160a01b039290921660248301526044808301939093529181526116329161162d60648361148b565b611676565b565b6040516323b872dd60e01b60208201526001600160a01b0392831660248201529290911660448301526064808301939093529181526116329161162d8261146f565b906000602091828151910182855af115610573576000513d6116c957506001600160a01b0381163b155b6116a75750565b604051635274afe760e01b81526001600160a01b039091166004820152602490fd5b600114156116a056fea2646970667358221220be5cf818d7b8568d9f5bbc490778dd718a1b8a1869adf3331a2f5a8691bd288764736f6c63430008180033",
  "linkReferences": {},
  "deployedLinkReferences": {}
}