{"contracts/ValidationRegistry.sol":{"ValidationRegistry":{"abi":[{"inputs":[{"internalType":"uint256","name":"requestId","type":"uint256"}],"name":"AlreadyResolved","type":"error"},{"inputs":[{"internalType":"uint256","name":"required","type":"uint256"},{"internalType":"uint256","name":"provided","type":"uint256"}],"name":"InsufficientStake","type":"error"},{"inputs":[{"internalType":"uint8","name":"score","type":"uint8"}],"name":"InvalidScore","type":"error"},{"inputs":[{"internalType":"address","name":"caller","type":"address"}],"name":"NotValidator","type":"error"},{"inputs":[{"internalType":"uint256","name":"requestId","type":"uint256"}],"name":"RequestNotFound","type":"error"},{"anonymous":false,"inputs":[{"indexed":true,"internalType":"uint256","name":"requestId","type":"uint256"},{"indexed":true,"internalType":"uint256","name":"agentId","type":"uint256"},{"indexed":false,"internalType":"enum ValidationRegistry.ValidationKind","name":"kind","type":"uint8"},{"indexed":false,"internalType":"bytes32","name":"dataHash","type":"bytes32"}],"name":"ValidationRequested","type":"event"},{"anonymous":false,"inputs":[{"indexed":true,"internalType":"uint256","name":"requestId","type":"uint256"},{"indexed":true,"internalType":"uint256","name":"agentId","type":"uint256"},{"indexed":false,"internalType":"enum ValidationRegistry.ValidationStatus","name":"status","type":"uint8"},{"indexed":false,"internalType":"uint8","name":"score","type":"uint8"},{"indexed":false,"internalType":"address","name":"validator","type":"address"}],"name":"ValidationResolved","type":"event"},{"anonymous":false,"inputs":[{"indexed":true,"internalType":"address","name":"validator","type":"address"},{"indexed":false,"internalType":"uint256","name":"stake","type":"uint256"}],"name":"ValidatorRegistered","type":"event"},{"anonymous":false,"inputs":[{"indexed":true,"internalType":"address","name":"validator","type":"address"},{"indexed":false,"internalType":"uint256","name":"slashedAmount","type":"uint256"}],"name":"ValidatorSlashed","type":"event"},{"inputs":[],"name":"MIN_VALIDATOR_STAKE","outputs":[{"internalType":"uint256","name":"","type":"uint256"}],"stateMutability":"view","type":"function"},{"inputs":[{"internalType":"uint256","name":"","type":"uint256"},{"internalType":"uint256","name":"","type":"uint256"}],"name":"agentRequests","outputs":[{"internalType":"uint256","name":"","type":"uint256"}],"stateMutability":"view","type":"function"},{"inputs":[{"internalType":"uint256","name":"agentId","type":"uint256"}],"name":"getAgentRequests","outputs":[{"internalType":"uint256[]","name":"","type":"uint256[]"}],"stateMutability":"view","type":"function"},{"inputs":[{"internalType":"uint256","name":"agentId","type":"uint256"}],"name":"getAverageValidationScore","outputs":[{"internalType":"uint256","name":"","type":"uint256"}],"stateMutability":"view","type":"function"},{"inputs":[{"internalType":"uint256","name":"agentId","type":"uint256"}],"name":"getValidatedCount","outputs":[{"internalType":"uint256","name":"count","type":"uint256"}],"stateMutability":"view","type":"function"},{"inputs":[],"name":"registerValidator","outputs":[],"stateMutability":"payable","type":"function"},{"inputs":[{"internalType":"uint256","name":"agentId","type":"uint256"},{"internalType":"enum ValidationRegistry.ValidationKind","name":"kind","type":"uint8"},{"internalType":"bytes32","name":"dataHash","type":"bytes32"},{"internalType":"string","name":"dataURI","type":"string"}],"name":"requestValidation","outputs":[{"internalType":"uint256","name":"requestId","type":"uint256"}],"stateMutability":"nonpayable","type":"function"},{"inputs":[{"internalType":"uint256","name":"","type":"uint256"}],"name":"requests","outputs":[{"internalType":"uint256","name":"requestId","type":"uint256"},{"internalType":"uint256","name":"agentId","type":"uint256"},{"internalType":"enum ValidationRegistry.ValidationKind","name":"kind","type":"uint8"},{"internalType":"enum ValidationRegistry.ValidationStatus","name":"status","type":"uint8"},{"internalType":"address","name":"requester","type":"address"},{"internalType":"address","name":"validator","type":"address"},{"internalType":"bytes32","name":"dataHash","type":"bytes32"},{"internalType":"string","name":"dataURI","type":"string"},{"internalType":"uint256","name":"requestedAt","type":"uint256"},{"internalType":"uint256","name":"resolvedAt","type":"uint256"},{"internalType":"uint8","name":"validationScore","type":"uint8"},{"internalType":"string","name":"validatorNote","type":"string"},{"internalType":"uint256","name":"stakeAmount","type":"uint256"}],"stateMutability":"view","type":"function"},{"inputs":[{"internalType":"uint256","name":"requestId","type":"uint256"},{"internalType":"enum ValidationRegistry.ValidationStatus","name":"status","type":"uint8"},{"internalType":"uint8","name":"score","type":"uint8"},{"internalType":"string","name":"note","type":"string"}],"name":"resolveValidation","outputs":[],"stateMutability":"nonpayable","type":"function"},{"inputs":[],"name":"totalRequests","outputs":[{"internalType":"uint256","name":"","type":"uint256"}],"stateMutability":"view","type":"function"},{"inputs":[{"internalType":"address","name":"","type":"address"}],"name":"validatorStake","outputs":[{"internalType":"uint256","name":"","type":"uint256"}],"stateMutability":"view","type":"function"}],"evm":{"bytecode":{"linkReferences":{},"object":"6080806040523461001657610ed5908161001c8239f35b600080fdfe6080604052600436101561001257600080fd5b60003560e01c806317876c6514610b5a57806324da5f8414610b1357806339b7fcc614610ad55780633a76b49714610a41578063600844381461099b57806381d12c58146108905780638aea61dc146108725780639c2a225914610850578063b23fd686146105b4578063bcc6587f146105235763de4cc54d1461009557600080fd5b3461051e57608036600319011261051e576004602435101561051e5760643567ffffffffffffffff811161051e576100d1903690600401610dca565b906100dd600054610e1b565b9081600055604051926101a0840184811067ffffffffffffffff82111761041f576040528284526004356020850152610117602435610d6a565b602435604085015260006060850152336080850152600060a085015260443560c085015267ffffffffffffffff811161041f5760405191610162601f8301601f191660200184610ca3565b818352368282011161051e5781600092602092838601378301015260e0830152426101008301526000610120830152600061014083015260405180602081011067ffffffffffffffff60208301111761041f5760208101604052600081526101608301526000610180830152806000526001602052604060002082518155602083015160018201556002810160408401516101fc81610d6a565b61020581610d6a565b60ff80198354169116178155610228606085015161022281610d6a565b82610e2a565b6080840151815462010000600160b01b03191660109190911b62010000600160b01b031617905560a08301516003820180546001600160a01b0319166001600160a01b039290921691909117905560c0830151600482015560e0830151805190939067ffffffffffffffff811161041f576102b3816102aa6005860154610c69565b60058601610e49565b6020601f82116001146104af5781906102e693949596600092610435575b50508160011b916000199060031b1c19161790565b60058301555b610100810151600683015561012081015160078301556008820160ff6101408301511660ff198254161790556009820161016082015180519067ffffffffffffffff821161041f57610348826103428554610c69565b85610e49565b602090601f83116001146104405782600a95936101809593610380936000926104355750508160011b916000199060031b1c19161790565b90555b015191015560043560005260026020526040600020908154916801000000000000000083101561041f57826103bf916001602095018155610c3b565b81549060031b9083821b91600019901b19161790556040516103e2602435610d6a565b602435815260443583820152817fa9c351ab071c40fd9c097e094c4b8b5f99b70bdebbe59d949debe0e122bf3f0d604060043593a3604051908152f35b634e487b7160e01b600052604160045260246000fd5b0151905038806102d1565b90601f198316918460005260206000209260005b8181106104975750926001928592600a989661018098961061047e575b505050811b019055610383565b015160001960f88460031b161c19169055388080610471565b92936020600181928786015181550195019301610454565b6005840160005260206000209060005b601f1984168110610506575060019394959683601f198116106104ed575b505050811b0160058301556102ec565b015160001960f88460031b161c191690553880806104dd565b9091602060018192858b0151815501930191016104bf565b600080fd5b600036600319011261051e57662386f26fc10000803410610596573360005260036020526040600020610557348254610df8565b90553360005260036020526040600020546040519081527fb4a7f5c563a0e35593d156394ed681bdc9c39467d7d722749d23862c2e4b712c60203392a2005b604490604051906322df051360e11b82526004820152346024820152fd5b3461051e57608036600319011261051e576004356024908135600481101561051e5760443560ff811680910361051e5767ffffffffffffffff9360643585811161051e57610606903690600401610dca565b9590953360005260209660038852662386f26fc1000060406000205410610839576064851161082157866000526001906001895260406000209485541561080b576002860160ff815460081c1661065c81610d6a565b6107f4578861066a91610e2a565b6003860180546001600160a01b0319163317905542600787015560088601805460ff191688179055600986019484116107e057506106b2836106ac8654610c69565b86610e49565b600091601f841160011461074c57509261070d836001947fc2c7973e68171b8a8c09ed9fe98efb67784086e2a7f8d981bbc32d25bb19f7bf999794606099976000926107415750508160011b916000199060031b1c19161790565b90555b3360005260038852604060002054600a8201550154956040519261073381610d6a565b8352820152336040820152a3005b013590508c806102d1565b91601f198416856000528a600020936000905b8c8383106107c857505050937fc2c7973e68171b8a8c09ed9fe98efb67784086e2a7f8d981bbc32d25bb19f7bf989693606098969360019693838895106107ae575b505050811b019055610710565b0135600019600384901b60f8161c191690558b80806107a1565b8585013587559581019593840193919091019061075f565b634e487b7160e01b60009081526041600452fd5b5060405163e1ba032d60e01b8152600481018a9052fd5b604051634ec726c760e01b8152600481018a9052fd5b6040516306fae60560e11b8152600481018690528490fd5b604051633b4f6e2b60e21b81523360048201528490fd5b3461051e57600036600319011261051e576020604051662386f26fc100008152f35b3461051e57600036600319011261051e576020600054604051908152f35b3461051e57602036600319011261051e576004356000526001602052604060002080549060018101549060028101549060ff8216938260081c60ff1692600160a01b600190038060038501541692600485015490600586016108f190610cc5565b91600687015495600788015494600889015460ff169660098a0161091490610cc5565b99600a01549a6040519d8e9d8e6101a0988152602001528d61093582610d6a565b6040015261094281610d6a565b60608d015260101c1660808b015260a08a015260c08901528060e0890152870161096b91610d8a565b9261010087015261012086015261014085015283810361016085015261099091610d8a565b906101808301520390f35b3461051e5760208060031936011261051e5760043560005260028152604060002060405190818382549182815201908192600052846000209060005b86828210610a2d5786866109ed82880383610ca3565b604051928392818401908285525180915260408401929160005b828110610a1657505050500390f35b835185528695509381019392810192600101610a07565b8354855290930192600192830192016109d7565b3461051e5760208060031936011261051e5760009060043560005260029060026020526040600020916000928054935b848110610a8357602086604051908152f35b610a8d8183610c3b565b90549060031b1c600052600180855260ff846040600020015460081c16610ab381610d6a565b14610ac1575b600101610a71565b94610acd600191610e1b565b959050610ab9565b3461051e57602036600319011261051e576004356001600160a01b0381169081900361051e5760005260036020526020604060002054604051908152f35b3461051e57604036600319011261051e5760243560043560005260026020526040600020805482101561051e57602091610b4c91610c3b565b90546040519160031b1c8152f35b3461051e5760208060031936011261051e5760043560005260028060205260406000206000926000926000928054935b848110610bcd578686801580610bc157610bab57602091045b604051908152f35b634e487b7160e01b600052601260045260246000fd5b50505060206000610ba3565b610bd78183610c3b565b90549060031b1c600052600180855260406000209060ff91858101549183600893841c16610c0481610d6a565b14610c15575b505050600101610b8a565b98610c3292610c2c926001959a9b01541690610df8565b97610e1b565b95908880610c0a565b8054821015610c535760005260206000200190600090565b634e487b7160e01b600052603260045260246000fd5b90600182811c92168015610c99575b6020831014610c8357565b634e487b7160e01b600052602260045260246000fd5b91607f1691610c78565b90601f8019910116810190811067ffffffffffffffff82111761041f57604052565b90604051918260008254610cd881610c69565b90818452602094600191600181169081600014610d485750600114610d09575b505050610d0792500383610ca3565b565b600090815285812095935091905b818310610d30575050610d079350820101388080610cf8565b85548884018501529485019487945091830191610d17565b92505050610d0794925060ff191682840152151560051b820101388080610cf8565b60041115610d7457565b634e487b7160e01b600052602160045260246000fd5b919082519283825260005b848110610db6575050826000602080949584010152601f8019910116010190565b602081830181015184830182015201610d95565b9181601f8401121561051e5782359167ffffffffffffffff831161051e576020838186019501011161051e57565b91908201809211610e0557565b634e487b7160e01b600052601160045260246000fd5b6000198114610e055760010190565b90610e3481610d6a565b61ff0082549160081b169061ff001916179055565b90601f8111610e5757505050565b6000916000526020600020906020601f850160051c83019410610e95575b601f0160051c01915b828110610e8a57505050565b818155600101610e7e565b9092508290610e7556fea264697066735822122015c5e31e07e88b83b86c0b45f78eae2cde108485bf74eda8185d401af287e27164736f6c63430008180033","opcodes":"PUSH1 0x80 DUP1 PUSH1 0x40 MSTORE CALLVALUE PUSH2 0x16 JUMPI PUSH2 0xED5 SWAP1 DUP2 PUSH2 0x1C DUP3 CODECOPY RETURN JUMPDEST PUSH1 0x0 DUP1 REVERT INVALID PUSH1 0x80 PUSH1 0x40 MSTORE PUSH1 0x4 CALLDATASIZE LT ISZERO PUSH2 0x12 JUMPI PUSH1 0x0 DUP1 REVERT JUMPDEST PUSH1 0x0 CALLDATALOAD PUSH1 0xE0 SHR DUP1 PUSH4 0x17876C65 EQ PUSH2 0xB5A JUMPI DUP1 PUSH4 0x24DA5F84 EQ PUSH2 0xB13 JUMPI DUP1 PUSH4 0x39B7FCC6 EQ PUSH2 0xAD5 JUMPI DUP1 PUSH4 0x3A76B497 EQ PUSH2 0xA41 JUMPI DUP1 PUSH4 0x60084438 EQ PUSH2 0x99B JUMPI DUP1 PUSH4 0x81D12C58 EQ PUSH2 0x890 JUMPI DUP1 PUSH4 0x8AEA61DC EQ PUSH2 0x872 JUMPI DUP1 PUSH4 0x9C2A2259 EQ PUSH2 0x850 JUMPI DUP1 PUSH4 0xB23FD686 EQ PUSH2 0x5B4 JUMPI DUP1 PUSH4 0xBCC6587F EQ PUSH2 0x523 JUMPI PUSH4 0xDE4CC54D EQ PUSH2 0x95 JUMPI PUSH1 0x0 DUP1 REVERT JUMPDEST CALLVALUE PUSH2 0x51E JUMPI PUSH1 0x80 CALLDATASIZE PUSH1 0x3 NOT ADD SLT PUSH2 0x51E JUMPI PUSH1 0x4 PUSH1 0x24 CALLDATALOAD LT ISZERO PUSH2 0x51E JUMPI PUSH1 0x64 CALLDATALOAD PUSH8 0xFFFFFFFFFFFFFFFF DUP2 GT PUSH2 0x51E JUMPI PUSH2 0xD1 SWAP1 CALLDATASIZE SWAP1 PUSH1 0x4 ADD PUSH2 0xDCA JUMP JUMPDEST SWAP1 PUSH2 0xDD PUSH1 0x0 SLOAD PUSH2 0xE1B JUMP JUMPDEST SWAP1 DUP2 PUSH1 0x0 SSTORE PUSH1 0x40 MLOAD SWAP3 PUSH2 0x1A0 DUP5 ADD DUP5 DUP2 LT PUSH8 0xFFFFFFFFFFFFFFFF DUP3 GT OR PUSH2 0x41F JUMPI PUSH1 0x40 MSTORE DUP3 DUP5 MSTORE PUSH1 0x4 CALLDATALOAD PUSH1 0x20 DUP6 ADD MSTORE PUSH2 0x117 PUSH1 0x24 CALLDATALOAD PUSH2 0xD6A JUMP JUMPDEST PUSH1 0x24 CALLDATALOAD PUSH1 0x40 DUP6 ADD MSTORE PUSH1 0x0 PUSH1 0x60 DUP6 ADD MSTORE CALLER PUSH1 0x80 DUP6 ADD MSTORE PUSH1 0x0 PUSH1 0xA0 DUP6 ADD MSTORE PUSH1 0x44 CALLDATALOAD PUSH1 0xC0 DUP6 ADD MSTORE PUSH8 0xFFFFFFFFFFFFFFFF DUP2 GT PUSH2 0x41F JUMPI PUSH1 0x40 MLOAD SWAP2 PUSH2 0x162 PUSH1 0x1F DUP4 ADD PUSH1 0x1F NOT AND PUSH1 0x20 ADD DUP5 PUSH2 0xCA3 JUMP JUMPDEST DUP2 DUP4 MSTORE CALLDATASIZE DUP3 DUP3 ADD GT PUSH2 0x51E JUMPI DUP2 PUSH1 0x0 SWAP3 PUSH1 0x20 SWAP3 DUP4 DUP7 ADD CALLDATACOPY DUP4 ADD ADD MSTORE PUSH1 0xE0 DUP4 ADD MSTORE TIMESTAMP PUSH2 0x100 DUP4 ADD MSTORE PUSH1 0x0 PUSH2 0x120 DUP4 ADD MSTORE PUSH1 0x0 PUSH2 0x140 DUP4 ADD MSTORE PUSH1 0x40 MLOAD DUP1 PUSH1 0x20 DUP2 ADD LT PUSH8 0xFFFFFFFFFFFFFFFF PUSH1 0x20 DUP4 ADD GT OR PUSH2 0x41F JUMPI PUSH1 0x20 DUP2 ADD PUSH1 0x40 MSTORE PUSH1 0x0 DUP2 MSTORE PUSH2 0x160 DUP4 ADD MSTORE PUSH1 0x0 PUSH2 0x180 DUP4 ADD MSTORE DUP1 PUSH1 0x0 MSTORE PUSH1 0x1 PUSH1 0x20 MSTORE PUSH1 0x40 PUSH1 0x0 KECCAK256 DUP3 MLOAD DUP2 SSTORE PUSH1 0x20 DUP4 ADD MLOAD PUSH1 0x1 DUP3 ADD SSTORE PUSH1 0x2 DUP2 ADD PUSH1 0x40 DUP5 ADD MLOAD PUSH2 0x1FC DUP2 PUSH2 0xD6A JUMP JUMPDEST PUSH2 0x205 DUP2 PUSH2 0xD6A JUMP JUMPDEST PUSH1 0xFF DUP1 NOT DUP4 SLOAD AND SWAP2 AND OR DUP2 SSTORE PUSH2 0x228 PUSH1 0x60 DUP6 ADD MLOAD PUSH2 0x222 DUP2 PUSH2 0xD6A JUMP JUMPDEST DUP3 PUSH2 0xE2A JUMP JUMPDEST PUSH1 0x80 DUP5 ADD MLOAD DUP2 SLOAD PUSH3 0x10000 PUSH1 0x1 PUSH1 0xB0 SHL SUB NOT AND PUSH1 0x10 SWAP2 SWAP1 SWAP2 SHL PUSH3 0x10000 PUSH1 0x1 PUSH1 0xB0 SHL SUB AND OR SWAP1 SSTORE PUSH1 0xA0 DUP4 ADD MLOAD PUSH1 0x3 DUP3 ADD DUP1 SLOAD PUSH1 0x1 PUSH1 0x1 PUSH1 0xA0 SHL SUB NOT AND PUSH1 0x1 PUSH1 0x1 PUSH1 0xA0 SHL SUB SWAP3 SWAP1 SWAP3 AND SWAP2 SWAP1 SWAP2 OR SWAP1 SSTORE PUSH1 0xC0 DUP4 ADD MLOAD PUSH1 0x4 DUP3 ADD SSTORE PUSH1 0xE0 DUP4 ADD MLOAD DUP1 MLOAD SWAP1 SWAP4 SWAP1 PUSH8 0xFFFFFFFFFFFFFFFF DUP2 GT PUSH2 0x41F JUMPI PUSH2 0x2B3 DUP2 PUSH2 0x2AA PUSH1 0x5 DUP7 ADD SLOAD PUSH2 0xC69 JUMP JUMPDEST PUSH1 0x5 DUP7 ADD PUSH2 0xE49 JUMP JUMPDEST PUSH1 0x20 PUSH1 0x1F DUP3 GT PUSH1 0x1 EQ PUSH2 0x4AF JUMPI DUP2 SWAP1 PUSH2 0x2E6 SWAP4 SWAP5 SWAP6 SWAP7 PUSH1 0x0 SWAP3 PUSH2 0x435 JUMPI JUMPDEST POP POP DUP2 PUSH1 0x1 SHL SWAP2 PUSH1 0x0 NOT SWAP1 PUSH1 0x3 SHL SHR NOT AND OR SWAP1 JUMP JUMPDEST PUSH1 0x5 DUP4 ADD SSTORE JUMPDEST PUSH2 0x100 DUP2 ADD MLOAD PUSH1 0x6 DUP4 ADD SSTORE PUSH2 0x120 DUP2 ADD MLOAD PUSH1 0x7 DUP4 ADD SSTORE PUSH1 0x8 DUP3 ADD PUSH1 0xFF PUSH2 0x140 DUP4 ADD MLOAD AND PUSH1 0xFF NOT DUP3 SLOAD AND OR SWAP1 SSTORE PUSH1 0x9 DUP3 ADD PUSH2 0x160 DUP3 ADD MLOAD DUP1 MLOAD SWAP1 PUSH8 0xFFFFFFFFFFFFFFFF DUP3 GT PUSH2 0x41F JUMPI PUSH2 0x348 DUP3 PUSH2 0x342 DUP6 SLOAD PUSH2 0xC69 JUMP JUMPDEST DUP6 PUSH2 0xE49 JUMP JUMPDEST PUSH1 0x20 SWAP1 PUSH1 0x1F DUP4 GT PUSH1 0x1 EQ PUSH2 0x440 JUMPI DUP3 PUSH1 0xA SWAP6 SWAP4 PUSH2 0x180 SWAP6 SWAP4 PUSH2 0x380 SWAP4 PUSH1 0x0 SWAP3 PUSH2 0x435 JUMPI POP POP DUP2 PUSH1 0x1 SHL SWAP2 PUSH1 0x0 NOT SWAP1 PUSH1 0x3 SHL SHR NOT AND OR SWAP1 JUMP JUMPDEST SWAP1 SSTORE JUMPDEST ADD MLOAD SWAP2 ADD SSTORE PUSH1 0x4 CALLDATALOAD PUSH1 0x0 MSTORE PUSH1 0x2 PUSH1 0x20 MSTORE PUSH1 0x40 PUSH1 0x0 KECCAK256 SWAP1 DUP2 SLOAD SWAP2 PUSH9 0x10000000000000000 DUP4 LT ISZERO PUSH2 0x41F JUMPI DUP3 PUSH2 0x3BF SWAP2 PUSH1 0x1 PUSH1 0x20 SWAP6 ADD DUP2 SSTORE PUSH2 0xC3B JUMP JUMPDEST DUP2 SLOAD SWAP1 PUSH1 0x3 SHL SWAP1 DUP4 DUP3 SHL SWAP2 PUSH1 0x0 NOT SWAP1 SHL NOT AND OR SWAP1 SSTORE PUSH1 0x40 MLOAD PUSH2 0x3E2 PUSH1 0x24 CALLDATALOAD PUSH2 0xD6A JUMP JUMPDEST PUSH1 0x24 CALLDATALOAD DUP2 MSTORE PUSH1 0x44 CALLDATALOAD DUP4 DUP3 ADD MSTORE DUP2 PUSH32 0xA9C351AB071C40FD9C097E094C4B8B5F99B70BDEBBE59D949DEBE0E122BF3F0D PUSH1 0x40 PUSH1 0x4 CALLDATALOAD SWAP4 LOG3 PUSH1 0x40 MLOAD SWAP1 DUP2 MSTORE RETURN JUMPDEST PUSH4 0x4E487B71 PUSH1 0xE0 SHL PUSH1 0x0 MSTORE PUSH1 0x41 PUSH1 0x4 MSTORE PUSH1 0x24 PUSH1 0x0 REVERT JUMPDEST ADD MLOAD SWAP1 POP CODESIZE DUP1 PUSH2 0x2D1 JUMP JUMPDEST SWAP1 PUSH1 0x1F NOT DUP4 AND SWAP2 DUP5 PUSH1 0x0 MSTORE PUSH1 0x20 PUSH1 0x0 KECCAK256 SWAP3 PUSH1 0x0 JUMPDEST DUP2 DUP2 LT PUSH2 0x497 JUMPI POP SWAP3 PUSH1 0x1 SWAP3 DUP6 SWAP3 PUSH1 0xA SWAP9 SWAP7 PUSH2 0x180 SWAP9 SWAP7 LT PUSH2 0x47E JUMPI JUMPDEST POP POP POP DUP2 SHL ADD SWAP1 SSTORE PUSH2 0x383 JUMP JUMPDEST ADD MLOAD PUSH1 0x0 NOT PUSH1 0xF8 DUP5 PUSH1 0x3 SHL AND SHR NOT AND SWAP1 SSTORE CODESIZE DUP1 DUP1 PUSH2 0x471 JUMP JUMPDEST SWAP3 SWAP4 PUSH1 0x20 PUSH1 0x1 DUP2 SWAP3 DUP8 DUP7 ADD MLOAD DUP2 SSTORE ADD SWAP6 ADD SWAP4 ADD PUSH2 0x454 JUMP JUMPDEST PUSH1 0x5 DUP5 ADD PUSH1 0x0 MSTORE PUSH1 0x20 PUSH1 0x0 KECCAK256 SWAP1 PUSH1 0x0 JUMPDEST PUSH1 0x1F NOT DUP5 AND DUP2 LT PUSH2 0x506 JUMPI POP PUSH1 0x1 SWAP4 SWAP5 SWAP6 SWAP7 DUP4 PUSH1 0x1F NOT DUP2 AND LT PUSH2 0x4ED JUMPI JUMPDEST POP POP POP DUP2 SHL ADD PUSH1 0x5 DUP4 ADD SSTORE PUSH2 0x2EC JUMP JUMPDEST ADD MLOAD PUSH1 0x0 NOT PUSH1 0xF8 DUP5 PUSH1 0x3 SHL AND SHR NOT AND SWAP1 SSTORE CODESIZE DUP1 DUP1 PUSH2 0x4DD JUMP JUMPDEST SWAP1 SWAP2 PUSH1 0x20 PUSH1 0x1 DUP2 SWAP3 DUP6 DUP12 ADD MLOAD DUP2 SSTORE ADD SWAP4 ADD SWAP2 ADD PUSH2 0x4BF JUMP JUMPDEST PUSH1 0x0 DUP1 REVERT JUMPDEST PUSH1 0x0 CALLDATASIZE PUSH1 0x3 NOT ADD SLT PUSH2 0x51E JUMPI PUSH7 0x2386F26FC10000 DUP1 CALLVALUE LT PUSH2 0x596 JUMPI CALLER PUSH1 0x0 MSTORE PUSH1 0x3 PUSH1 0x20 MSTORE PUSH1 0x40 PUSH1 0x0 KECCAK256 PUSH2 0x557 CALLVALUE DUP3 SLOAD PUSH2 0xDF8 JUMP JUMPDEST SWAP1 SSTORE CALLER PUSH1 0x0 MSTORE PUSH1 0x3 PUSH1 0x20 MSTORE PUSH1 0x40 PUSH1 0x0 KECCAK256 SLOAD PUSH1 0x40 MLOAD SWAP1 DUP2 MSTORE PUSH32 0xB4A7F5C563A0E35593D156394ED681BDC9C39467D7D722749D23862C2E4B712C PUSH1 0x20 CALLER SWAP3 LOG2 STOP JUMPDEST PUSH1 0x44 SWAP1 PUSH1 0x40 MLOAD SWAP1 PUSH4 0x22DF0513 PUSH1 0xE1 SHL DUP3 MSTORE PUSH1 0x4 DUP3 ADD MSTORE CALLVALUE PUSH1 0x24 DUP3 ADD MSTORE REVERT JUMPDEST CALLVALUE PUSH2 0x51E JUMPI PUSH1 0x80 CALLDATASIZE PUSH1 0x3 NOT ADD SLT PUSH2 0x51E JUMPI PUSH1 0x4 CALLDATALOAD PUSH1 0x24 SWAP1 DUP2 CALLDATALOAD PUSH1 0x4 DUP2 LT ISZERO PUSH2 0x51E JUMPI PUSH1 0x44 CALLDATALOAD PUSH1 0xFF DUP2 AND DUP1 SWAP2 SUB PUSH2 0x51E JUMPI PUSH8 0xFFFFFFFFFFFFFFFF SWAP4 PUSH1 0x64 CALLDATALOAD DUP6 DUP2 GT PUSH2 0x51E JUMPI PUSH2 0x606 SWAP1 CALLDATASIZE SWAP1 PUSH1 0x4 ADD PUSH2 0xDCA JUMP JUMPDEST SWAP6 SWAP1 SWAP6 CALLER PUSH1 0x0 MSTORE PUSH1 0x20 SWAP7 PUSH1 0x3 DUP9 MSTORE PUSH7 0x2386F26FC10000 PUSH1 0x40 PUSH1 0x0 KECCAK256 SLOAD LT PUSH2 0x839 JUMPI PUSH1 0x64 DUP6 GT PUSH2 0x821 JUMPI DUP7 PUSH1 0x0 MSTORE PUSH1 0x1 SWAP1 PUSH1 0x1 DUP10 MSTORE PUSH1 0x40 PUSH1 0x0 KECCAK256 SWAP5 DUP6 SLOAD ISZERO PUSH2 0x80B JUMPI PUSH1 0x2 DUP7 ADD PUSH1 0xFF DUP2 SLOAD PUSH1 0x8 SHR AND PUSH2 0x65C DUP2 PUSH2 0xD6A JUMP JUMPDEST PUSH2 0x7F4 JUMPI DUP9 PUSH2 0x66A SWAP2 PUSH2 0xE2A JUMP JUMPDEST PUSH1 0x3 DUP7 ADD DUP1 SLOAD PUSH1 0x1 PUSH1 0x1 PUSH1 0xA0 SHL SUB NOT AND CALLER OR SWAP1 SSTORE TIMESTAMP PUSH1 0x7 DUP8 ADD SSTORE PUSH1 0x8 DUP7 ADD DUP1 SLOAD PUSH1 0xFF NOT AND DUP9 OR SWAP1 SSTORE PUSH1 0x9 DUP7 ADD SWAP5 DUP5 GT PUSH2 0x7E0 JUMPI POP PUSH2 0x6B2 DUP4 PUSH2 0x6AC DUP7 SLOAD PUSH2 0xC69 JUMP JUMPDEST DUP7 PUSH2 0xE49 JUMP JUMPDEST PUSH1 0x0 SWAP2 PUSH1 0x1F DUP5 GT PUSH1 0x1 EQ PUSH2 0x74C JUMPI POP SWAP3 PUSH2 0x70D DUP4 PUSH1 0x1 SWAP5 PUSH32 0xC2C7973E68171B8A8C09ED9FE98EFB67784086E2A7F8D981BBC32D25BB19F7BF SWAP10 SWAP8 SWAP5 PUSH1 0x60 SWAP10 SWAP8 PUSH1 0x0 SWAP3 PUSH2 0x741 JUMPI POP POP DUP2 PUSH1 0x1 SHL SWAP2 PUSH1 0x0 NOT SWAP1 PUSH1 0x3 SHL SHR NOT AND OR SWAP1 JUMP JUMPDEST SWAP1 SSTORE JUMPDEST CALLER PUSH1 0x0 MSTORE PUSH1 0x3 DUP9 MSTORE PUSH1 0x40 PUSH1 0x0 KECCAK256 SLOAD PUSH1 0xA DUP3 ADD SSTORE ADD SLOAD SWAP6 PUSH1 0x40 MLOAD SWAP3 PUSH2 0x733 DUP2 PUSH2 0xD6A JUMP JUMPDEST DUP4 MSTORE DUP3 ADD MSTORE CALLER PUSH1 0x40 DUP3 ADD MSTORE LOG3 STOP JUMPDEST ADD CALLDATALOAD SWAP1 POP DUP13 DUP1 PUSH2 0x2D1 JUMP JUMPDEST SWAP2 PUSH1 0x1F NOT DUP5 AND DUP6 PUSH1 0x0 MSTORE DUP11 PUSH1 0x0 KECCAK256 SWAP4 PUSH1 0x0 SWAP1 JUMPDEST DUP13 DUP4 DUP4 LT PUSH2 0x7C8 JUMPI POP POP POP SWAP4 PUSH32 0xC2C7973E68171B8A8C09ED9FE98EFB67784086E2A7F8D981BBC32D25BB19F7BF SWAP9 SWAP7 SWAP4 PUSH1 0x60 SWAP9 SWAP7 SWAP4 PUSH1 0x1 SWAP7 SWAP4 DUP4 DUP9 SWAP6 LT PUSH2 0x7AE JUMPI JUMPDEST POP POP POP DUP2 SHL ADD SWAP1 SSTORE PUSH2 0x710 JUMP JUMPDEST ADD CALLDATALOAD PUSH1 0x0 NOT PUSH1 0x3 DUP5 SWAP1 SHL PUSH1 0xF8 AND SHR NOT AND SWAP1 SSTORE DUP12 DUP1 DUP1 PUSH2 0x7A1 JUMP JUMPDEST DUP6 DUP6 ADD CALLDATALOAD DUP8 SSTORE SWAP6 DUP2 ADD SWAP6 SWAP4 DUP5 ADD SWAP4 SWAP2 SWAP1 SWAP2 ADD SWAP1 PUSH2 0x75F JUMP JUMPDEST PUSH4 0x4E487B71 PUSH1 0xE0 SHL PUSH1 0x0 SWAP1 DUP2 MSTORE PUSH1 0x41 PUSH1 0x4 MSTORE REVERT JUMPDEST POP PUSH1 0x40 MLOAD PUSH4 0xE1BA032D PUSH1 0xE0 SHL DUP2 MSTORE PUSH1 0x4 DUP2 ADD DUP11 SWAP1 MSTORE REVERT JUMPDEST PUSH1 0x40 MLOAD PUSH4 0x4EC726C7 PUSH1 0xE0 SHL DUP2 MSTORE PUSH1 0x4 DUP2 ADD DUP11 SWAP1 MSTORE REVERT JUMPDEST PUSH1 0x40 MLOAD PUSH4 0x6FAE605 PUSH1 0xE1 SHL DUP2 MSTORE PUSH1 0x4 DUP2 ADD DUP7 SWAP1 MSTORE DUP5 SWAP1 REVERT JUMPDEST PUSH1 0x40 MLOAD PUSH4 0x3B4F6E2B PUSH1 0xE2 SHL DUP2 MSTORE CALLER PUSH1 0x4 DUP3 ADD MSTORE DUP5 SWAP1 REVERT JUMPDEST CALLVALUE PUSH2 0x51E JUMPI PUSH1 0x0 CALLDATASIZE PUSH1 0x3 NOT ADD SLT PUSH2 0x51E JUMPI PUSH1 0x20 PUSH1 0x40 MLOAD PUSH7 0x2386F26FC10000 DUP2 MSTORE RETURN JUMPDEST CALLVALUE PUSH2 0x51E JUMPI PUSH1 0x0 CALLDATASIZE PUSH1 0x3 NOT ADD SLT PUSH2 0x51E JUMPI PUSH1 0x20 PUSH1 0x0 SLOAD PUSH1 0x40 MLOAD SWAP1 DUP2 MSTORE RETURN JUMPDEST CALLVALUE PUSH2 0x51E JUMPI PUSH1 0x20 CALLDATASIZE PUSH1 0x3 NOT ADD SLT PUSH2 0x51E JUMPI PUSH1 0x4 CALLDATALOAD PUSH1 0x0 MSTORE PUSH1 0x1 PUSH1 0x20 MSTORE PUSH1 0x40 PUSH1 0x0 KECCAK256 DUP1 SLOAD SWAP1 PUSH1 0x1 DUP2 ADD SLOAD SWAP1 PUSH1 0x2 DUP2 ADD SLOAD SWAP1 PUSH1 0xFF DUP3 AND SWAP4 DUP3 PUSH1 0x8 SHR PUSH1 0xFF AND SWAP3 PUSH1 0x1 PUSH1 0xA0 SHL PUSH1 0x1 SWAP1 SUB DUP1 PUSH1 0x3 DUP6 ADD SLOAD AND SWAP3 PUSH1 0x4 DUP6 ADD SLOAD SWAP1 PUSH1 0x5 DUP7 ADD PUSH2 0x8F1 SWAP1 PUSH2 0xCC5 JUMP JUMPDEST SWAP2 PUSH1 0x6 DUP8 ADD SLOAD SWAP6 PUSH1 0x7 DUP9 ADD SLOAD SWAP5 PUSH1 0x8 DUP10 ADD SLOAD PUSH1 0xFF AND SWAP7 PUSH1 0x9 DUP11 ADD PUSH2 0x914 SWAP1 PUSH2 0xCC5 JUMP JUMPDEST SWAP10 PUSH1 0xA ADD SLOAD SWAP11 PUSH1 0x40 MLOAD SWAP14 DUP15 SWAP14 DUP15 PUSH2 0x1A0 SWAP9 DUP2 MSTORE PUSH1 0x20 ADD MSTORE DUP14 PUSH2 0x935 DUP3 PUSH2 0xD6A JUMP JUMPDEST PUSH1 0x40 ADD MSTORE PUSH2 0x942 DUP2 PUSH2 0xD6A JUMP JUMPDEST PUSH1 0x60 DUP14 ADD MSTORE PUSH1 0x10 SHR AND PUSH1 0x80 DUP12 ADD MSTORE PUSH1 0xA0 DUP11 ADD MSTORE PUSH1 0xC0 DUP10 ADD MSTORE DUP1 PUSH1 0xE0 DUP10 ADD MSTORE DUP8 ADD PUSH2 0x96B SWAP2 PUSH2 0xD8A JUMP JUMPDEST SWAP3 PUSH2 0x100 DUP8 ADD MSTORE PUSH2 0x120 DUP7 ADD MSTORE PUSH2 0x140 DUP6 ADD MSTORE DUP4 DUP2 SUB PUSH2 0x160 DUP6 ADD MSTORE PUSH2 0x990 SWAP2 PUSH2 0xD8A JUMP JUMPDEST SWAP1 PUSH2 0x180 DUP4 ADD MSTORE SUB SWAP1 RETURN JUMPDEST CALLVALUE PUSH2 0x51E JUMPI PUSH1 0x20 DUP1 PUSH1 0x3 NOT CALLDATASIZE ADD SLT PUSH2 0x51E JUMPI PUSH1 0x4 CALLDATALOAD PUSH1 0x0 MSTORE PUSH1 0x2 DUP2 MSTORE PUSH1 0x40 PUSH1 0x0 KECCAK256 PUSH1 0x40 MLOAD SWAP1 DUP2 DUP4 DUP3 SLOAD SWAP2 DUP3 DUP2 MSTORE ADD SWAP1 DUP2 SWAP3 PUSH1 0x0 MSTORE DUP5 PUSH1 0x0 KECCAK256 SWAP1 PUSH1 0x0 JUMPDEST DUP7 DUP3 DUP3 LT PUSH2 0xA2D JUMPI DUP7 DUP7 PUSH2 0x9ED DUP3 DUP9 SUB DUP4 PUSH2 0xCA3 JUMP JUMPDEST PUSH1 0x40 MLOAD SWAP3 DUP4 SWAP3 DUP2 DUP5 ADD SWAP1 DUP3 DUP6 MSTORE MLOAD DUP1 SWAP2 MSTORE PUSH1 0x40 DUP5 ADD SWAP3 SWAP2 PUSH1 0x0 JUMPDEST DUP3 DUP2 LT PUSH2 0xA16 JUMPI POP POP POP POP SUB SWAP1 RETURN JUMPDEST DUP4 MLOAD DUP6 MSTORE DUP7 SWAP6 POP SWAP4 DUP2 ADD SWAP4 SWAP3 DUP2 ADD SWAP3 PUSH1 0x1 ADD PUSH2 0xA07 JUMP JUMPDEST DUP4 SLOAD DUP6 MSTORE SWAP1 SWAP4 ADD SWAP3 PUSH1 0x1 SWAP3 DUP4 ADD SWAP3 ADD PUSH2 0x9D7 JUMP JUMPDEST CALLVALUE PUSH2 0x51E JUMPI PUSH1 0x20 DUP1 PUSH1 0x3 NOT CALLDATASIZE ADD SLT PUSH2 0x51E JUMPI PUSH1 0x0 SWAP1 PUSH1 0x4 CALLDATALOAD PUSH1 0x0 MSTORE PUSH1 0x2 SWAP1 PUSH1 0x2 PUSH1 0x20 MSTORE PUSH1 0x40 PUSH1 0x0 KECCAK256 SWAP2 PUSH1 0x0 SWAP3 DUP1 SLOAD SWAP4 JUMPDEST DUP5 DUP2 LT PUSH2 0xA83 JUMPI PUSH1 0x20 DUP7 PUSH1 0x40 MLOAD SWAP1 DUP2 MSTORE RETURN JUMPDEST PUSH2 0xA8D DUP2 DUP4 PUSH2 0xC3B JUMP JUMPDEST SWAP1 SLOAD SWAP1 PUSH1 0x3 SHL SHR PUSH1 0x0 MSTORE PUSH1 0x1 DUP1 DUP6 MSTORE PUSH1 0xFF DUP5 PUSH1 0x40 PUSH1 0x0 KECCAK256 ADD SLOAD PUSH1 0x8 SHR AND PUSH2 0xAB3 DUP2 PUSH2 0xD6A JUMP JUMPDEST EQ PUSH2 0xAC1 JUMPI JUMPDEST PUSH1 0x1 ADD PUSH2 0xA71 JUMP JUMPDEST SWAP5 PUSH2 0xACD PUSH1 0x1 SWAP2 PUSH2 0xE1B JUMP JUMPDEST SWAP6 SWAP1 POP PUSH2 0xAB9 JUMP JUMPDEST CALLVALUE PUSH2 0x51E JUMPI PUSH1 0x20 CALLDATASIZE PUSH1 0x3 NOT ADD SLT PUSH2 0x51E JUMPI PUSH1 0x4 CALLDATALOAD PUSH1 0x1 PUSH1 0x1 PUSH1 0xA0 SHL SUB DUP2 AND SWAP1 DUP2 SWAP1 SUB PUSH2 0x51E JUMPI PUSH1 0x0 MSTORE PUSH1 0x3 PUSH1 0x20 MSTORE PUSH1 0x20 PUSH1 0x40 PUSH1 0x0 KECCAK256 SLOAD PUSH1 0x40 MLOAD SWAP1 DUP2 MSTORE RETURN JUMPDEST CALLVALUE PUSH2 0x51E JUMPI PUSH1 0x40 CALLDATASIZE PUSH1 0x3 NOT ADD SLT PUSH2 0x51E JUMPI PUSH1 0x24 CALLDATALOAD PUSH1 0x4 CALLDATALOAD PUSH1 0x0 MSTORE PUSH1 0x2 PUSH1 0x20 MSTORE PUSH1 0x40 PUSH1 0x0 KECCAK256 DUP1 SLOAD DUP3 LT ISZERO PUSH2 0x51E JUMPI PUSH1 0x20 SWAP2 PUSH2 0xB4C SWAP2 PUSH2 0xC3B JUMP JUMPDEST SWAP1 SLOAD PUSH1 0x40 MLOAD SWAP2 PUSH1 0x3 SHL SHR DUP2 MSTORE RETURN JUMPDEST CALLVALUE PUSH2 0x51E JUMPI PUSH1 0x20 DUP1 PUSH1 0x3 NOT CALLDATASIZE ADD SLT PUSH2 0x51E JUMPI PUSH1 0x4 CALLDATALOAD PUSH1 0x0 MSTORE PUSH1 0x2 DUP1 PUSH1 0x20 MSTORE PUSH1 0x40 PUSH1 0x0 KECCAK256 PUSH1 0x0 SWAP3 PUSH1 0x0 SWAP3 PUSH1 0x0 SWAP3 DUP1 SLOAD SWAP4 JUMPDEST DUP5 DUP2 LT PUSH2 0xBCD JUMPI DUP7 DUP7 DUP1 ISZERO DUP1 PUSH2 0xBC1 JUMPI PUSH2 0xBAB JUMPI PUSH1 0x20 SWAP2 DIV JUMPDEST PUSH1 0x40 MLOAD SWAP1 DUP2 MSTORE RETURN JUMPDEST PUSH4 0x4E487B71 PUSH1 0xE0 SHL PUSH1 0x0 MSTORE PUSH1 0x12 PUSH1 0x4 MSTORE PUSH1 0x24 PUSH1 0x0 REVERT JUMPDEST POP POP POP PUSH1 0x20 PUSH1 0x0 PUSH2 0xBA3 JUMP JUMPDEST PUSH2 0xBD7 DUP2 DUP4 PUSH2 0xC3B JUMP JUMPDEST SWAP1 SLOAD SWAP1 PUSH1 0x3 SHL SHR PUSH1 0x0 MSTORE PUSH1 0x1 DUP1 DUP6 MSTORE PUSH1 0x40 PUSH1 0x0 KECCAK256 SWAP1 PUSH1 0xFF SWAP2 DUP6 DUP2 ADD SLOAD SWAP2 DUP4 PUSH1 0x8 SWAP4 DUP5 SHR AND PUSH2 0xC04 DUP2 PUSH2 0xD6A JUMP JUMPDEST EQ PUSH2 0xC15 JUMPI JUMPDEST POP POP POP PUSH1 0x1 ADD PUSH2 0xB8A JUMP JUMPDEST SWAP9 PUSH2 0xC32 SWAP3 PUSH2 0xC2C SWAP3 PUSH1 0x1 SWAP6 SWAP11 SWAP12 ADD SLOAD AND SWAP1 PUSH2 0xDF8 JUMP JUMPDEST SWAP8 PUSH2 0xE1B JUMP JUMPDEST SWAP6 SWAP1 DUP9 DUP1 PUSH2 0xC0A JUMP JUMPDEST DUP1 SLOAD DUP3 LT ISZERO PUSH2 0xC53 JUMPI PUSH1 0x0 MSTORE PUSH1 0x20 PUSH1 0x0 KECCAK256 ADD SWAP1 PUSH1 0x0 SWAP1 JUMP JUMPDEST PUSH4 0x4E487B71 PUSH1 0xE0 SHL PUSH1 0x0 MSTORE PUSH1 0x32 PUSH1 0x4 MSTORE PUSH1 0x24 PUSH1 0x0 REVERT JUMPDEST SWAP1 PUSH1 0x1 DUP3 DUP2 SHR SWAP3 AND DUP1 ISZERO PUSH2 0xC99 JUMPI JUMPDEST PUSH1 0x20 DUP4 LT EQ PUSH2 0xC83 JUMPI JUMP JUMPDEST PUSH4 0x4E487B71 PUSH1 0xE0 SHL PUSH1 0x0 MSTORE PUSH1 0x22 PUSH1 0x4 MSTORE PUSH1 0x24 PUSH1 0x0 REVERT JUMPDEST SWAP2 PUSH1 0x7F AND SWAP2 PUSH2 0xC78 JUMP JUMPDEST SWAP1 PUSH1 0x1F DUP1 NOT SWAP2 ADD AND DUP2 ADD SWAP1 DUP2 LT PUSH8 0xFFFFFFFFFFFFFFFF DUP3 GT OR PUSH2 0x41F JUMPI PUSH1 0x40 MSTORE JUMP JUMPDEST SWAP1 PUSH1 0x40 MLOAD SWAP2 DUP3 PUSH1 0x0 DUP3 SLOAD PUSH2 0xCD8 DUP2 PUSH2 0xC69 JUMP JUMPDEST SWAP1 DUP2 DUP5 MSTORE PUSH1 0x20 SWAP5 PUSH1 0x1 SWAP2 PUSH1 0x1 DUP2 AND SWAP1 DUP2 PUSH1 0x0 EQ PUSH2 0xD48 JUMPI POP PUSH1 0x1 EQ PUSH2 0xD09 JUMPI JUMPDEST POP POP POP PUSH2 0xD07 SWAP3 POP SUB DUP4 PUSH2 0xCA3 JUMP JUMPDEST JUMP JUMPDEST PUSH1 0x0 SWAP1 DUP2 MSTORE DUP6 DUP2 KECCAK256 SWAP6 SWAP4 POP SWAP2 SWAP1 JUMPDEST DUP2 DUP4 LT PUSH2 0xD30 JUMPI POP POP PUSH2 0xD07 SWAP4 POP DUP3 ADD ADD CODESIZE DUP1 DUP1 PUSH2 0xCF8 JUMP JUMPDEST DUP6 SLOAD DUP9 DUP5 ADD DUP6 ADD MSTORE SWAP5 DUP6 ADD SWAP5 DUP8 SWAP5 POP SWAP2 DUP4 ADD SWAP2 PUSH2 0xD17 JUMP JUMPDEST SWAP3 POP POP POP PUSH2 0xD07 SWAP5 SWAP3 POP PUSH1 0xFF NOT AND DUP3 DUP5 ADD MSTORE ISZERO ISZERO PUSH1 0x5 SHL DUP3 ADD ADD CODESIZE DUP1 DUP1 PUSH2 0xCF8 JUMP JUMPDEST PUSH1 0x4 GT ISZERO PUSH2 0xD74 JUMPI JUMP JUMPDEST PUSH4 0x4E487B71 PUSH1 0xE0 SHL PUSH1 0x0 MSTORE PUSH1 0x21 PUSH1 0x4 MSTORE PUSH1 0x24 PUSH1 0x0 REVERT JUMPDEST SWAP2 SWAP1 DUP3 MLOAD SWAP3 DUP4 DUP3 MSTORE PUSH1 0x0 JUMPDEST DUP5 DUP2 LT PUSH2 0xDB6 JUMPI POP POP DUP3 PUSH1 0x0 PUSH1 0x20 DUP1 SWAP5 SWAP6 DUP5 ADD ADD MSTORE PUSH1 0x1F DUP1 NOT SWAP2 ADD AND ADD ADD SWAP1 JUMP JUMPDEST PUSH1 0x20 DUP2 DUP4 ADD DUP2 ADD MLOAD DUP5 DUP4 ADD DUP3 ADD MSTORE ADD PUSH2 0xD95 JUMP JUMPDEST SWAP2 DUP2 PUSH1 0x1F DUP5 ADD SLT ISZERO PUSH2 0x51E JUMPI DUP3 CALLDATALOAD SWAP2 PUSH8 0xFFFFFFFFFFFFFFFF DUP4 GT PUSH2 0x51E JUMPI PUSH1 0x20 DUP4 DUP2 DUP7 ADD SWAP6 ADD ADD GT PUSH2 0x51E JUMPI JUMP JUMPDEST SWAP2 SWAP1 DUP3 ADD DUP1 SWAP3 GT PUSH2 0xE05 JUMPI JUMP JUMPDEST PUSH4 0x4E487B71 PUSH1 0xE0 SHL PUSH1 0x0 MSTORE PUSH1 0x11 PUSH1 0x4 MSTORE PUSH1 0x24 PUSH1 0x0 REVERT JUMPDEST PUSH1 0x0 NOT DUP2 EQ PUSH2 0xE05 JUMPI PUSH1 0x1 ADD SWAP1 JUMP JUMPDEST SWAP1 PUSH2 0xE34 DUP2 PUSH2 0xD6A JUMP JUMPDEST PUSH2 0xFF00 DUP3 SLOAD SWAP2 PUSH1 0x8 SHL AND SWAP1 PUSH2 0xFF00 NOT AND OR SWAP1 SSTORE JUMP JUMPDEST SWAP1 PUSH1 0x1F DUP2 GT PUSH2 0xE57 JUMPI POP POP POP JUMP JUMPDEST PUSH1 0x0 SWAP2 PUSH1 0x0 MSTORE PUSH1 0x20 PUSH1 0x0 KECCAK256 SWAP1 PUSH1 0x20 PUSH1 0x1F DUP6 ADD PUSH1 0x5 SHR DUP4 ADD SWAP5 LT PUSH2 0xE95 JUMPI JUMPDEST PUSH1 0x1F ADD PUSH1 0x5 SHR ADD SWAP2 JUMPDEST DUP3 DUP2 LT PUSH2 0xE8A JUMPI POP POP POP JUMP JUMPDEST DUP2 DUP2 SSTORE PUSH1 0x1 ADD PUSH2 0xE7E JUMP JUMPDEST SWAP1 SWAP3 POP DUP3 SWAP1 PUSH2 0xE75 JUMP INVALID LOG2 PUSH5 0x6970667358 0x22 SLT KECCAK256 ISZERO 0xC5 0xE3 0x1E SMOD 0xE8 DUP12 DUP4 0xB8 PUSH13 0xB45F78EAE2CDE108485BF74ED 0xA8 XOR TSTORE BLOCKHASH BYTE CALLCODE DUP8 0xE2 PUSH18 0x64736F6C6343000818003300000000000000 "},"methodIdentifiers":{"MIN_VALIDATOR_STAKE()":"9c2a2259","agentRequests(uint256,uint256)":"24da5f84","getAgentRequests(uint256)":"60084438","getAverageValidationScore(uint256)":"17876c65","getValidatedCount(uint256)":"3a76b497","registerValidator()":"bcc6587f","requestValidation(uint256,uint8,bytes32,string)":"de4cc54d","requests(uint256)":"81d12c58","resolveValidation(uint256,uint8,uint8,string)":"b23fd686","totalRequests()":"8aea61dc","validatorStake(address)":"39b7fcc6"}}}}}