{"contracts/AgentWallet.sol":{"AgentWallet":{"abi":[{"inputs":[{"internalType":"address","name":"agentSigner","type":"address"}],"stateMutability":"nonpayable","type":"constructor"},{"inputs":[{"internalType":"address","name":"target","type":"address"},{"internalType":"uint256","name":"limit","type":"uint256"},{"internalType":"uint256","name":"spent","type":"uint256"}],"name":"DailyLimitExceeded","type":"error"},{"inputs":[{"internalType":"uint256","name":"deadline","type":"uint256"},{"internalType":"uint256","name":"current","type":"uint256"}],"name":"DeadlineExpired","type":"error"},{"inputs":[],"name":"ECDSAInvalidSignature","type":"error"},{"inputs":[{"internalType":"uint256","name":"length","type":"uint256"}],"name":"ECDSAInvalidSignatureLength","type":"error"},{"inputs":[{"internalType":"bytes32","name":"s","type":"bytes32"}],"name":"ECDSAInvalidSignatureS","type":"error"},{"inputs":[{"internalType":"bytes","name":"returnData","type":"bytes"}],"name":"ExecutionFailed","type":"error"},{"inputs":[{"internalType":"uint256","name":"expected","type":"uint256"},{"internalType":"uint256","name":"provided","type":"uint256"}],"name":"InvalidNonce","type":"error"},{"inputs":[],"name":"InvalidShortString","type":"error"},{"inputs":[{"internalType":"address","name":"owner","type":"address"}],"name":"OwnableInvalidOwner","type":"error"},{"inputs":[{"internalType":"address","name":"account","type":"address"}],"name":"OwnableUnauthorizedAccount","type":"error"},{"inputs":[{"internalType":"string","name":"str","type":"string"}],"name":"StringTooLong","type":"error"},{"inputs":[{"internalType":"address","name":"signer","type":"address"}],"name":"UnauthorizedSigner","type":"error"},{"anonymous":false,"inputs":[{"indexed":true,"internalType":"address","name":"target","type":"address"},{"indexed":false,"internalType":"uint256","name":"value","type":"uint256"},{"indexed":false,"internalType":"bytes","name":"data","type":"bytes"},{"indexed":false,"internalType":"uint256","name":"nonce","type":"uint256"}],"name":"ActionExecuted","type":"event"},{"anonymous":false,"inputs":[{"indexed":true,"internalType":"address","name":"target","type":"address"},{"indexed":false,"internalType":"uint256","name":"limit","type":"uint256"}],"name":"DailyLimitSet","type":"event"},{"anonymous":false,"inputs":[],"name":"EIP712DomainChanged","type":"event"},{"anonymous":false,"inputs":[{"indexed":true,"internalType":"address","name":"previousOwner","type":"address"},{"indexed":true,"internalType":"address","name":"newOwner","type":"address"}],"name":"OwnershipTransferred","type":"event"},{"anonymous":false,"inputs":[{"indexed":true,"internalType":"address","name":"signer","type":"address"},{"indexed":false,"internalType":"bool","name":"authorized","type":"bool"}],"name":"SignerAuthorized","type":"event"},{"stateMutability":"payable","type":"fallback"},{"inputs":[{"internalType":"address","name":"","type":"address"}],"name":"authorizedSigners","outputs":[{"internalType":"bool","name":"","type":"bool"}],"stateMutability":"view","type":"function"},{"inputs":[{"internalType":"address","name":"","type":"address"}],"name":"dailyLimit","outputs":[{"internalType":"uint256","name":"","type":"uint256"}],"stateMutability":"view","type":"function"},{"inputs":[{"internalType":"address","name":"","type":"address"}],"name":"dailySpent","outputs":[{"internalType":"uint256","name":"","type":"uint256"}],"stateMutability":"view","type":"function"},{"inputs":[],"name":"eip712Domain","outputs":[{"internalType":"bytes1","name":"fields","type":"bytes1"},{"internalType":"string","name":"name","type":"string"},{"internalType":"string","name":"version","type":"string"},{"internalType":"uint256","name":"chainId","type":"uint256"},{"internalType":"address","name":"verifyingContract","type":"address"},{"internalType":"bytes32","name":"salt","type":"bytes32"},{"internalType":"uint256[]","name":"extensions","type":"uint256[]"}],"stateMutability":"view","type":"function"},{"inputs":[{"components":[{"internalType":"address","name":"target","type":"address"},{"internalType":"uint256","name":"value","type":"uint256"},{"internalType":"bytes","name":"data","type":"bytes"},{"internalType":"uint256","name":"nonce","type":"uint256"},{"internalType":"uint256","name":"deadline","type":"uint256"}],"internalType":"struct AgentWallet.AgentAction","name":"action","type":"tuple"},{"internalType":"bytes","name":"signature","type":"bytes"}],"name":"execute","outputs":[{"internalType":"bytes","name":"returnData","type":"bytes"}],"stateMutability":"nonpayable","type":"function"},{"inputs":[{"internalType":"bytes32","name":"hash","type":"bytes32"},{"internalType":"bytes","name":"signature","type":"bytes"}],"name":"isValidSignature","outputs":[{"internalType":"bytes4","name":"","type":"bytes4"}],"stateMutability":"view","type":"function"},{"inputs":[{"internalType":"address","name":"","type":"address"}],"name":"lastSpendDay","outputs":[{"internalType":"uint256","name":"","type":"uint256"}],"stateMutability":"view","type":"function"},{"inputs":[],"name":"nonce","outputs":[{"internalType":"uint256","name":"","type":"uint256"}],"stateMutability":"view","type":"function"},{"inputs":[],"name":"owner","outputs":[{"internalType":"address","name":"","type":"address"}],"stateMutability":"view","type":"function"},{"inputs":[],"name":"renounceOwnership","outputs":[],"stateMutability":"nonpayable","type":"function"},{"inputs":[{"internalType":"address","name":"target","type":"address"},{"internalType":"uint256","name":"limit","type":"uint256"}],"name":"setDailyLimit","outputs":[],"stateMutability":"nonpayable","type":"function"},{"inputs":[{"internalType":"address","name":"signer","type":"address"},{"internalType":"bool","name":"authorized","type":"bool"}],"name":"setSigner","outputs":[],"stateMutability":"nonpayable","type":"function"},{"inputs":[{"internalType":"address","name":"newOwner","type":"address"}],"name":"transferOwnership","outputs":[],"stateMutability":"nonpayable","type":"function"},{"stateMutability":"payable","type":"receive"}],"evm":{"bytecode":{"linkReferences":{},"object":"610160346200023d576001600160401b0390601f620015ee38819003918201601f191683019291848411838510176200022757808392604095865283396020928391810103126200023d57516001600160a01b039290838116908190036200023d578151926200006f8462000242565b600b8452808401946a1059d95b9d15d85b1b195d60aa1b8652835196620000968862000242565b60018852828801603160f81b8152620000af876200025e565b97610120988952620000c18a62000431565b97610140988952519020988960e05251902061010098818a524660a052865191858301917f8b73c3c69bb8fe3d512ecc4cf759cc79239f7b179b0ffacaa9a75d522b39400f83528884015260608301524660808301523060a083015260a0825260c0820192828410908411176200022757828752815190206080523060c05233156200021057505060028054336001600160a01b03198216811790925585517fd71d7c88579d0d5858da8cb9f6c4ce94826a5391ff03edf44f6a431180a1a6f59493909291167f8be0079c531659141344cd1fd0a4f28419497f9722a3daafe3b4186f6b6457e0600080a3836000526004825284600020600160ff1982541617905560018152a2519161100f9384620005df853960805184610c56015260a05184610d22015260c05184610c20015260e05184610ca501525183610ccb015251826102520152518161027c0152f35b631e4fbdf760e01b8252600060c490910152602490fd5b634e487b7160e01b600052604160045260246000fd5b600080fd5b604081019081106001600160401b038211176200022757604052565b80516020919082811015620002fd575090601f8251116200029c57808251920151908083106200028d57501790565b82600019910360031b1b161790565b90604051809263305a27a960e01b82528060048301528251908160248401526000935b828510620002e3575050604492506000838284010152601f80199101168101030190fd5b8481018201518686016044015293810193859350620002bf565b6001600160401b03811162000227576000928354926001938481811c9116801562000426575b838210146200041257601f8111620003dc575b5081601f8411600114620003755750928293918392869462000369575b50501b916000199060031b1c191617905560ff90565b01519250388062000353565b919083601f1981168780528488209488905b88838310620003c15750505010620003a7575b505050811b01905560ff90565b015160001960f88460031b161c191690553880806200039a565b85870151885590960195948501948793509081019062000387565b85805284601f848820920160051c820191601f860160051c015b8281106200040657505062000336565b878155018590620003f6565b634e487b7160e01b86526022600452602486fd5b90607f169062000323565b805160209081811015620004bf5750601f8251116200045e57808251920151908083106200028d57501790565b90604051809263305a27a960e01b82528060048301528251908160248401526000935b828510620004a5575050604492506000838284010152601f80199101168101030190fd5b848101820151868601604401529381019385935062000481565b9192916001600160401b038111620002275760019182548381811c91168015620005d3575b82821014620005bd57601f811162000584575b5080601f8311600114620005375750819293946000926200052b575b5050600019600383901b1c191690821b17905560ff90565b01519050388062000513565b90601f198316958460005282600020926000905b8882106200056c5750508385969710620003a757505050811b01905560ff90565b8087859682949686015181550195019301906200054b565b8360005283601f83600020920160051c820191601f850160051c015b828110620005b0575050620004f7565b60008155018490620005a0565b634e487b7160e01b600052602260045260246000fd5b90607f1690620004e456fe6040608081526004908136101561001d575b5050361561001b57005b005b600091823560e01c9081631626ba7e1461091e5781632803212f146108b657816331cb61051461083a5781633e6fb639146103f75781635d2b6a4e146103ba578163715018a61461035a57816384b0196e1461023a5781638da5cb5b14610211578163affed0e0146101f2578163e10aa51f146101ba578163f2fde38b1461012657508063f3f51415146100ef5763ffc8ada60361001157346100eb5760203660031901126100eb5760209181906001600160a01b036100db610a2d565b1681526006845220549051908152f35b5080fd5b50346100eb5760203660031901126100eb5760209181906001600160a01b03610116610a2d565b1681526005845220549051908152f35b9050346101b65760203660031901126101b657610141610a2d565b9061014a610b30565b6001600160a01b039182169283156101a0575050600254826bffffffffffffffffffffffff60a01b821617600255167f8be0079c531659141344cd1fd0a4f28419497f9722a3daafe3b4186f6b6457e08380a380f35b51631e4fbdf760e01b8152908101849052602490fd5b8280fd5b5050346100eb5760203660031901126100eb5760209181906001600160a01b036101e2610a2d565b1681526007845220549051908152f35b5050346100eb57816003193601126100eb576020906003549051908152f35b5050346100eb57816003193601126100eb5760025490516001600160a01b039091168152602090f35b919050346101b657826003193601126101b6576102767f0000000000000000000000000000000000000000000000000000000000000000610d48565b926102a07f0000000000000000000000000000000000000000000000000000000000000000610e70565b90825192602092602085019585871067ffffffffffffffff88111761034757509260206102fd8388966102f0998b9996528686528151998a99600f60f81b8b5260e0868c015260e08b0190610a43565b91898303908a0152610a43565b924660608801523060808801528460a088015286840360c088015251928381520193925b82811061033057505050500390f35b835185528695509381019392810192600101610321565b634e487b7160e01b845260419052602483fd5b83346103b757806003193601126103b757610373610b30565b600280546001600160a01b0319811690915581906001600160a01b03167f8be0079c531659141344cd1fd0a4f28419497f9722a3daafe3b4186f6b6457e08280a380f35b80fd5b9050346101b65760203660031901126101b65760209260ff918391906001600160a01b036103e6610a2d565b168252855220541690519015158152f35b8383346100eb576003199181833601126103b757833567ffffffffffffffff938482116101b65760a08287019183360301126101b657602435908582116108365736602383011215610836578187013586811161083257366024828501011161083257608484013596874211610815576064850135916003548084036107f9575061048184610ac6565b94604460248801359701926104a06104998588610ada565b36916109f1565b9a8b516020809d0120918b51918d8301937fbe279b1059cf53c6ce8a69735f426c83210c85c739accac82d47d3553c82f93d85528d60018060a01b03809c16908501528b606085015260808401528760a084015260c083015260c0825260e0820190828210908211176107e55761055c9360428d610553958c989561054d95835251902061052c610c1d565b91519161190160f01b835260028301526022820152209260243692016109f1565b90610b5c565b90929192610b98565b1680875289895260ff8888205416156107cf5750841515806107b2575b6106ab575b600354600019811461069857600101600355858061059b85610ac6565b876105a68588610ada565b9190828d519384928337810185815203925af1983d15610690573d996105cb8b6109d5565b9a6105d88a519c8d6109b3565b8b523d888b8d013e5b1561066c5750937fb56464e8d66d94a0da93b5495a1a309fd739f8031e00f46008743a8e8d0c468093836080936106276106689a99986106218d98610ac6565b93610ada565b80999160608c51998a98895288015281606088015287870137848901860152888401521694601f01601f19168101030190a251928284938452830190610a43565b0390f35b87516315fcd67560e01b81529081018990528061068c602482018c610a43565b0390fd5b6060996105e1565b634e487b7160e01b875260118a52602487fd5b620151804204846106bb85610ac6565b16875260078952808888205410610781575b50836106d884610ac6565b168652600688526106ec8588882054610b0d565b846106f685610ac6565b16875260058952878720541061072c578361071084610ac6565b16865260068852868620610725868254610b0d565b905561057e565b50509260649692508490600661074186610ac6565b978461074c88610ac6565b1683528461075d8585205498610ac6565b1683525220549351631abec70560e11b815294169084015260248301526044820152fd5b8461078b85610ac6565b168752600689528688812055846107a185610ac6565b1687526007895287872055896106cd565b50836107bd84610ac6565b16865260058852868620541515610579565b8960249189519163e74c68bb60e01b8352820152fd5b50634e487b7160e01b8a5260418d5260248afd5b8a846044928b51926306427aeb60e01b84528301526024820152fd5b86516302a07ebf60e31b8152808a01899052426024820152604490fd5b8480fd5b8380fd5b919050346101b657806003193601126101b657610855610a2d565b602435801515809103610832577fd71d7c88579d0d5858da8cb9f6c4ce94826a5391ff03edf44f6a431180a1a6f59260209261088f610b30565b6001600160a01b0316808752948352808620805460ff191660ff841617905551908152a280f35b5050346100eb57806003193601126100eb577fd3d22ffd28b02735cf411bd7f925bd8da01212c7028153e0d632e2953ac3088e60206108f3610a2d565b602435906108ff610b30565b6001600160a01b0316808652600583528486208290559351908152a280f35b8284346103b757816003193601126103b7576024359067ffffffffffffffff82116103b757366023830112156103b7575060209261096861096f92369060248185013591016109f1565b9035610a83565b90516001600160e01b03199091168152f35b6040810190811067ffffffffffffffff82111761099d57604052565b634e487b7160e01b600052604160045260246000fd5b90601f8019910116810190811067ffffffffffffffff82111761099d57604052565b67ffffffffffffffff811161099d57601f01601f191660200190565b9291926109fd826109d5565b91610a0b60405193846109b3565b829481845281830111610a28578281602093846000960137010152565b600080fd5b600435906001600160a01b0382168203610a2857565b919082519283825260005b848110610a6f575050826000602080949584010152601f8019910116010190565b602081830181015184830182015201610a4e565b610a909161055391610b5c565b6001600160a01b031660009081526004602052604090205460ff16610abb576001600160e01b031990565b630b135d3f60e11b90565b356001600160a01b0381168103610a285790565b903590601e1981360301821215610a28570180359067ffffffffffffffff8211610a2857602001918136038313610a2857565b91908201809211610b1a57565b634e487b7160e01b600052601160045260246000fd5b6002546001600160a01b03163303610b4457565b60405163118cdaa760e01b8152336004820152602490fd5b8151919060418303610b8d57610b8692506020820151906060604084015193015160001a90610f49565b9192909190565b505060009160029190565b6004811015610c075780610baa575050565b60018103610bc45760405163f645eedf60e01b8152600490fd5b60028103610be55760405163fce698f760e01b815260048101839052602490fd5b600314610bef5750565b602490604051906335e2f38360e21b82526004820152fd5b634e487b7160e01b600052602160045260246000fd5b307f00000000000000000000000000000000000000000000000000000000000000006001600160a01b03161480610d1f575b15610c78577f000000000000000000000000000000000000000000000000000000000000000090565b60405160208101907f8b73c3c69bb8fe3d512ecc4cf759cc79239f7b179b0ffacaa9a75d522b39400f82527f000000000000000000000000000000000000000000000000000000000000000060408201527f000000000000000000000000000000000000000000000000000000000000000060608201524660808201523060a082015260a0815260c0810181811067ffffffffffffffff82111761099d5760405251902090565b507f00000000000000000000000000000000000000000000000000000000000000004614610c4f565b60ff8114610d865760ff811690601f8211610d745760405191610d6a83610981565b8252602082015290565b604051632cd44ac360e21b8152600490fd5b50604051600080549060018260011c9060018416938415610e66575b6020948584108114610e525783875286949392918115610e325750600114610dd6575b5050610dd3925003826109b3565b90565b60008080527f290decd9548b62a8d60345a988386fc84ba6bc95484008f6362f93160ef3e56395935091905b818310610e1a575050610dd393508201013880610dc5565b85548784018501529485019486945091830191610e02565b915050610dd394925060ff191682840152151560051b8201013880610dc5565b634e487b7160e01b85526022600452602485fd5b91607f1691610da2565b60ff8114610e925760ff811690601f8211610d745760405191610d6a83610981565b506040516000600190600154918260011c9060018416938415610f3f575b6020948584108114610e525783875286949392918115610e325750600114610ee0575050610dd3925003826109b3565b9093915060016000527fb10e2d527612073b26eecdfd717e6a320cf44b4afac2b0732d9fcbe2b7fa0cf6936000915b818310610f27575050610dd393508201013880610dc5565b85548784018501529485019486945091830191610f0f565b91607f1691610eb0565b91907f7fffffffffffffffffffffffffffffff5d576e7357a4501ddfe92f46681b20a08411610fcd57926020929160ff608095604051948552168484015260408301526060820152600092839182805260015afa15610fc15780516001600160a01b03811615610fb857918190565b50809160019190565b604051903d90823e3d90fd5b5050506000916003919056fea2646970667358221220d9acbdc59f2e3d6ed7585863fc624e539348160a36d11c5cc65cfeb3944fc2c164736f6c63430008180033","opcodes":"PUSH2 0x160 CALLVALUE PUSH3 0x23D JUMPI PUSH1 0x1 PUSH1 0x1 PUSH1 0x40 SHL SUB SWAP1 PUSH1 0x1F PUSH3 0x15EE CODESIZE DUP2 SWAP1 SUB SWAP2 DUP3 ADD PUSH1 0x1F NOT AND DUP4 ADD SWAP3 SWAP2 DUP5 DUP5 GT DUP4 DUP6 LT OR PUSH3 0x227 JUMPI DUP1 DUP4 SWAP3 PUSH1 0x40 SWAP6 DUP7 MSTORE DUP4 CODECOPY PUSH1 0x20 SWAP3 DUP4 SWAP2 DUP2 ADD SUB SLT PUSH3 0x23D JUMPI MLOAD PUSH1 0x1 PUSH1 0x1 PUSH1 0xA0 SHL SUB SWAP3 SWAP1 DUP4 DUP2 AND SWAP1 DUP2 SWAP1 SUB PUSH3 0x23D JUMPI DUP2 MLOAD SWAP3 PUSH3 0x6F DUP5 PUSH3 0x242 JUMP JUMPDEST PUSH1 0xB DUP5 MSTORE DUP1 DUP5 ADD SWAP5 PUSH11 0x1059D95B9D15D85B1B195D PUSH1 0xAA SHL DUP7 MSTORE DUP4 MLOAD SWAP7 PUSH3 0x96 DUP9 PUSH3 0x242 JUMP JUMPDEST PUSH1 0x1 DUP9 MSTORE DUP3 DUP9 ADD PUSH1 0x31 PUSH1 0xF8 SHL DUP2 MSTORE PUSH3 0xAF DUP8 PUSH3 0x25E JUMP JUMPDEST SWAP8 PUSH2 0x120 SWAP9 DUP10 MSTORE PUSH3 0xC1 DUP11 PUSH3 0x431 JUMP JUMPDEST SWAP8 PUSH2 0x140 SWAP9 DUP10 MSTORE MLOAD SWAP1 KECCAK256 SWAP9 DUP10 PUSH1 0xE0 MSTORE MLOAD SWAP1 KECCAK256 PUSH2 0x100 SWAP9 DUP2 DUP11 MSTORE CHAINID PUSH1 0xA0 MSTORE DUP7 MLOAD SWAP2 DUP6 DUP4 ADD SWAP2 PUSH32 0x8B73C3C69BB8FE3D512ECC4CF759CC79239F7B179B0FFACAA9A75D522B39400F DUP4 MSTORE DUP9 DUP5 ADD MSTORE PUSH1 0x60 DUP4 ADD MSTORE CHAINID PUSH1 0x80 DUP4 ADD MSTORE ADDRESS PUSH1 0xA0 DUP4 ADD MSTORE PUSH1 0xA0 DUP3 MSTORE PUSH1 0xC0 DUP3 ADD SWAP3 DUP3 DUP5 LT SWAP1 DUP5 GT OR PUSH3 0x227 JUMPI DUP3 DUP8 MSTORE DUP2 MLOAD SWAP1 KECCAK256 PUSH1 0x80 MSTORE ADDRESS PUSH1 0xC0 MSTORE CALLER ISZERO PUSH3 0x210 JUMPI POP POP PUSH1 0x2 DUP1 SLOAD CALLER PUSH1 0x1 PUSH1 0x1 PUSH1 0xA0 SHL SUB NOT DUP3 AND DUP2 OR SWAP1 SWAP3 SSTORE DUP6 MLOAD PUSH32 0xD71D7C88579D0D5858DA8CB9F6C4CE94826A5391FF03EDF44F6A431180A1A6F5 SWAP5 SWAP4 SWAP1 SWAP3 SWAP2 AND PUSH32 0x8BE0079C531659141344CD1FD0A4F28419497F9722A3DAAFE3B4186F6B6457E0 PUSH1 0x0 DUP1 LOG3 DUP4 PUSH1 0x0 MSTORE PUSH1 0x4 DUP3 MSTORE DUP5 PUSH1 0x0 KECCAK256 PUSH1 0x1 PUSH1 0xFF NOT DUP3 SLOAD AND OR SWAP1 SSTORE PUSH1 0x1 DUP2 MSTORE LOG2 MLOAD SWAP2 PUSH2 0x100F SWAP4 DUP5 PUSH3 0x5DF DUP6 CODECOPY PUSH1 0x80 MLOAD DUP5 PUSH2 0xC56 ADD MSTORE PUSH1 0xA0 MLOAD DUP5 PUSH2 0xD22 ADD MSTORE PUSH1 0xC0 MLOAD DUP5 PUSH2 0xC20 ADD MSTORE PUSH1 0xE0 MLOAD DUP5 PUSH2 0xCA5 ADD MSTORE MLOAD DUP4 PUSH2 0xCCB ADD MSTORE MLOAD DUP3 PUSH2 0x252 ADD MSTORE MLOAD DUP2 PUSH2 0x27C ADD MSTORE RETURN JUMPDEST PUSH4 0x1E4FBDF7 PUSH1 0xE0 SHL DUP3 MSTORE PUSH1 0x0 PUSH1 0xC4 SWAP1 SWAP2 ADD MSTORE PUSH1 0x24 SWAP1 REVERT JUMPDEST PUSH4 0x4E487B71 PUSH1 0xE0 SHL PUSH1 0x0 MSTORE PUSH1 0x41 PUSH1 0x4 MSTORE PUSH1 0x24 PUSH1 0x0 REVERT JUMPDEST PUSH1 0x0 DUP1 REVERT JUMPDEST PUSH1 0x40 DUP2 ADD SWAP1 DUP2 LT PUSH1 0x1 PUSH1 0x1 PUSH1 0x40 SHL SUB DUP3 GT OR PUSH3 0x227 JUMPI PUSH1 0x40 MSTORE JUMP JUMPDEST DUP1 MLOAD PUSH1 0x20 SWAP2 SWAP1 DUP3 DUP2 LT ISZERO PUSH3 0x2FD JUMPI POP SWAP1 PUSH1 0x1F DUP3 MLOAD GT PUSH3 0x29C JUMPI DUP1 DUP3 MLOAD SWAP3 ADD MLOAD SWAP1 DUP1 DUP4 LT PUSH3 0x28D JUMPI POP OR SWAP1 JUMP JUMPDEST DUP3 PUSH1 0x0 NOT SWAP2 SUB PUSH1 0x3 SHL SHL AND OR SWAP1 JUMP JUMPDEST SWAP1 PUSH1 0x40 MLOAD DUP1 SWAP3 PUSH4 0x305A27A9 PUSH1 0xE0 SHL DUP3 MSTORE DUP1 PUSH1 0x4 DUP4 ADD MSTORE DUP3 MLOAD SWAP1 DUP2 PUSH1 0x24 DUP5 ADD MSTORE PUSH1 0x0 SWAP4 JUMPDEST DUP3 DUP6 LT PUSH3 0x2E3 JUMPI POP POP PUSH1 0x44 SWAP3 POP PUSH1 0x0 DUP4 DUP3 DUP5 ADD ADD MSTORE PUSH1 0x1F DUP1 NOT SWAP2 ADD AND DUP2 ADD SUB ADD SWAP1 REVERT JUMPDEST DUP5 DUP2 ADD DUP3 ADD MLOAD DUP7 DUP7 ADD PUSH1 0x44 ADD MSTORE SWAP4 DUP2 ADD SWAP4 DUP6 SWAP4 POP PUSH3 0x2BF JUMP JUMPDEST PUSH1 0x1 PUSH1 0x1 PUSH1 0x40 SHL SUB DUP2 GT PUSH3 0x227 JUMPI PUSH1 0x0 SWAP3 DUP4 SLOAD SWAP3 PUSH1 0x1 SWAP4 DUP5 DUP2 DUP2 SHR SWAP2 AND DUP1 ISZERO PUSH3 0x426 JUMPI JUMPDEST DUP4 DUP3 LT EQ PUSH3 0x412 JUMPI PUSH1 0x1F DUP2 GT PUSH3 0x3DC JUMPI JUMPDEST POP DUP2 PUSH1 0x1F DUP5 GT PUSH1 0x1 EQ PUSH3 0x375 JUMPI POP SWAP3 DUP3 SWAP4 SWAP2 DUP4 SWAP3 DUP7 SWAP5 PUSH3 0x369 JUMPI JUMPDEST POP POP SHL SWAP2 PUSH1 0x0 NOT SWAP1 PUSH1 0x3 SHL SHR NOT AND OR SWAP1 SSTORE PUSH1 0xFF SWAP1 JUMP JUMPDEST ADD MLOAD SWAP3 POP CODESIZE DUP1 PUSH3 0x353 JUMP JUMPDEST SWAP2 SWAP1 DUP4 PUSH1 0x1F NOT DUP2 AND DUP8 DUP1 MSTORE DUP5 DUP9 KECCAK256 SWAP5 DUP9 SWAP1 JUMPDEST DUP9 DUP4 DUP4 LT PUSH3 0x3C1 JUMPI POP POP POP LT PUSH3 0x3A7 JUMPI JUMPDEST POP POP POP DUP2 SHL ADD SWAP1 SSTORE PUSH1 0xFF SWAP1 JUMP JUMPDEST ADD MLOAD PUSH1 0x0 NOT PUSH1 0xF8 DUP5 PUSH1 0x3 SHL AND SHR NOT AND SWAP1 SSTORE CODESIZE DUP1 DUP1 PUSH3 0x39A JUMP JUMPDEST DUP6 DUP8 ADD MLOAD DUP9 SSTORE SWAP1 SWAP7 ADD SWAP6 SWAP5 DUP6 ADD SWAP5 DUP8 SWAP4 POP SWAP1 DUP2 ADD SWAP1 PUSH3 0x387 JUMP JUMPDEST DUP6 DUP1 MSTORE DUP5 PUSH1 0x1F DUP5 DUP9 KECCAK256 SWAP3 ADD PUSH1 0x5 SHR DUP3 ADD SWAP2 PUSH1 0x1F DUP7 ADD PUSH1 0x5 SHR ADD JUMPDEST DUP3 DUP2 LT PUSH3 0x406 JUMPI POP POP PUSH3 0x336 JUMP JUMPDEST DUP8 DUP2 SSTORE ADD DUP6 SWAP1 PUSH3 0x3F6 JUMP JUMPDEST PUSH4 0x4E487B71 PUSH1 0xE0 SHL DUP7 MSTORE PUSH1 0x22 PUSH1 0x4 MSTORE PUSH1 0x24 DUP7 REVERT JUMPDEST SWAP1 PUSH1 0x7F AND SWAP1 PUSH3 0x323 JUMP JUMPDEST DUP1 MLOAD PUSH1 0x20 SWAP1 DUP2 DUP2 LT ISZERO PUSH3 0x4BF JUMPI POP PUSH1 0x1F DUP3 MLOAD GT PUSH3 0x45E JUMPI DUP1 DUP3 MLOAD SWAP3 ADD MLOAD SWAP1 DUP1 DUP4 LT PUSH3 0x28D JUMPI POP OR SWAP1 JUMP JUMPDEST SWAP1 PUSH1 0x40 MLOAD DUP1 SWAP3 PUSH4 0x305A27A9 PUSH1 0xE0 SHL DUP3 MSTORE DUP1 PUSH1 0x4 DUP4 ADD MSTORE DUP3 MLOAD SWAP1 DUP2 PUSH1 0x24 DUP5 ADD MSTORE PUSH1 0x0 SWAP4 JUMPDEST DUP3 DUP6 LT PUSH3 0x4A5 JUMPI POP POP PUSH1 0x44 SWAP3 POP PUSH1 0x0 DUP4 DUP3 DUP5 ADD ADD MSTORE PUSH1 0x1F DUP1 NOT SWAP2 ADD AND DUP2 ADD SUB ADD SWAP1 REVERT JUMPDEST DUP5 DUP2 ADD DUP3 ADD MLOAD DUP7 DUP7 ADD PUSH1 0x44 ADD MSTORE SWAP4 DUP2 ADD SWAP4 DUP6 SWAP4 POP PUSH3 0x481 JUMP JUMPDEST SWAP2 SWAP3 SWAP2 PUSH1 0x1 PUSH1 0x1 PUSH1 0x40 SHL SUB DUP2 GT PUSH3 0x227 JUMPI PUSH1 0x1 SWAP2 DUP3 SLOAD DUP4 DUP2 DUP2 SHR SWAP2 AND DUP1 ISZERO PUSH3 0x5D3 JUMPI JUMPDEST DUP3 DUP3 LT EQ PUSH3 0x5BD JUMPI PUSH1 0x1F DUP2 GT PUSH3 0x584 JUMPI JUMPDEST POP DUP1 PUSH1 0x1F DUP4 GT PUSH1 0x1 EQ PUSH3 0x537 JUMPI POP DUP2 SWAP3 SWAP4 SWAP5 PUSH1 0x0 SWAP3 PUSH3 0x52B JUMPI JUMPDEST POP POP PUSH1 0x0 NOT PUSH1 0x3 DUP4 SWAP1 SHL SHR NOT AND SWAP1 DUP3 SHL OR SWAP1 SSTORE PUSH1 0xFF SWAP1 JUMP JUMPDEST ADD MLOAD SWAP1 POP CODESIZE DUP1 PUSH3 0x513 JUMP JUMPDEST SWAP1 PUSH1 0x1F NOT DUP4 AND SWAP6 DUP5 PUSH1 0x0 MSTORE DUP3 PUSH1 0x0 KECCAK256 SWAP3 PUSH1 0x0 SWAP1 JUMPDEST DUP9 DUP3 LT PUSH3 0x56C JUMPI POP POP DUP4 DUP6 SWAP7 SWAP8 LT PUSH3 0x3A7 JUMPI POP POP POP DUP2 SHL ADD SWAP1 SSTORE PUSH1 0xFF SWAP1 JUMP JUMPDEST DUP1 DUP8 DUP6 SWAP7 DUP3 SWAP5 SWAP7 DUP7 ADD MLOAD DUP2 SSTORE ADD SWAP6 ADD SWAP4 ADD SWAP1 PUSH3 0x54B JUMP JUMPDEST DUP4 PUSH1 0x0 MSTORE DUP4 PUSH1 0x1F DUP4 PUSH1 0x0 KECCAK256 SWAP3 ADD PUSH1 0x5 SHR DUP3 ADD SWAP2 PUSH1 0x1F DUP6 ADD PUSH1 0x5 SHR ADD JUMPDEST DUP3 DUP2 LT PUSH3 0x5B0 JUMPI POP POP PUSH3 0x4F7 JUMP JUMPDEST PUSH1 0x0 DUP2 SSTORE ADD DUP5 SWAP1 PUSH3 0x5A0 JUMP JUMPDEST PUSH4 0x4E487B71 PUSH1 0xE0 SHL PUSH1 0x0 MSTORE PUSH1 0x22 PUSH1 0x4 MSTORE PUSH1 0x24 PUSH1 0x0 REVERT JUMPDEST SWAP1 PUSH1 0x7F AND SWAP1 PUSH3 0x4E4 JUMP INVALID PUSH1 0x40 PUSH1 0x80 DUP2 MSTORE PUSH1 0x4 SWAP1 DUP2 CALLDATASIZE LT ISZERO PUSH2 0x1D JUMPI JUMPDEST POP POP CALLDATASIZE ISZERO PUSH2 0x1B JUMPI STOP JUMPDEST STOP JUMPDEST PUSH1 0x0 SWAP2 DUP3 CALLDATALOAD PUSH1 0xE0 SHR SWAP1 DUP2 PUSH4 0x1626BA7E EQ PUSH2 0x91E JUMPI DUP2 PUSH4 0x2803212F EQ PUSH2 0x8B6 JUMPI DUP2 PUSH4 0x31CB6105 EQ PUSH2 0x83A JUMPI DUP2 PUSH4 0x3E6FB639 EQ PUSH2 0x3F7 JUMPI DUP2 PUSH4 0x5D2B6A4E EQ PUSH2 0x3BA JUMPI DUP2 PUSH4 0x715018A6 EQ PUSH2 0x35A JUMPI DUP2 PUSH4 0x84B0196E EQ PUSH2 0x23A JUMPI DUP2 PUSH4 0x8DA5CB5B EQ PUSH2 0x211 JUMPI DUP2 PUSH4 0xAFFED0E0 EQ PUSH2 0x1F2 JUMPI DUP2 PUSH4 0xE10AA51F EQ PUSH2 0x1BA JUMPI DUP2 PUSH4 0xF2FDE38B EQ PUSH2 0x126 JUMPI POP DUP1 PUSH4 0xF3F51415 EQ PUSH2 0xEF JUMPI PUSH4 0xFFC8ADA6 SUB PUSH2 0x11 JUMPI CALLVALUE PUSH2 0xEB JUMPI PUSH1 0x20 CALLDATASIZE PUSH1 0x3 NOT ADD SLT PUSH2 0xEB JUMPI PUSH1 0x20 SWAP2 DUP2 SWAP1 PUSH1 0x1 PUSH1 0x1 PUSH1 0xA0 SHL SUB PUSH2 0xDB PUSH2 0xA2D JUMP JUMPDEST AND DUP2 MSTORE PUSH1 0x6 DUP5 MSTORE KECCAK256 SLOAD SWAP1 MLOAD SWAP1 DUP2 MSTORE RETURN JUMPDEST POP DUP1 REVERT JUMPDEST POP CALLVALUE PUSH2 0xEB JUMPI PUSH1 0x20 CALLDATASIZE PUSH1 0x3 NOT ADD SLT PUSH2 0xEB JUMPI PUSH1 0x20 SWAP2 DUP2 SWAP1 PUSH1 0x1 PUSH1 0x1 PUSH1 0xA0 SHL SUB PUSH2 0x116 PUSH2 0xA2D JUMP JUMPDEST AND DUP2 MSTORE PUSH1 0x5 DUP5 MSTORE KECCAK256 SLOAD SWAP1 MLOAD SWAP1 DUP2 MSTORE RETURN JUMPDEST SWAP1 POP CALLVALUE PUSH2 0x1B6 JUMPI PUSH1 0x20 CALLDATASIZE PUSH1 0x3 NOT ADD SLT PUSH2 0x1B6 JUMPI PUSH2 0x141 PUSH2 0xA2D JUMP JUMPDEST SWAP1 PUSH2 0x14A PUSH2 0xB30 JUMP JUMPDEST PUSH1 0x1 PUSH1 0x1 PUSH1 0xA0 SHL SUB SWAP2 DUP3 AND SWAP3 DUP4 ISZERO PUSH2 0x1A0 JUMPI POP POP PUSH1 0x2 SLOAD DUP3 PUSH12 0xFFFFFFFFFFFFFFFFFFFFFFFF PUSH1 0xA0 SHL DUP3 AND OR PUSH1 0x2 SSTORE AND PUSH32 0x8BE0079C531659141344CD1FD0A4F28419497F9722A3DAAFE3B4186F6B6457E0 DUP4 DUP1 LOG3 DUP1 RETURN JUMPDEST MLOAD PUSH4 0x1E4FBDF7 PUSH1 0xE0 SHL DUP2 MSTORE SWAP1 DUP2 ADD DUP5 SWAP1 MSTORE PUSH1 0x24 SWAP1 REVERT JUMPDEST DUP3 DUP1 REVERT JUMPDEST POP POP CALLVALUE PUSH2 0xEB JUMPI PUSH1 0x20 CALLDATASIZE PUSH1 0x3 NOT ADD SLT PUSH2 0xEB JUMPI PUSH1 0x20 SWAP2 DUP2 SWAP1 PUSH1 0x1 PUSH1 0x1 PUSH1 0xA0 SHL SUB PUSH2 0x1E2 PUSH2 0xA2D JUMP JUMPDEST AND DUP2 MSTORE PUSH1 0x7 DUP5 MSTORE KECCAK256 SLOAD SWAP1 MLOAD SWAP1 DUP2 MSTORE RETURN JUMPDEST POP POP CALLVALUE PUSH2 0xEB JUMPI DUP2 PUSH1 0x3 NOT CALLDATASIZE ADD SLT PUSH2 0xEB JUMPI PUSH1 0x20 SWAP1 PUSH1 0x3 SLOAD SWAP1 MLOAD SWAP1 DUP2 MSTORE RETURN JUMPDEST POP POP CALLVALUE PUSH2 0xEB JUMPI DUP2 PUSH1 0x3 NOT CALLDATASIZE ADD SLT PUSH2 0xEB JUMPI PUSH1 0x2 SLOAD SWAP1 MLOAD PUSH1 0x1 PUSH1 0x1 PUSH1 0xA0 SHL SUB SWAP1 SWAP2 AND DUP2 MSTORE PUSH1 0x20 SWAP1 RETURN JUMPDEST SWAP2 SWAP1 POP CALLVALUE PUSH2 0x1B6 JUMPI DUP3 PUSH1 0x3 NOT CALLDATASIZE ADD SLT PUSH2 0x1B6 JUMPI PUSH2 0x276 PUSH32 0x0 PUSH2 0xD48 JUMP JUMPDEST SWAP3 PUSH2 0x2A0 PUSH32 0x0 PUSH2 0xE70 JUMP JUMPDEST SWAP1 DUP3 MLOAD SWAP3 PUSH1 0x20 SWAP3 PUSH1 0x20 DUP6 ADD SWAP6 DUP6 DUP8 LT PUSH8 0xFFFFFFFFFFFFFFFF DUP9 GT OR PUSH2 0x347 JUMPI POP SWAP3 PUSH1 0x20 PUSH2 0x2FD DUP4 DUP9 SWAP7 PUSH2 0x2F0 SWAP10 DUP12 SWAP10 SWAP7 MSTORE DUP7 DUP7 MSTORE DUP2 MLOAD SWAP10 DUP11 SWAP10 PUSH1 0xF PUSH1 0xF8 SHL DUP12 MSTORE PUSH1 0xE0 DUP7 DUP13 ADD MSTORE PUSH1 0xE0 DUP12 ADD SWAP1 PUSH2 0xA43 JUMP JUMPDEST SWAP2 DUP10 DUP4 SUB SWAP1 DUP11 ADD MSTORE PUSH2 0xA43 JUMP JUMPDEST SWAP3 CHAINID PUSH1 0x60 DUP9 ADD MSTORE ADDRESS PUSH1 0x80 DUP9 ADD MSTORE DUP5 PUSH1 0xA0 DUP9 ADD MSTORE DUP7 DUP5 SUB PUSH1 0xC0 DUP9 ADD MSTORE MLOAD SWAP3 DUP4 DUP2 MSTORE ADD SWAP4 SWAP3 JUMPDEST DUP3 DUP2 LT PUSH2 0x330 JUMPI POP POP POP POP SUB SWAP1 RETURN JUMPDEST DUP4 MLOAD DUP6 MSTORE DUP7 SWAP6 POP SWAP4 DUP2 ADD SWAP4 SWAP3 DUP2 ADD SWAP3 PUSH1 0x1 ADD PUSH2 0x321 JUMP JUMPDEST PUSH4 0x4E487B71 PUSH1 0xE0 SHL DUP5 MSTORE PUSH1 0x41 SWAP1 MSTORE PUSH1 0x24 DUP4 REVERT JUMPDEST DUP4 CALLVALUE PUSH2 0x3B7 JUMPI DUP1 PUSH1 0x3 NOT CALLDATASIZE ADD SLT PUSH2 0x3B7 JUMPI PUSH2 0x373 PUSH2 0xB30 JUMP JUMPDEST PUSH1 0x2 DUP1 SLOAD PUSH1 0x1 PUSH1 0x1 PUSH1 0xA0 SHL SUB NOT DUP2 AND SWAP1 SWAP2 SSTORE DUP2 SWAP1 PUSH1 0x1 PUSH1 0x1 PUSH1 0xA0 SHL SUB AND PUSH32 0x8BE0079C531659141344CD1FD0A4F28419497F9722A3DAAFE3B4186F6B6457E0 DUP3 DUP1 LOG3 DUP1 RETURN JUMPDEST DUP1 REVERT JUMPDEST SWAP1 POP CALLVALUE PUSH2 0x1B6 JUMPI PUSH1 0x20 CALLDATASIZE PUSH1 0x3 NOT ADD SLT PUSH2 0x1B6 JUMPI PUSH1 0x20 SWAP3 PUSH1 0xFF SWAP2 DUP4 SWAP2 SWAP1 PUSH1 0x1 PUSH1 0x1 PUSH1 0xA0 SHL SUB PUSH2 0x3E6 PUSH2 0xA2D JUMP JUMPDEST AND DUP3 MSTORE DUP6 MSTORE KECCAK256 SLOAD AND SWAP1 MLOAD SWAP1 ISZERO ISZERO DUP2 MSTORE RETURN JUMPDEST DUP4 DUP4 CALLVALUE PUSH2 0xEB JUMPI PUSH1 0x3 NOT SWAP2 DUP2 DUP4 CALLDATASIZE ADD SLT PUSH2 0x3B7 JUMPI DUP4 CALLDATALOAD PUSH8 0xFFFFFFFFFFFFFFFF SWAP4 DUP5 DUP3 GT PUSH2 0x1B6 JUMPI PUSH1 0xA0 DUP3 DUP8 ADD SWAP2 DUP4 CALLDATASIZE SUB ADD SLT PUSH2 0x1B6 JUMPI PUSH1 0x24 CALLDATALOAD SWAP1 DUP6 DUP3 GT PUSH2 0x836 JUMPI CALLDATASIZE PUSH1 0x23 DUP4 ADD SLT ISZERO PUSH2 0x836 JUMPI DUP2 DUP8 ADD CALLDATALOAD DUP7 DUP2 GT PUSH2 0x832 JUMPI CALLDATASIZE PUSH1 0x24 DUP3 DUP6 ADD ADD GT PUSH2 0x832 JUMPI PUSH1 0x84 DUP5 ADD CALLDATALOAD SWAP7 DUP8 TIMESTAMP GT PUSH2 0x815 JUMPI PUSH1 0x64 DUP6 ADD CALLDATALOAD SWAP2 PUSH1 0x3 SLOAD DUP1 DUP5 SUB PUSH2 0x7F9 JUMPI POP PUSH2 0x481 DUP5 PUSH2 0xAC6 JUMP JUMPDEST SWAP5 PUSH1 0x44 PUSH1 0x24 DUP9 ADD CALLDATALOAD SWAP8 ADD SWAP3 PUSH2 0x4A0 PUSH2 0x499 DUP6 DUP9 PUSH2 0xADA JUMP JUMPDEST CALLDATASIZE SWAP2 PUSH2 0x9F1 JUMP JUMPDEST SWAP11 DUP12 MLOAD PUSH1 0x20 DUP1 SWAP14 ADD KECCAK256 SWAP2 DUP12 MLOAD SWAP2 DUP14 DUP4 ADD SWAP4 PUSH32 0xBE279B1059CF53C6CE8A69735F426C83210C85C739ACCAC82D47D3553C82F93D DUP6 MSTORE DUP14 PUSH1 0x1 DUP1 PUSH1 0xA0 SHL SUB DUP1 SWAP13 AND SWAP1 DUP6 ADD MSTORE DUP12 PUSH1 0x60 DUP6 ADD MSTORE PUSH1 0x80 DUP5 ADD MSTORE DUP8 PUSH1 0xA0 DUP5 ADD MSTORE PUSH1 0xC0 DUP4 ADD MSTORE PUSH1 0xC0 DUP3 MSTORE PUSH1 0xE0 DUP3 ADD SWAP1 DUP3 DUP3 LT SWAP1 DUP3 GT OR PUSH2 0x7E5 JUMPI PUSH2 0x55C SWAP4 PUSH1 0x42 DUP14 PUSH2 0x553 SWAP6 DUP13 SWAP9 SWAP6 PUSH2 0x54D SWAP6 DUP4 MSTORE MLOAD SWAP1 KECCAK256 PUSH2 0x52C PUSH2 0xC1D JUMP JUMPDEST SWAP2 MLOAD SWAP2 PUSH2 0x1901 PUSH1 0xF0 SHL DUP4 MSTORE PUSH1 0x2 DUP4 ADD MSTORE PUSH1 0x22 DUP3 ADD MSTORE KECCAK256 SWAP3 PUSH1 0x24 CALLDATASIZE SWAP3 ADD PUSH2 0x9F1 JUMP JUMPDEST SWAP1 PUSH2 0xB5C JUMP JUMPDEST SWAP1 SWAP3 SWAP2 SWAP3 PUSH2 0xB98 JUMP JUMPDEST AND DUP1 DUP8 MSTORE DUP10 DUP10 MSTORE PUSH1 0xFF DUP9 DUP9 KECCAK256 SLOAD AND ISZERO PUSH2 0x7CF JUMPI POP DUP5 ISZERO ISZERO DUP1 PUSH2 0x7B2 JUMPI JUMPDEST PUSH2 0x6AB JUMPI JUMPDEST PUSH1 0x3 SLOAD PUSH1 0x0 NOT DUP2 EQ PUSH2 0x698 JUMPI PUSH1 0x1 ADD PUSH1 0x3 SSTORE DUP6 DUP1 PUSH2 0x59B DUP6 PUSH2 0xAC6 JUMP JUMPDEST DUP8 PUSH2 0x5A6 DUP6 DUP9 PUSH2 0xADA JUMP JUMPDEST SWAP2 SWAP1 DUP3 DUP14 MLOAD SWAP4 DUP5 SWAP3 DUP4 CALLDATACOPY DUP2 ADD DUP6 DUP2 MSTORE SUB SWAP3 GAS CALL SWAP9 RETURNDATASIZE ISZERO PUSH2 0x690 JUMPI RETURNDATASIZE SWAP10 PUSH2 0x5CB DUP12 PUSH2 0x9D5 JUMP JUMPDEST SWAP11 PUSH2 0x5D8 DUP11 MLOAD SWAP13 DUP14 PUSH2 0x9B3 JUMP JUMPDEST DUP12 MSTORE RETURNDATASIZE DUP9 DUP12 DUP14 ADD RETURNDATACOPY JUMPDEST ISZERO PUSH2 0x66C JUMPI POP SWAP4 PUSH32 0xB56464E8D66D94A0DA93B5495A1A309FD739F8031E00F46008743A8E8D0C4680 SWAP4 DUP4 PUSH1 0x80 SWAP4 PUSH2 0x627 PUSH2 0x668 SWAP11 SWAP10 SWAP9 PUSH2 0x621 DUP14 SWAP9 PUSH2 0xAC6 JUMP JUMPDEST SWAP4 PUSH2 0xADA JUMP JUMPDEST DUP1 SWAP10 SWAP2 PUSH1 0x60 DUP13 MLOAD SWAP10 DUP11 SWAP9 DUP10 MSTORE DUP9 ADD MSTORE DUP2 PUSH1 0x60 DUP9 ADD MSTORE DUP8 DUP8 ADD CALLDATACOPY DUP5 DUP10 ADD DUP7 ADD MSTORE DUP9 DUP5 ADD MSTORE AND SWAP5 PUSH1 0x1F ADD PUSH1 0x1F NOT AND DUP2 ADD SUB ADD SWAP1 LOG2 MLOAD SWAP3 DUP3 DUP5 SWAP4 DUP5 MSTORE DUP4 ADD SWAP1 PUSH2 0xA43 JUMP JUMPDEST SUB SWAP1 RETURN JUMPDEST DUP8 MLOAD PUSH4 0x15FCD675 PUSH1 0xE0 SHL DUP2 MSTORE SWAP1 DUP2 ADD DUP10 SWAP1 MSTORE DUP1 PUSH2 0x68C PUSH1 0x24 DUP3 ADD DUP13 PUSH2 0xA43 JUMP JUMPDEST SUB SWAP1 REVERT JUMPDEST PUSH1 0x60 SWAP10 PUSH2 0x5E1 JUMP JUMPDEST PUSH4 0x4E487B71 PUSH1 0xE0 SHL DUP8 MSTORE PUSH1 0x11 DUP11 MSTORE PUSH1 0x24 DUP8 REVERT JUMPDEST PUSH3 0x15180 TIMESTAMP DIV DUP5 PUSH2 0x6BB DUP6 PUSH2 0xAC6 JUMP JUMPDEST AND DUP8 MSTORE PUSH1 0x7 DUP10 MSTORE DUP1 DUP9 DUP9 KECCAK256 SLOAD LT PUSH2 0x781 JUMPI JUMPDEST POP DUP4 PUSH2 0x6D8 DUP5 PUSH2 0xAC6 JUMP JUMPDEST AND DUP7 MSTORE PUSH1 0x6 DUP9 MSTORE PUSH2 0x6EC DUP6 DUP9 DUP9 KECCAK256 SLOAD PUSH2 0xB0D JUMP JUMPDEST DUP5 PUSH2 0x6F6 DUP6 PUSH2 0xAC6 JUMP JUMPDEST AND DUP8 MSTORE PUSH1 0x5 DUP10 MSTORE DUP8 DUP8 KECCAK256 SLOAD LT PUSH2 0x72C JUMPI DUP4 PUSH2 0x710 DUP5 PUSH2 0xAC6 JUMP JUMPDEST AND DUP7 MSTORE PUSH1 0x6 DUP9 MSTORE DUP7 DUP7 KECCAK256 PUSH2 0x725 DUP7 DUP3 SLOAD PUSH2 0xB0D JUMP JUMPDEST SWAP1 SSTORE PUSH2 0x57E JUMP JUMPDEST POP POP SWAP3 PUSH1 0x64 SWAP7 SWAP3 POP DUP5 SWAP1 PUSH1 0x6 PUSH2 0x741 DUP7 PUSH2 0xAC6 JUMP JUMPDEST SWAP8 DUP5 PUSH2 0x74C DUP9 PUSH2 0xAC6 JUMP JUMPDEST AND DUP4 MSTORE DUP5 PUSH2 0x75D DUP6 DUP6 KECCAK256 SLOAD SWAP9 PUSH2 0xAC6 JUMP JUMPDEST AND DUP4 MSTORE MSTORE KECCAK256 SLOAD SWAP4 MLOAD PUSH4 0x1ABEC705 PUSH1 0xE1 SHL DUP2 MSTORE SWAP5 AND SWAP1 DUP5 ADD MSTORE PUSH1 0x24 DUP4 ADD MSTORE PUSH1 0x44 DUP3 ADD MSTORE REVERT JUMPDEST DUP5 PUSH2 0x78B DUP6 PUSH2 0xAC6 JUMP JUMPDEST AND DUP8 MSTORE PUSH1 0x6 DUP10 MSTORE DUP7 DUP9 DUP2 KECCAK256 SSTORE DUP5 PUSH2 0x7A1 DUP6 PUSH2 0xAC6 JUMP JUMPDEST AND DUP8 MSTORE PUSH1 0x7 DUP10 MSTORE DUP8 DUP8 KECCAK256 SSTORE DUP10 PUSH2 0x6CD JUMP JUMPDEST POP DUP4 PUSH2 0x7BD DUP5 PUSH2 0xAC6 JUMP JUMPDEST AND DUP7 MSTORE PUSH1 0x5 DUP9 MSTORE DUP7 DUP7 KECCAK256 SLOAD ISZERO ISZERO PUSH2 0x579 JUMP JUMPDEST DUP10 PUSH1 0x24 SWAP2 DUP10 MLOAD SWAP2 PUSH4 0xE74C68BB PUSH1 0xE0 SHL DUP4 MSTORE DUP3 ADD MSTORE REVERT JUMPDEST POP PUSH4 0x4E487B71 PUSH1 0xE0 SHL DUP11 MSTORE PUSH1 0x41 DUP14 MSTORE PUSH1 0x24 DUP11 REVERT JUMPDEST DUP11 DUP5 PUSH1 0x44 SWAP3 DUP12 MLOAD SWAP3 PUSH4 0x6427AEB PUSH1 0xE0 SHL DUP5 MSTORE DUP4 ADD MSTORE PUSH1 0x24 DUP3 ADD MSTORE REVERT JUMPDEST DUP7 MLOAD PUSH4 0x2A07EBF PUSH1 0xE3 SHL DUP2 MSTORE DUP1 DUP11 ADD DUP10 SWAP1 MSTORE TIMESTAMP PUSH1 0x24 DUP3 ADD MSTORE PUSH1 0x44 SWAP1 REVERT JUMPDEST DUP5 DUP1 REVERT JUMPDEST DUP4 DUP1 REVERT JUMPDEST SWAP2 SWAP1 POP CALLVALUE PUSH2 0x1B6 JUMPI DUP1 PUSH1 0x3 NOT CALLDATASIZE ADD SLT PUSH2 0x1B6 JUMPI PUSH2 0x855 PUSH2 0xA2D JUMP JUMPDEST PUSH1 0x24 CALLDATALOAD DUP1 ISZERO ISZERO DUP1 SWAP2 SUB PUSH2 0x832 JUMPI PUSH32 0xD71D7C88579D0D5858DA8CB9F6C4CE94826A5391FF03EDF44F6A431180A1A6F5 SWAP3 PUSH1 0x20 SWAP3 PUSH2 0x88F PUSH2 0xB30 JUMP JUMPDEST PUSH1 0x1 PUSH1 0x1 PUSH1 0xA0 SHL SUB AND DUP1 DUP8 MSTORE SWAP5 DUP4 MSTORE DUP1 DUP7 KECCAK256 DUP1 SLOAD PUSH1 0xFF NOT AND PUSH1 0xFF DUP5 AND OR SWAP1 SSTORE MLOAD SWAP1 DUP2 MSTORE LOG2 DUP1 RETURN JUMPDEST POP POP CALLVALUE PUSH2 0xEB JUMPI DUP1 PUSH1 0x3 NOT CALLDATASIZE ADD SLT PUSH2 0xEB JUMPI PUSH32 0xD3D22FFD28B02735CF411BD7F925BD8DA01212C7028153E0D632E2953AC3088E PUSH1 0x20 PUSH2 0x8F3 PUSH2 0xA2D JUMP JUMPDEST PUSH1 0x24 CALLDATALOAD SWAP1 PUSH2 0x8FF PUSH2 0xB30 JUMP JUMPDEST PUSH1 0x1 PUSH1 0x1 PUSH1 0xA0 SHL SUB AND DUP1 DUP7 MSTORE PUSH1 0x5 DUP4 MSTORE DUP5 DUP7 KECCAK256 DUP3 SWAP1 SSTORE SWAP4 MLOAD SWAP1 DUP2 MSTORE LOG2 DUP1 RETURN JUMPDEST DUP3 DUP5 CALLVALUE PUSH2 0x3B7 JUMPI DUP2 PUSH1 0x3 NOT CALLDATASIZE ADD SLT PUSH2 0x3B7 JUMPI PUSH1 0x24 CALLDATALOAD SWAP1 PUSH8 0xFFFFFFFFFFFFFFFF DUP3 GT PUSH2 0x3B7 JUMPI CALLDATASIZE PUSH1 0x23 DUP4 ADD SLT ISZERO PUSH2 0x3B7 JUMPI POP PUSH1 0x20 SWAP3 PUSH2 0x968 PUSH2 0x96F SWAP3 CALLDATASIZE SWAP1 PUSH1 0x24 DUP2 DUP6 ADD CALLDATALOAD SWAP2 ADD PUSH2 0x9F1 JUMP JUMPDEST SWAP1 CALLDATALOAD PUSH2 0xA83 JUMP JUMPDEST SWAP1 MLOAD PUSH1 0x1 PUSH1 0x1 PUSH1 0xE0 SHL SUB NOT SWAP1 SWAP2 AND DUP2 MSTORE RETURN JUMPDEST PUSH1 0x40 DUP2 ADD SWAP1 DUP2 LT PUSH8 0xFFFFFFFFFFFFFFFF DUP3 GT OR PUSH2 0x99D JUMPI PUSH1 0x40 MSTORE JUMP JUMPDEST PUSH4 0x4E487B71 PUSH1 0xE0 SHL PUSH1 0x0 MSTORE PUSH1 0x41 PUSH1 0x4 MSTORE PUSH1 0x24 PUSH1 0x0 REVERT JUMPDEST SWAP1 PUSH1 0x1F DUP1 NOT SWAP2 ADD AND DUP2 ADD SWAP1 DUP2 LT PUSH8 0xFFFFFFFFFFFFFFFF DUP3 GT OR PUSH2 0x99D JUMPI PUSH1 0x40 MSTORE JUMP JUMPDEST PUSH8 0xFFFFFFFFFFFFFFFF DUP2 GT PUSH2 0x99D JUMPI PUSH1 0x1F ADD PUSH1 0x1F NOT AND PUSH1 0x20 ADD SWAP1 JUMP JUMPDEST SWAP3 SWAP2 SWAP3 PUSH2 0x9FD DUP3 PUSH2 0x9D5 JUMP JUMPDEST SWAP2 PUSH2 0xA0B PUSH1 0x40 MLOAD SWAP4 DUP5 PUSH2 0x9B3 JUMP JUMPDEST DUP3 SWAP5 DUP2 DUP5 MSTORE DUP2 DUP4 ADD GT PUSH2 0xA28 JUMPI DUP3 DUP2 PUSH1 0x20 SWAP4 DUP5 PUSH1 0x0 SWAP7 ADD CALLDATACOPY ADD ADD MSTORE JUMP JUMPDEST PUSH1 0x0 DUP1 REVERT JUMPDEST PUSH1 0x4 CALLDATALOAD SWAP1 PUSH1 0x1 PUSH1 0x1 PUSH1 0xA0 SHL SUB DUP3 AND DUP3 SUB PUSH2 0xA28 JUMPI JUMP JUMPDEST SWAP2 SWAP1 DUP3 MLOAD SWAP3 DUP4 DUP3 MSTORE PUSH1 0x0 JUMPDEST DUP5 DUP2 LT PUSH2 0xA6F JUMPI POP POP DUP3 PUSH1 0x0 PUSH1 0x20 DUP1 SWAP5 SWAP6 DUP5 ADD ADD MSTORE PUSH1 0x1F DUP1 NOT SWAP2 ADD AND ADD ADD SWAP1 JUMP JUMPDEST PUSH1 0x20 DUP2 DUP4 ADD DUP2 ADD MLOAD DUP5 DUP4 ADD DUP3 ADD MSTORE ADD PUSH2 0xA4E JUMP JUMPDEST PUSH2 0xA90 SWAP2 PUSH2 0x553 SWAP2 PUSH2 0xB5C JUMP JUMPDEST PUSH1 0x1 PUSH1 0x1 PUSH1 0xA0 SHL SUB AND PUSH1 0x0 SWAP1 DUP2 MSTORE PUSH1 0x4 PUSH1 0x20 MSTORE PUSH1 0x40 SWAP1 KECCAK256 SLOAD PUSH1 0xFF AND PUSH2 0xABB JUMPI PUSH1 0x1 PUSH1 0x1 PUSH1 0xE0 SHL SUB NOT SWAP1 JUMP JUMPDEST PUSH4 0xB135D3F PUSH1 0xE1 SHL SWAP1 JUMP JUMPDEST CALLDATALOAD PUSH1 0x1 PUSH1 0x1 PUSH1 0xA0 SHL SUB DUP2 AND DUP2 SUB PUSH2 0xA28 JUMPI SWAP1 JUMP JUMPDEST SWAP1 CALLDATALOAD SWAP1 PUSH1 0x1E NOT DUP2 CALLDATASIZE SUB ADD DUP3 SLT ISZERO PUSH2 0xA28 JUMPI ADD DUP1 CALLDATALOAD SWAP1 PUSH8 0xFFFFFFFFFFFFFFFF DUP3 GT PUSH2 0xA28 JUMPI PUSH1 0x20 ADD SWAP2 DUP2 CALLDATASIZE SUB DUP4 SGT PUSH2 0xA28 JUMPI JUMP JUMPDEST SWAP2 SWAP1 DUP3 ADD DUP1 SWAP3 GT PUSH2 0xB1A JUMPI JUMP JUMPDEST PUSH4 0x4E487B71 PUSH1 0xE0 SHL PUSH1 0x0 MSTORE PUSH1 0x11 PUSH1 0x4 MSTORE PUSH1 0x24 PUSH1 0x0 REVERT JUMPDEST PUSH1 0x2 SLOAD PUSH1 0x1 PUSH1 0x1 PUSH1 0xA0 SHL SUB AND CALLER SUB PUSH2 0xB44 JUMPI JUMP JUMPDEST PUSH1 0x40 MLOAD PUSH4 0x118CDAA7 PUSH1 0xE0 SHL DUP2 MSTORE CALLER PUSH1 0x4 DUP3 ADD MSTORE PUSH1 0x24 SWAP1 REVERT JUMPDEST DUP2 MLOAD SWAP2 SWAP1 PUSH1 0x41 DUP4 SUB PUSH2 0xB8D JUMPI PUSH2 0xB86 SWAP3 POP PUSH1 0x20 DUP3 ADD MLOAD SWAP1 PUSH1 0x60 PUSH1 0x40 DUP5 ADD MLOAD SWAP4 ADD MLOAD PUSH1 0x0 BYTE SWAP1 PUSH2 0xF49 JUMP JUMPDEST SWAP2 SWAP3 SWAP1 SWAP2 SWAP1 JUMP JUMPDEST POP POP PUSH1 0x0 SWAP2 PUSH1 0x2 SWAP2 SWAP1 JUMP JUMPDEST PUSH1 0x4 DUP2 LT ISZERO PUSH2 0xC07 JUMPI DUP1 PUSH2 0xBAA JUMPI POP POP JUMP JUMPDEST PUSH1 0x1 DUP2 SUB PUSH2 0xBC4 JUMPI PUSH1 0x40 MLOAD PUSH4 0xF645EEDF PUSH1 0xE0 SHL DUP2 MSTORE PUSH1 0x4 SWAP1 REVERT JUMPDEST PUSH1 0x2 DUP2 SUB PUSH2 0xBE5 JUMPI PUSH1 0x40 MLOAD PUSH4 0xFCE698F7 PUSH1 0xE0 SHL DUP2 MSTORE PUSH1 0x4 DUP2 ADD DUP4 SWAP1 MSTORE PUSH1 0x24 SWAP1 REVERT JUMPDEST PUSH1 0x3 EQ PUSH2 0xBEF JUMPI POP JUMP JUMPDEST PUSH1 0x24 SWAP1 PUSH1 0x40 MLOAD SWAP1 PUSH4 0x35E2F383 PUSH1 0xE2 SHL DUP3 MSTORE PUSH1 0x4 DUP3 ADD MSTORE REVERT JUMPDEST PUSH4 0x4E487B71 PUSH1 0xE0 SHL PUSH1 0x0 MSTORE PUSH1 0x21 PUSH1 0x4 MSTORE PUSH1 0x24 PUSH1 0x0 REVERT JUMPDEST ADDRESS PUSH32 0x0 PUSH1 0x1 PUSH1 0x1 PUSH1 0xA0 SHL SUB AND EQ DUP1 PUSH2 0xD1F JUMPI JUMPDEST ISZERO PUSH2 0xC78 JUMPI PUSH32 0x0 SWAP1 JUMP JUMPDEST PUSH1 0x40 MLOAD PUSH1 0x20 DUP2 ADD SWAP1 PUSH32 0x8B73C3C69BB8FE3D512ECC4CF759CC79239F7B179B0FFACAA9A75D522B39400F DUP3 MSTORE PUSH32 0x0 PUSH1 0x40 DUP3 ADD MSTORE PUSH32 0x0 PUSH1 0x60 DUP3 ADD MSTORE CHAINID PUSH1 0x80 DUP3 ADD MSTORE ADDRESS PUSH1 0xA0 DUP3 ADD MSTORE PUSH1 0xA0 DUP2 MSTORE PUSH1 0xC0 DUP2 ADD DUP2 DUP2 LT PUSH8 0xFFFFFFFFFFFFFFFF DUP3 GT OR PUSH2 0x99D JUMPI PUSH1 0x40 MSTORE MLOAD SWAP1 KECCAK256 SWAP1 JUMP JUMPDEST POP PUSH32 0x0 CHAINID EQ PUSH2 0xC4F JUMP JUMPDEST PUSH1 0xFF DUP2 EQ PUSH2 0xD86 JUMPI PUSH1 0xFF DUP2 AND SWAP1 PUSH1 0x1F DUP3 GT PUSH2 0xD74 JUMPI PUSH1 0x40 MLOAD SWAP2 PUSH2 0xD6A DUP4 PUSH2 0x981 JUMP JUMPDEST DUP3 MSTORE PUSH1 0x20 DUP3 ADD MSTORE SWAP1 JUMP JUMPDEST PUSH1 0x40 MLOAD PUSH4 0x2CD44AC3 PUSH1 0xE2 SHL DUP2 MSTORE PUSH1 0x4 SWAP1 REVERT JUMPDEST POP PUSH1 0x40 MLOAD PUSH1 0x0 DUP1 SLOAD SWAP1 PUSH1 0x1 DUP3 PUSH1 0x1 SHR SWAP1 PUSH1 0x1 DUP5 AND SWAP4 DUP5 ISZERO PUSH2 0xE66 JUMPI JUMPDEST PUSH1 0x20 SWAP5 DUP6 DUP5 LT DUP2 EQ PUSH2 0xE52 JUMPI DUP4 DUP8 MSTORE DUP7 SWAP5 SWAP4 SWAP3 SWAP2 DUP2 ISZERO PUSH2 0xE32 JUMPI POP PUSH1 0x1 EQ PUSH2 0xDD6 JUMPI JUMPDEST POP POP PUSH2 0xDD3 SWAP3 POP SUB DUP3 PUSH2 0x9B3 JUMP JUMPDEST SWAP1 JUMP JUMPDEST PUSH1 0x0 DUP1 DUP1 MSTORE PUSH32 0x290DECD9548B62A8D60345A988386FC84BA6BC95484008F6362F93160EF3E563 SWAP6 SWAP4 POP SWAP2 SWAP1 JUMPDEST DUP2 DUP4 LT PUSH2 0xE1A JUMPI POP POP PUSH2 0xDD3 SWAP4 POP DUP3 ADD ADD CODESIZE DUP1 PUSH2 0xDC5 JUMP JUMPDEST DUP6 SLOAD DUP8 DUP5 ADD DUP6 ADD MSTORE SWAP5 DUP6 ADD SWAP5 DUP7 SWAP5 POP SWAP2 DUP4 ADD SWAP2 PUSH2 0xE02 JUMP JUMPDEST SWAP2 POP POP PUSH2 0xDD3 SWAP5 SWAP3 POP PUSH1 0xFF NOT AND DUP3 DUP5 ADD MSTORE ISZERO ISZERO PUSH1 0x5 SHL DUP3 ADD ADD CODESIZE DUP1 PUSH2 0xDC5 JUMP JUMPDEST PUSH4 0x4E487B71 PUSH1 0xE0 SHL DUP6 MSTORE PUSH1 0x22 PUSH1 0x4 MSTORE PUSH1 0x24 DUP6 REVERT JUMPDEST SWAP2 PUSH1 0x7F AND SWAP2 PUSH2 0xDA2 JUMP JUMPDEST PUSH1 0xFF DUP2 EQ PUSH2 0xE92 JUMPI PUSH1 0xFF DUP2 AND SWAP1 PUSH1 0x1F DUP3 GT PUSH2 0xD74 JUMPI PUSH1 0x40 MLOAD SWAP2 PUSH2 0xD6A DUP4 PUSH2 0x981 JUMP JUMPDEST POP PUSH1 0x40 MLOAD PUSH1 0x0 PUSH1 0x1 SWAP1 PUSH1 0x1 SLOAD SWAP2 DUP3 PUSH1 0x1 SHR SWAP1 PUSH1 0x1 DUP5 AND SWAP4 DUP5 ISZERO PUSH2 0xF3F JUMPI JUMPDEST PUSH1 0x20 SWAP5 DUP6 DUP5 LT DUP2 EQ PUSH2 0xE52 JUMPI DUP4 DUP8 MSTORE DUP7 SWAP5 SWAP4 SWAP3 SWAP2 DUP2 ISZERO PUSH2 0xE32 JUMPI POP PUSH1 0x1 EQ PUSH2 0xEE0 JUMPI POP POP PUSH2 0xDD3 SWAP3 POP SUB DUP3 PUSH2 0x9B3 JUMP JUMPDEST SWAP1 SWAP4 SWAP2 POP PUSH1 0x1 PUSH1 0x0 MSTORE PUSH32 0xB10E2D527612073B26EECDFD717E6A320CF44B4AFAC2B0732D9FCBE2B7FA0CF6 SWAP4 PUSH1 0x0 SWAP2 JUMPDEST DUP2 DUP4 LT PUSH2 0xF27 JUMPI POP POP PUSH2 0xDD3 SWAP4 POP DUP3 ADD ADD CODESIZE DUP1 PUSH2 0xDC5 JUMP JUMPDEST DUP6 SLOAD DUP8 DUP5 ADD DUP6 ADD MSTORE SWAP5 DUP6 ADD SWAP5 DUP7 SWAP5 POP SWAP2 DUP4 ADD SWAP2 PUSH2 0xF0F JUMP JUMPDEST SWAP2 PUSH1 0x7F AND SWAP2 PUSH2 0xEB0 JUMP JUMPDEST SWAP2 SWAP1 PUSH32 0x7FFFFFFFFFFFFFFFFFFFFFFFFFFFFFFF5D576E7357A4501DDFE92F46681B20A0 DUP5 GT PUSH2 0xFCD JUMPI SWAP3 PUSH1 0x20 SWAP3 SWAP2 PUSH1 0xFF PUSH1 0x80 SWAP6 PUSH1 0x40 MLOAD SWAP5 DUP6 MSTORE AND DUP5 DUP5 ADD MSTORE PUSH1 0x40 DUP4 ADD MSTORE PUSH1 0x60 DUP3 ADD MSTORE PUSH1 0x0 SWAP3 DUP4 SWAP2 DUP3 DUP1 MSTORE PUSH1 0x1 GAS STATICCALL ISZERO PUSH2 0xFC1 JUMPI DUP1 MLOAD PUSH1 0x1 PUSH1 0x1 PUSH1 0xA0 SHL SUB DUP2 AND ISZERO PUSH2 0xFB8 JUMPI SWAP2 DUP2 SWAP1 JUMP JUMPDEST POP DUP1 SWAP2 PUSH1 0x1 SWAP2 SWAP1 JUMP JUMPDEST PUSH1 0x40 MLOAD SWAP1 RETURNDATASIZE SWAP1 DUP3 RETURNDATACOPY RETURNDATASIZE SWAP1 REVERT JUMPDEST POP POP POP PUSH1 0x0 SWAP2 PUSH1 0x3 SWAP2 SWAP1 JUMP INVALID LOG2 PUSH5 0x6970667358 0x22 SLT KECCAK256 0xD9 0xAC 0xBD 0xC5 SWAP16 0x2E RETURNDATASIZE PUSH15 0xD7585863FC624E539348160A36D11C TLOAD 0xC6 TLOAD INVALID 0xB3 SWAP5 0x4F 0xC2 0xC1 PUSH5 0x736F6C6343 STOP ADDMOD XOR STOP CALLER "},"methodIdentifiers":{"authorizedSigners(address)":"5d2b6a4e","dailyLimit(address)":"f3f51415","dailySpent(address)":"ffc8ada6","eip712Domain()":"84b0196e","execute((address,uint256,bytes,uint256,uint256),bytes)":"3e6fb639","isValidSignature(bytes32,bytes)":"1626ba7e","lastSpendDay(address)":"e10aa51f","nonce()":"affed0e0","owner()":"8da5cb5b","renounceOwnership()":"715018a6","setDailyLimit(address,uint256)":"2803212f","setSigner(address,bool)":"31cb6105","transferOwnership(address)":"f2fde38b"}}}}}