{"contracts/TailRiskUnderwriter.sol":{"TailRiskUnderwriter":{"abi":[{"anonymous":false,"inputs":[{"indexed":true,"internalType":"uint256","name":"policyId","type":"uint256"},{"indexed":true,"internalType":"address","name":"owner","type":"address"},{"indexed":false,"internalType":"uint256","name":"payoutWei","type":"uint256"},{"indexed":false,"internalType":"bytes32","name":"reasonHash","type":"bytes32"}],"name":"ClaimSettled","type":"event"},{"anonymous":false,"inputs":[{"indexed":true,"internalType":"uint256","name":"policyId","type":"uint256"},{"indexed":true,"internalType":"address","name":"owner","type":"address"},{"indexed":false,"internalType":"uint256","name":"premiumWei","type":"uint256"},{"indexed":false,"internalType":"uint256","name":"coverageWei","type":"uint256"},{"indexed":false,"internalType":"uint8","name":"riskTier","type":"uint8"}],"name":"PolicyIssued","type":"event"},{"inputs":[{"internalType":"uint256","name":"coverageWei","type":"uint256"},{"internalType":"uint8","name":"riskTier","type":"uint8"}],"name":"issuePolicy","outputs":[{"internalType":"uint256","name":"policyId","type":"uint256"}],"stateMutability":"payable","type":"function"},{"inputs":[],"name":"nextPolicyId","outputs":[{"internalType":"uint256","name":"","type":"uint256"}],"stateMutability":"view","type":"function"},{"inputs":[{"internalType":"uint256","name":"","type":"uint256"}],"name":"policies","outputs":[{"internalType":"address","name":"owner","type":"address"},{"internalType":"uint256","name":"premiumWei","type":"uint256"},{"internalType":"uint256","name":"coverageWei","type":"uint256"},{"internalType":"uint8","name":"riskTier","type":"uint8"},{"internalType":"bool","name":"active","type":"bool"}],"stateMutability":"view","type":"function"},{"inputs":[{"internalType":"uint256","name":"policyId","type":"uint256"},{"internalType":"uint256","name":"payoutWei","type":"uint256"},{"internalType":"bytes32","name":"reasonHash","type":"bytes32"}],"name":"settleClaim","outputs":[],"stateMutability":"nonpayable","type":"function"},{"stateMutability":"payable","type":"receive"}],"evm":{"bytecode":{"linkReferences":{},"object":"6080806040523461001657610461908161001c8239f35b600080fdfe608060409080825260049182361015610023575b505050361561002157600080fd5b005b600091823560e01c908163c6d99bb31461027e57508063cad0b8db14610262578063d3e89483146101fd5763f714f9910361001357806003193601126101f957823560243560ff81168091036101f55734156101bf5781156101885783549360001985146101755760018501815583519060a0820182811067ffffffffffffffff8211176101625760209750855233825260ff6003888401933485528781018781526060820195878752896080840196600188528c815260018e52209260018060a01b039051166bffffffffffffffffffffffff60a01b8454161783555160018301555160028201550192511661ff0083549251151560081b169161ffff1916171790558251913483528583015282820152827f2a2da2d9003c30a9d00973aaadaf4a69e22c51ae73193c15605163eb872cbd8560603393a351908152f35b634e487b7160e01b825260418852602482fd5b634e487b7160e01b815260118652602490fd5b825162461bcd60e51b8152602081870152601160248201527018dbdd995c9859d9481c995c5d5a5c9959607a1b6044820152606490fd5b825162461bcd60e51b8152602081870152601060248201526f1c1c995b5a5d5b481c995c5d5a5c995960821b6044820152606490fd5b8380fd5b5080fd5b50823461025e57602036600319011261025e578160a09360ff9235815260016020522091600180851b0383541692600181015491600360028301549201549281519586526020860152840152818116606084015260081c1615156080820152f35b8280fd5b50346101f957816003193601126101f957602091549051908152f35b8385843461025e57606036600319011261025e578135906024928335908386526020946001865283872097600389019081549060ff8260081c16156103f9575060028a015485116103c75761ff001916905587546001600160a01b039291908890819081908190889088165af13d156103c25767ffffffffffffffff3d8181116103b057875191601f8201601f19908116603f011683019081118382101761039e578852815289893d92013e5b1561036a5750507f095a89663162419d9c5ee3c0a4f80e5d8a8336f874f24078d5417fbd230e400893949596541694825191825260443590820152a380f35b845162461bcd60e51b8152918201879052600f908201526e1d1c985b9cd9995c8819985a5b1959608a1b6044820152606490fd5b634e487b7160e01b8c5260418652848cfd5b634e487b7160e01b8b5260418552838bfd5b61032b565b855162461bcd60e51b8152808501899052600d818501526c6f76657220636f76657261676560981b6044820152606490fd5b62461bcd60e51b8152848101899052600f848201526e696e61637469766520706f6c69637960881b6044820152606490fdfea26469706673582212207cdaae8dbbbd556f5f360e4cf6cc0c9d69b36bc3cd4497a01eeb52cf0a19bc7564736f6c63430008180033","opcodes":"PUSH1 0x80 DUP1 PUSH1 0x40 MSTORE CALLVALUE PUSH2 0x16 JUMPI PUSH2 0x461 SWAP1 DUP2 PUSH2 0x1C DUP3 CODECOPY RETURN JUMPDEST PUSH1 0x0 DUP1 REVERT INVALID PUSH1 0x80 PUSH1 0x40 SWAP1 DUP1 DUP3 MSTORE PUSH1 0x4 SWAP2 DUP3 CALLDATASIZE LT ISZERO PUSH2 0x23 JUMPI JUMPDEST POP POP POP CALLDATASIZE ISZERO PUSH2 0x21 JUMPI PUSH1 0x0 DUP1 REVERT JUMPDEST STOP JUMPDEST PUSH1 0x0 SWAP2 DUP3 CALLDATALOAD PUSH1 0xE0 SHR SWAP1 DUP2 PUSH4 0xC6D99BB3 EQ PUSH2 0x27E JUMPI POP DUP1 PUSH4 0xCAD0B8DB EQ PUSH2 0x262 JUMPI DUP1 PUSH4 0xD3E89483 EQ PUSH2 0x1FD JUMPI PUSH4 0xF714F991 SUB PUSH2 0x13 JUMPI DUP1 PUSH1 0x3 NOT CALLDATASIZE ADD SLT PUSH2 0x1F9 JUMPI DUP3 CALLDATALOAD PUSH1 0x24 CALLDATALOAD PUSH1 0xFF DUP2 AND DUP1 SWAP2 SUB PUSH2 0x1F5 JUMPI CALLVALUE ISZERO PUSH2 0x1BF JUMPI DUP2 ISZERO PUSH2 0x188 JUMPI DUP4 SLOAD SWAP4 PUSH1 0x0 NOT DUP6 EQ PUSH2 0x175 JUMPI PUSH1 0x1 DUP6 ADD DUP2 SSTORE DUP4 MLOAD SWAP1 PUSH1 0xA0 DUP3 ADD DUP3 DUP2 LT PUSH8 0xFFFFFFFFFFFFFFFF DUP3 GT OR PUSH2 0x162 JUMPI PUSH1 0x20 SWAP8 POP DUP6 MSTORE CALLER DUP3 MSTORE PUSH1 0xFF PUSH1 0x3 DUP9 DUP5 ADD SWAP4 CALLVALUE DUP6 MSTORE DUP8 DUP2 ADD DUP8 DUP2 MSTORE PUSH1 0x60 DUP3 ADD SWAP6 DUP8 DUP8 MSTORE DUP10 PUSH1 0x80 DUP5 ADD SWAP7 PUSH1 0x1 DUP9 MSTORE DUP13 DUP2 MSTORE PUSH1 0x1 DUP15 MSTORE KECCAK256 SWAP3 PUSH1 0x1 DUP1 PUSH1 0xA0 SHL SUB SWAP1 MLOAD AND PUSH12 0xFFFFFFFFFFFFFFFFFFFFFFFF PUSH1 0xA0 SHL DUP5 SLOAD AND OR DUP4 SSTORE MLOAD PUSH1 0x1 DUP4 ADD SSTORE MLOAD PUSH1 0x2 DUP3 ADD SSTORE ADD SWAP3 MLOAD AND PUSH2 0xFF00 DUP4 SLOAD SWAP3 MLOAD ISZERO ISZERO PUSH1 0x8 SHL AND SWAP2 PUSH2 0xFFFF NOT AND OR OR SWAP1 SSTORE DUP3 MLOAD SWAP2 CALLVALUE DUP4 MSTORE DUP6 DUP4 ADD MSTORE DUP3 DUP3 ADD MSTORE DUP3 PUSH32 0x2A2DA2D9003C30A9D00973AAADAF4A69E22C51AE73193C15605163EB872CBD85 PUSH1 0x60 CALLER SWAP4 LOG3 MLOAD SWAP1 DUP2 MSTORE RETURN JUMPDEST PUSH4 0x4E487B71 PUSH1 0xE0 SHL DUP3 MSTORE PUSH1 0x41 DUP9 MSTORE PUSH1 0x24 DUP3 REVERT JUMPDEST PUSH4 0x4E487B71 PUSH1 0xE0 SHL DUP2 MSTORE PUSH1 0x11 DUP7 MSTORE PUSH1 0x24 SWAP1 REVERT JUMPDEST DUP3 MLOAD PUSH3 0x461BCD PUSH1 0xE5 SHL DUP2 MSTORE PUSH1 0x20 DUP2 DUP8 ADD MSTORE PUSH1 0x11 PUSH1 0x24 DUP3 ADD MSTORE PUSH17 0x18DBDD995C9859D9481C995C5D5A5C9959 PUSH1 0x7A SHL PUSH1 0x44 DUP3 ADD MSTORE PUSH1 0x64 SWAP1 REVERT JUMPDEST DUP3 MLOAD PUSH3 0x461BCD PUSH1 0xE5 SHL DUP2 MSTORE PUSH1 0x20 DUP2 DUP8 ADD MSTORE PUSH1 0x10 PUSH1 0x24 DUP3 ADD MSTORE PUSH16 0x1C1C995B5A5D5B481C995C5D5A5C9959 PUSH1 0x82 SHL PUSH1 0x44 DUP3 ADD MSTORE PUSH1 0x64 SWAP1 REVERT JUMPDEST DUP4 DUP1 REVERT JUMPDEST POP DUP1 REVERT JUMPDEST POP DUP3 CALLVALUE PUSH2 0x25E JUMPI PUSH1 0x20 CALLDATASIZE PUSH1 0x3 NOT ADD SLT PUSH2 0x25E JUMPI DUP2 PUSH1 0xA0 SWAP4 PUSH1 0xFF SWAP3 CALLDATALOAD DUP2 MSTORE PUSH1 0x1 PUSH1 0x20 MSTORE KECCAK256 SWAP2 PUSH1 0x1 DUP1 DUP6 SHL SUB DUP4 SLOAD AND SWAP3 PUSH1 0x1 DUP2 ADD SLOAD SWAP2 PUSH1 0x3 PUSH1 0x2 DUP4 ADD SLOAD SWAP3 ADD SLOAD SWAP3 DUP2 MLOAD SWAP6 DUP7 MSTORE PUSH1 0x20 DUP7 ADD MSTORE DUP5 ADD MSTORE DUP2 DUP2 AND PUSH1 0x60 DUP5 ADD MSTORE PUSH1 0x8 SHR AND ISZERO ISZERO PUSH1 0x80 DUP3 ADD MSTORE RETURN JUMPDEST DUP3 DUP1 REVERT JUMPDEST POP CALLVALUE PUSH2 0x1F9 JUMPI DUP2 PUSH1 0x3 NOT CALLDATASIZE ADD SLT PUSH2 0x1F9 JUMPI PUSH1 0x20 SWAP2 SLOAD SWAP1 MLOAD SWAP1 DUP2 MSTORE RETURN JUMPDEST DUP4 DUP6 DUP5 CALLVALUE PUSH2 0x25E JUMPI PUSH1 0x60 CALLDATASIZE PUSH1 0x3 NOT ADD SLT PUSH2 0x25E JUMPI DUP2 CALLDATALOAD SWAP1 PUSH1 0x24 SWAP3 DUP4 CALLDATALOAD SWAP1 DUP4 DUP7 MSTORE PUSH1 0x20 SWAP5 PUSH1 0x1 DUP7 MSTORE DUP4 DUP8 KECCAK256 SWAP8 PUSH1 0x3 DUP10 ADD SWAP1 DUP2 SLOAD SWAP1 PUSH1 0xFF DUP3 PUSH1 0x8 SHR AND ISZERO PUSH2 0x3F9 JUMPI POP PUSH1 0x2 DUP11 ADD SLOAD DUP6 GT PUSH2 0x3C7 JUMPI PUSH2 0xFF00 NOT AND SWAP1 SSTORE DUP8 SLOAD PUSH1 0x1 PUSH1 0x1 PUSH1 0xA0 SHL SUB SWAP3 SWAP2 SWAP1 DUP9 SWAP1 DUP2 SWAP1 DUP2 SWAP1 DUP2 SWAP1 DUP9 SWAP1 DUP9 AND GAS CALL RETURNDATASIZE ISZERO PUSH2 0x3C2 JUMPI PUSH8 0xFFFFFFFFFFFFFFFF RETURNDATASIZE DUP2 DUP2 GT PUSH2 0x3B0 JUMPI DUP8 MLOAD SWAP2 PUSH1 0x1F DUP3 ADD PUSH1 0x1F NOT SWAP1 DUP2 AND PUSH1 0x3F ADD AND DUP4 ADD SWAP1 DUP2 GT DUP4 DUP3 LT OR PUSH2 0x39E JUMPI DUP9 MSTORE DUP2 MSTORE DUP10 DUP10 RETURNDATASIZE SWAP3 ADD RETURNDATACOPY JUMPDEST ISZERO PUSH2 0x36A JUMPI POP POP PUSH32 0x95A89663162419D9C5EE3C0A4F80E5D8A8336F874F24078D5417FBD230E4008 SWAP4 SWAP5 SWAP6 SWAP7 SLOAD AND SWAP5 DUP3 MLOAD SWAP2 DUP3 MSTORE PUSH1 0x44 CALLDATALOAD SWAP1 DUP3 ADD MSTORE LOG3 DUP1 RETURN JUMPDEST DUP5 MLOAD PUSH3 0x461BCD PUSH1 0xE5 SHL DUP2 MSTORE SWAP2 DUP3 ADD DUP8 SWAP1 MSTORE PUSH1 0xF SWAP1 DUP3 ADD MSTORE PUSH15 0x1D1C985B9CD9995C8819985A5B1959 PUSH1 0x8A SHL PUSH1 0x44 DUP3 ADD MSTORE PUSH1 0x64 SWAP1 REVERT JUMPDEST PUSH4 0x4E487B71 PUSH1 0xE0 SHL DUP13 MSTORE PUSH1 0x41 DUP7 MSTORE DUP5 DUP13 REVERT JUMPDEST PUSH4 0x4E487B71 PUSH1 0xE0 SHL DUP12 MSTORE PUSH1 0x41 DUP6 MSTORE DUP4 DUP12 REVERT JUMPDEST PUSH2 0x32B JUMP JUMPDEST DUP6 MLOAD PUSH3 0x461BCD PUSH1 0xE5 SHL DUP2 MSTORE DUP1 DUP6 ADD DUP10 SWAP1 MSTORE PUSH1 0xD DUP2 DUP6 ADD MSTORE PUSH13 0x6F76657220636F766572616765 PUSH1 0x98 SHL PUSH1 0x44 DUP3 ADD MSTORE PUSH1 0x64 SWAP1 REVERT JUMPDEST PUSH3 0x461BCD PUSH1 0xE5 SHL DUP2 MSTORE DUP5 DUP2 ADD DUP10 SWAP1 MSTORE PUSH1 0xF DUP5 DUP3 ADD MSTORE PUSH15 0x696E61637469766520706F6C696379 PUSH1 0x88 SHL PUSH1 0x44 DUP3 ADD MSTORE PUSH1 0x64 SWAP1 REVERT INVALID LOG2 PUSH5 0x6970667358 0x22 SLT KECCAK256 PUSH29 0xDAAE8DBBBD556F5F360E4CF6CC0C9D69B36BC3CD4497A01EEB52CF0A19 0xBC PUSH22 0x64736F6C634300081800330000000000000000000000 "},"methodIdentifiers":{"issuePolicy(uint256,uint8)":"f714f991","nextPolicyId()":"cad0b8db","policies(uint256)":"d3e89483","settleClaim(uint256,uint256,bytes32)":"c6d99bb3"}}}}}