{"contracts/TailRiskVault.sol":{"TailRiskVault":{"abi":[{"inputs":[{"internalType":"address","name":"_usdc","type":"address"},{"internalType":"address","name":"_validationRegistry","type":"address"},{"internalType":"uint256","name":"_agentId","type":"uint256"}],"stateMutability":"nonpayable","type":"constructor"},{"inputs":[{"internalType":"uint256","name":"policyId","type":"uint256"}],"name":"AlreadyClaimed","type":"error"},{"inputs":[],"name":"ClaimLimitReached","type":"error"},{"inputs":[{"internalType":"uint256","name":"available","type":"uint256"},{"internalType":"uint256","name":"required","type":"uint256"}],"name":"InsufficientLiquidity","type":"error"},{"inputs":[{"internalType":"address","name":"provider","type":"address"},{"internalType":"uint256","name":"shares","type":"uint256"}],"name":"InsufficientShares","type":"error"},{"inputs":[{"internalType":"address","name":"caller","type":"address"},{"internalType":"uint256","name":"policyId","type":"uint256"}],"name":"NotPolicyHolder","type":"error"},{"inputs":[{"internalType":"address","name":"owner","type":"address"}],"name":"OwnableInvalidOwner","type":"error"},{"inputs":[{"internalType":"address","name":"account","type":"address"}],"name":"OwnableUnauthorizedAccount","type":"error"},{"inputs":[{"internalType":"uint256","name":"policyId","type":"uint256"}],"name":"PolicyExpired","type":"error"},{"inputs":[{"internalType":"uint256","name":"policyId","type":"uint256"}],"name":"PolicyNotActive","type":"error"},{"inputs":[],"name":"ReentrancyGuardReentrantCall","type":"error"},{"inputs":[{"internalType":"address","name":"token","type":"address"}],"name":"SafeERC20FailedOperation","type":"error"},{"anonymous":false,"inputs":[{"indexed":false,"internalType":"uint256","name":"newRateBps","type":"uint256"}],"name":"BaseRateUpdated","type":"event"},{"anonymous":false,"inputs":[{"indexed":true,"internalType":"uint256","name":"claimId","type":"uint256"},{"indexed":true,"internalType":"uint256","name":"policyId","type":"uint256"},{"indexed":false,"internalType":"bool","name":"approved","type":"bool"},{"indexed":false,"internalType":"uint256","name":"paidAmount","type":"uint256"}],"name":"ClaimProcessed","type":"event"},{"anonymous":false,"inputs":[{"indexed":true,"internalType":"uint256","name":"claimId","type":"uint256"},{"indexed":true,"internalType":"uint256","name":"policyId","type":"uint256"},{"indexed":false,"internalType":"uint256","name":"requestedAmount","type":"uint256"}],"name":"ClaimSubmitted","type":"event"},{"anonymous":false,"inputs":[{"indexed":true,"internalType":"address","name":"provider","type":"address"},{"indexed":false,"internalType":"uint256","name":"amount","type":"uint256"},{"indexed":false,"internalType":"uint256","name":"shares","type":"uint256"}],"name":"LiquidityAdded","type":"event"},{"anonymous":false,"inputs":[{"indexed":true,"internalType":"address","name":"provider","type":"address"},{"indexed":false,"internalType":"uint256","name":"shares","type":"uint256"},{"indexed":false,"internalType":"uint256","name":"amount","type":"uint256"}],"name":"LiquidityRemoved","type":"event"},{"anonymous":false,"inputs":[{"indexed":true,"internalType":"address","name":"previousOwner","type":"address"},{"indexed":true,"internalType":"address","name":"newOwner","type":"address"}],"name":"OwnershipTransferred","type":"event"},{"anonymous":false,"inputs":[{"indexed":true,"internalType":"uint256","name":"policyId","type":"uint256"},{"indexed":true,"internalType":"address","name":"holder","type":"address"},{"indexed":false,"internalType":"uint256","name":"premium","type":"uint256"},{"indexed":false,"internalType":"uint256","name":"coverage","type":"uint256"},{"indexed":false,"internalType":"uint256","name":"riskScore","type":"uint256"}],"name":"PolicyPurchased","type":"event"},{"anonymous":false,"inputs":[{"indexed":false,"internalType":"uint256","name":"newScore","type":"uint256"}],"name":"RiskScoreUpdated","type":"event"},{"inputs":[{"internalType":"uint256","name":"amount","type":"uint256"}],"name":"addLiquidity","outputs":[],"stateMutability":"nonpayable","type":"function"},{"inputs":[],"name":"agentId","outputs":[{"internalType":"uint256","name":"","type":"uint256"}],"stateMutability":"view","type":"function"},{"inputs":[],"name":"baseRateBps","outputs":[{"internalType":"uint256","name":"","type":"uint256"}],"stateMutability":"view","type":"function"},{"inputs":[{"internalType":"uint256","name":"","type":"uint256"}],"name":"claims","outputs":[{"internalType":"uint256","name":"claimId","type":"uint256"},{"internalType":"uint256","name":"policyId","type":"uint256"},{"internalType":"address","name":"claimant","type":"address"},{"internalType":"uint256","name":"requestedAmount","type":"uint256"},{"internalType":"uint256","name":"approvedAmount","type":"uint256"},{"internalType":"bool","name":"processed","type":"bool"},{"internalType":"bool","name":"approved","type":"bool"},{"internalType":"bytes32","name":"evidenceHash","type":"bytes32"},{"internalType":"uint256","name":"validationRequestId","type":"uint256"}],"stateMutability":"view","type":"function"},{"inputs":[],"name":"claimsToday","outputs":[{"internalType":"uint256","name":"","type":"uint256"}],"stateMutability":"view","type":"function"},{"inputs":[{"internalType":"uint256","name":"claimId","type":"uint256"}],"name":"getClaim","outputs":[{"components":[{"internalType":"uint256","name":"claimId","type":"uint256"},{"internalType":"uint256","name":"policyId","type":"uint256"},{"internalType":"address","name":"claimant","type":"address"},{"internalType":"uint256","name":"requestedAmount","type":"uint256"},{"internalType":"uint256","name":"approvedAmount","type":"uint256"},{"internalType":"bool","name":"processed","type":"bool"},{"internalType":"bool","name":"approved","type":"bool"},{"internalType":"bytes32","name":"evidenceHash","type":"bytes32"},{"internalType":"uint256","name":"validationRequestId","type":"uint256"}],"internalType":"struct TailRiskVault.Claim","name":"","type":"tuple"}],"stateMutability":"view","type":"function"},{"inputs":[{"internalType":"address","name":"holder","type":"address"}],"name":"getHolderPolicies","outputs":[{"internalType":"uint256[]","name":"","type":"uint256[]"}],"stateMutability":"view","type":"function"},{"inputs":[{"internalType":"address","name":"provider","type":"address"}],"name":"getLPValue","outputs":[{"internalType":"uint256","name":"","type":"uint256"}],"stateMutability":"view","type":"function"},{"inputs":[{"internalType":"uint256","name":"policyId","type":"uint256"}],"name":"getPolicy","outputs":[{"components":[{"internalType":"uint256","name":"policyId","type":"uint256"},{"internalType":"address","name":"holder","type":"address"},{"internalType":"uint256","name":"premium","type":"uint256"},{"internalType":"uint256","name":"coverage","type":"uint256"},{"internalType":"uint256","name":"startTime","type":"uint256"},{"internalType":"uint256","name":"endTime","type":"uint256"},{"internalType":"uint256","name":"riskScore","type":"uint256"},{"internalType":"bool","name":"active","type":"bool"},{"internalType":"bool","name":"claimed","type":"bool"}],"internalType":"struct TailRiskVault.Policy","name":"","type":"tuple"}],"stateMutability":"view","type":"function"},{"inputs":[{"internalType":"address","name":"","type":"address"},{"internalType":"uint256","name":"","type":"uint256"}],"name":"holderPolicies","outputs":[{"internalType":"uint256","name":"","type":"uint256"}],"stateMutability":"view","type":"function"},{"inputs":[],"name":"lastClaimDay","outputs":[{"internalType":"uint256","name":"","type":"uint256"}],"stateMutability":"view","type":"function"},{"inputs":[{"internalType":"address","name":"","type":"address"}],"name":"lpShares","outputs":[{"internalType":"uint256","name":"","type":"uint256"}],"stateMutability":"view","type":"function"},{"inputs":[],"name":"maxClaimsPerDay","outputs":[{"internalType":"uint256","name":"","type":"uint256"}],"stateMutability":"view","type":"function"},{"inputs":[],"name":"maxCoverageRatio","outputs":[{"internalType":"uint256","name":"","type":"uint256"}],"stateMutability":"view","type":"function"},{"inputs":[],"name":"owner","outputs":[{"internalType":"address","name":"","type":"address"}],"stateMutability":"view","type":"function"},{"inputs":[{"internalType":"uint256","name":"","type":"uint256"}],"name":"policies","outputs":[{"internalType":"uint256","name":"policyId","type":"uint256"},{"internalType":"address","name":"holder","type":"address"},{"internalType":"uint256","name":"premium","type":"uint256"},{"internalType":"uint256","name":"coverage","type":"uint256"},{"internalType":"uint256","name":"startTime","type":"uint256"},{"internalType":"uint256","name":"endTime","type":"uint256"},{"internalType":"uint256","name":"riskScore","type":"uint256"},{"internalType":"bool","name":"active","type":"bool"},{"internalType":"bool","name":"claimed","type":"bool"}],"stateMutability":"view","type":"function"},{"inputs":[{"internalType":"uint256","name":"claimId","type":"uint256"},{"internalType":"bool","name":"approved","type":"bool"},{"internalType":"uint256","name":"approvedAmount","type":"uint256"}],"name":"processClaim","outputs":[],"stateMutability":"nonpayable","type":"function"},{"inputs":[{"internalType":"uint256","name":"coverage","type":"uint256"},{"internalType":"uint256","name":"duration","type":"uint256"},{"internalType":"uint256","name":"riskScore","type":"uint256"}],"name":"purchasePolicy","outputs":[{"internalType":"uint256","name":"policyId","type":"uint256"}],"stateMutability":"nonpayable","type":"function"},{"inputs":[{"internalType":"uint256","name":"shares","type":"uint256"}],"name":"removeLiquidity","outputs":[],"stateMutability":"nonpayable","type":"function"},{"inputs":[],"name":"renounceOwnership","outputs":[],"stateMutability":"nonpayable","type":"function"},{"inputs":[{"internalType":"uint256","name":"rateBps","type":"uint256"}],"name":"setBaseRate","outputs":[],"stateMutability":"nonpayable","type":"function"},{"inputs":[{"internalType":"uint256","name":"policyId","type":"uint256"},{"internalType":"uint256","name":"requestedAmount","type":"uint256"},{"internalType":"bytes32","name":"evidenceHash","type":"bytes32"}],"name":"submitClaim","outputs":[{"internalType":"uint256","name":"claimId","type":"uint256"}],"stateMutability":"nonpayable","type":"function"},{"inputs":[],"name":"totalLiquidity","outputs":[{"internalType":"uint256","name":"","type":"uint256"}],"stateMutability":"view","type":"function"},{"inputs":[],"name":"totalShares","outputs":[{"internalType":"uint256","name":"","type":"uint256"}],"stateMutability":"view","type":"function"},{"inputs":[{"internalType":"address","name":"newOwner","type":"address"}],"name":"transferOwnership","outputs":[],"stateMutability":"nonpayable","type":"function"},{"inputs":[],"name":"usdc","outputs":[{"internalType":"contract IERC20","name":"","type":"address"}],"stateMutability":"view","type":"function"},{"inputs":[],"name":"validationRegistry","outputs":[{"internalType":"contract ValidationRegistry","name":"","type":"address"}],"stateMutability":"view","type":"function"}],"evm":{"bytecode":{"linkReferences":{},"object":"60c03461013757601f61186f38819003918201601f19168301916001600160401b0383118484101761013c578084926060946040528339810103126101375761004781610152565b604061005560208401610152565b920151906001600055331561011e5760018054336001600160a01b031982168117909255604051946001600160a01b03939092849283167f8be0079c531659141344cd1fd0a4f28419497f9722a3daafe3b4186f6b6457e0600080a36032600a55611f40600b55600a600d55166080521660a052600c5560016002556001600355611708908161016782396080518181816107850152818161091b01528181610ed201528181611022015261115d015260a0518181816103e901528181610ade0152610fdd0152f35b604051631e4fbdf760e01b815260006004820152602490fd5b600080fd5b634e487b7160e01b600052604160045260246000fd5b51906001600160a01b03821682036101375756fe608080604052600436101561001357600080fd5b60003560e01c908163061d8a73146113f3575080630c8c94d4146113d557806315770f92146113b75780631d08837b146113325780632b07fce31461123e57806334845a0f146112205780633a98ef39146112025780633ab979d8146110515780633e413bee1461100c5780634c6b993a14610fc757806351c6590a14610ea85780635aef244714610db5578063715018a614610d58578063857d0fda14610ca45780638da5cb5b14610c7b57806395501cbd1461085957806395a4dfd2146108015780639c8f9f23146106fc578063a27344b5146106d1578063a888c2cd1461063d578063aaa6a3911461061f578063ad71f248146102e0578063c109a6dc146102a6578063d3e8948314610212578063e84f43b7146101f4578063f2fde38b1461016b5763f607fc121461014857600080fd5b34610166576000366003190112610166576020600d54604051908152f35b600080fd5b346101665760203660031901126101665761018461140e565b61018c6115a2565b6001600160a01b039081169081156101db57600154826001600160601b0360a01b821617600155167f8be0079c531659141344cd1fd0a4f28419497f9722a3daafe3b4186f6b6457e0600080a3005b604051631e4fbdf760e01b815260006004820152602490fd5b34610166576000366003190112610166576020600c54604051908152f35b34610166576020366003190112610166576004356000526004602052610120604060002060ff81549160018060a01b0360018201541690600281015460038201546004830154906005840154926007600686015495015495604051988952602089015260408801526060870152608086015260a085015260c0840152818116151560e084015260081c161515610100820152f35b34610166576020366003190112610166576001600160a01b036102c761140e565b1660005260076020526020604060002054604051908152f35b34610166576060366003190112610166576044356024356004356103026115ce565b8060005260209260048452604060002060018060a01b03908160018201541633036106005760078101549060ff8216156105e7576005015442116105ce5760081c60ff166105b55762015180420480600f54106105a7575b50600e54600d541115610595576003549361037485611555565b600355604051908682019185835281604082015284606082015260608152608081019281841067ffffffffffffffff85111761057f578360405281519020600c5463de4cc54d60e01b85526084830152600260a483015260c4820152608060e48201526000610104820152878360a4816000887f0000000000000000000000000000000000000000000000000000000000000000165af1801561057357879489948893600093610537575b505090859661050b7fcf394f7701f2b1dae6f328cbc70c1f155122b124431f95bbf4a483bba6854555976007948860405197889261045c84611452565b848452828401918252604084019033825260608501928c8452600560808701956000875260a088019860008a5261010060c08a019960008b5260e081019d8e52019c8d526000525260406000209b518c555160018c015560028b019151166001600160601b0360a01b8254161790555160038901555160048801556104f46005880192511515839060ff801983541691151516179055565b51815461ff00191690151560081b61ff0016179055565b51600684015551910155610520600e54611555565b600e55604051908152a36001600055604051908152f35b92509550938092503d831161056c575b610551818761148b565b8101031261016657915185928792909186918661050b61041f565b503d610547565b6040513d6000823e3d90fd5b634e487b7160e01b600052604160045260246000fd5b604051639907008b60e01b8152600490fd5b6000600e55600f558561035a565b60405163598b3dfd60e11b815260048101849052602490fd5b60405163b22aa54160e01b815260048101859052602490fd5b60405163a3068e7b60e01b815260048101869052602490fd5b604051631b0a054d60e11b815233600482015260248101859052604490fd5b34610166576000366003190112610166576020600a54604051908152f35b34610166576020366003190112610166576004356000526005602052610120604060002080549060018101549060ff60018060a01b03600283015416600383015460048401549060058501549260076006870154960154966040519889526020890152604088015260608701526080860152818116151560a086015260081c16151560c084015260e0830152610100820152f35b346101665760203660031901126101665760206106f46106ef61140e565b611564565b604051908152f35b34610166576020366003190112610166576004356107186115ce565b33600052600760205280604060002054106107e15761074561073c60095483611515565b60085490611528565b336000526007602052604060002061075e8382546114f2565b905561076c826008546114f2565b60085561077b816009546114f2565b6009556107a981337f00000000000000000000000000000000000000000000000000000000000000006115f1565b60405191825260208201527f96cd817c6329656790ef8fba7675405193677d39619571282f5e21f3a98cd05960403392a26001600055005b6040516303c8c6fb60e51b81523360048201526024810191909152604490fd5b346101665760403660031901126101665761081a61140e565b6001600160a01b03166000908152600660205260409020805460243591908210156101665760209161084b91611424565b90546040519160031b1c8152f35b3461016657606036600319011261016657602480356108766115ce565b60043515610c4057620151808110610c0657606460443511610bcd576108a7600954612710918291600b5490611515565b048060043511610bad5750806108c1600a54600435611515565b046064604435026044358104606414604435151715610b9857820190818311610b985782916108ef91611515565b0481830290838204831484151715610b98576301e13380610911920490611515565b049161093f8330337f0000000000000000000000000000000000000000000000000000000000000000611634565b61094b83600954611548565b6009556109676002549261095e84611555565b60025542611548565b610a2c6040519161097783611452565b84835260208301923384526104f46007604083019289845260608101946004358652608082019042825260a0830190815260c0830191604435835260e084019760018952610100850197600089528d60005260046020526040600020955186556001860160018060a01b03809d51166001600160601b0360a01b8254161790555160028601555160038501555160048401555160058301555160068201550192511515839060ff801983541691151516179055565b336000526006602052604060002080549068010000000000000000821015610b8357602092610a668360a493600160009896018155611424565b81549060031b9088821b918819901b191617905584604051858101908882526004356040820152896060820152604435608082015260808152610aa88161146f565b51902091600c5492604051978896879563de4cc54d60e01b875260048701528501526044840152608060648401528160848401527f0000000000000000000000000000000000000000000000000000000000000000165af1801561057357610b58575b50602091604051908152600435838201526044356040820152817f377904bad423a6ba6d312d0aec8f4e6ff68cc78a99aa124259f57ecb7d06236660603393a36001600055604051908152f35b602090813d8311610b7c575b610b6e818361148b565b810103126101665782610b0b565b503d610b64565b83634e487b7160e01b60005260416004526000fd5b84634e487b7160e01b60005260116004526000fd5b604490846040519163a17e11d560e01b8352600483015260043590820152fd5b60405162461bcd60e51b81526020600482015260128184015271496e76616c6964207269736b2073636f726560701b6044820152606490fd5b60405162461bcd60e51b815260206004820152601381840152724d696e206475726174696f6e3a20312064617960681b6044820152606490fd5b60405162461bcd60e51b815260206004820152601481840152730436f766572616765206d757374206265203e20360641b6044820152606490fd5b34610166576000366003190112610166576001546040516001600160a01b039091168152602090f35b3461016657602080600319360112610166576001600160a01b03610cc661140e565b1660005260068152604060002060405190818382549182815201908192600052846000209060005b86828210610d44578686610d048288038361148b565b604051928392818401908285525180915260408401929160005b828110610d2d57505050500390f35b835185528695509381019392810192600101610d1e565b835485529093019260019283019201610cee565b3461016657600036600319011261016657610d716115a2565b600180546001600160a01b031981169091556000906001600160a01b03167f8be0079c531659141344cd1fd0a4f28419497f9722a3daafe3b4186f6b6457e08280a3005b3461016657602036600319011261016657610dce6114ad565b5060043560005260056020526101206040600020604051610dee81611452565b8154918282526001810154906020830191825260018060a01b0380600283015416604085019081526003830154606086019081526004840154906080870191825260058501549360a088019360ff86161515855260ff60c08a019660081c1615158652600760068801549760e08b01988952015497610100809a019889526040519a8b525160208b01525116604089015251606088015251608087015251151560a086015251151560c08501525160e08401525190820152f35b3461016657602036600319011261016657600435610ec46115ce565b8015610f8d57610ef68130337f0000000000000000000000000000000000000000000000000000000000000000611634565b60085480610f725750805b3360005260076020526040600020610f1a828254611548565b9055610f2881600854611548565b600855610f3782600954611548565b60095560405191825260208201527fac1d76749e5447b7b16f5ab61447e1bd502f3bb4807af3b28e620d1700a6ee4560403392a26001600055005b610f7f610f889183611515565b60095490611528565b610f01565b60405162461bcd60e51b81526020600482015260126024820152710416d6f756e74206d757374206265203e20360741b6044820152606490fd5b34610166576000366003190112610166576040517f00000000000000000000000000000000000000000000000000000000000000006001600160a01b03168152602090f35b34610166576000366003190112610166576040517f00000000000000000000000000000000000000000000000000000000000000006001600160a01b03168152602090f35b3461016657606036600319011261016657602435600435811515808303610166576044359261107e6115a2565b6110866115ce565b8260005260056020526040600020916005830180549360ff85166111c957600181019182546000526004602052604060002094600386015489116111915761ffff1990961686151560081b61ff00161760011790557f0e7f97a7bb56d93abd77948e67c2c809c82ac5ce49e0c5fc70c767b294d1d00e946040948891906007908360048601550161010061ffff1982541617905580611188575b61113b575b5050549482519182526020820152a36001600055005b6111819161114b826009546114f2565b600955600201546001600160a01b03167f00000000000000000000000000000000000000000000000000000000000000006115f1565b8686611125565b50801515611120565b60405162461bcd60e51b815260206004820152601060248201526f4578636565647320636f76657261676560801b6044820152606490fd5b60405162461bcd60e51b8152602060048201526011602482015270105b1c9958591e481c1c9bd8d95cdcd959607a1b6044820152606490fd5b34610166576000366003190112610166576020600854604051908152f35b34610166576000366003190112610166576020600f54604051908152f35b34610166576020366003190112610166576112576114ad565b506004356000526004602052610120604060002060405161127781611452565b81549182825260018060a01b03908160018201541690602084019182526002810154604085019081526003820154606086019081526004830154906080870191825260058401549260a08801938452600760068601549560c08a0196875201549660e089019660ff89161515885260ff610100809b019960081c16151589526040519a8b52511660208a01525160408901525160608801525160808701525160a08601525160c085015251151560e084015251151590820152f35b346101665760203660031901126101665760043561134e6115a2565b6103e88111611388576020817fc454ee9b76c52f782a256af821b857ca6e125d1e3333bcede402fec2bed9600c92600a55604051908152a1005b60405162461bcd60e51b81526020600482015260076024820152664d61782031302560c81b6044820152606490fd5b34610166576000366003190112610166576020600954604051908152f35b34610166576000366003190112610166576020600b54604051908152f35b3461016657600036600319011261016657602090600e548152f35b600435906001600160a01b038216820361016657565b805482101561143c5760005260206000200190600090565b634e487b7160e01b600052603260045260246000fd5b610120810190811067ffffffffffffffff82111761057f57604052565b60a0810190811067ffffffffffffffff82111761057f57604052565b90601f8019910116810190811067ffffffffffffffff82111761057f57604052565b604051906114ba82611452565b816101006000918281528260208201528260408201528260608201528260808201528260a08201528260c08201528260e08201520152565b919082039182116114ff57565b634e487b7160e01b600052601160045260246000fd5b818102929181159184041417156114ff57565b8115611532570490565b634e487b7160e01b600052601260045260246000fd5b919082018092116114ff57565b60001981146114ff5760010190565b600854801561159b576115989160018060a01b0316600052600760205261159360406000205460095490611515565b611528565b90565b5050600090565b6001546001600160a01b031633036115b657565b60405163118cdaa760e01b8152336004820152602490fd5b6002600054146115df576002600055565b604051633ee5aeb560e01b8152600490fd5b60405163a9059cbb60e01b60208201526001600160a01b039290921660248301526044808301939093529181526116329161162d60648361148b565b611676565b565b6040516323b872dd60e01b60208201526001600160a01b0392831660248201529290911660448301526064808301939093529181526116329161162d8261146f565b906000602091828151910182855af115610573576000513d6116c957506001600160a01b0381163b155b6116a75750565b604051635274afe760e01b81526001600160a01b039091166004820152602490fd5b600114156116a056fea2646970667358221220be5cf818d7b8568d9f5bbc490778dd718a1b8a1869adf3331a2f5a8691bd288764736f6c63430008180033","opcodes":"PUSH1 0xC0 CALLVALUE PUSH2 0x137 JUMPI PUSH1 0x1F PUSH2 0x186F CODESIZE DUP2 SWAP1 SUB SWAP2 DUP3 ADD PUSH1 0x1F NOT AND DUP4 ADD SWAP2 PUSH1 0x1 PUSH1 0x1 PUSH1 0x40 SHL SUB DUP4 GT DUP5 DUP5 LT OR PUSH2 0x13C JUMPI DUP1 DUP5 SWAP3 PUSH1 0x60 SWAP5 PUSH1 0x40 MSTORE DUP4 CODECOPY DUP2 ADD SUB SLT PUSH2 0x137 JUMPI PUSH2 0x47 DUP2 PUSH2 0x152 JUMP JUMPDEST PUSH1 0x40 PUSH2 0x55 PUSH1 0x20 DUP5 ADD PUSH2 0x152 JUMP JUMPDEST SWAP3 ADD MLOAD SWAP1 PUSH1 0x1 PUSH1 0x0 SSTORE CALLER ISZERO PUSH2 0x11E JUMPI PUSH1 0x1 DUP1 SLOAD CALLER PUSH1 0x1 PUSH1 0x1 PUSH1 0xA0 SHL SUB NOT DUP3 AND DUP2 OR SWAP1 SWAP3 SSTORE PUSH1 0x40 MLOAD SWAP5 PUSH1 0x1 PUSH1 0x1 PUSH1 0xA0 SHL SUB SWAP4 SWAP1 SWAP3 DUP5 SWAP3 DUP4 AND PUSH32 0x8BE0079C531659141344CD1FD0A4F28419497F9722A3DAAFE3B4186F6B6457E0 PUSH1 0x0 DUP1 LOG3 PUSH1 0x32 PUSH1 0xA SSTORE PUSH2 0x1F40 PUSH1 0xB SSTORE PUSH1 0xA PUSH1 0xD SSTORE AND PUSH1 0x80 MSTORE AND PUSH1 0xA0 MSTORE PUSH1 0xC SSTORE PUSH1 0x1 PUSH1 0x2 SSTORE PUSH1 0x1 PUSH1 0x3 SSTORE PUSH2 0x1708 SWAP1 DUP2 PUSH2 0x167 DUP3 CODECOPY PUSH1 0x80 MLOAD DUP2 DUP2 DUP2 PUSH2 0x785 ADD MSTORE DUP2 DUP2 PUSH2 0x91B ADD MSTORE DUP2 DUP2 PUSH2 0xED2 ADD MSTORE DUP2 DUP2 PUSH2 0x1022 ADD MSTORE PUSH2 0x115D ADD MSTORE PUSH1 0xA0 MLOAD DUP2 DUP2 DUP2 PUSH2 0x3E9 ADD MSTORE DUP2 DUP2 PUSH2 0xADE ADD MSTORE PUSH2 0xFDD ADD MSTORE RETURN JUMPDEST PUSH1 0x40 MLOAD PUSH4 0x1E4FBDF7 PUSH1 0xE0 SHL DUP2 MSTORE PUSH1 0x0 PUSH1 0x4 DUP3 ADD MSTORE PUSH1 0x24 SWAP1 REVERT JUMPDEST PUSH1 0x0 DUP1 REVERT JUMPDEST PUSH4 0x4E487B71 PUSH1 0xE0 SHL PUSH1 0x0 MSTORE PUSH1 0x41 PUSH1 0x4 MSTORE PUSH1 0x24 PUSH1 0x0 REVERT JUMPDEST MLOAD SWAP1 PUSH1 0x1 PUSH1 0x1 PUSH1 0xA0 SHL SUB DUP3 AND DUP3 SUB PUSH2 0x137 JUMPI JUMP INVALID PUSH1 0x80 DUP1 PUSH1 0x40 MSTORE PUSH1 0x4 CALLDATASIZE LT ISZERO PUSH2 0x13 JUMPI PUSH1 0x0 DUP1 REVERT JUMPDEST PUSH1 0x0 CALLDATALOAD PUSH1 0xE0 SHR SWAP1 DUP2 PUSH4 0x61D8A73 EQ PUSH2 0x13F3 JUMPI POP DUP1 PUSH4 0xC8C94D4 EQ PUSH2 0x13D5 JUMPI DUP1 PUSH4 0x15770F92 EQ PUSH2 0x13B7 JUMPI DUP1 PUSH4 0x1D08837B EQ PUSH2 0x1332 JUMPI DUP1 PUSH4 0x2B07FCE3 EQ PUSH2 0x123E JUMPI DUP1 PUSH4 0x34845A0F EQ PUSH2 0x1220 JUMPI DUP1 PUSH4 0x3A98EF39 EQ PUSH2 0x1202 JUMPI DUP1 PUSH4 0x3AB979D8 EQ PUSH2 0x1051 JUMPI DUP1 PUSH4 0x3E413BEE EQ PUSH2 0x100C JUMPI DUP1 PUSH4 0x4C6B993A EQ PUSH2 0xFC7 JUMPI DUP1 PUSH4 0x51C6590A EQ PUSH2 0xEA8 JUMPI DUP1 PUSH4 0x5AEF2447 EQ PUSH2 0xDB5 JUMPI DUP1 PUSH4 0x715018A6 EQ PUSH2 0xD58 JUMPI DUP1 PUSH4 0x857D0FDA EQ PUSH2 0xCA4 JUMPI DUP1 PUSH4 0x8DA5CB5B EQ PUSH2 0xC7B JUMPI DUP1 PUSH4 0x95501CBD EQ PUSH2 0x859 JUMPI DUP1 PUSH4 0x95A4DFD2 EQ PUSH2 0x801 JUMPI DUP1 PUSH4 0x9C8F9F23 EQ PUSH2 0x6FC JUMPI DUP1 PUSH4 0xA27344B5 EQ PUSH2 0x6D1 JUMPI DUP1 PUSH4 0xA888C2CD EQ PUSH2 0x63D JUMPI DUP1 PUSH4 0xAAA6A391 EQ PUSH2 0x61F JUMPI DUP1 PUSH4 0xAD71F248 EQ PUSH2 0x2E0 JUMPI DUP1 PUSH4 0xC109A6DC EQ PUSH2 0x2A6 JUMPI DUP1 PUSH4 0xD3E89483 EQ PUSH2 0x212 JUMPI DUP1 PUSH4 0xE84F43B7 EQ PUSH2 0x1F4 JUMPI DUP1 PUSH4 0xF2FDE38B EQ PUSH2 0x16B JUMPI PUSH4 0xF607FC12 EQ PUSH2 0x148 JUMPI PUSH1 0x0 DUP1 REVERT JUMPDEST CALLVALUE PUSH2 0x166 JUMPI PUSH1 0x0 CALLDATASIZE PUSH1 0x3 NOT ADD SLT PUSH2 0x166 JUMPI PUSH1 0x20 PUSH1 0xD SLOAD PUSH1 0x40 MLOAD SWAP1 DUP2 MSTORE RETURN JUMPDEST PUSH1 0x0 DUP1 REVERT JUMPDEST CALLVALUE PUSH2 0x166 JUMPI PUSH1 0x20 CALLDATASIZE PUSH1 0x3 NOT ADD SLT PUSH2 0x166 JUMPI PUSH2 0x184 PUSH2 0x140E JUMP JUMPDEST PUSH2 0x18C PUSH2 0x15A2 JUMP JUMPDEST PUSH1 0x1 PUSH1 0x1 PUSH1 0xA0 SHL SUB SWAP1 DUP2 AND SWAP1 DUP2 ISZERO PUSH2 0x1DB JUMPI PUSH1 0x1 SLOAD DUP3 PUSH1 0x1 PUSH1 0x1 PUSH1 0x60 SHL SUB PUSH1 0xA0 SHL DUP3 AND OR PUSH1 0x1 SSTORE AND PUSH32 0x8BE0079C531659141344CD1FD0A4F28419497F9722A3DAAFE3B4186F6B6457E0 PUSH1 0x0 DUP1 LOG3 STOP JUMPDEST PUSH1 0x40 MLOAD PUSH4 0x1E4FBDF7 PUSH1 0xE0 SHL DUP2 MSTORE PUSH1 0x0 PUSH1 0x4 DUP3 ADD MSTORE PUSH1 0x24 SWAP1 REVERT JUMPDEST CALLVALUE PUSH2 0x166 JUMPI PUSH1 0x0 CALLDATASIZE PUSH1 0x3 NOT ADD SLT PUSH2 0x166 JUMPI PUSH1 0x20 PUSH1 0xC SLOAD PUSH1 0x40 MLOAD SWAP1 DUP2 MSTORE RETURN JUMPDEST CALLVALUE PUSH2 0x166 JUMPI PUSH1 0x20 CALLDATASIZE PUSH1 0x3 NOT ADD SLT PUSH2 0x166 JUMPI PUSH1 0x4 CALLDATALOAD PUSH1 0x0 MSTORE PUSH1 0x4 PUSH1 0x20 MSTORE PUSH2 0x120 PUSH1 0x40 PUSH1 0x0 KECCAK256 PUSH1 0xFF DUP2 SLOAD SWAP2 PUSH1 0x1 DUP1 PUSH1 0xA0 SHL SUB PUSH1 0x1 DUP3 ADD SLOAD AND SWAP1 PUSH1 0x2 DUP2 ADD SLOAD PUSH1 0x3 DUP3 ADD SLOAD PUSH1 0x4 DUP4 ADD SLOAD SWAP1 PUSH1 0x5 DUP5 ADD SLOAD SWAP3 PUSH1 0x7 PUSH1 0x6 DUP7 ADD SLOAD SWAP6 ADD SLOAD SWAP6 PUSH1 0x40 MLOAD SWAP9 DUP10 MSTORE PUSH1 0x20 DUP10 ADD MSTORE PUSH1 0x40 DUP9 ADD MSTORE PUSH1 0x60 DUP8 ADD MSTORE PUSH1 0x80 DUP7 ADD MSTORE PUSH1 0xA0 DUP6 ADD MSTORE PUSH1 0xC0 DUP5 ADD MSTORE DUP2 DUP2 AND ISZERO ISZERO PUSH1 0xE0 DUP5 ADD MSTORE PUSH1 0x8 SHR AND ISZERO ISZERO PUSH2 0x100 DUP3 ADD MSTORE RETURN JUMPDEST CALLVALUE PUSH2 0x166 JUMPI PUSH1 0x20 CALLDATASIZE PUSH1 0x3 NOT ADD SLT PUSH2 0x166 JUMPI PUSH1 0x1 PUSH1 0x1 PUSH1 0xA0 SHL SUB PUSH2 0x2C7 PUSH2 0x140E JUMP JUMPDEST AND PUSH1 0x0 MSTORE PUSH1 0x7 PUSH1 0x20 MSTORE PUSH1 0x20 PUSH1 0x40 PUSH1 0x0 KECCAK256 SLOAD PUSH1 0x40 MLOAD SWAP1 DUP2 MSTORE RETURN JUMPDEST CALLVALUE PUSH2 0x166 JUMPI PUSH1 0x60 CALLDATASIZE PUSH1 0x3 NOT ADD SLT PUSH2 0x166 JUMPI PUSH1 0x44 CALLDATALOAD PUSH1 0x24 CALLDATALOAD PUSH1 0x4 CALLDATALOAD PUSH2 0x302 PUSH2 0x15CE JUMP JUMPDEST DUP1 PUSH1 0x0 MSTORE PUSH1 0x20 SWAP3 PUSH1 0x4 DUP5 MSTORE PUSH1 0x40 PUSH1 0x0 KECCAK256 PUSH1 0x1 DUP1 PUSH1 0xA0 SHL SUB SWAP1 DUP2 PUSH1 0x1 DUP3 ADD SLOAD AND CALLER SUB PUSH2 0x600 JUMPI PUSH1 0x7 DUP2 ADD SLOAD SWAP1 PUSH1 0xFF DUP3 AND ISZERO PUSH2 0x5E7 JUMPI PUSH1 0x5 ADD SLOAD TIMESTAMP GT PUSH2 0x5CE JUMPI PUSH1 0x8 SHR PUSH1 0xFF AND PUSH2 0x5B5 JUMPI PUSH3 0x15180 TIMESTAMP DIV DUP1 PUSH1 0xF SLOAD LT PUSH2 0x5A7 JUMPI JUMPDEST POP PUSH1 0xE SLOAD PUSH1 0xD SLOAD GT ISZERO PUSH2 0x595 JUMPI PUSH1 0x3 SLOAD SWAP4 PUSH2 0x374 DUP6 PUSH2 0x1555 JUMP JUMPDEST PUSH1 0x3 SSTORE PUSH1 0x40 MLOAD SWAP1 DUP7 DUP3 ADD SWAP2 DUP6 DUP4 MSTORE DUP2 PUSH1 0x40 DUP3 ADD MSTORE DUP5 PUSH1 0x60 DUP3 ADD MSTORE PUSH1 0x60 DUP2 MSTORE PUSH1 0x80 DUP2 ADD SWAP3 DUP2 DUP5 LT PUSH8 0xFFFFFFFFFFFFFFFF DUP6 GT OR PUSH2 0x57F JUMPI DUP4 PUSH1 0x40 MSTORE DUP2 MLOAD SWAP1 KECCAK256 PUSH1 0xC SLOAD PUSH4 0xDE4CC54D PUSH1 0xE0 SHL DUP6 MSTORE PUSH1 0x84 DUP4 ADD MSTORE PUSH1 0x2 PUSH1 0xA4 DUP4 ADD MSTORE PUSH1 0xC4 DUP3 ADD MSTORE PUSH1 0x80 PUSH1 0xE4 DUP3 ADD MSTORE PUSH1 0x0 PUSH2 0x104 DUP3 ADD MSTORE DUP8 DUP4 PUSH1 0xA4 DUP2 PUSH1 0x0 DUP9 PUSH32 0x0 AND GAS CALL DUP1 ISZERO PUSH2 0x573 JUMPI DUP8 SWAP5 DUP10 SWAP5 DUP9 SWAP4 PUSH1 0x0 SWAP4 PUSH2 0x537 JUMPI JUMPDEST POP POP SWAP1 DUP6 SWAP7 PUSH2 0x50B PUSH32 0xCF394F7701F2B1DAE6F328CBC70C1F155122B124431F95BBF4A483BBA6854555 SWAP8 PUSH1 0x7 SWAP5 DUP9 PUSH1 0x40 MLOAD SWAP8 DUP9 SWAP3 PUSH2 0x45C DUP5 PUSH2 0x1452 JUMP JUMPDEST DUP5 DUP5 MSTORE DUP3 DUP5 ADD SWAP2 DUP3 MSTORE PUSH1 0x40 DUP5 ADD SWAP1 CALLER DUP3 MSTORE PUSH1 0x60 DUP6 ADD SWAP3 DUP13 DUP5 MSTORE PUSH1 0x5 PUSH1 0x80 DUP8 ADD SWAP6 PUSH1 0x0 DUP8 MSTORE PUSH1 0xA0 DUP9 ADD SWAP9 PUSH1 0x0 DUP11 MSTORE PUSH2 0x100 PUSH1 0xC0 DUP11 ADD SWAP10 PUSH1 0x0 DUP12 MSTORE PUSH1 0xE0 DUP2 ADD SWAP14 DUP15 MSTORE ADD SWAP13 DUP14 MSTORE PUSH1 0x0 MSTORE MSTORE PUSH1 0x40 PUSH1 0x0 KECCAK256 SWAP12 MLOAD DUP13 SSTORE MLOAD PUSH1 0x1 DUP13 ADD SSTORE PUSH1 0x2 DUP12 ADD SWAP2 MLOAD AND PUSH1 0x1 PUSH1 0x1 PUSH1 0x60 SHL SUB PUSH1 0xA0 SHL DUP3 SLOAD AND OR SWAP1 SSTORE MLOAD PUSH1 0x3 DUP10 ADD SSTORE MLOAD PUSH1 0x4 DUP9 ADD SSTORE PUSH2 0x4F4 PUSH1 0x5 DUP9 ADD SWAP3 MLOAD ISZERO ISZERO DUP4 SWAP1 PUSH1 0xFF DUP1 NOT DUP4 SLOAD AND SWAP2 ISZERO ISZERO AND OR SWAP1 SSTORE JUMP JUMPDEST MLOAD DUP2 SLOAD PUSH2 0xFF00 NOT AND SWAP1 ISZERO ISZERO PUSH1 0x8 SHL PUSH2 0xFF00 AND OR SWAP1 SSTORE JUMP JUMPDEST MLOAD PUSH1 0x6 DUP5 ADD SSTORE MLOAD SWAP2 ADD SSTORE PUSH2 0x520 PUSH1 0xE SLOAD PUSH2 0x1555 JUMP JUMPDEST PUSH1 0xE SSTORE PUSH1 0x40 MLOAD SWAP1 DUP2 MSTORE LOG3 PUSH1 0x1 PUSH1 0x0 SSTORE PUSH1 0x40 MLOAD SWAP1 DUP2 MSTORE RETURN JUMPDEST SWAP3 POP SWAP6 POP SWAP4 DUP1 SWAP3 POP RETURNDATASIZE DUP4 GT PUSH2 0x56C JUMPI JUMPDEST PUSH2 0x551 DUP2 DUP8 PUSH2 0x148B JUMP JUMPDEST DUP2 ADD SUB SLT PUSH2 0x166 JUMPI SWAP2 MLOAD DUP6 SWAP3 DUP8 SWAP3 SWAP1 SWAP2 DUP7 SWAP2 DUP7 PUSH2 0x50B PUSH2 0x41F JUMP JUMPDEST POP RETURNDATASIZE PUSH2 0x547 JUMP JUMPDEST PUSH1 0x40 MLOAD RETURNDATASIZE PUSH1 0x0 DUP3 RETURNDATACOPY RETURNDATASIZE SWAP1 REVERT JUMPDEST PUSH4 0x4E487B71 PUSH1 0xE0 SHL PUSH1 0x0 MSTORE PUSH1 0x41 PUSH1 0x4 MSTORE PUSH1 0x24 PUSH1 0x0 REVERT JUMPDEST PUSH1 0x40 MLOAD PUSH4 0x9907008B PUSH1 0xE0 SHL DUP2 MSTORE PUSH1 0x4 SWAP1 REVERT JUMPDEST PUSH1 0x0 PUSH1 0xE SSTORE PUSH1 0xF SSTORE DUP6 PUSH2 0x35A JUMP JUMPDEST PUSH1 0x40 MLOAD PUSH4 0x598B3DFD PUSH1 0xE1 SHL DUP2 MSTORE PUSH1 0x4 DUP2 ADD DUP5 SWAP1 MSTORE PUSH1 0x24 SWAP1 REVERT JUMPDEST PUSH1 0x40 MLOAD PUSH4 0xB22AA541 PUSH1 0xE0 SHL DUP2 MSTORE PUSH1 0x4 DUP2 ADD DUP6 SWAP1 MSTORE PUSH1 0x24 SWAP1 REVERT JUMPDEST PUSH1 0x40 MLOAD PUSH4 0xA3068E7B PUSH1 0xE0 SHL DUP2 MSTORE PUSH1 0x4 DUP2 ADD DUP7 SWAP1 MSTORE PUSH1 0x24 SWAP1 REVERT JUMPDEST PUSH1 0x40 MLOAD PUSH4 0x1B0A054D PUSH1 0xE1 SHL DUP2 MSTORE CALLER PUSH1 0x4 DUP3 ADD MSTORE PUSH1 0x24 DUP2 ADD DUP6 SWAP1 MSTORE PUSH1 0x44 SWAP1 REVERT JUMPDEST CALLVALUE PUSH2 0x166 JUMPI PUSH1 0x0 CALLDATASIZE PUSH1 0x3 NOT ADD SLT PUSH2 0x166 JUMPI PUSH1 0x20 PUSH1 0xA SLOAD PUSH1 0x40 MLOAD SWAP1 DUP2 MSTORE RETURN JUMPDEST CALLVALUE PUSH2 0x166 JUMPI PUSH1 0x20 CALLDATASIZE PUSH1 0x3 NOT ADD SLT PUSH2 0x166 JUMPI PUSH1 0x4 CALLDATALOAD PUSH1 0x0 MSTORE PUSH1 0x5 PUSH1 0x20 MSTORE PUSH2 0x120 PUSH1 0x40 PUSH1 0x0 KECCAK256 DUP1 SLOAD SWAP1 PUSH1 0x1 DUP2 ADD SLOAD SWAP1 PUSH1 0xFF PUSH1 0x1 DUP1 PUSH1 0xA0 SHL SUB PUSH1 0x2 DUP4 ADD SLOAD AND PUSH1 0x3 DUP4 ADD SLOAD PUSH1 0x4 DUP5 ADD SLOAD SWAP1 PUSH1 0x5 DUP6 ADD SLOAD SWAP3 PUSH1 0x7 PUSH1 0x6 DUP8 ADD SLOAD SWAP7 ADD SLOAD SWAP7 PUSH1 0x40 MLOAD SWAP9 DUP10 MSTORE PUSH1 0x20 DUP10 ADD MSTORE PUSH1 0x40 DUP9 ADD MSTORE PUSH1 0x60 DUP8 ADD MSTORE PUSH1 0x80 DUP7 ADD MSTORE DUP2 DUP2 AND ISZERO ISZERO PUSH1 0xA0 DUP7 ADD MSTORE PUSH1 0x8 SHR AND ISZERO ISZERO PUSH1 0xC0 DUP5 ADD MSTORE PUSH1 0xE0 DUP4 ADD MSTORE PUSH2 0x100 DUP3 ADD MSTORE RETURN JUMPDEST CALLVALUE PUSH2 0x166 JUMPI PUSH1 0x20 CALLDATASIZE PUSH1 0x3 NOT ADD SLT PUSH2 0x166 JUMPI PUSH1 0x20 PUSH2 0x6F4 PUSH2 0x6EF PUSH2 0x140E JUMP JUMPDEST PUSH2 0x1564 JUMP JUMPDEST PUSH1 0x40 MLOAD SWAP1 DUP2 MSTORE RETURN JUMPDEST CALLVALUE PUSH2 0x166 JUMPI PUSH1 0x20 CALLDATASIZE PUSH1 0x3 NOT ADD SLT PUSH2 0x166 JUMPI PUSH1 0x4 CALLDATALOAD PUSH2 0x718 PUSH2 0x15CE JUMP JUMPDEST CALLER PUSH1 0x0 MSTORE PUSH1 0x7 PUSH1 0x20 MSTORE DUP1 PUSH1 0x40 PUSH1 0x0 KECCAK256 SLOAD LT PUSH2 0x7E1 JUMPI PUSH2 0x745 PUSH2 0x73C PUSH1 0x9 SLOAD DUP4 PUSH2 0x1515 JUMP JUMPDEST PUSH1 0x8 SLOAD SWAP1 PUSH2 0x1528 JUMP JUMPDEST CALLER PUSH1 0x0 MSTORE PUSH1 0x7 PUSH1 0x20 MSTORE PUSH1 0x40 PUSH1 0x0 KECCAK256 PUSH2 0x75E DUP4 DUP3 SLOAD PUSH2 0x14F2 JUMP JUMPDEST SWAP1 SSTORE PUSH2 0x76C DUP3 PUSH1 0x8 SLOAD PUSH2 0x14F2 JUMP JUMPDEST PUSH1 0x8 SSTORE PUSH2 0x77B DUP2 PUSH1 0x9 SLOAD PUSH2 0x14F2 JUMP JUMPDEST PUSH1 0x9 SSTORE PUSH2 0x7A9 DUP2 CALLER PUSH32 0x0 PUSH2 0x15F1 JUMP JUMPDEST PUSH1 0x40 MLOAD SWAP2 DUP3 MSTORE PUSH1 0x20 DUP3 ADD MSTORE PUSH32 0x96CD817C6329656790EF8FBA7675405193677D39619571282F5E21F3A98CD059 PUSH1 0x40 CALLER SWAP3 LOG2 PUSH1 0x1 PUSH1 0x0 SSTORE STOP JUMPDEST PUSH1 0x40 MLOAD PUSH4 0x3C8C6FB PUSH1 0xE5 SHL DUP2 MSTORE CALLER PUSH1 0x4 DUP3 ADD MSTORE PUSH1 0x24 DUP2 ADD SWAP2 SWAP1 SWAP2 MSTORE PUSH1 0x44 SWAP1 REVERT JUMPDEST CALLVALUE PUSH2 0x166 JUMPI PUSH1 0x40 CALLDATASIZE PUSH1 0x3 NOT ADD SLT PUSH2 0x166 JUMPI PUSH2 0x81A PUSH2 0x140E JUMP JUMPDEST PUSH1 0x1 PUSH1 0x1 PUSH1 0xA0 SHL SUB AND PUSH1 0x0 SWAP1 DUP2 MSTORE PUSH1 0x6 PUSH1 0x20 MSTORE PUSH1 0x40 SWAP1 KECCAK256 DUP1 SLOAD PUSH1 0x24 CALLDATALOAD SWAP2 SWAP1 DUP3 LT ISZERO PUSH2 0x166 JUMPI PUSH1 0x20 SWAP2 PUSH2 0x84B SWAP2 PUSH2 0x1424 JUMP JUMPDEST SWAP1 SLOAD PUSH1 0x40 MLOAD SWAP2 PUSH1 0x3 SHL SHR DUP2 MSTORE RETURN JUMPDEST CALLVALUE PUSH2 0x166 JUMPI PUSH1 0x60 CALLDATASIZE PUSH1 0x3 NOT ADD SLT PUSH2 0x166 JUMPI PUSH1 0x24 DUP1 CALLDATALOAD PUSH2 0x876 PUSH2 0x15CE JUMP JUMPDEST PUSH1 0x4 CALLDATALOAD ISZERO PUSH2 0xC40 JUMPI PUSH3 0x15180 DUP2 LT PUSH2 0xC06 JUMPI PUSH1 0x64 PUSH1 0x44 CALLDATALOAD GT PUSH2 0xBCD JUMPI PUSH2 0x8A7 PUSH1 0x9 SLOAD PUSH2 0x2710 SWAP2 DUP3 SWAP2 PUSH1 0xB SLOAD SWAP1 PUSH2 0x1515 JUMP JUMPDEST DIV DUP1 PUSH1 0x4 CALLDATALOAD GT PUSH2 0xBAD JUMPI POP DUP1 PUSH2 0x8C1 PUSH1 0xA SLOAD PUSH1 0x4 CALLDATALOAD PUSH2 0x1515 JUMP JUMPDEST DIV PUSH1 0x64 PUSH1 0x44 CALLDATALOAD MUL PUSH1 0x44 CALLDATALOAD DUP2 DIV PUSH1 0x64 EQ PUSH1 0x44 CALLDATALOAD ISZERO OR ISZERO PUSH2 0xB98 JUMPI DUP3 ADD SWAP1 DUP2 DUP4 GT PUSH2 0xB98 JUMPI DUP3 SWAP2 PUSH2 0x8EF SWAP2 PUSH2 0x1515 JUMP JUMPDEST DIV DUP2 DUP4 MUL SWAP1 DUP4 DUP3 DIV DUP4 EQ DUP5 ISZERO OR ISZERO PUSH2 0xB98 JUMPI PUSH4 0x1E13380 PUSH2 0x911 SWAP3 DIV SWAP1 PUSH2 0x1515 JUMP JUMPDEST DIV SWAP2 PUSH2 0x93F DUP4 ADDRESS CALLER PUSH32 0x0 PUSH2 0x1634 JUMP JUMPDEST PUSH2 0x94B DUP4 PUSH1 0x9 SLOAD PUSH2 0x1548 JUMP JUMPDEST PUSH1 0x9 SSTORE PUSH2 0x967 PUSH1 0x2 SLOAD SWAP3 PUSH2 0x95E DUP5 PUSH2 0x1555 JUMP JUMPDEST PUSH1 0x2 SSTORE TIMESTAMP PUSH2 0x1548 JUMP JUMPDEST PUSH2 0xA2C PUSH1 0x40 MLOAD SWAP2 PUSH2 0x977 DUP4 PUSH2 0x1452 JUMP JUMPDEST DUP5 DUP4 MSTORE PUSH1 0x20 DUP4 ADD SWAP3 CALLER DUP5 MSTORE PUSH2 0x4F4 PUSH1 0x7 PUSH1 0x40 DUP4 ADD SWAP3 DUP10 DUP5 MSTORE PUSH1 0x60 DUP2 ADD SWAP5 PUSH1 0x4 CALLDATALOAD DUP7 MSTORE PUSH1 0x80 DUP3 ADD SWAP1 TIMESTAMP DUP3 MSTORE PUSH1 0xA0 DUP4 ADD SWAP1 DUP2 MSTORE PUSH1 0xC0 DUP4 ADD SWAP2 PUSH1 0x44 CALLDATALOAD DUP4 MSTORE PUSH1 0xE0 DUP5 ADD SWAP8 PUSH1 0x1 DUP10 MSTORE PUSH2 0x100 DUP6 ADD SWAP8 PUSH1 0x0 DUP10 MSTORE DUP14 PUSH1 0x0 MSTORE PUSH1 0x4 PUSH1 0x20 MSTORE PUSH1 0x40 PUSH1 0x0 KECCAK256 SWAP6 MLOAD DUP7 SSTORE PUSH1 0x1 DUP7 ADD PUSH1 0x1 DUP1 PUSH1 0xA0 SHL SUB DUP1 SWAP14 MLOAD AND PUSH1 0x1 PUSH1 0x1 PUSH1 0x60 SHL SUB PUSH1 0xA0 SHL DUP3 SLOAD AND OR SWAP1 SSTORE MLOAD PUSH1 0x2 DUP7 ADD SSTORE MLOAD PUSH1 0x3 DUP6 ADD SSTORE MLOAD PUSH1 0x4 DUP5 ADD SSTORE MLOAD PUSH1 0x5 DUP4 ADD SSTORE MLOAD PUSH1 0x6 DUP3 ADD SSTORE ADD SWAP3 MLOAD ISZERO ISZERO DUP4 SWAP1 PUSH1 0xFF DUP1 NOT DUP4 SLOAD AND SWAP2 ISZERO ISZERO AND OR SWAP1 SSTORE JUMP JUMPDEST CALLER PUSH1 0x0 MSTORE PUSH1 0x6 PUSH1 0x20 MSTORE PUSH1 0x40 PUSH1 0x0 KECCAK256 DUP1 SLOAD SWAP1 PUSH9 0x10000000000000000 DUP3 LT ISZERO PUSH2 0xB83 JUMPI PUSH1 0x20 SWAP3 PUSH2 0xA66 DUP4 PUSH1 0xA4 SWAP4 PUSH1 0x1 PUSH1 0x0 SWAP9 SWAP7 ADD DUP2 SSTORE PUSH2 0x1424 JUMP JUMPDEST DUP2 SLOAD SWAP1 PUSH1 0x3 SHL SWAP1 DUP9 DUP3 SHL SWAP2 DUP9 NOT SWAP1 SHL NOT AND OR SWAP1 SSTORE DUP5 PUSH1 0x40 MLOAD DUP6 DUP2 ADD SWAP1 DUP9 DUP3 MSTORE PUSH1 0x4 CALLDATALOAD PUSH1 0x40 DUP3 ADD MSTORE DUP10 PUSH1 0x60 DUP3 ADD MSTORE PUSH1 0x44 CALLDATALOAD PUSH1 0x80 DUP3 ADD MSTORE PUSH1 0x80 DUP2 MSTORE PUSH2 0xAA8 DUP2 PUSH2 0x146F JUMP JUMPDEST MLOAD SWAP1 KECCAK256 SWAP2 PUSH1 0xC SLOAD SWAP3 PUSH1 0x40 MLOAD SWAP8 DUP9 SWAP7 DUP8 SWAP6 PUSH4 0xDE4CC54D PUSH1 0xE0 SHL DUP8 MSTORE PUSH1 0x4 DUP8 ADD MSTORE DUP6 ADD MSTORE PUSH1 0x44 DUP5 ADD MSTORE PUSH1 0x80 PUSH1 0x64 DUP5 ADD MSTORE DUP2 PUSH1 0x84 DUP5 ADD MSTORE PUSH32 0x0 AND GAS CALL DUP1 ISZERO PUSH2 0x573 JUMPI PUSH2 0xB58 JUMPI JUMPDEST POP PUSH1 0x20 SWAP2 PUSH1 0x40 MLOAD SWAP1 DUP2 MSTORE PUSH1 0x4 CALLDATALOAD DUP4 DUP3 ADD MSTORE PUSH1 0x44 CALLDATALOAD PUSH1 0x40 DUP3 ADD MSTORE DUP2 PUSH32 0x377904BAD423A6BA6D312D0AEC8F4E6FF68CC78A99AA124259F57ECB7D062366 PUSH1 0x60 CALLER SWAP4 LOG3 PUSH1 0x1 PUSH1 0x0 SSTORE PUSH1 0x40 MLOAD SWAP1 DUP2 MSTORE RETURN JUMPDEST PUSH1 0x20 SWAP1 DUP2 RETURNDATASIZE DUP4 GT PUSH2 0xB7C JUMPI JUMPDEST PUSH2 0xB6E DUP2 DUP4 PUSH2 0x148B JUMP JUMPDEST DUP2 ADD SUB SLT PUSH2 0x166 JUMPI DUP3 PUSH2 0xB0B JUMP JUMPDEST POP RETURNDATASIZE PUSH2 0xB64 JUMP JUMPDEST DUP4 PUSH4 0x4E487B71 PUSH1 0xE0 SHL PUSH1 0x0 MSTORE PUSH1 0x41 PUSH1 0x4 MSTORE PUSH1 0x0 REVERT JUMPDEST DUP5 PUSH4 0x4E487B71 PUSH1 0xE0 SHL PUSH1 0x0 MSTORE PUSH1 0x11 PUSH1 0x4 MSTORE PUSH1 0x0 REVERT JUMPDEST PUSH1 0x44 SWAP1 DUP5 PUSH1 0x40 MLOAD SWAP2 PUSH4 0xA17E11D5 PUSH1 0xE0 SHL DUP4 MSTORE PUSH1 0x4 DUP4 ADD MSTORE PUSH1 0x4 CALLDATALOAD SWAP1 DUP3 ADD MSTORE REVERT JUMPDEST PUSH1 0x40 MLOAD PUSH3 0x461BCD PUSH1 0xE5 SHL DUP2 MSTORE PUSH1 0x20 PUSH1 0x4 DUP3 ADD MSTORE PUSH1 0x12 DUP2 DUP5 ADD MSTORE PUSH18 0x496E76616C6964207269736B2073636F7265 PUSH1 0x70 SHL PUSH1 0x44 DUP3 ADD MSTORE PUSH1 0x64 SWAP1 REVERT JUMPDEST PUSH1 0x40 MLOAD PUSH3 0x461BCD PUSH1 0xE5 SHL DUP2 MSTORE PUSH1 0x20 PUSH1 0x4 DUP3 ADD MSTORE PUSH1 0x13 DUP2 DUP5 ADD MSTORE PUSH19 0x4D696E206475726174696F6E3A203120646179 PUSH1 0x68 SHL PUSH1 0x44 DUP3 ADD MSTORE PUSH1 0x64 SWAP1 REVERT JUMPDEST PUSH1 0x40 MLOAD PUSH3 0x461BCD PUSH1 0xE5 SHL DUP2 MSTORE PUSH1 0x20 PUSH1 0x4 DUP3 ADD MSTORE PUSH1 0x14 DUP2 DUP5 ADD MSTORE PUSH20 0x436F766572616765206D757374206265203E203 PUSH1 0x64 SHL PUSH1 0x44 DUP3 ADD MSTORE PUSH1 0x64 SWAP1 REVERT JUMPDEST CALLVALUE PUSH2 0x166 JUMPI PUSH1 0x0 CALLDATASIZE PUSH1 0x3 NOT ADD SLT PUSH2 0x166 JUMPI PUSH1 0x1 SLOAD PUSH1 0x40 MLOAD PUSH1 0x1 PUSH1 0x1 PUSH1 0xA0 SHL SUB SWAP1 SWAP2 AND DUP2 MSTORE PUSH1 0x20 SWAP1 RETURN JUMPDEST CALLVALUE PUSH2 0x166 JUMPI PUSH1 0x20 DUP1 PUSH1 0x3 NOT CALLDATASIZE ADD SLT PUSH2 0x166 JUMPI PUSH1 0x1 PUSH1 0x1 PUSH1 0xA0 SHL SUB PUSH2 0xCC6 PUSH2 0x140E JUMP JUMPDEST AND PUSH1 0x0 MSTORE PUSH1 0x6 DUP2 MSTORE PUSH1 0x40 PUSH1 0x0 KECCAK256 PUSH1 0x40 MLOAD SWAP1 DUP2 DUP4 DUP3 SLOAD SWAP2 DUP3 DUP2 MSTORE ADD SWAP1 DUP2 SWAP3 PUSH1 0x0 MSTORE DUP5 PUSH1 0x0 KECCAK256 SWAP1 PUSH1 0x0 JUMPDEST DUP7 DUP3 DUP3 LT PUSH2 0xD44 JUMPI DUP7 DUP7 PUSH2 0xD04 DUP3 DUP9 SUB DUP4 PUSH2 0x148B JUMP JUMPDEST PUSH1 0x40 MLOAD SWAP3 DUP4 SWAP3 DUP2 DUP5 ADD SWAP1 DUP3 DUP6 MSTORE MLOAD DUP1 SWAP2 MSTORE PUSH1 0x40 DUP5 ADD SWAP3 SWAP2 PUSH1 0x0 JUMPDEST DUP3 DUP2 LT PUSH2 0xD2D JUMPI POP POP POP POP SUB SWAP1 RETURN JUMPDEST DUP4 MLOAD DUP6 MSTORE DUP7 SWAP6 POP SWAP4 DUP2 ADD SWAP4 SWAP3 DUP2 ADD SWAP3 PUSH1 0x1 ADD PUSH2 0xD1E JUMP JUMPDEST DUP4 SLOAD DUP6 MSTORE SWAP1 SWAP4 ADD SWAP3 PUSH1 0x1 SWAP3 DUP4 ADD SWAP3 ADD PUSH2 0xCEE JUMP JUMPDEST CALLVALUE PUSH2 0x166 JUMPI PUSH1 0x0 CALLDATASIZE PUSH1 0x3 NOT ADD SLT PUSH2 0x166 JUMPI PUSH2 0xD71 PUSH2 0x15A2 JUMP JUMPDEST PUSH1 0x1 DUP1 SLOAD PUSH1 0x1 PUSH1 0x1 PUSH1 0xA0 SHL SUB NOT DUP2 AND SWAP1 SWAP2 SSTORE PUSH1 0x0 SWAP1 PUSH1 0x1 PUSH1 0x1 PUSH1 0xA0 SHL SUB AND PUSH32 0x8BE0079C531659141344CD1FD0A4F28419497F9722A3DAAFE3B4186F6B6457E0 DUP3 DUP1 LOG3 STOP JUMPDEST CALLVALUE PUSH2 0x166 JUMPI PUSH1 0x20 CALLDATASIZE PUSH1 0x3 NOT ADD SLT PUSH2 0x166 JUMPI PUSH2 0xDCE PUSH2 0x14AD JUMP JUMPDEST POP PUSH1 0x4 CALLDATALOAD PUSH1 0x0 MSTORE PUSH1 0x5 PUSH1 0x20 MSTORE PUSH2 0x120 PUSH1 0x40 PUSH1 0x0 KECCAK256 PUSH1 0x40 MLOAD PUSH2 0xDEE DUP2 PUSH2 0x1452 JUMP JUMPDEST DUP2 SLOAD SWAP2 DUP3 DUP3 MSTORE PUSH1 0x1 DUP2 ADD SLOAD SWAP1 PUSH1 0x20 DUP4 ADD SWAP2 DUP3 MSTORE PUSH1 0x1 DUP1 PUSH1 0xA0 SHL SUB DUP1 PUSH1 0x2 DUP4 ADD SLOAD AND PUSH1 0x40 DUP6 ADD SWAP1 DUP2 MSTORE PUSH1 0x3 DUP4 ADD SLOAD PUSH1 0x60 DUP7 ADD SWAP1 DUP2 MSTORE PUSH1 0x4 DUP5 ADD SLOAD SWAP1 PUSH1 0x80 DUP8 ADD SWAP2 DUP3 MSTORE PUSH1 0x5 DUP6 ADD SLOAD SWAP4 PUSH1 0xA0 DUP9 ADD SWAP4 PUSH1 0xFF DUP7 AND ISZERO ISZERO DUP6 MSTORE PUSH1 0xFF PUSH1 0xC0 DUP11 ADD SWAP7 PUSH1 0x8 SHR AND ISZERO ISZERO DUP7 MSTORE PUSH1 0x7 PUSH1 0x6 DUP9 ADD SLOAD SWAP8 PUSH1 0xE0 DUP12 ADD SWAP9 DUP10 MSTORE ADD SLOAD SWAP8 PUSH2 0x100 DUP1 SWAP11 ADD SWAP9 DUP10 MSTORE PUSH1 0x40 MLOAD SWAP11 DUP12 MSTORE MLOAD PUSH1 0x20 DUP12 ADD MSTORE MLOAD AND PUSH1 0x40 DUP10 ADD MSTORE MLOAD PUSH1 0x60 DUP9 ADD MSTORE MLOAD PUSH1 0x80 DUP8 ADD MSTORE MLOAD ISZERO ISZERO PUSH1 0xA0 DUP7 ADD MSTORE MLOAD ISZERO ISZERO PUSH1 0xC0 DUP6 ADD MSTORE MLOAD PUSH1 0xE0 DUP5 ADD MSTORE MLOAD SWAP1 DUP3 ADD MSTORE RETURN JUMPDEST CALLVALUE PUSH2 0x166 JUMPI PUSH1 0x20 CALLDATASIZE PUSH1 0x3 NOT ADD SLT PUSH2 0x166 JUMPI PUSH1 0x4 CALLDATALOAD PUSH2 0xEC4 PUSH2 0x15CE JUMP JUMPDEST DUP1 ISZERO PUSH2 0xF8D JUMPI PUSH2 0xEF6 DUP2 ADDRESS CALLER PUSH32 0x0 PUSH2 0x1634 JUMP JUMPDEST PUSH1 0x8 SLOAD DUP1 PUSH2 0xF72 JUMPI POP DUP1 JUMPDEST CALLER PUSH1 0x0 MSTORE PUSH1 0x7 PUSH1 0x20 MSTORE PUSH1 0x40 PUSH1 0x0 KECCAK256 PUSH2 0xF1A DUP3 DUP3 SLOAD PUSH2 0x1548 JUMP JUMPDEST SWAP1 SSTORE PUSH2 0xF28 DUP2 PUSH1 0x8 SLOAD PUSH2 0x1548 JUMP JUMPDEST PUSH1 0x8 SSTORE PUSH2 0xF37 DUP3 PUSH1 0x9 SLOAD PUSH2 0x1548 JUMP JUMPDEST PUSH1 0x9 SSTORE PUSH1 0x40 MLOAD SWAP2 DUP3 MSTORE PUSH1 0x20 DUP3 ADD MSTORE PUSH32 0xAC1D76749E5447B7B16F5AB61447E1BD502F3BB4807AF3B28E620D1700A6EE45 PUSH1 0x40 CALLER SWAP3 LOG2 PUSH1 0x1 PUSH1 0x0 SSTORE STOP JUMPDEST PUSH2 0xF7F PUSH2 0xF88 SWAP2 DUP4 PUSH2 0x1515 JUMP JUMPDEST PUSH1 0x9 SLOAD SWAP1 PUSH2 0x1528 JUMP JUMPDEST PUSH2 0xF01 JUMP JUMPDEST PUSH1 0x40 MLOAD PUSH3 0x461BCD PUSH1 0xE5 SHL DUP2 MSTORE PUSH1 0x20 PUSH1 0x4 DUP3 ADD MSTORE PUSH1 0x12 PUSH1 0x24 DUP3 ADD MSTORE PUSH18 0x416D6F756E74206D757374206265203E203 PUSH1 0x74 SHL PUSH1 0x44 DUP3 ADD MSTORE PUSH1 0x64 SWAP1 REVERT JUMPDEST CALLVALUE PUSH2 0x166 JUMPI PUSH1 0x0 CALLDATASIZE PUSH1 0x3 NOT ADD SLT PUSH2 0x166 JUMPI PUSH1 0x40 MLOAD PUSH32 0x0 PUSH1 0x1 PUSH1 0x1 PUSH1 0xA0 SHL SUB AND DUP2 MSTORE PUSH1 0x20 SWAP1 RETURN JUMPDEST CALLVALUE PUSH2 0x166 JUMPI PUSH1 0x0 CALLDATASIZE PUSH1 0x3 NOT ADD SLT PUSH2 0x166 JUMPI PUSH1 0x40 MLOAD PUSH32 0x0 PUSH1 0x1 PUSH1 0x1 PUSH1 0xA0 SHL SUB AND DUP2 MSTORE PUSH1 0x20 SWAP1 RETURN JUMPDEST CALLVALUE PUSH2 0x166 JUMPI PUSH1 0x60 CALLDATASIZE PUSH1 0x3 NOT ADD SLT PUSH2 0x166 JUMPI PUSH1 0x24 CALLDATALOAD PUSH1 0x4 CALLDATALOAD DUP2 ISZERO ISZERO DUP1 DUP4 SUB PUSH2 0x166 JUMPI PUSH1 0x44 CALLDATALOAD SWAP3 PUSH2 0x107E PUSH2 0x15A2 JUMP JUMPDEST PUSH2 0x1086 PUSH2 0x15CE JUMP JUMPDEST DUP3 PUSH1 0x0 MSTORE PUSH1 0x5 PUSH1 0x20 MSTORE PUSH1 0x40 PUSH1 0x0 KECCAK256 SWAP2 PUSH1 0x5 DUP4 ADD DUP1 SLOAD SWAP4 PUSH1 0xFF DUP6 AND PUSH2 0x11C9 JUMPI PUSH1 0x1 DUP2 ADD SWAP2 DUP3 SLOAD PUSH1 0x0 MSTORE PUSH1 0x4 PUSH1 0x20 MSTORE PUSH1 0x40 PUSH1 0x0 KECCAK256 SWAP5 PUSH1 0x3 DUP7 ADD SLOAD DUP10 GT PUSH2 0x1191 JUMPI PUSH2 0xFFFF NOT SWAP1 SWAP7 AND DUP7 ISZERO ISZERO PUSH1 0x8 SHL PUSH2 0xFF00 AND OR PUSH1 0x1 OR SWAP1 SSTORE PUSH32 0xE7F97A7BB56D93ABD77948E67C2C809C82AC5CE49E0C5FC70C767B294D1D00E SWAP5 PUSH1 0x40 SWAP5 DUP9 SWAP2 SWAP1 PUSH1 0x7 SWAP1 DUP4 PUSH1 0x4 DUP7 ADD SSTORE ADD PUSH2 0x100 PUSH2 0xFFFF NOT DUP3 SLOAD AND OR SWAP1 SSTORE DUP1 PUSH2 0x1188 JUMPI JUMPDEST PUSH2 0x113B JUMPI JUMPDEST POP POP SLOAD SWAP5 DUP3 MLOAD SWAP2 DUP3 MSTORE PUSH1 0x20 DUP3 ADD MSTORE LOG3 PUSH1 0x1 PUSH1 0x0 SSTORE STOP JUMPDEST PUSH2 0x1181 SWAP2 PUSH2 0x114B DUP3 PUSH1 0x9 SLOAD PUSH2 0x14F2 JUMP JUMPDEST PUSH1 0x9 SSTORE PUSH1 0x2 ADD SLOAD PUSH1 0x1 PUSH1 0x1 PUSH1 0xA0 SHL SUB AND PUSH32 0x0 PUSH2 0x15F1 JUMP JUMPDEST DUP7 DUP7 PUSH2 0x1125 JUMP JUMPDEST POP DUP1 ISZERO ISZERO PUSH2 0x1120 JUMP JUMPDEST PUSH1 0x40 MLOAD PUSH3 0x461BCD PUSH1 0xE5 SHL DUP2 MSTORE PUSH1 0x20 PUSH1 0x4 DUP3 ADD MSTORE PUSH1 0x10 PUSH1 0x24 DUP3 ADD MSTORE PUSH16 0x4578636565647320636F766572616765 PUSH1 0x80 SHL PUSH1 0x44 DUP3 ADD MSTORE PUSH1 0x64 SWAP1 REVERT JUMPDEST PUSH1 0x40 MLOAD PUSH3 0x461BCD PUSH1 0xE5 SHL DUP2 MSTORE PUSH1 0x20 PUSH1 0x4 DUP3 ADD MSTORE PUSH1 0x11 PUSH1 0x24 DUP3 ADD MSTORE PUSH17 0x105B1C9958591E481C1C9BD8D95CDCD959 PUSH1 0x7A SHL PUSH1 0x44 DUP3 ADD MSTORE PUSH1 0x64 SWAP1 REVERT JUMPDEST CALLVALUE PUSH2 0x166 JUMPI PUSH1 0x0 CALLDATASIZE PUSH1 0x3 NOT ADD SLT PUSH2 0x166 JUMPI PUSH1 0x20 PUSH1 0x8 SLOAD PUSH1 0x40 MLOAD SWAP1 DUP2 MSTORE RETURN JUMPDEST CALLVALUE PUSH2 0x166 JUMPI PUSH1 0x0 CALLDATASIZE PUSH1 0x3 NOT ADD SLT PUSH2 0x166 JUMPI PUSH1 0x20 PUSH1 0xF SLOAD PUSH1 0x40 MLOAD SWAP1 DUP2 MSTORE RETURN JUMPDEST CALLVALUE PUSH2 0x166 JUMPI PUSH1 0x20 CALLDATASIZE PUSH1 0x3 NOT ADD SLT PUSH2 0x166 JUMPI PUSH2 0x1257 PUSH2 0x14AD JUMP JUMPDEST POP PUSH1 0x4 CALLDATALOAD PUSH1 0x0 MSTORE PUSH1 0x4 PUSH1 0x20 MSTORE PUSH2 0x120 PUSH1 0x40 PUSH1 0x0 KECCAK256 PUSH1 0x40 MLOAD PUSH2 0x1277 DUP2 PUSH2 0x1452 JUMP JUMPDEST DUP2 SLOAD SWAP2 DUP3 DUP3 MSTORE PUSH1 0x1 DUP1 PUSH1 0xA0 SHL SUB SWAP1 DUP2 PUSH1 0x1 DUP3 ADD SLOAD AND SWAP1 PUSH1 0x20 DUP5 ADD SWAP2 DUP3 MSTORE PUSH1 0x2 DUP2 ADD SLOAD PUSH1 0x40 DUP6 ADD SWAP1 DUP2 MSTORE PUSH1 0x3 DUP3 ADD SLOAD PUSH1 0x60 DUP7 ADD SWAP1 DUP2 MSTORE PUSH1 0x4 DUP4 ADD SLOAD SWAP1 PUSH1 0x80 DUP8 ADD SWAP2 DUP3 MSTORE PUSH1 0x5 DUP5 ADD SLOAD SWAP3 PUSH1 0xA0 DUP9 ADD SWAP4 DUP5 MSTORE PUSH1 0x7 PUSH1 0x6 DUP7 ADD SLOAD SWAP6 PUSH1 0xC0 DUP11 ADD SWAP7 DUP8 MSTORE ADD SLOAD SWAP7 PUSH1 0xE0 DUP10 ADD SWAP7 PUSH1 0xFF DUP10 AND ISZERO ISZERO DUP9 MSTORE PUSH1 0xFF PUSH2 0x100 DUP1 SWAP12 ADD SWAP10 PUSH1 0x8 SHR AND ISZERO ISZERO DUP10 MSTORE PUSH1 0x40 MLOAD SWAP11 DUP12 MSTORE MLOAD AND PUSH1 0x20 DUP11 ADD MSTORE MLOAD PUSH1 0x40 DUP10 ADD MSTORE MLOAD PUSH1 0x60 DUP9 ADD MSTORE MLOAD PUSH1 0x80 DUP8 ADD MSTORE MLOAD PUSH1 0xA0 DUP7 ADD MSTORE MLOAD PUSH1 0xC0 DUP6 ADD MSTORE MLOAD ISZERO ISZERO PUSH1 0xE0 DUP5 ADD MSTORE MLOAD ISZERO ISZERO SWAP1 DUP3 ADD MSTORE RETURN JUMPDEST CALLVALUE PUSH2 0x166 JUMPI PUSH1 0x20 CALLDATASIZE PUSH1 0x3 NOT ADD SLT PUSH2 0x166 JUMPI PUSH1 0x4 CALLDATALOAD PUSH2 0x134E PUSH2 0x15A2 JUMP JUMPDEST PUSH2 0x3E8 DUP2 GT PUSH2 0x1388 JUMPI PUSH1 0x20 DUP2 PUSH32 0xC454EE9B76C52F782A256AF821B857CA6E125D1E3333BCEDE402FEC2BED9600C SWAP3 PUSH1 0xA SSTORE PUSH1 0x40 MLOAD SWAP1 DUP2 MSTORE LOG1 STOP JUMPDEST PUSH1 0x40 MLOAD PUSH3 0x461BCD PUSH1 0xE5 SHL DUP2 MSTORE PUSH1 0x20 PUSH1 0x4 DUP3 ADD MSTORE PUSH1 0x7 PUSH1 0x24 DUP3 ADD MSTORE PUSH7 0x4D617820313025 PUSH1 0xC8 SHL PUSH1 0x44 DUP3 ADD MSTORE PUSH1 0x64 SWAP1 REVERT JUMPDEST CALLVALUE PUSH2 0x166 JUMPI PUSH1 0x0 CALLDATASIZE PUSH1 0x3 NOT ADD SLT PUSH2 0x166 JUMPI PUSH1 0x20 PUSH1 0x9 SLOAD PUSH1 0x40 MLOAD SWAP1 DUP2 MSTORE RETURN JUMPDEST CALLVALUE PUSH2 0x166 JUMPI PUSH1 0x0 CALLDATASIZE PUSH1 0x3 NOT ADD SLT PUSH2 0x166 JUMPI PUSH1 0x20 PUSH1 0xB SLOAD PUSH1 0x40 MLOAD SWAP1 DUP2 MSTORE RETURN JUMPDEST CALLVALUE PUSH2 0x166 JUMPI PUSH1 0x0 CALLDATASIZE PUSH1 0x3 NOT ADD SLT PUSH2 0x166 JUMPI PUSH1 0x20 SWAP1 PUSH1 0xE SLOAD DUP2 MSTORE RETURN JUMPDEST PUSH1 0x4 CALLDATALOAD SWAP1 PUSH1 0x1 PUSH1 0x1 PUSH1 0xA0 SHL SUB DUP3 AND DUP3 SUB PUSH2 0x166 JUMPI JUMP JUMPDEST DUP1 SLOAD DUP3 LT ISZERO PUSH2 0x143C JUMPI PUSH1 0x0 MSTORE PUSH1 0x20 PUSH1 0x0 KECCAK256 ADD SWAP1 PUSH1 0x0 SWAP1 JUMP JUMPDEST PUSH4 0x4E487B71 PUSH1 0xE0 SHL PUSH1 0x0 MSTORE PUSH1 0x32 PUSH1 0x4 MSTORE PUSH1 0x24 PUSH1 0x0 REVERT JUMPDEST PUSH2 0x120 DUP2 ADD SWAP1 DUP2 LT PUSH8 0xFFFFFFFFFFFFFFFF DUP3 GT OR PUSH2 0x57F JUMPI PUSH1 0x40 MSTORE JUMP JUMPDEST PUSH1 0xA0 DUP2 ADD SWAP1 DUP2 LT PUSH8 0xFFFFFFFFFFFFFFFF DUP3 GT OR PUSH2 0x57F JUMPI PUSH1 0x40 MSTORE JUMP JUMPDEST SWAP1 PUSH1 0x1F DUP1 NOT SWAP2 ADD AND DUP2 ADD SWAP1 DUP2 LT PUSH8 0xFFFFFFFFFFFFFFFF DUP3 GT OR PUSH2 0x57F JUMPI PUSH1 0x40 MSTORE JUMP JUMPDEST PUSH1 0x40 MLOAD SWAP1 PUSH2 0x14BA DUP3 PUSH2 0x1452 JUMP JUMPDEST DUP2 PUSH2 0x100 PUSH1 0x0 SWAP2 DUP3 DUP2 MSTORE DUP3 PUSH1 0x20 DUP3 ADD MSTORE DUP3 PUSH1 0x40 DUP3 ADD MSTORE DUP3 PUSH1 0x60 DUP3 ADD MSTORE DUP3 PUSH1 0x80 DUP3 ADD MSTORE DUP3 PUSH1 0xA0 DUP3 ADD MSTORE DUP3 PUSH1 0xC0 DUP3 ADD MSTORE DUP3 PUSH1 0xE0 DUP3 ADD MSTORE ADD MSTORE JUMP JUMPDEST SWAP2 SWAP1 DUP3 SUB SWAP2 DUP3 GT PUSH2 0x14FF JUMPI JUMP JUMPDEST PUSH4 0x4E487B71 PUSH1 0xE0 SHL PUSH1 0x0 MSTORE PUSH1 0x11 PUSH1 0x4 MSTORE PUSH1 0x24 PUSH1 0x0 REVERT JUMPDEST DUP2 DUP2 MUL SWAP3 SWAP2 DUP2 ISZERO SWAP2 DUP5 DIV EQ OR ISZERO PUSH2 0x14FF JUMPI JUMP JUMPDEST DUP2 ISZERO PUSH2 0x1532 JUMPI DIV SWAP1 JUMP JUMPDEST PUSH4 0x4E487B71 PUSH1 0xE0 SHL PUSH1 0x0 MSTORE PUSH1 0x12 PUSH1 0x4 MSTORE PUSH1 0x24 PUSH1 0x0 REVERT JUMPDEST SWAP2 SWAP1 DUP3 ADD DUP1 SWAP3 GT PUSH2 0x14FF JUMPI JUMP JUMPDEST PUSH1 0x0 NOT DUP2 EQ PUSH2 0x14FF JUMPI PUSH1 0x1 ADD SWAP1 JUMP JUMPDEST PUSH1 0x8 SLOAD DUP1 ISZERO PUSH2 0x159B JUMPI PUSH2 0x1598 SWAP2 PUSH1 0x1 DUP1 PUSH1 0xA0 SHL SUB AND PUSH1 0x0 MSTORE PUSH1 0x7 PUSH1 0x20 MSTORE PUSH2 0x1593 PUSH1 0x40 PUSH1 0x0 KECCAK256 SLOAD PUSH1 0x9 SLOAD SWAP1 PUSH2 0x1515 JUMP JUMPDEST PUSH2 0x1528 JUMP JUMPDEST SWAP1 JUMP JUMPDEST POP POP PUSH1 0x0 SWAP1 JUMP JUMPDEST PUSH1 0x1 SLOAD PUSH1 0x1 PUSH1 0x1 PUSH1 0xA0 SHL SUB AND CALLER SUB PUSH2 0x15B6 JUMPI JUMP JUMPDEST PUSH1 0x40 MLOAD PUSH4 0x118CDAA7 PUSH1 0xE0 SHL DUP2 MSTORE CALLER PUSH1 0x4 DUP3 ADD MSTORE PUSH1 0x24 SWAP1 REVERT JUMPDEST PUSH1 0x2 PUSH1 0x0 SLOAD EQ PUSH2 0x15DF JUMPI PUSH1 0x2 PUSH1 0x0 SSTORE JUMP JUMPDEST PUSH1 0x40 MLOAD PUSH4 0x3EE5AEB5 PUSH1 0xE0 SHL DUP2 MSTORE PUSH1 0x4 SWAP1 REVERT JUMPDEST PUSH1 0x40 MLOAD PUSH4 0xA9059CBB PUSH1 0xE0 SHL PUSH1 0x20 DUP3 ADD MSTORE PUSH1 0x1 PUSH1 0x1 PUSH1 0xA0 SHL SUB SWAP3 SWAP1 SWAP3 AND PUSH1 0x24 DUP4 ADD MSTORE PUSH1 0x44 DUP1 DUP4 ADD SWAP4 SWAP1 SWAP4 MSTORE SWAP2 DUP2 MSTORE PUSH2 0x1632 SWAP2 PUSH2 0x162D PUSH1 0x64 DUP4 PUSH2 0x148B JUMP JUMPDEST PUSH2 0x1676 JUMP JUMPDEST JUMP JUMPDEST PUSH1 0x40 MLOAD PUSH4 0x23B872DD PUSH1 0xE0 SHL PUSH1 0x20 DUP3 ADD MSTORE PUSH1 0x1 PUSH1 0x1 PUSH1 0xA0 SHL SUB SWAP3 DUP4 AND PUSH1 0x24 DUP3 ADD MSTORE SWAP3 SWAP1 SWAP2 AND PUSH1 0x44 DUP4 ADD MSTORE PUSH1 0x64 DUP1 DUP4 ADD SWAP4 SWAP1 SWAP4 MSTORE SWAP2 DUP2 MSTORE PUSH2 0x1632 SWAP2 PUSH2 0x162D DUP3 PUSH2 0x146F JUMP JUMPDEST SWAP1 PUSH1 0x0 PUSH1 0x20 SWAP2 DUP3 DUP2 MLOAD SWAP2 ADD DUP3 DUP6 GAS CALL ISZERO PUSH2 0x573 JUMPI PUSH1 0x0 MLOAD RETURNDATASIZE PUSH2 0x16C9 JUMPI POP PUSH1 0x1 PUSH1 0x1 PUSH1 0xA0 SHL SUB DUP2 AND EXTCODESIZE ISZERO JUMPDEST PUSH2 0x16A7 JUMPI POP JUMP JUMPDEST PUSH1 0x40 MLOAD PUSH4 0x5274AFE7 PUSH1 0xE0 SHL DUP2 MSTORE PUSH1 0x1 PUSH1 0x1 PUSH1 0xA0 SHL SUB SWAP1 SWAP2 AND PUSH1 0x4 DUP3 ADD MSTORE PUSH1 0x24 SWAP1 REVERT JUMPDEST PUSH1 0x1 EQ ISZERO PUSH2 0x16A0 JUMP INVALID LOG2 PUSH5 0x6970667358 0x22 SLT KECCAK256 0xBE TLOAD 0xF8 XOR 0xD7 0xB8 JUMP DUP14 SWAP16 JUMPDEST 0xBC BLOBHASH SMOD PUSH25 0xDD718A1B8A1869ADF3331A2F5A8691BD288764736F6C634300 ADDMOD XOR STOP CALLER "},"methodIdentifiers":{"addLiquidity(uint256)":"51c6590a","agentId()":"e84f43b7","baseRateBps()":"aaa6a391","claims(uint256)":"a888c2cd","claimsToday()":"061d8a73","getClaim(uint256)":"5aef2447","getHolderPolicies(address)":"857d0fda","getLPValue(address)":"a27344b5","getPolicy(uint256)":"2b07fce3","holderPolicies(address,uint256)":"95a4dfd2","lastClaimDay()":"34845a0f","lpShares(address)":"c109a6dc","maxClaimsPerDay()":"f607fc12","maxCoverageRatio()":"0c8c94d4","owner()":"8da5cb5b","policies(uint256)":"d3e89483","processClaim(uint256,bool,uint256)":"3ab979d8","purchasePolicy(uint256,uint256,uint256)":"95501cbd","removeLiquidity(uint256)":"9c8f9f23","renounceOwnership()":"715018a6","setBaseRate(uint256)":"1d08837b","submitClaim(uint256,uint256,bytes32)":"ad71f248","totalLiquidity()":"15770f92","totalShares()":"3a98ef39","transferOwnership(address)":"f2fde38b","usdc()":"3e413bee","validationRegistry()":"4c6b993a"}}}}}