{"contracts/IdentityRegistry.sol":{"IdentityRegistry":{"abi":[{"inputs":[],"stateMutability":"nonpayable","type":"constructor"},{"inputs":[{"internalType":"uint256","name":"agentId","type":"uint256"}],"name":"AgentNotExists","type":"error"},{"inputs":[{"internalType":"address","name":"sender","type":"address"},{"internalType":"uint256","name":"tokenId","type":"uint256"},{"internalType":"address","name":"owner","type":"address"}],"name":"ERC721IncorrectOwner","type":"error"},{"inputs":[{"internalType":"address","name":"operator","type":"address"},{"internalType":"uint256","name":"tokenId","type":"uint256"}],"name":"ERC721InsufficientApproval","type":"error"},{"inputs":[{"internalType":"address","name":"approver","type":"address"}],"name":"ERC721InvalidApprover","type":"error"},{"inputs":[{"internalType":"address","name":"operator","type":"address"}],"name":"ERC721InvalidOperator","type":"error"},{"inputs":[{"internalType":"address","name":"owner","type":"address"}],"name":"ERC721InvalidOwner","type":"error"},{"inputs":[{"internalType":"address","name":"receiver","type":"address"}],"name":"ERC721InvalidReceiver","type":"error"},{"inputs":[{"internalType":"address","name":"sender","type":"address"}],"name":"ERC721InvalidSender","type":"error"},{"inputs":[{"internalType":"uint256","name":"tokenId","type":"uint256"}],"name":"ERC721NonexistentToken","type":"error"},{"inputs":[{"internalType":"uint256","name":"agentId","type":"uint256"},{"internalType":"address","name":"caller","type":"address"}],"name":"NotAuthorized","type":"error"},{"inputs":[{"internalType":"address","name":"owner","type":"address"}],"name":"OwnableInvalidOwner","type":"error"},{"inputs":[{"internalType":"address","name":"account","type":"address"}],"name":"OwnableUnauthorizedAccount","type":"error"},{"inputs":[{"internalType":"string","name":"key","type":"string"}],"name":"ReservedKey","type":"error"},{"anonymous":false,"inputs":[{"indexed":true,"internalType":"uint256","name":"agentId","type":"uint256"},{"indexed":true,"internalType":"address","name":"owner","type":"address"},{"indexed":false,"internalType":"string","name":"agentURI","type":"string"}],"name":"AgentRegistered","type":"event"},{"anonymous":false,"inputs":[{"indexed":true,"internalType":"uint256","name":"agentId","type":"uint256"},{"indexed":false,"internalType":"string","name":"newURI","type":"string"}],"name":"AgentURIUpdated","type":"event"},{"anonymous":false,"inputs":[{"indexed":true,"internalType":"uint256","name":"agentId","type":"uint256"},{"indexed":true,"internalType":"address","name":"newWallet","type":"address"},{"indexed":false,"internalType":"bytes","name":"proof","type":"bytes"}],"name":"AgentWalletUpdated","type":"event"},{"anonymous":false,"inputs":[{"indexed":true,"internalType":"address","name":"owner","type":"address"},{"indexed":true,"internalType":"address","name":"approved","type":"address"},{"indexed":true,"internalType":"uint256","name":"tokenId","type":"uint256"}],"name":"Approval","type":"event"},{"anonymous":false,"inputs":[{"indexed":true,"internalType":"address","name":"owner","type":"address"},{"indexed":true,"internalType":"address","name":"operator","type":"address"},{"indexed":false,"internalType":"bool","name":"approved","type":"bool"}],"name":"ApprovalForAll","type":"event"},{"anonymous":false,"inputs":[{"indexed":false,"internalType":"uint256","name":"_fromTokenId","type":"uint256"},{"indexed":false,"internalType":"uint256","name":"_toTokenId","type":"uint256"}],"name":"BatchMetadataUpdate","type":"event"},{"anonymous":false,"inputs":[{"indexed":true,"internalType":"uint256","name":"agentId","type":"uint256"},{"indexed":true,"internalType":"string","name":"indexedMetadataKey","type":"string"},{"indexed":false,"internalType":"string","name":"metadataKey","type":"string"},{"indexed":false,"internalType":"bytes","name":"metadataValue","type":"bytes"}],"name":"MetadataSet","type":"event"},{"anonymous":false,"inputs":[{"indexed":false,"internalType":"uint256","name":"_tokenId","type":"uint256"}],"name":"MetadataUpdate","type":"event"},{"anonymous":false,"inputs":[{"indexed":true,"internalType":"uint256","name":"agentId","type":"uint256"},{"indexed":true,"internalType":"address","name":"operator","type":"address"}],"name":"OperatorSet","type":"event"},{"anonymous":false,"inputs":[{"indexed":true,"internalType":"address","name":"previousOwner","type":"address"},{"indexed":true,"internalType":"address","name":"newOwner","type":"address"}],"name":"OwnershipTransferred","type":"event"},{"anonymous":false,"inputs":[{"indexed":true,"internalType":"address","name":"from","type":"address"},{"indexed":true,"internalType":"address","name":"to","type":"address"},{"indexed":true,"internalType":"uint256","name":"tokenId","type":"uint256"}],"name":"Transfer","type":"event"},{"inputs":[{"internalType":"uint256","name":"agentId","type":"uint256"}],"name":"agentURI","outputs":[{"internalType":"string","name":"","type":"string"}],"stateMutability":"view","type":"function"},{"inputs":[{"internalType":"uint256","name":"","type":"uint256"}],"name":"agentWallets","outputs":[{"internalType":"address","name":"","type":"address"}],"stateMutability":"view","type":"function"},{"inputs":[{"internalType":"address","name":"to","type":"address"},{"internalType":"uint256","name":"tokenId","type":"uint256"}],"name":"approve","outputs":[],"stateMutability":"nonpayable","type":"function"},{"inputs":[{"internalType":"address","name":"owner","type":"address"}],"name":"balanceOf","outputs":[{"internalType":"uint256","name":"","type":"uint256"}],"stateMutability":"view","type":"function"},{"inputs":[{"internalType":"uint256","name":"tokenId","type":"uint256"}],"name":"getApproved","outputs":[{"internalType":"address","name":"","type":"address"}],"stateMutability":"view","type":"function"},{"inputs":[{"internalType":"uint256","name":"agentId","type":"uint256"},{"internalType":"string","name":"metadataKey","type":"string"}],"name":"getMetadata","outputs":[{"internalType":"bytes","name":"","type":"bytes"}],"stateMutability":"view","type":"function"},{"inputs":[{"internalType":"address","name":"owner","type":"address"},{"internalType":"address","name":"operator","type":"address"}],"name":"isApprovedForAll","outputs":[{"internalType":"bool","name":"","type":"bool"}],"stateMutability":"view","type":"function"},{"inputs":[],"name":"name","outputs":[{"internalType":"string","name":"","type":"string"}],"stateMutability":"view","type":"function"},{"inputs":[{"internalType":"uint256","name":"","type":"uint256"}],"name":"operators","outputs":[{"internalType":"address","name":"","type":"address"}],"stateMutability":"view","type":"function"},{"inputs":[],"name":"owner","outputs":[{"internalType":"address","name":"","type":"address"}],"stateMutability":"view","type":"function"},{"inputs":[{"internalType":"uint256","name":"tokenId","type":"uint256"}],"name":"ownerOf","outputs":[{"internalType":"address","name":"","type":"address"}],"stateMutability":"view","type":"function"},{"inputs":[{"internalType":"string","name":"agentURI","type":"string"},{"internalType":"string[]","name":"keys","type":"string[]"},{"internalType":"bytes[]","name":"values","type":"bytes[]"}],"name":"register","outputs":[{"internalType":"uint256","name":"agentId","type":"uint256"}],"stateMutability":"nonpayable","type":"function"},{"inputs":[{"internalType":"string","name":"agentURI","type":"string"}],"name":"register","outputs":[{"internalType":"uint256","name":"agentId","type":"uint256"}],"stateMutability":"nonpayable","type":"function"},{"inputs":[],"name":"renounceOwnership","outputs":[],"stateMutability":"nonpayable","type":"function"},{"inputs":[{"internalType":"address","name":"from","type":"address"},{"internalType":"address","name":"to","type":"address"},{"internalType":"uint256","name":"tokenId","type":"uint256"}],"name":"safeTransferFrom","outputs":[],"stateMutability":"nonpayable","type":"function"},{"inputs":[{"internalType":"address","name":"from","type":"address"},{"internalType":"address","name":"to","type":"address"},{"internalType":"uint256","name":"tokenId","type":"uint256"},{"internalType":"bytes","name":"data","type":"bytes"}],"name":"safeTransferFrom","outputs":[],"stateMutability":"nonpayable","type":"function"},{"inputs":[{"internalType":"uint256","name":"agentId","type":"uint256"},{"internalType":"string","name":"newURI","type":"string"}],"name":"setAgentURI","outputs":[],"stateMutability":"nonpayable","type":"function"},{"inputs":[{"internalType":"address","name":"operator","type":"address"},{"internalType":"bool","name":"approved","type":"bool"}],"name":"setApprovalForAll","outputs":[],"stateMutability":"nonpayable","type":"function"},{"inputs":[{"internalType":"uint256","name":"agentId","type":"uint256"},{"internalType":"string","name":"metadataKey","type":"string"},{"internalType":"bytes","name":"metadataValue","type":"bytes"}],"name":"setMetadata","outputs":[],"stateMutability":"nonpayable","type":"function"},{"inputs":[{"internalType":"uint256","name":"agentId","type":"uint256"},{"internalType":"address","name":"operator","type":"address"}],"name":"setOperator","outputs":[],"stateMutability":"nonpayable","type":"function"},{"inputs":[{"internalType":"bytes4","name":"interfaceId","type":"bytes4"}],"name":"supportsInterface","outputs":[{"internalType":"bool","name":"","type":"bool"}],"stateMutability":"view","type":"function"},{"inputs":[],"name":"symbol","outputs":[{"internalType":"string","name":"","type":"string"}],"stateMutability":"view","type":"function"},{"inputs":[{"internalType":"uint256","name":"tokenId","type":"uint256"}],"name":"tokenURI","outputs":[{"internalType":"string","name":"","type":"string"}],"stateMutability":"view","type":"function"},{"inputs":[],"name":"totalAgents","outputs":[{"internalType":"uint256","name":"","type":"uint256"}],"stateMutability":"view","type":"function"},{"inputs":[{"internalType":"address","name":"from","type":"address"},{"internalType":"address","name":"to","type":"address"},{"internalType":"uint256","name":"tokenId","type":"uint256"}],"name":"transferFrom","outputs":[],"stateMutability":"nonpayable","type":"function"},{"inputs":[{"internalType":"address","name":"newOwner","type":"address"}],"name":"transferOwnership","outputs":[],"stateMutability":"nonpayable","type":"function"},{"inputs":[{"internalType":"uint256","name":"agentId","type":"uint256"},{"internalType":"address","name":"newWallet","type":"address"},{"internalType":"bytes","name":"proof","type":"bytes"}],"name":"updateAgentWallet","outputs":[],"stateMutability":"nonpayable","type":"function"}],"evm":{"bytecode":{"linkReferences":{},"object":"60803462000390576001600160401b0390604090808201838111828210176200037a578252601781526020917f4552432d38303034204167656e74204964656e7469747900000000000000000083830152805193818501858110828211176200037a57825260058552641051d1539560da1b8486015282518181116200037a576000948554916001958684811c941680156200036f575b838510146200035b578190601f9485811162000308575b508390858311600114620002a457899262000298575b5050600019600383901b1c191690861b1786555b8651928311620002845784548581811c9116801562000279575b8282101462000265578281116200021d575b5080918311600114620001b4575084958293949592620001a8575b5050600019600383901b1c191690831b1782555b3315620001915760078054336001600160a01b03198216811790925591519390916001600160a01b0316907f8be0079c531659141344cd1fd0a4f28419497f9722a3daafe3b4186f6b6457e09080a3600855611d179081620003968239f35b51631e4fbdf760e01b815260048101839052602490fd5b0151905038806200011e565b90601f198316968587528287209287905b898210620002055750508386979896959610620001eb575b505050811b01825562000132565b015160001960f88460031b161c19169055388080620001dd565b808885968294968601518155019501930190620001c5565b8587528187208380860160051c8201928487106200025b575b0160051c019086905b8281106200024f57505062000103565b8881550186906200023f565b9250819262000236565b634e487b7160e01b87526022600452602487fd5b90607f1690620000f1565b634e487b7160e01b86526041600452602486fd5b015190503880620000c3565b898052848a208994509190601f1984168b5b87828210620002f15750508411620002d7575b505050811b018655620000d7565b015160001960f88460031b161c19169055388080620002c9565b8385015186558c97909501949384019301620002b6565b9091508880528389208580850160051c82019286861062000351575b918a91869594930160051c01915b82811062000342575050620000ad565b8b81558594508a910162000332565b9250819262000324565b634e487b7160e01b88526022600452602488fd5b93607f169362000096565b634e487b7160e01b600052604160045260246000fd5b600080fdfe608080604052600436101561001357600080fd5b60003560e01c90816301ffc9a71461116f5750806306fdde03146110c4578063081812fc14611086578063095ea7b314610f9f5780630af28bd314610f1857806323b872dd14610f0157806342842e0e14610ed3578063466648da14610cbd578063512c607414610b8e5780635491e75d146108195780636352211e146107e957806370a0823114610790578063715018a61461073357806378396cb3146104c65780638da5cb5b1461070a57806395d89b4114610627578063a22cb46514610582578063b88d4fde14610526578063c5053712146104e5578063c87b56dd146104c6578063cb4799f2146103fe578063e28d4906146103ca578063e7a1c1c014610325578063e985e9c5146102cf578063ebf1f8591461029b578063f2c298be146101d65763f2fde38b1461014857600080fd5b346101d15760203660031901126101d15761016161123c565b610169611b68565b6001600160a01b039081169081156101b857600754826001600160601b0360a01b821617600755167f8be0079c531659141344cd1fd0a4f28419497f9722a3daafe3b4186f6b6457e0600080a3005b604051631e4fbdf760e01b815260006004820152602490fd5b600080fd5b346101d15760203660031901126101d1576004356001600160401b0381116101d15761029061020b6020923690600401611268565b907f0d063c6022bff16d09991a9f91882ffa112f5fb2529136f65eb4c77bbd047e4360085493849261023c846116c3565b600855610249843361193a565b61025d610257368784611321565b85611800565b83600052600b87526040600020336001600160601b0360a01b825416179055604051918291888352339689840191611476565b0390a3604051908152f35b346101d15760203660031901126101d157600435600052600b602052602060018060a01b0360406000205416604051908152f35b346101d15760403660031901126101d1576102e861123c565b6102f0611252565b9060018060a01b03809116600052600560205260406000209116600052602052602060ff604060002054166040519015158152f35b346101d15760403660031901126101d157600435610341611252565b9061034b81611764565b6001600160a01b039033908216036103a7578160005260096020526040600020921691826001600160601b0360a01b8254161790557f712369dba77e7931b9ec3bd57319108256b9f79ea5b5255122e3c06117421593600080a3005b604051636fd3623960e01b815260048101839052336024820152604490fd5b0390fd5b346101d15760203660031901126101d1576004356000526009602052602060018060a01b0360406000205416604051908152f35b346101d15760403660031901126101d1576004356024356001600160401b0381116101d157610431903690600401611358565b90801515806104bb575b156104a35761048b61046f602061049f9461048494600052600a8252604060002082604051948386809551938492016111f4565b820190815203019020604051928380926113e0565b03826112e5565b604051918291602083526020830190611217565b0390f35b6024906040519063f0b2366d60e01b82526004820152fd5b50600854811061043b565b346101d15760203660031901126101d15761049f61048b600435611729565b346101d15760003660031901126101d157600854600019810190811161051057602090604051908152f35b634e487b7160e01b600052601160045260246000fd5b346101d15760803660031901126101d15761053f61123c565b610547611252565b90604435606435926001600160401b0384116101d15761056e610580943690600401611358565b9261057a838383611497565b33611b94565b005b346101d15760403660031901126101d15761059b61123c565b602435908115158092036101d1576001600160a01b031690811561060e57336000526005602052604060002082600052602052604060002060ff1981541660ff83161790556040519081527f17307eab39ab6107e8899845ad3d59bd9653f200f220920489ca2b5937696c3160203392a3005b604051630b61174360e31b815260048101839052602490fd5b346101d15760003660031901126101d15760405160006001826001549261064d846113a6565b92838352602094856001821691826000146106ea57505060011461068d575b50610679925003836112e5565b61049f604051928284938452830190611217565b84915060016000527fb10e2d527612073b26eecdfd717e6a320cf44b4afac2b0732d9fcbe2b7fa0cf6906000915b8583106106d257505061067993508201018561066c565b805483890185015287945086939092019181016106bb565b60ff19168582015261067995151560051b850101925087915061066c9050565b346101d15760003660031901126101d1576007546040516001600160a01b039091168152602090f35b346101d15760003660031901126101d15761074c611b68565b600780546001600160a01b031981169091556000906001600160a01b03167f8be0079c531659141344cd1fd0a4f28419497f9722a3daafe3b4186f6b6457e08280a3005b346101d15760203660031901126101d1576001600160a01b036107b161123c565b1680156107d05760005260036020526020604060002054604051908152f35b6040516322718ad960e21b815260006004820152602490fd5b346101d15760203660031901126101d1576020610807600435611764565b6040516001600160a01b039091168152f35b346101d15760603660031901126101d1576004356001600160401b0381116101d157610849903690600401611268565b6024356001600160401b0381116101d157610868903690600401611376565b91906044356001600160401b0381116101d157610889903690600401611376565b9093818103610b4957939190600854946108a2866116c3565b6008556108af863361193a565b6108c36108bd36878a611321565b87611800565b6000868152600b6020526040812080546001600160a01b03191633179055935b8185106109285760208787817f0d063c6022bff16d09991a9f91882ffa112f5fb2529136f65eb4c77bbd047e436102908d604051918291888352339689840191611476565b61094261093b8684879b9a99989b6116d2565b3691611321565b60208151910120610951611636565b6020815191012014610b1d576109688884836116d2565b8760009a929a52600a6020526040600020602061098684878a6116d2565b92836040519485938437820190815203019020906001600160401b038111610b07576109bc816109b684546113a6565b8461166d565b6000601f8211600114610a975790806109f6926001969798999a9b9c9d600092610a8c575b50508160011b916000199060031b1c19161790565b90555b7f2c149ed548c6d2993cd73efe187df6eccabe4538091b33adbd25fafdb8a1468b88610a2683878a6116d2565b9290610a7f610a36868a8d6116d2565b919092610a44888d8c6116d2565b97909181604051928392833781016000815203902096610a71604051958695604087526040870191611476565b918483036020860152611476565b0390a301939291906108e3565b013590508d806109e1565b8260005260206000209060005b601f1984168110610aef57509b600195969798999a9b9c83601f19811610610ad5575b505050831b830190556109f9565b0135600019600384901b60f8161c191690558b8080610ac7565b8d820135835560019092019160209182019101610aa4565b634e487b7160e01b600052604160045260246000fd5b6103c6610b28611636565b60405163c1e0918360e01b8152602060048201529182916024830190611217565b60405162461bcd60e51b815260206004820152601b60248201527f4b6579732f76616c756573206c656e677468206d69736d6174636800000000006044820152606490fd5b346101d15760603660031901126101d157600435610baa611252565b906044356001600160401b0381116101d157610bca903690600401611268565b9092610bd58361179f565b6001600160a01b0316928315610c7f578115610c49577f97fb1cd148e38c8a6cb69d8a9a375ae268c04aaa8cc44d668463a5aeb07f2e879183600052600b6020526040600020856001600160601b0360a01b825416179055610c44604051928392602084526020840191611476565b0390a3005b60405162461bcd60e51b815260206004820152600e60248201526d141c9bdbd9881c995c5d5a5c995960921b6044820152606490fd5b60405162461bcd60e51b8152602060048201526016602482015275496e76616c69642077616c6c6574206164647265737360501b6044820152606490fd5b346101d15760603660031901126101d1576001600160401b036004356024358281116101d157610cf1903690600401611358565b6044358381116101d157610d09903690600401611358565b92610d138361179f565b8151602091828401918220610d26611636565b84815191012014610ea75784600052600a835260406000208360405180928751610d518184896111f4565b820190815203019020908651908111610b0757610d72816109b684546113a6565b83601f8211600114610e14577f2c149ed548c6d2993cd73efe187df6eccabe4538091b33adbd25fafdb8a1468b9593610c4493610dce84610dfc9895610de295600091610e09575b508160011b916000199060031b1c19161790565b90555b6040518092819287519283916111f4565b810103902096604051948594604086526040860190611217565b9184830390850152611217565b90508c01518d610dba565b601f1982169083600052856000209160005b8a828210610e9057505093600184610de2947f2c149ed548c6d2993cd73efe187df6eccabe4538091b33adbd25fafdb8a1468b9a9894610dfc9a97610c449910610e77575b5050811b019055610dd1565b8d015160001960f88460031b161c191690558c80610e6b565b600184958a93958493015181550194019201610e26565b82610eb0611636565b906103c660405192839263c1e0918360e01b845260048401526024830190611217565b346101d157610580610ee436611295565b9060405192610ef2846112ca565b6000845261057a838383611497565b346101d157610580610f1236611295565b91611497565b346101d15760403660031901126101d1576004356024356001600160401b0381116101d157610f6c7fe335f4a32c56fb32eb92f5084017a5836fcdc9307d02f49f27dd61f0f6a434a8913690600401611268565b610f758461179f565b610f83610257368385611321565b610f9a604051928392602084526020840191611476565b0390a2005b346101d15760403660031901126101d157610fb861123c565b602435610fc481611764565b33151580611073575b80611046575b61102e576001600160a01b039283169282918491167f8c5be1e5ebec7d5bd14f71427d1e84f3dd0314c0f7b2291e5b200ac8c7c3b925600080a4600090815260046020526040902080546001600160a01b0319169091179055005b60405163a9fbf51f60e01b8152336004820152602490fd5b5060018060a01b038116600052600560205260406000203360005260205260ff6040600020541615610fd3565b506001600160a01b038116331415610fcd565b346101d15760203660031901126101d1576004356110a381611764565b506000526004602052602060018060a01b0360406000205416604051908152f35b346101d15760003660031901126101d1576040516000805490826110e7836113a6565b91828252602093600190856001821691826000146106ea5750506001146111155750610679925003836112e5565b6000808052859250907f290decd9548b62a8d60345a988386fc84ba6bc95484008f6362f93160ef3e5635b85831061115757505061067993508201018561066c565b80548389018501528794508693909201918101611140565b346101d15760203660031901126101d1576004359063ffffffff60e01b82168092036101d157602091632483248360e11b81149081156111b1575b5015158152f35b6380ac58cd60e01b8114915081156111e3575b81156111d2575b50836111aa565b6301ffc9a760e01b149050836111cb565b635b5e139f60e01b811491506111c4565b60005b8381106112075750506000910152565b81810151838201526020016111f7565b90602091611230815180928185528580860191016111f4565b601f01601f1916010190565b600435906001600160a01b03821682036101d157565b602435906001600160a01b03821682036101d157565b9181601f840112156101d1578235916001600160401b0383116101d157602083818601950101116101d157565b60609060031901126101d1576001600160a01b039060043582811681036101d1579160243590811681036101d1579060443590565b602081019081106001600160401b03821117610b0757604052565b90601f801991011681019081106001600160401b03821117610b0757604052565b6001600160401b038111610b0757601f01601f191660200190565b92919261132d82611306565b9161133b60405193846112e5565b8294818452818301116101d1578281602093846000960137010152565b9080601f830112156101d15781602061137393359101611321565b90565b9181601f840112156101d1578235916001600160401b0383116101d1576020808501948460051b0101116101d157565b90600182811c921680156113d6575b60208310146113c057565b634e487b7160e01b600052602260045260246000fd5b91607f16916113b5565b8054600093926113ef826113a6565b918282526020936001916001811690816000146114575750600114611416575b5050505050565b90939495506000929192528360002092846000945b8386106114435750505050010190388080808061140f565b80548587018301529401938590820161142b565b60ff19168685015250505090151560051b01019150388080808061140f565b908060209392818452848401376000828201840152601f01601f1916010190565b6001600160a01b03918216929091831561161d57600092828452826020956002875260409684888820541696879133151580611587575b509060027fddf252ad1be2c89b69c2b068fc378daa952ba7f163c4a11628f55a4df523b3ef9284611554575b858352600381528b8320805460010190558683525289812080546001600160a01b0319168517905580a416928383036115335750505050565b6064945051926364283d7b60e01b8452600484015260248301526044820152fd5b600087815260046020526040902080546001600160a01b0319169055848352600381528b832080546000190190556114fa565b919394509150806115dc575b156115a3578592918791386114ce565b8786886115c0576024915190637e27328960e01b82526004820152fd5b604491519063177e802f60e01b82523360048301526024820152fd5b503387148015611601575b806115935750858252600481523385898420541614611593565b5086825260058152878220338352815260ff88832054166115e7565b604051633250574960e11b815260006004820152602490fd5b60405190604082018281106001600160401b03821117610b0757604052600b82526a1859d95b9d15d85b1b195d60aa1b6020830152565b90601f811161167b57505050565b6000916000526020600020906020601f850160051c830194106116b9575b601f0160051c01915b8281106116ae57505050565b8181556001016116a2565b9092508290611699565b60001981146105105760010190565b91908110156117135760051b81013590601e19813603018212156101d15701908135916001600160401b0383116101d15760200182360381136101d1579190565b634e487b7160e01b600052603260045260246000fd5b61173281611764565b5060005260066020526104846117526040600020604051928380926113e0565b6000604051611760816112ca565b5290565b6000818152600260205260409020546001600160a01b0316908115611787575090565b60249060405190637e27328960e01b82526004820152fd5b6117a881611764565b336001600160a01b03918216141590816117e5575b506117c55750565b604051636fd3623960e01b81526004810191909152336024820152604490fd5b905081600052600960205260406000205416331415386117bd565b9190916000908082526020916006835260408120908551956001600160401b0387116119265761183a8761183485546113a6565b8561166d565b8491601f88116001146118a2579661188b9281927ff8e1a15aba9398e019f0b49df1a4fde98ee17ae345cb5f6b5e2c27f5033e8ce79899926118975750508160011b916000199060031b1c19161790565b90555b604051908152a1565b0151905038806109e1565b9190601f198816848452868420935b81811061190f57509160019391897ff8e1a15aba9398e019f0b49df1a4fde98ee17ae345cb5f6b5e2c27f5033e8ce7999a94106118f6575b505050811b01905561188e565b015160001960f88460031b161c191690553880806118e9565b9293876001819287860151815501950193016118b1565b634e487b7160e01b82526041600452602482fd5b60408051611947816112ca565b6000808252936001600160a01b03848116949092908515611b505782875260209360028552858820541683878215159283611b1d575b818b5260038852888b2080546001019055828b5260028852888b2080546001600160a01b031916831790557fddf252ad1be2c89b69c2b068fc378daa952ba7f163c4a11628f55a4df523b3ef8b80a4611b05573b6119de575b505050505050565b82611a1c918596979894955180938192630a85bd0160e11b968784523360048501528c60248501526044840152608060648401526084830190611217565b03818a8a5af1879181611ac1575b50611a8a575050503d600014611a81573d611a4481611306565b90611a51845192836112e5565b81528094823d92013e5b83519384611a7b578251633250574960e11b815260048101859052602490fd5b84925001fd5b60609350611a5b565b919550915063ffffffff60e01b1603611aaa5750503880808080806119d6565b602492505190633250574960e11b82526004820152fd5b9091508481813d8311611afe575b611ad981836112e5565b81010312611afa57516001600160e01b031981168103611afa579038611a2a565b8780fd5b503d611acf565b84516339e3563760e11b815260048101889052602490fd5b600083815260046020526040902080546001600160a01b0319169055808b5260038852888b20805460001901905561197d565b8451633250574960e11b815260048101889052602490fd5b6007546001600160a01b03163303611b7c57565b60405163118cdaa760e01b8152336004820152602490fd5b90939192833b611ba5575050505050565b604051630a85bd0160e11b8082526001600160a01b039384166004830152958316602482015260448101919091526080606482015294921692602092918590611bf2906084830190611217565b039483816000978189895af1869181611c9d575b50611c67575050503d600014611c5e573d611c2081611306565b90611c2e60405192836112e5565b81528093823d92013e5b82519283611c5957604051633250574960e11b815260048101849052602490fd5b019050fd5b60609250611c38565b919450915063ffffffff60e01b1603611c855750388080808061140f565b60249060405190633250574960e11b82526004820152fd5b9091508481813d8311611cda575b611cb581836112e5565b81010312611cd657516001600160e01b031981168103611cd6579038611c06565b8680fd5b503d611cab56fea2646970667358221220b4b8e2a1aea494904a6ad33986bb5cde5bdffab55f96e19d3071198c4ca15a8064736f6c63430008180033","opcodes":"PUSH1 0x80 CALLVALUE PUSH3 0x390 JUMPI PUSH1 0x1 PUSH1 0x1 PUSH1 0x40 SHL SUB SWAP1 PUSH1 0x40 SWAP1 DUP1 DUP3 ADD DUP4 DUP2 GT DUP3 DUP3 LT OR PUSH3 0x37A JUMPI DUP3 MSTORE PUSH1 0x17 DUP2 MSTORE PUSH1 0x20 SWAP2 PUSH32 0x4552432D38303034204167656E74204964656E74697479000000000000000000 DUP4 DUP4 ADD MSTORE DUP1 MLOAD SWAP4 DUP2 DUP6 ADD DUP6 DUP2 LT DUP3 DUP3 GT OR PUSH3 0x37A JUMPI DUP3 MSTORE PUSH1 0x5 DUP6 MSTORE PUSH5 0x1051D15395 PUSH1 0xDA SHL DUP5 DUP7 ADD MSTORE DUP3 MLOAD DUP2 DUP2 GT PUSH3 0x37A JUMPI PUSH1 0x0 SWAP5 DUP6 SLOAD SWAP2 PUSH1 0x1 SWAP6 DUP7 DUP5 DUP2 SHR SWAP5 AND DUP1 ISZERO PUSH3 0x36F JUMPI JUMPDEST DUP4 DUP6 LT EQ PUSH3 0x35B JUMPI DUP2 SWAP1 PUSH1 0x1F SWAP5 DUP6 DUP2 GT PUSH3 0x308 JUMPI JUMPDEST POP DUP4 SWAP1 DUP6 DUP4 GT PUSH1 0x1 EQ PUSH3 0x2A4 JUMPI DUP10 SWAP3 PUSH3 0x298 JUMPI JUMPDEST POP POP PUSH1 0x0 NOT PUSH1 0x3 DUP4 SWAP1 SHL SHR NOT AND SWAP1 DUP7 SHL OR DUP7 SSTORE JUMPDEST DUP7 MLOAD SWAP3 DUP4 GT PUSH3 0x284 JUMPI DUP5 SLOAD DUP6 DUP2 DUP2 SHR SWAP2 AND DUP1 ISZERO PUSH3 0x279 JUMPI JUMPDEST DUP3 DUP3 LT EQ PUSH3 0x265 JUMPI DUP3 DUP2 GT PUSH3 0x21D JUMPI JUMPDEST POP DUP1 SWAP2 DUP4 GT PUSH1 0x1 EQ PUSH3 0x1B4 JUMPI POP DUP5 SWAP6 DUP3 SWAP4 SWAP5 SWAP6 SWAP3 PUSH3 0x1A8 JUMPI JUMPDEST POP POP PUSH1 0x0 NOT PUSH1 0x3 DUP4 SWAP1 SHL SHR NOT AND SWAP1 DUP4 SHL OR DUP3 SSTORE JUMPDEST CALLER ISZERO PUSH3 0x191 JUMPI PUSH1 0x7 DUP1 SLOAD CALLER PUSH1 0x1 PUSH1 0x1 PUSH1 0xA0 SHL SUB NOT DUP3 AND DUP2 OR SWAP1 SWAP3 SSTORE SWAP2 MLOAD SWAP4 SWAP1 SWAP2 PUSH1 0x1 PUSH1 0x1 PUSH1 0xA0 SHL SUB AND SWAP1 PUSH32 0x8BE0079C531659141344CD1FD0A4F28419497F9722A3DAAFE3B4186F6B6457E0 SWAP1 DUP1 LOG3 PUSH1 0x8 SSTORE PUSH2 0x1D17 SWAP1 DUP2 PUSH3 0x396 DUP3 CODECOPY RETURN JUMPDEST MLOAD PUSH4 0x1E4FBDF7 PUSH1 0xE0 SHL DUP2 MSTORE PUSH1 0x4 DUP2 ADD DUP4 SWAP1 MSTORE PUSH1 0x24 SWAP1 REVERT JUMPDEST ADD MLOAD SWAP1 POP CODESIZE DUP1 PUSH3 0x11E JUMP JUMPDEST SWAP1 PUSH1 0x1F NOT DUP4 AND SWAP7 DUP6 DUP8 MSTORE DUP3 DUP8 KECCAK256 SWAP3 DUP8 SWAP1 JUMPDEST DUP10 DUP3 LT PUSH3 0x205 JUMPI POP POP DUP4 DUP7 SWAP8 SWAP9 SWAP7 SWAP6 SWAP7 LT PUSH3 0x1EB JUMPI JUMPDEST POP POP POP DUP2 SHL ADD DUP3 SSTORE PUSH3 0x132 JUMP JUMPDEST ADD MLOAD PUSH1 0x0 NOT PUSH1 0xF8 DUP5 PUSH1 0x3 SHL AND SHR NOT AND SWAP1 SSTORE CODESIZE DUP1 DUP1 PUSH3 0x1DD JUMP JUMPDEST DUP1 DUP9 DUP6 SWAP7 DUP3 SWAP5 SWAP7 DUP7 ADD MLOAD DUP2 SSTORE ADD SWAP6 ADD SWAP4 ADD SWAP1 PUSH3 0x1C5 JUMP JUMPDEST DUP6 DUP8 MSTORE DUP2 DUP8 KECCAK256 DUP4 DUP1 DUP7 ADD PUSH1 0x5 SHR DUP3 ADD SWAP3 DUP5 DUP8 LT PUSH3 0x25B JUMPI JUMPDEST ADD PUSH1 0x5 SHR ADD SWAP1 DUP7 SWAP1 JUMPDEST DUP3 DUP2 LT PUSH3 0x24F JUMPI POP POP PUSH3 0x103 JUMP JUMPDEST DUP9 DUP2 SSTORE ADD DUP7 SWAP1 PUSH3 0x23F JUMP JUMPDEST SWAP3 POP DUP2 SWAP3 PUSH3 0x236 JUMP JUMPDEST PUSH4 0x4E487B71 PUSH1 0xE0 SHL DUP8 MSTORE PUSH1 0x22 PUSH1 0x4 MSTORE PUSH1 0x24 DUP8 REVERT JUMPDEST SWAP1 PUSH1 0x7F AND SWAP1 PUSH3 0xF1 JUMP JUMPDEST PUSH4 0x4E487B71 PUSH1 0xE0 SHL DUP7 MSTORE PUSH1 0x41 PUSH1 0x4 MSTORE PUSH1 0x24 DUP7 REVERT JUMPDEST ADD MLOAD SWAP1 POP CODESIZE DUP1 PUSH3 0xC3 JUMP JUMPDEST DUP10 DUP1 MSTORE DUP5 DUP11 KECCAK256 DUP10 SWAP5 POP SWAP2 SWAP1 PUSH1 0x1F NOT DUP5 AND DUP12 JUMPDEST DUP8 DUP3 DUP3 LT PUSH3 0x2F1 JUMPI POP POP DUP5 GT PUSH3 0x2D7 JUMPI JUMPDEST POP POP POP DUP2 SHL ADD DUP7 SSTORE PUSH3 0xD7 JUMP JUMPDEST ADD MLOAD PUSH1 0x0 NOT PUSH1 0xF8 DUP5 PUSH1 0x3 SHL AND SHR NOT AND SWAP1 SSTORE CODESIZE DUP1 DUP1 PUSH3 0x2C9 JUMP JUMPDEST DUP4 DUP6 ADD MLOAD DUP7 SSTORE DUP13 SWAP8 SWAP1 SWAP6 ADD SWAP5 SWAP4 DUP5 ADD SWAP4 ADD PUSH3 0x2B6 JUMP JUMPDEST SWAP1 SWAP2 POP DUP9 DUP1 MSTORE DUP4 DUP10 KECCAK256 DUP6 DUP1 DUP6 ADD PUSH1 0x5 SHR DUP3 ADD SWAP3 DUP7 DUP7 LT PUSH3 0x351 JUMPI JUMPDEST SWAP2 DUP11 SWAP2 DUP7 SWAP6 SWAP5 SWAP4 ADD PUSH1 0x5 SHR ADD SWAP2 JUMPDEST DUP3 DUP2 LT PUSH3 0x342 JUMPI POP POP PUSH3 0xAD JUMP JUMPDEST DUP12 DUP2 SSTORE DUP6 SWAP5 POP DUP11 SWAP2 ADD PUSH3 0x332 JUMP JUMPDEST SWAP3 POP DUP2 SWAP3 PUSH3 0x324 JUMP JUMPDEST PUSH4 0x4E487B71 PUSH1 0xE0 SHL DUP9 MSTORE PUSH1 0x22 PUSH1 0x4 MSTORE PUSH1 0x24 DUP9 REVERT JUMPDEST SWAP4 PUSH1 0x7F AND SWAP4 PUSH3 0x96 JUMP JUMPDEST PUSH4 0x4E487B71 PUSH1 0xE0 SHL PUSH1 0x0 MSTORE PUSH1 0x41 PUSH1 0x4 MSTORE PUSH1 0x24 PUSH1 0x0 REVERT JUMPDEST PUSH1 0x0 DUP1 REVERT INVALID PUSH1 0x80 DUP1 PUSH1 0x40 MSTORE PUSH1 0x4 CALLDATASIZE LT ISZERO PUSH2 0x13 JUMPI PUSH1 0x0 DUP1 REVERT JUMPDEST PUSH1 0x0 CALLDATALOAD PUSH1 0xE0 SHR SWAP1 DUP2 PUSH4 0x1FFC9A7 EQ PUSH2 0x116F JUMPI POP DUP1 PUSH4 0x6FDDE03 EQ PUSH2 0x10C4 JUMPI DUP1 PUSH4 0x81812FC EQ PUSH2 0x1086 JUMPI DUP1 PUSH4 0x95EA7B3 EQ PUSH2 0xF9F JUMPI DUP1 PUSH4 0xAF28BD3 EQ PUSH2 0xF18 JUMPI DUP1 PUSH4 0x23B872DD EQ PUSH2 0xF01 JUMPI DUP1 PUSH4 0x42842E0E EQ PUSH2 0xED3 JUMPI DUP1 PUSH4 0x466648DA EQ PUSH2 0xCBD JUMPI DUP1 PUSH4 0x512C6074 EQ PUSH2 0xB8E JUMPI DUP1 PUSH4 0x5491E75D EQ PUSH2 0x819 JUMPI DUP1 PUSH4 0x6352211E EQ PUSH2 0x7E9 JUMPI DUP1 PUSH4 0x70A08231 EQ PUSH2 0x790 JUMPI DUP1 PUSH4 0x715018A6 EQ PUSH2 0x733 JUMPI DUP1 PUSH4 0x78396CB3 EQ PUSH2 0x4C6 JUMPI DUP1 PUSH4 0x8DA5CB5B EQ PUSH2 0x70A JUMPI DUP1 PUSH4 0x95D89B41 EQ PUSH2 0x627 JUMPI DUP1 PUSH4 0xA22CB465 EQ PUSH2 0x582 JUMPI DUP1 PUSH4 0xB88D4FDE EQ PUSH2 0x526 JUMPI DUP1 PUSH4 0xC5053712 EQ PUSH2 0x4E5 JUMPI DUP1 PUSH4 0xC87B56DD EQ PUSH2 0x4C6 JUMPI DUP1 PUSH4 0xCB4799F2 EQ PUSH2 0x3FE JUMPI DUP1 PUSH4 0xE28D4906 EQ PUSH2 0x3CA JUMPI DUP1 PUSH4 0xE7A1C1C0 EQ PUSH2 0x325 JUMPI DUP1 PUSH4 0xE985E9C5 EQ PUSH2 0x2CF JUMPI DUP1 PUSH4 0xEBF1F859 EQ PUSH2 0x29B JUMPI DUP1 PUSH4 0xF2C298BE EQ PUSH2 0x1D6 JUMPI PUSH4 0xF2FDE38B EQ PUSH2 0x148 JUMPI PUSH1 0x0 DUP1 REVERT JUMPDEST CALLVALUE PUSH2 0x1D1 JUMPI PUSH1 0x20 CALLDATASIZE PUSH1 0x3 NOT ADD SLT PUSH2 0x1D1 JUMPI PUSH2 0x161 PUSH2 0x123C JUMP JUMPDEST PUSH2 0x169 PUSH2 0x1B68 JUMP JUMPDEST PUSH1 0x1 PUSH1 0x1 PUSH1 0xA0 SHL SUB SWAP1 DUP2 AND SWAP1 DUP2 ISZERO PUSH2 0x1B8 JUMPI PUSH1 0x7 SLOAD DUP3 PUSH1 0x1 PUSH1 0x1 PUSH1 0x60 SHL SUB PUSH1 0xA0 SHL DUP3 AND OR PUSH1 0x7 SSTORE AND PUSH32 0x8BE0079C531659141344CD1FD0A4F28419497F9722A3DAAFE3B4186F6B6457E0 PUSH1 0x0 DUP1 LOG3 STOP JUMPDEST PUSH1 0x40 MLOAD PUSH4 0x1E4FBDF7 PUSH1 0xE0 SHL DUP2 MSTORE PUSH1 0x0 PUSH1 0x4 DUP3 ADD MSTORE PUSH1 0x24 SWAP1 REVERT JUMPDEST PUSH1 0x0 DUP1 REVERT JUMPDEST CALLVALUE PUSH2 0x1D1 JUMPI PUSH1 0x20 CALLDATASIZE PUSH1 0x3 NOT ADD SLT PUSH2 0x1D1 JUMPI PUSH1 0x4 CALLDATALOAD PUSH1 0x1 PUSH1 0x1 PUSH1 0x40 SHL SUB DUP2 GT PUSH2 0x1D1 JUMPI PUSH2 0x290 PUSH2 0x20B PUSH1 0x20 SWAP3 CALLDATASIZE SWAP1 PUSH1 0x4 ADD PUSH2 0x1268 JUMP JUMPDEST SWAP1 PUSH32 0xD063C6022BFF16D09991A9F91882FFA112F5FB2529136F65EB4C77BBD047E43 PUSH1 0x8 SLOAD SWAP4 DUP5 SWAP3 PUSH2 0x23C DUP5 PUSH2 0x16C3 JUMP JUMPDEST PUSH1 0x8 SSTORE PUSH2 0x249 DUP5 CALLER PUSH2 0x193A JUMP JUMPDEST PUSH2 0x25D PUSH2 0x257 CALLDATASIZE DUP8 DUP5 PUSH2 0x1321 JUMP JUMPDEST DUP6 PUSH2 0x1800 JUMP JUMPDEST DUP4 PUSH1 0x0 MSTORE PUSH1 0xB DUP8 MSTORE PUSH1 0x40 PUSH1 0x0 KECCAK256 CALLER PUSH1 0x1 PUSH1 0x1 PUSH1 0x60 SHL SUB PUSH1 0xA0 SHL DUP3 SLOAD AND OR SWAP1 SSTORE PUSH1 0x40 MLOAD SWAP2 DUP3 SWAP2 DUP9 DUP4 MSTORE CALLER SWAP7 DUP10 DUP5 ADD SWAP2 PUSH2 0x1476 JUMP JUMPDEST SUB SWAP1 LOG3 PUSH1 0x40 MLOAD SWAP1 DUP2 MSTORE RETURN JUMPDEST CALLVALUE PUSH2 0x1D1 JUMPI PUSH1 0x20 CALLDATASIZE PUSH1 0x3 NOT ADD SLT PUSH2 0x1D1 JUMPI PUSH1 0x4 CALLDATALOAD PUSH1 0x0 MSTORE PUSH1 0xB PUSH1 0x20 MSTORE PUSH1 0x20 PUSH1 0x1 DUP1 PUSH1 0xA0 SHL SUB PUSH1 0x40 PUSH1 0x0 KECCAK256 SLOAD AND PUSH1 0x40 MLOAD SWAP1 DUP2 MSTORE RETURN JUMPDEST CALLVALUE PUSH2 0x1D1 JUMPI PUSH1 0x40 CALLDATASIZE PUSH1 0x3 NOT ADD SLT PUSH2 0x1D1 JUMPI PUSH2 0x2E8 PUSH2 0x123C JUMP JUMPDEST PUSH2 0x2F0 PUSH2 0x1252 JUMP JUMPDEST SWAP1 PUSH1 0x1 DUP1 PUSH1 0xA0 SHL SUB DUP1 SWAP2 AND PUSH1 0x0 MSTORE PUSH1 0x5 PUSH1 0x20 MSTORE PUSH1 0x40 PUSH1 0x0 KECCAK256 SWAP2 AND PUSH1 0x0 MSTORE PUSH1 0x20 MSTORE PUSH1 0x20 PUSH1 0xFF PUSH1 0x40 PUSH1 0x0 KECCAK256 SLOAD AND PUSH1 0x40 MLOAD SWAP1 ISZERO ISZERO DUP2 MSTORE RETURN JUMPDEST CALLVALUE PUSH2 0x1D1 JUMPI PUSH1 0x40 CALLDATASIZE PUSH1 0x3 NOT ADD SLT PUSH2 0x1D1 JUMPI PUSH1 0x4 CALLDATALOAD PUSH2 0x341 PUSH2 0x1252 JUMP JUMPDEST SWAP1 PUSH2 0x34B DUP2 PUSH2 0x1764 JUMP JUMPDEST PUSH1 0x1 PUSH1 0x1 PUSH1 0xA0 SHL SUB SWAP1 CALLER SWAP1 DUP3 AND SUB PUSH2 0x3A7 JUMPI DUP2 PUSH1 0x0 MSTORE PUSH1 0x9 PUSH1 0x20 MSTORE PUSH1 0x40 PUSH1 0x0 KECCAK256 SWAP3 AND SWAP2 DUP3 PUSH1 0x1 PUSH1 0x1 PUSH1 0x60 SHL SUB PUSH1 0xA0 SHL DUP3 SLOAD AND OR SWAP1 SSTORE PUSH32 0x712369DBA77E7931B9EC3BD57319108256B9F79EA5B5255122E3C06117421593 PUSH1 0x0 DUP1 LOG3 STOP JUMPDEST PUSH1 0x40 MLOAD PUSH4 0x6FD36239 PUSH1 0xE0 SHL DUP2 MSTORE PUSH1 0x4 DUP2 ADD DUP4 SWAP1 MSTORE CALLER PUSH1 0x24 DUP3 ADD MSTORE PUSH1 0x44 SWAP1 REVERT JUMPDEST SUB SWAP1 REVERT JUMPDEST CALLVALUE PUSH2 0x1D1 JUMPI PUSH1 0x20 CALLDATASIZE PUSH1 0x3 NOT ADD SLT PUSH2 0x1D1 JUMPI PUSH1 0x4 CALLDATALOAD PUSH1 0x0 MSTORE PUSH1 0x9 PUSH1 0x20 MSTORE PUSH1 0x20 PUSH1 0x1 DUP1 PUSH1 0xA0 SHL SUB PUSH1 0x40 PUSH1 0x0 KECCAK256 SLOAD AND PUSH1 0x40 MLOAD SWAP1 DUP2 MSTORE RETURN JUMPDEST CALLVALUE PUSH2 0x1D1 JUMPI PUSH1 0x40 CALLDATASIZE PUSH1 0x3 NOT ADD SLT PUSH2 0x1D1 JUMPI PUSH1 0x4 CALLDATALOAD PUSH1 0x24 CALLDATALOAD PUSH1 0x1 PUSH1 0x1 PUSH1 0x40 SHL SUB DUP2 GT PUSH2 0x1D1 JUMPI PUSH2 0x431 SWAP1 CALLDATASIZE SWAP1 PUSH1 0x4 ADD PUSH2 0x1358 JUMP JUMPDEST SWAP1 DUP1 ISZERO ISZERO DUP1 PUSH2 0x4BB JUMPI JUMPDEST ISZERO PUSH2 0x4A3 JUMPI PUSH2 0x48B PUSH2 0x46F PUSH1 0x20 PUSH2 0x49F SWAP5 PUSH2 0x484 SWAP5 PUSH1 0x0 MSTORE PUSH1 0xA DUP3 MSTORE PUSH1 0x40 PUSH1 0x0 KECCAK256 DUP3 PUSH1 0x40 MLOAD SWAP5 DUP4 DUP7 DUP1 SWAP6 MLOAD SWAP4 DUP5 SWAP3 ADD PUSH2 0x11F4 JUMP JUMPDEST DUP3 ADD SWAP1 DUP2 MSTORE SUB ADD SWAP1 KECCAK256 PUSH1 0x40 MLOAD SWAP3 DUP4 DUP1 SWAP3 PUSH2 0x13E0 JUMP JUMPDEST SUB DUP3 PUSH2 0x12E5 JUMP JUMPDEST PUSH1 0x40 MLOAD SWAP2 DUP3 SWAP2 PUSH1 0x20 DUP4 MSTORE PUSH1 0x20 DUP4 ADD SWAP1 PUSH2 0x1217 JUMP JUMPDEST SUB SWAP1 RETURN JUMPDEST PUSH1 0x24 SWAP1 PUSH1 0x40 MLOAD SWAP1 PUSH4 0xF0B2366D PUSH1 0xE0 SHL DUP3 MSTORE PUSH1 0x4 DUP3 ADD MSTORE REVERT JUMPDEST POP PUSH1 0x8 SLOAD DUP2 LT PUSH2 0x43B JUMP JUMPDEST CALLVALUE PUSH2 0x1D1 JUMPI PUSH1 0x20 CALLDATASIZE PUSH1 0x3 NOT ADD SLT PUSH2 0x1D1 JUMPI PUSH2 0x49F PUSH2 0x48B PUSH1 0x4 CALLDATALOAD PUSH2 0x1729 JUMP JUMPDEST CALLVALUE PUSH2 0x1D1 JUMPI PUSH1 0x0 CALLDATASIZE PUSH1 0x3 NOT ADD SLT PUSH2 0x1D1 JUMPI PUSH1 0x8 SLOAD PUSH1 0x0 NOT DUP2 ADD SWAP1 DUP2 GT PUSH2 0x510 JUMPI PUSH1 0x20 SWAP1 PUSH1 0x40 MLOAD SWAP1 DUP2 MSTORE RETURN JUMPDEST PUSH4 0x4E487B71 PUSH1 0xE0 SHL PUSH1 0x0 MSTORE PUSH1 0x11 PUSH1 0x4 MSTORE PUSH1 0x24 PUSH1 0x0 REVERT JUMPDEST CALLVALUE PUSH2 0x1D1 JUMPI PUSH1 0x80 CALLDATASIZE PUSH1 0x3 NOT ADD SLT PUSH2 0x1D1 JUMPI PUSH2 0x53F PUSH2 0x123C JUMP JUMPDEST PUSH2 0x547 PUSH2 0x1252 JUMP JUMPDEST SWAP1 PUSH1 0x44 CALLDATALOAD PUSH1 0x64 CALLDATALOAD SWAP3 PUSH1 0x1 PUSH1 0x1 PUSH1 0x40 SHL SUB DUP5 GT PUSH2 0x1D1 JUMPI PUSH2 0x56E PUSH2 0x580 SWAP5 CALLDATASIZE SWAP1 PUSH1 0x4 ADD PUSH2 0x1358 JUMP JUMPDEST SWAP3 PUSH2 0x57A DUP4 DUP4 DUP4 PUSH2 0x1497 JUMP JUMPDEST CALLER PUSH2 0x1B94 JUMP JUMPDEST STOP JUMPDEST CALLVALUE PUSH2 0x1D1 JUMPI PUSH1 0x40 CALLDATASIZE PUSH1 0x3 NOT ADD SLT PUSH2 0x1D1 JUMPI PUSH2 0x59B PUSH2 0x123C JUMP JUMPDEST PUSH1 0x24 CALLDATALOAD SWAP1 DUP2 ISZERO ISZERO DUP1 SWAP3 SUB PUSH2 0x1D1 JUMPI PUSH1 0x1 PUSH1 0x1 PUSH1 0xA0 SHL SUB AND SWAP1 DUP2 ISZERO PUSH2 0x60E JUMPI CALLER PUSH1 0x0 MSTORE PUSH1 0x5 PUSH1 0x20 MSTORE PUSH1 0x40 PUSH1 0x0 KECCAK256 DUP3 PUSH1 0x0 MSTORE PUSH1 0x20 MSTORE PUSH1 0x40 PUSH1 0x0 KECCAK256 PUSH1 0xFF NOT DUP2 SLOAD AND PUSH1 0xFF DUP4 AND OR SWAP1 SSTORE PUSH1 0x40 MLOAD SWAP1 DUP2 MSTORE PUSH32 0x17307EAB39AB6107E8899845AD3D59BD9653F200F220920489CA2B5937696C31 PUSH1 0x20 CALLER SWAP3 LOG3 STOP JUMPDEST PUSH1 0x40 MLOAD PUSH4 0xB611743 PUSH1 0xE3 SHL DUP2 MSTORE PUSH1 0x4 DUP2 ADD DUP4 SWAP1 MSTORE PUSH1 0x24 SWAP1 REVERT JUMPDEST CALLVALUE PUSH2 0x1D1 JUMPI PUSH1 0x0 CALLDATASIZE PUSH1 0x3 NOT ADD SLT PUSH2 0x1D1 JUMPI PUSH1 0x40 MLOAD PUSH1 0x0 PUSH1 0x1 DUP3 PUSH1 0x1 SLOAD SWAP3 PUSH2 0x64D DUP5 PUSH2 0x13A6 JUMP JUMPDEST SWAP3 DUP4 DUP4 MSTORE PUSH1 0x20 SWAP5 DUP6 PUSH1 0x1 DUP3 AND SWAP2 DUP3 PUSH1 0x0 EQ PUSH2 0x6EA JUMPI POP POP PUSH1 0x1 EQ PUSH2 0x68D JUMPI JUMPDEST POP PUSH2 0x679 SWAP3 POP SUB DUP4 PUSH2 0x12E5 JUMP JUMPDEST PUSH2 0x49F PUSH1 0x40 MLOAD SWAP3 DUP3 DUP5 SWAP4 DUP5 MSTORE DUP4 ADD SWAP1 PUSH2 0x1217 JUMP JUMPDEST DUP5 SWAP2 POP PUSH1 0x1 PUSH1 0x0 MSTORE PUSH32 0xB10E2D527612073B26EECDFD717E6A320CF44B4AFAC2B0732D9FCBE2B7FA0CF6 SWAP1 PUSH1 0x0 SWAP2 JUMPDEST DUP6 DUP4 LT PUSH2 0x6D2 JUMPI POP POP PUSH2 0x679 SWAP4 POP DUP3 ADD ADD DUP6 PUSH2 0x66C JUMP JUMPDEST DUP1 SLOAD DUP4 DUP10 ADD DUP6 ADD MSTORE DUP8 SWAP5 POP DUP7 SWAP4 SWAP1 SWAP3 ADD SWAP2 DUP2 ADD PUSH2 0x6BB JUMP JUMPDEST PUSH1 0xFF NOT AND DUP6 DUP3 ADD MSTORE PUSH2 0x679 SWAP6 ISZERO ISZERO PUSH1 0x5 SHL DUP6 ADD ADD SWAP3 POP DUP8 SWAP2 POP PUSH2 0x66C SWAP1 POP JUMP JUMPDEST CALLVALUE PUSH2 0x1D1 JUMPI PUSH1 0x0 CALLDATASIZE PUSH1 0x3 NOT ADD SLT PUSH2 0x1D1 JUMPI PUSH1 0x7 SLOAD PUSH1 0x40 MLOAD PUSH1 0x1 PUSH1 0x1 PUSH1 0xA0 SHL SUB SWAP1 SWAP2 AND DUP2 MSTORE PUSH1 0x20 SWAP1 RETURN JUMPDEST CALLVALUE PUSH2 0x1D1 JUMPI PUSH1 0x0 CALLDATASIZE PUSH1 0x3 NOT ADD SLT PUSH2 0x1D1 JUMPI PUSH2 0x74C PUSH2 0x1B68 JUMP JUMPDEST PUSH1 0x7 DUP1 SLOAD PUSH1 0x1 PUSH1 0x1 PUSH1 0xA0 SHL SUB NOT DUP2 AND SWAP1 SWAP2 SSTORE PUSH1 0x0 SWAP1 PUSH1 0x1 PUSH1 0x1 PUSH1 0xA0 SHL SUB AND PUSH32 0x8BE0079C531659141344CD1FD0A4F28419497F9722A3DAAFE3B4186F6B6457E0 DUP3 DUP1 LOG3 STOP JUMPDEST CALLVALUE PUSH2 0x1D1 JUMPI PUSH1 0x20 CALLDATASIZE PUSH1 0x3 NOT ADD SLT PUSH2 0x1D1 JUMPI PUSH1 0x1 PUSH1 0x1 PUSH1 0xA0 SHL SUB PUSH2 0x7B1 PUSH2 0x123C JUMP JUMPDEST AND DUP1 ISZERO PUSH2 0x7D0 JUMPI PUSH1 0x0 MSTORE PUSH1 0x3 PUSH1 0x20 MSTORE PUSH1 0x20 PUSH1 0x40 PUSH1 0x0 KECCAK256 SLOAD PUSH1 0x40 MLOAD SWAP1 DUP2 MSTORE RETURN JUMPDEST PUSH1 0x40 MLOAD PUSH4 0x22718AD9 PUSH1 0xE2 SHL DUP2 MSTORE PUSH1 0x0 PUSH1 0x4 DUP3 ADD MSTORE PUSH1 0x24 SWAP1 REVERT JUMPDEST CALLVALUE PUSH2 0x1D1 JUMPI PUSH1 0x20 CALLDATASIZE PUSH1 0x3 NOT ADD SLT PUSH2 0x1D1 JUMPI PUSH1 0x20 PUSH2 0x807 PUSH1 0x4 CALLDATALOAD PUSH2 0x1764 JUMP JUMPDEST PUSH1 0x40 MLOAD PUSH1 0x1 PUSH1 0x1 PUSH1 0xA0 SHL SUB SWAP1 SWAP2 AND DUP2 MSTORE RETURN JUMPDEST CALLVALUE PUSH2 0x1D1 JUMPI PUSH1 0x60 CALLDATASIZE PUSH1 0x3 NOT ADD SLT PUSH2 0x1D1 JUMPI PUSH1 0x4 CALLDATALOAD PUSH1 0x1 PUSH1 0x1 PUSH1 0x40 SHL SUB DUP2 GT PUSH2 0x1D1 JUMPI PUSH2 0x849 SWAP1 CALLDATASIZE SWAP1 PUSH1 0x4 ADD PUSH2 0x1268 JUMP JUMPDEST PUSH1 0x24 CALLDATALOAD PUSH1 0x1 PUSH1 0x1 PUSH1 0x40 SHL SUB DUP2 GT PUSH2 0x1D1 JUMPI PUSH2 0x868 SWAP1 CALLDATASIZE SWAP1 PUSH1 0x4 ADD PUSH2 0x1376 JUMP JUMPDEST SWAP2 SWAP1 PUSH1 0x44 CALLDATALOAD PUSH1 0x1 PUSH1 0x1 PUSH1 0x40 SHL SUB DUP2 GT PUSH2 0x1D1 JUMPI PUSH2 0x889 SWAP1 CALLDATASIZE SWAP1 PUSH1 0x4 ADD PUSH2 0x1376 JUMP JUMPDEST SWAP1 SWAP4 DUP2 DUP2 SUB PUSH2 0xB49 JUMPI SWAP4 SWAP2 SWAP1 PUSH1 0x8 SLOAD SWAP5 PUSH2 0x8A2 DUP7 PUSH2 0x16C3 JUMP JUMPDEST PUSH1 0x8 SSTORE PUSH2 0x8AF DUP7 CALLER PUSH2 0x193A JUMP JUMPDEST PUSH2 0x8C3 PUSH2 0x8BD CALLDATASIZE DUP8 DUP11 PUSH2 0x1321 JUMP JUMPDEST DUP8 PUSH2 0x1800 JUMP JUMPDEST PUSH1 0x0 DUP7 DUP2 MSTORE PUSH1 0xB PUSH1 0x20 MSTORE PUSH1 0x40 DUP2 KECCAK256 DUP1 SLOAD PUSH1 0x1 PUSH1 0x1 PUSH1 0xA0 SHL SUB NOT AND CALLER OR SWAP1 SSTORE SWAP4 JUMPDEST DUP2 DUP6 LT PUSH2 0x928 JUMPI PUSH1 0x20 DUP8 DUP8 DUP2 PUSH32 0xD063C6022BFF16D09991A9F91882FFA112F5FB2529136F65EB4C77BBD047E43 PUSH2 0x290 DUP14 PUSH1 0x40 MLOAD SWAP2 DUP3 SWAP2 DUP9 DUP4 MSTORE CALLER SWAP7 DUP10 DUP5 ADD SWAP2 PUSH2 0x1476 JUMP JUMPDEST PUSH2 0x942 PUSH2 0x93B DUP7 DUP5 DUP8 SWAP12 SWAP11 SWAP10 SWAP9 SWAP12 PUSH2 0x16D2 JUMP JUMPDEST CALLDATASIZE SWAP2 PUSH2 0x1321 JUMP JUMPDEST PUSH1 0x20 DUP2 MLOAD SWAP2 ADD KECCAK256 PUSH2 0x951 PUSH2 0x1636 JUMP JUMPDEST PUSH1 0x20 DUP2 MLOAD SWAP2 ADD KECCAK256 EQ PUSH2 0xB1D JUMPI PUSH2 0x968 DUP9 DUP5 DUP4 PUSH2 0x16D2 JUMP JUMPDEST DUP8 PUSH1 0x0 SWAP11 SWAP3 SWAP11 MSTORE PUSH1 0xA PUSH1 0x20 MSTORE PUSH1 0x40 PUSH1 0x0 KECCAK256 PUSH1 0x20 PUSH2 0x986 DUP5 DUP8 DUP11 PUSH2 0x16D2 JUMP JUMPDEST SWAP3 DUP4 PUSH1 0x40 MLOAD SWAP5 DUP6 SWAP4 DUP5 CALLDATACOPY DUP3 ADD SWAP1 DUP2 MSTORE SUB ADD SWAP1 KECCAK256 SWAP1 PUSH1 0x1 PUSH1 0x1 PUSH1 0x40 SHL SUB DUP2 GT PUSH2 0xB07 JUMPI PUSH2 0x9BC DUP2 PUSH2 0x9B6 DUP5 SLOAD PUSH2 0x13A6 JUMP JUMPDEST DUP5 PUSH2 0x166D JUMP JUMPDEST PUSH1 0x0 PUSH1 0x1F DUP3 GT PUSH1 0x1 EQ PUSH2 0xA97 JUMPI SWAP1 DUP1 PUSH2 0x9F6 SWAP3 PUSH1 0x1 SWAP7 SWAP8 SWAP9 SWAP10 SWAP11 SWAP12 SWAP13 SWAP14 PUSH1 0x0 SWAP3 PUSH2 0xA8C JUMPI JUMPDEST POP POP DUP2 PUSH1 0x1 SHL SWAP2 PUSH1 0x0 NOT SWAP1 PUSH1 0x3 SHL SHR NOT AND OR SWAP1 JUMP JUMPDEST SWAP1 SSTORE JUMPDEST PUSH32 0x2C149ED548C6D2993CD73EFE187DF6ECCABE4538091B33ADBD25FAFDB8A1468B DUP9 PUSH2 0xA26 DUP4 DUP8 DUP11 PUSH2 0x16D2 JUMP JUMPDEST SWAP3 SWAP1 PUSH2 0xA7F PUSH2 0xA36 DUP7 DUP11 DUP14 PUSH2 0x16D2 JUMP JUMPDEST SWAP2 SWAP1 SWAP3 PUSH2 0xA44 DUP9 DUP14 DUP13 PUSH2 0x16D2 JUMP JUMPDEST SWAP8 SWAP1 SWAP2 DUP2 PUSH1 0x40 MLOAD SWAP3 DUP4 SWAP3 DUP4 CALLDATACOPY DUP2 ADD PUSH1 0x0 DUP2 MSTORE SUB SWAP1 KECCAK256 SWAP7 PUSH2 0xA71 PUSH1 0x40 MLOAD SWAP6 DUP7 SWAP6 PUSH1 0x40 DUP8 MSTORE PUSH1 0x40 DUP8 ADD SWAP2 PUSH2 0x1476 JUMP JUMPDEST SWAP2 DUP5 DUP4 SUB PUSH1 0x20 DUP7 ADD MSTORE PUSH2 0x1476 JUMP JUMPDEST SUB SWAP1 LOG3 ADD SWAP4 SWAP3 SWAP2 SWAP1 PUSH2 0x8E3 JUMP JUMPDEST ADD CALLDATALOAD SWAP1 POP DUP14 DUP1 PUSH2 0x9E1 JUMP JUMPDEST DUP3 PUSH1 0x0 MSTORE PUSH1 0x20 PUSH1 0x0 KECCAK256 SWAP1 PUSH1 0x0 JUMPDEST PUSH1 0x1F NOT DUP5 AND DUP2 LT PUSH2 0xAEF JUMPI POP SWAP12 PUSH1 0x1 SWAP6 SWAP7 SWAP8 SWAP9 SWAP10 SWAP11 SWAP12 SWAP13 DUP4 PUSH1 0x1F NOT DUP2 AND LT PUSH2 0xAD5 JUMPI JUMPDEST POP POP POP DUP4 SHL DUP4 ADD SWAP1 SSTORE PUSH2 0x9F9 JUMP JUMPDEST ADD CALLDATALOAD PUSH1 0x0 NOT PUSH1 0x3 DUP5 SWAP1 SHL PUSH1 0xF8 AND SHR NOT AND SWAP1 SSTORE DUP12 DUP1 DUP1 PUSH2 0xAC7 JUMP JUMPDEST DUP14 DUP3 ADD CALLDATALOAD DUP4 SSTORE PUSH1 0x1 SWAP1 SWAP3 ADD SWAP2 PUSH1 0x20 SWAP2 DUP3 ADD SWAP2 ADD PUSH2 0xAA4 JUMP JUMPDEST PUSH4 0x4E487B71 PUSH1 0xE0 SHL PUSH1 0x0 MSTORE PUSH1 0x41 PUSH1 0x4 MSTORE PUSH1 0x24 PUSH1 0x0 REVERT JUMPDEST PUSH2 0x3C6 PUSH2 0xB28 PUSH2 0x1636 JUMP JUMPDEST PUSH1 0x40 MLOAD PUSH4 0xC1E09183 PUSH1 0xE0 SHL DUP2 MSTORE PUSH1 0x20 PUSH1 0x4 DUP3 ADD MSTORE SWAP2 DUP3 SWAP2 PUSH1 0x24 DUP4 ADD SWAP1 PUSH2 0x1217 JUMP JUMPDEST PUSH1 0x40 MLOAD PUSH3 0x461BCD PUSH1 0xE5 SHL DUP2 MSTORE PUSH1 0x20 PUSH1 0x4 DUP3 ADD MSTORE PUSH1 0x1B PUSH1 0x24 DUP3 ADD MSTORE PUSH32 0x4B6579732F76616C756573206C656E677468206D69736D617463680000000000 PUSH1 0x44 DUP3 ADD MSTORE PUSH1 0x64 SWAP1 REVERT JUMPDEST CALLVALUE PUSH2 0x1D1 JUMPI PUSH1 0x60 CALLDATASIZE PUSH1 0x3 NOT ADD SLT PUSH2 0x1D1 JUMPI PUSH1 0x4 CALLDATALOAD PUSH2 0xBAA PUSH2 0x1252 JUMP JUMPDEST SWAP1 PUSH1 0x44 CALLDATALOAD PUSH1 0x1 PUSH1 0x1 PUSH1 0x40 SHL SUB DUP2 GT PUSH2 0x1D1 JUMPI PUSH2 0xBCA SWAP1 CALLDATASIZE SWAP1 PUSH1 0x4 ADD PUSH2 0x1268 JUMP JUMPDEST SWAP1 SWAP3 PUSH2 0xBD5 DUP4 PUSH2 0x179F JUMP JUMPDEST PUSH1 0x1 PUSH1 0x1 PUSH1 0xA0 SHL SUB AND SWAP3 DUP4 ISZERO PUSH2 0xC7F JUMPI DUP2 ISZERO PUSH2 0xC49 JUMPI PUSH32 0x97FB1CD148E38C8A6CB69D8A9A375AE268C04AAA8CC44D668463A5AEB07F2E87 SWAP2 DUP4 PUSH1 0x0 MSTORE PUSH1 0xB PUSH1 0x20 MSTORE PUSH1 0x40 PUSH1 0x0 KECCAK256 DUP6 PUSH1 0x1 PUSH1 0x1 PUSH1 0x60 SHL SUB PUSH1 0xA0 SHL DUP3 SLOAD AND OR SWAP1 SSTORE PUSH2 0xC44 PUSH1 0x40 MLOAD SWAP3 DUP4 SWAP3 PUSH1 0x20 DUP5 MSTORE PUSH1 0x20 DUP5 ADD SWAP2 PUSH2 0x1476 JUMP JUMPDEST SUB SWAP1 LOG3 STOP JUMPDEST PUSH1 0x40 MLOAD PUSH3 0x461BCD PUSH1 0xE5 SHL DUP2 MSTORE PUSH1 0x20 PUSH1 0x4 DUP3 ADD MSTORE PUSH1 0xE PUSH1 0x24 DUP3 ADD MSTORE PUSH14 0x141C9BDBD9881C995C5D5A5C9959 PUSH1 0x92 SHL PUSH1 0x44 DUP3 ADD MSTORE PUSH1 0x64 SWAP1 REVERT JUMPDEST PUSH1 0x40 MLOAD PUSH3 0x461BCD PUSH1 0xE5 SHL DUP2 MSTORE PUSH1 0x20 PUSH1 0x4 DUP3 ADD MSTORE PUSH1 0x16 PUSH1 0x24 DUP3 ADD MSTORE PUSH22 0x496E76616C69642077616C6C65742061646472657373 PUSH1 0x50 SHL PUSH1 0x44 DUP3 ADD MSTORE PUSH1 0x64 SWAP1 REVERT JUMPDEST CALLVALUE PUSH2 0x1D1 JUMPI PUSH1 0x60 CALLDATASIZE PUSH1 0x3 NOT ADD SLT PUSH2 0x1D1 JUMPI PUSH1 0x1 PUSH1 0x1 PUSH1 0x40 SHL SUB PUSH1 0x4 CALLDATALOAD PUSH1 0x24 CALLDATALOAD DUP3 DUP2 GT PUSH2 0x1D1 JUMPI PUSH2 0xCF1 SWAP1 CALLDATASIZE SWAP1 PUSH1 0x4 ADD PUSH2 0x1358 JUMP JUMPDEST PUSH1 0x44 CALLDATALOAD DUP4 DUP2 GT PUSH2 0x1D1 JUMPI PUSH2 0xD09 SWAP1 CALLDATASIZE SWAP1 PUSH1 0x4 ADD PUSH2 0x1358 JUMP JUMPDEST SWAP3 PUSH2 0xD13 DUP4 PUSH2 0x179F JUMP JUMPDEST DUP2 MLOAD PUSH1 0x20 SWAP2 DUP3 DUP5 ADD SWAP2 DUP3 KECCAK256 PUSH2 0xD26 PUSH2 0x1636 JUMP JUMPDEST DUP5 DUP2 MLOAD SWAP2 ADD KECCAK256 EQ PUSH2 0xEA7 JUMPI DUP5 PUSH1 0x0 MSTORE PUSH1 0xA DUP4 MSTORE PUSH1 0x40 PUSH1 0x0 KECCAK256 DUP4 PUSH1 0x40 MLOAD DUP1 SWAP3 DUP8 MLOAD PUSH2 0xD51 DUP2 DUP5 DUP10 PUSH2 0x11F4 JUMP JUMPDEST DUP3 ADD SWAP1 DUP2 MSTORE SUB ADD SWAP1 KECCAK256 SWAP1 DUP7 MLOAD SWAP1 DUP2 GT PUSH2 0xB07 JUMPI PUSH2 0xD72 DUP2 PUSH2 0x9B6 DUP5 SLOAD PUSH2 0x13A6 JUMP JUMPDEST DUP4 PUSH1 0x1F DUP3 GT PUSH1 0x1 EQ PUSH2 0xE14 JUMPI PUSH32 0x2C149ED548C6D2993CD73EFE187DF6ECCABE4538091B33ADBD25FAFDB8A1468B SWAP6 SWAP4 PUSH2 0xC44 SWAP4 PUSH2 0xDCE DUP5 PUSH2 0xDFC SWAP9 SWAP6 PUSH2 0xDE2 SWAP6 PUSH1 0x0 SWAP2 PUSH2 0xE09 JUMPI JUMPDEST POP DUP2 PUSH1 0x1 SHL SWAP2 PUSH1 0x0 NOT SWAP1 PUSH1 0x3 SHL SHR NOT AND OR SWAP1 JUMP JUMPDEST SWAP1 SSTORE JUMPDEST PUSH1 0x40 MLOAD DUP1 SWAP3 DUP2 SWAP3 DUP8 MLOAD SWAP3 DUP4 SWAP2 PUSH2 0x11F4 JUMP JUMPDEST DUP2 ADD SUB SWAP1 KECCAK256 SWAP7 PUSH1 0x40 MLOAD SWAP5 DUP6 SWAP5 PUSH1 0x40 DUP7 MSTORE PUSH1 0x40 DUP7 ADD SWAP1 PUSH2 0x1217 JUMP JUMPDEST SWAP2 DUP5 DUP4 SUB SWAP1 DUP6 ADD MSTORE PUSH2 0x1217 JUMP JUMPDEST SWAP1 POP DUP13 ADD MLOAD DUP14 PUSH2 0xDBA JUMP JUMPDEST PUSH1 0x1F NOT DUP3 AND SWAP1 DUP4 PUSH1 0x0 MSTORE DUP6 PUSH1 0x0 KECCAK256 SWAP2 PUSH1 0x0 JUMPDEST DUP11 DUP3 DUP3 LT PUSH2 0xE90 JUMPI POP POP SWAP4 PUSH1 0x1 DUP5 PUSH2 0xDE2 SWAP5 PUSH32 0x2C149ED548C6D2993CD73EFE187DF6ECCABE4538091B33ADBD25FAFDB8A1468B SWAP11 SWAP9 SWAP5 PUSH2 0xDFC SWAP11 SWAP8 PUSH2 0xC44 SWAP10 LT PUSH2 0xE77 JUMPI JUMPDEST POP POP DUP2 SHL ADD SWAP1 SSTORE PUSH2 0xDD1 JUMP JUMPDEST DUP14 ADD MLOAD PUSH1 0x0 NOT PUSH1 0xF8 DUP5 PUSH1 0x3 SHL AND SHR NOT AND SWAP1 SSTORE DUP13 DUP1 PUSH2 0xE6B JUMP JUMPDEST PUSH1 0x1 DUP5 SWAP6 DUP11 SWAP4 SWAP6 DUP5 SWAP4 ADD MLOAD DUP2 SSTORE ADD SWAP5 ADD SWAP3 ADD PUSH2 0xE26 JUMP JUMPDEST DUP3 PUSH2 0xEB0 PUSH2 0x1636 JUMP JUMPDEST SWAP1 PUSH2 0x3C6 PUSH1 0x40 MLOAD SWAP3 DUP4 SWAP3 PUSH4 0xC1E09183 PUSH1 0xE0 SHL DUP5 MSTORE PUSH1 0x4 DUP5 ADD MSTORE PUSH1 0x24 DUP4 ADD SWAP1 PUSH2 0x1217 JUMP JUMPDEST CALLVALUE PUSH2 0x1D1 JUMPI PUSH2 0x580 PUSH2 0xEE4 CALLDATASIZE PUSH2 0x1295 JUMP JUMPDEST SWAP1 PUSH1 0x40 MLOAD SWAP3 PUSH2 0xEF2 DUP5 PUSH2 0x12CA JUMP JUMPDEST PUSH1 0x0 DUP5 MSTORE PUSH2 0x57A DUP4 DUP4 DUP4 PUSH2 0x1497 JUMP JUMPDEST CALLVALUE PUSH2 0x1D1 JUMPI PUSH2 0x580 PUSH2 0xF12 CALLDATASIZE PUSH2 0x1295 JUMP JUMPDEST SWAP2 PUSH2 0x1497 JUMP JUMPDEST CALLVALUE PUSH2 0x1D1 JUMPI PUSH1 0x40 CALLDATASIZE PUSH1 0x3 NOT ADD SLT PUSH2 0x1D1 JUMPI PUSH1 0x4 CALLDATALOAD PUSH1 0x24 CALLDATALOAD PUSH1 0x1 PUSH1 0x1 PUSH1 0x40 SHL SUB DUP2 GT PUSH2 0x1D1 JUMPI PUSH2 0xF6C PUSH32 0xE335F4A32C56FB32EB92F5084017A5836FCDC9307D02F49F27DD61F0F6A434A8 SWAP2 CALLDATASIZE SWAP1 PUSH1 0x4 ADD PUSH2 0x1268 JUMP JUMPDEST PUSH2 0xF75 DUP5 PUSH2 0x179F JUMP JUMPDEST PUSH2 0xF83 PUSH2 0x257 CALLDATASIZE DUP4 DUP6 PUSH2 0x1321 JUMP JUMPDEST PUSH2 0xF9A PUSH1 0x40 MLOAD SWAP3 DUP4 SWAP3 PUSH1 0x20 DUP5 MSTORE PUSH1 0x20 DUP5 ADD SWAP2 PUSH2 0x1476 JUMP JUMPDEST SUB SWAP1 LOG2 STOP JUMPDEST CALLVALUE PUSH2 0x1D1 JUMPI PUSH1 0x40 CALLDATASIZE PUSH1 0x3 NOT ADD SLT PUSH2 0x1D1 JUMPI PUSH2 0xFB8 PUSH2 0x123C JUMP JUMPDEST PUSH1 0x24 CALLDATALOAD PUSH2 0xFC4 DUP2 PUSH2 0x1764 JUMP JUMPDEST CALLER ISZERO ISZERO DUP1 PUSH2 0x1073 JUMPI JUMPDEST DUP1 PUSH2 0x1046 JUMPI JUMPDEST PUSH2 0x102E JUMPI PUSH1 0x1 PUSH1 0x1 PUSH1 0xA0 SHL SUB SWAP3 DUP4 AND SWAP3 DUP3 SWAP2 DUP5 SWAP2 AND PUSH32 0x8C5BE1E5EBEC7D5BD14F71427D1E84F3DD0314C0F7B2291E5B200AC8C7C3B925 PUSH1 0x0 DUP1 LOG4 PUSH1 0x0 SWAP1 DUP2 MSTORE PUSH1 0x4 PUSH1 0x20 MSTORE PUSH1 0x40 SWAP1 KECCAK256 DUP1 SLOAD PUSH1 0x1 PUSH1 0x1 PUSH1 0xA0 SHL SUB NOT AND SWAP1 SWAP2 OR SWAP1 SSTORE STOP JUMPDEST PUSH1 0x40 MLOAD PUSH4 0xA9FBF51F PUSH1 0xE0 SHL DUP2 MSTORE CALLER PUSH1 0x4 DUP3 ADD MSTORE PUSH1 0x24 SWAP1 REVERT JUMPDEST POP PUSH1 0x1 DUP1 PUSH1 0xA0 SHL SUB DUP2 AND PUSH1 0x0 MSTORE PUSH1 0x5 PUSH1 0x20 MSTORE PUSH1 0x40 PUSH1 0x0 KECCAK256 CALLER PUSH1 0x0 MSTORE PUSH1 0x20 MSTORE PUSH1 0xFF PUSH1 0x40 PUSH1 0x0 KECCAK256 SLOAD AND ISZERO PUSH2 0xFD3 JUMP JUMPDEST POP PUSH1 0x1 PUSH1 0x1 PUSH1 0xA0 SHL SUB DUP2 AND CALLER EQ ISZERO PUSH2 0xFCD JUMP JUMPDEST CALLVALUE PUSH2 0x1D1 JUMPI PUSH1 0x20 CALLDATASIZE PUSH1 0x3 NOT ADD SLT PUSH2 0x1D1 JUMPI PUSH1 0x4 CALLDATALOAD PUSH2 0x10A3 DUP2 PUSH2 0x1764 JUMP JUMPDEST POP PUSH1 0x0 MSTORE PUSH1 0x4 PUSH1 0x20 MSTORE PUSH1 0x20 PUSH1 0x1 DUP1 PUSH1 0xA0 SHL SUB PUSH1 0x40 PUSH1 0x0 KECCAK256 SLOAD AND PUSH1 0x40 MLOAD SWAP1 DUP2 MSTORE RETURN JUMPDEST CALLVALUE PUSH2 0x1D1 JUMPI PUSH1 0x0 CALLDATASIZE PUSH1 0x3 NOT ADD SLT PUSH2 0x1D1 JUMPI PUSH1 0x40 MLOAD PUSH1 0x0 DUP1 SLOAD SWAP1 DUP3 PUSH2 0x10E7 DUP4 PUSH2 0x13A6 JUMP JUMPDEST SWAP2 DUP3 DUP3 MSTORE PUSH1 0x20 SWAP4 PUSH1 0x1 SWAP1 DUP6 PUSH1 0x1 DUP3 AND SWAP2 DUP3 PUSH1 0x0 EQ PUSH2 0x6EA JUMPI POP POP PUSH1 0x1 EQ PUSH2 0x1115 JUMPI POP PUSH2 0x679 SWAP3 POP SUB DUP4 PUSH2 0x12E5 JUMP JUMPDEST PUSH1 0x0 DUP1 DUP1 MSTORE DUP6 SWAP3 POP SWAP1 PUSH32 0x290DECD9548B62A8D60345A988386FC84BA6BC95484008F6362F93160EF3E563 JUMPDEST DUP6 DUP4 LT PUSH2 0x1157 JUMPI POP POP PUSH2 0x679 SWAP4 POP DUP3 ADD ADD DUP6 PUSH2 0x66C JUMP JUMPDEST DUP1 SLOAD DUP4 DUP10 ADD DUP6 ADD MSTORE DUP8 SWAP5 POP DUP7 SWAP4 SWAP1 SWAP3 ADD SWAP2 DUP2 ADD PUSH2 0x1140 JUMP JUMPDEST CALLVALUE PUSH2 0x1D1 JUMPI PUSH1 0x20 CALLDATASIZE PUSH1 0x3 NOT ADD SLT PUSH2 0x1D1 JUMPI PUSH1 0x4 CALLDATALOAD SWAP1 PUSH4 0xFFFFFFFF PUSH1 0xE0 SHL DUP3 AND DUP1 SWAP3 SUB PUSH2 0x1D1 JUMPI PUSH1 0x20 SWAP2 PUSH4 0x24832483 PUSH1 0xE1 SHL DUP2 EQ SWAP1 DUP2 ISZERO PUSH2 0x11B1 JUMPI JUMPDEST POP ISZERO ISZERO DUP2 MSTORE RETURN JUMPDEST PUSH4 0x80AC58CD PUSH1 0xE0 SHL DUP2 EQ SWAP2 POP DUP2 ISZERO PUSH2 0x11E3 JUMPI JUMPDEST DUP2 ISZERO PUSH2 0x11D2 JUMPI JUMPDEST POP DUP4 PUSH2 0x11AA JUMP JUMPDEST PUSH4 0x1FFC9A7 PUSH1 0xE0 SHL EQ SWAP1 POP DUP4 PUSH2 0x11CB JUMP JUMPDEST PUSH4 0x5B5E139F PUSH1 0xE0 SHL DUP2 EQ SWAP2 POP PUSH2 0x11C4 JUMP JUMPDEST PUSH1 0x0 JUMPDEST DUP4 DUP2 LT PUSH2 0x1207 JUMPI POP POP PUSH1 0x0 SWAP2 ADD MSTORE JUMP JUMPDEST DUP2 DUP2 ADD MLOAD DUP4 DUP3 ADD MSTORE PUSH1 0x20 ADD PUSH2 0x11F7 JUMP JUMPDEST SWAP1 PUSH1 0x20 SWAP2 PUSH2 0x1230 DUP2 MLOAD DUP1 SWAP3 DUP2 DUP6 MSTORE DUP6 DUP1 DUP7 ADD SWAP2 ADD PUSH2 0x11F4 JUMP JUMPDEST PUSH1 0x1F ADD PUSH1 0x1F NOT AND ADD ADD SWAP1 JUMP JUMPDEST PUSH1 0x4 CALLDATALOAD SWAP1 PUSH1 0x1 PUSH1 0x1 PUSH1 0xA0 SHL SUB DUP3 AND DUP3 SUB PUSH2 0x1D1 JUMPI JUMP JUMPDEST PUSH1 0x24 CALLDATALOAD SWAP1 PUSH1 0x1 PUSH1 0x1 PUSH1 0xA0 SHL SUB DUP3 AND DUP3 SUB PUSH2 0x1D1 JUMPI JUMP JUMPDEST SWAP2 DUP2 PUSH1 0x1F DUP5 ADD SLT ISZERO PUSH2 0x1D1 JUMPI DUP3 CALLDATALOAD SWAP2 PUSH1 0x1 PUSH1 0x1 PUSH1 0x40 SHL SUB DUP4 GT PUSH2 0x1D1 JUMPI PUSH1 0x20 DUP4 DUP2 DUP7 ADD SWAP6 ADD ADD GT PUSH2 0x1D1 JUMPI JUMP JUMPDEST PUSH1 0x60 SWAP1 PUSH1 0x3 NOT ADD SLT PUSH2 0x1D1 JUMPI PUSH1 0x1 PUSH1 0x1 PUSH1 0xA0 SHL SUB SWAP1 PUSH1 0x4 CALLDATALOAD DUP3 DUP2 AND DUP2 SUB PUSH2 0x1D1 JUMPI SWAP2 PUSH1 0x24 CALLDATALOAD SWAP1 DUP2 AND DUP2 SUB PUSH2 0x1D1 JUMPI SWAP1 PUSH1 0x44 CALLDATALOAD SWAP1 JUMP JUMPDEST PUSH1 0x20 DUP2 ADD SWAP1 DUP2 LT PUSH1 0x1 PUSH1 0x1 PUSH1 0x40 SHL SUB DUP3 GT OR PUSH2 0xB07 JUMPI PUSH1 0x40 MSTORE JUMP JUMPDEST SWAP1 PUSH1 0x1F DUP1 NOT SWAP2 ADD AND DUP2 ADD SWAP1 DUP2 LT PUSH1 0x1 PUSH1 0x1 PUSH1 0x40 SHL SUB DUP3 GT OR PUSH2 0xB07 JUMPI PUSH1 0x40 MSTORE JUMP JUMPDEST PUSH1 0x1 PUSH1 0x1 PUSH1 0x40 SHL SUB DUP2 GT PUSH2 0xB07 JUMPI PUSH1 0x1F ADD PUSH1 0x1F NOT AND PUSH1 0x20 ADD SWAP1 JUMP JUMPDEST SWAP3 SWAP2 SWAP3 PUSH2 0x132D DUP3 PUSH2 0x1306 JUMP JUMPDEST SWAP2 PUSH2 0x133B PUSH1 0x40 MLOAD SWAP4 DUP5 PUSH2 0x12E5 JUMP JUMPDEST DUP3 SWAP5 DUP2 DUP5 MSTORE DUP2 DUP4 ADD GT PUSH2 0x1D1 JUMPI DUP3 DUP2 PUSH1 0x20 SWAP4 DUP5 PUSH1 0x0 SWAP7 ADD CALLDATACOPY ADD ADD MSTORE JUMP JUMPDEST SWAP1 DUP1 PUSH1 0x1F DUP4 ADD SLT ISZERO PUSH2 0x1D1 JUMPI DUP2 PUSH1 0x20 PUSH2 0x1373 SWAP4 CALLDATALOAD SWAP2 ADD PUSH2 0x1321 JUMP JUMPDEST SWAP1 JUMP JUMPDEST SWAP2 DUP2 PUSH1 0x1F DUP5 ADD SLT ISZERO PUSH2 0x1D1 JUMPI DUP3 CALLDATALOAD SWAP2 PUSH1 0x1 PUSH1 0x1 PUSH1 0x40 SHL SUB DUP4 GT PUSH2 0x1D1 JUMPI PUSH1 0x20 DUP1 DUP6 ADD SWAP5 DUP5 PUSH1 0x5 SHL ADD ADD GT PUSH2 0x1D1 JUMPI JUMP JUMPDEST SWAP1 PUSH1 0x1 DUP3 DUP2 SHR SWAP3 AND DUP1 ISZERO PUSH2 0x13D6 JUMPI JUMPDEST PUSH1 0x20 DUP4 LT EQ PUSH2 0x13C0 JUMPI JUMP JUMPDEST PUSH4 0x4E487B71 PUSH1 0xE0 SHL PUSH1 0x0 MSTORE PUSH1 0x22 PUSH1 0x4 MSTORE PUSH1 0x24 PUSH1 0x0 REVERT JUMPDEST SWAP2 PUSH1 0x7F AND SWAP2 PUSH2 0x13B5 JUMP JUMPDEST DUP1 SLOAD PUSH1 0x0 SWAP4 SWAP3 PUSH2 0x13EF DUP3 PUSH2 0x13A6 JUMP JUMPDEST SWAP2 DUP3 DUP3 MSTORE PUSH1 0x20 SWAP4 PUSH1 0x1 SWAP2 PUSH1 0x1 DUP2 AND SWAP1 DUP2 PUSH1 0x0 EQ PUSH2 0x1457 JUMPI POP PUSH1 0x1 EQ PUSH2 0x1416 JUMPI JUMPDEST POP POP POP POP POP JUMP JUMPDEST SWAP1 SWAP4 SWAP5 SWAP6 POP PUSH1 0x0 SWAP3 SWAP2 SWAP3 MSTORE DUP4 PUSH1 0x0 KECCAK256 SWAP3 DUP5 PUSH1 0x0 SWAP5 JUMPDEST DUP4 DUP7 LT PUSH2 0x1443 JUMPI POP POP POP POP ADD ADD SWAP1 CODESIZE DUP1 DUP1 DUP1 DUP1 PUSH2 0x140F JUMP JUMPDEST DUP1 SLOAD DUP6 DUP8 ADD DUP4 ADD MSTORE SWAP5 ADD SWAP4 DUP6 SWAP1 DUP3 ADD PUSH2 0x142B JUMP JUMPDEST PUSH1 0xFF NOT AND DUP7 DUP6 ADD MSTORE POP POP POP SWAP1 ISZERO ISZERO PUSH1 0x5 SHL ADD ADD SWAP2 POP CODESIZE DUP1 DUP1 DUP1 DUP1 PUSH2 0x140F JUMP JUMPDEST SWAP1 DUP1 PUSH1 0x20 SWAP4 SWAP3 DUP2 DUP5 MSTORE DUP5 DUP5 ADD CALLDATACOPY PUSH1 0x0 DUP3 DUP3 ADD DUP5 ADD MSTORE PUSH1 0x1F ADD PUSH1 0x1F NOT AND ADD ADD SWAP1 JUMP JUMPDEST PUSH1 0x1 PUSH1 0x1 PUSH1 0xA0 SHL SUB SWAP2 DUP3 AND SWAP3 SWAP1 SWAP2 DUP4 ISZERO PUSH2 0x161D JUMPI PUSH1 0x0 SWAP3 DUP3 DUP5 MSTORE DUP3 PUSH1 0x20 SWAP6 PUSH1 0x2 DUP8 MSTORE PUSH1 0x40 SWAP7 DUP5 DUP9 DUP9 KECCAK256 SLOAD AND SWAP7 DUP8 SWAP2 CALLER ISZERO ISZERO DUP1 PUSH2 0x1587 JUMPI JUMPDEST POP SWAP1 PUSH1 0x2 PUSH32 0xDDF252AD1BE2C89B69C2B068FC378DAA952BA7F163C4A11628F55A4DF523B3EF SWAP3 DUP5 PUSH2 0x1554 JUMPI JUMPDEST DUP6 DUP4 MSTORE PUSH1 0x3 DUP2 MSTORE DUP12 DUP4 KECCAK256 DUP1 SLOAD PUSH1 0x1 ADD SWAP1 SSTORE DUP7 DUP4 MSTORE MSTORE DUP10 DUP2 KECCAK256 DUP1 SLOAD PUSH1 0x1 PUSH1 0x1 PUSH1 0xA0 SHL SUB NOT AND DUP6 OR SWAP1 SSTORE DUP1 LOG4 AND SWAP3 DUP4 DUP4 SUB PUSH2 0x1533 JUMPI POP POP POP POP JUMP JUMPDEST PUSH1 0x64 SWAP5 POP MLOAD SWAP3 PUSH4 0x64283D7B PUSH1 0xE0 SHL DUP5 MSTORE PUSH1 0x4 DUP5 ADD MSTORE PUSH1 0x24 DUP4 ADD MSTORE PUSH1 0x44 DUP3 ADD MSTORE REVERT JUMPDEST PUSH1 0x0 DUP8 DUP2 MSTORE PUSH1 0x4 PUSH1 0x20 MSTORE PUSH1 0x40 SWAP1 KECCAK256 DUP1 SLOAD PUSH1 0x1 PUSH1 0x1 PUSH1 0xA0 SHL SUB NOT AND SWAP1 SSTORE DUP5 DUP4 MSTORE PUSH1 0x3 DUP2 MSTORE DUP12 DUP4 KECCAK256 DUP1 SLOAD PUSH1 0x0 NOT ADD SWAP1 SSTORE PUSH2 0x14FA JUMP JUMPDEST SWAP2 SWAP4 SWAP5 POP SWAP2 POP DUP1 PUSH2 0x15DC JUMPI JUMPDEST ISZERO PUSH2 0x15A3 JUMPI DUP6 SWAP3 SWAP2 DUP8 SWAP2 CODESIZE PUSH2 0x14CE JUMP JUMPDEST DUP8 DUP7 DUP9 PUSH2 0x15C0 JUMPI PUSH1 0x24 SWAP2 MLOAD SWAP1 PUSH4 0x7E273289 PUSH1 0xE0 SHL DUP3 MSTORE PUSH1 0x4 DUP3 ADD MSTORE REVERT JUMPDEST PUSH1 0x44 SWAP2 MLOAD SWAP1 PUSH4 0x177E802F PUSH1 0xE0 SHL DUP3 MSTORE CALLER PUSH1 0x4 DUP4 ADD MSTORE PUSH1 0x24 DUP3 ADD MSTORE REVERT JUMPDEST POP CALLER DUP8 EQ DUP1 ISZERO PUSH2 0x1601 JUMPI JUMPDEST DUP1 PUSH2 0x1593 JUMPI POP DUP6 DUP3 MSTORE PUSH1 0x4 DUP2 MSTORE CALLER DUP6 DUP10 DUP5 KECCAK256 SLOAD AND EQ PUSH2 0x1593 JUMP JUMPDEST POP DUP7 DUP3 MSTORE PUSH1 0x5 DUP2 MSTORE DUP8 DUP3 KECCAK256 CALLER DUP4 MSTORE DUP2 MSTORE PUSH1 0xFF DUP9 DUP4 KECCAK256 SLOAD AND PUSH2 0x15E7 JUMP JUMPDEST PUSH1 0x40 MLOAD PUSH4 0x32505749 PUSH1 0xE1 SHL DUP2 MSTORE PUSH1 0x0 PUSH1 0x4 DUP3 ADD MSTORE PUSH1 0x24 SWAP1 REVERT JUMPDEST PUSH1 0x40 MLOAD SWAP1 PUSH1 0x40 DUP3 ADD DUP3 DUP2 LT PUSH1 0x1 PUSH1 0x1 PUSH1 0x40 SHL SUB DUP3 GT OR PUSH2 0xB07 JUMPI PUSH1 0x40 MSTORE PUSH1 0xB DUP3 MSTORE PUSH11 0x1859D95B9D15D85B1B195D PUSH1 0xAA SHL PUSH1 0x20 DUP4 ADD MSTORE JUMP JUMPDEST SWAP1 PUSH1 0x1F DUP2 GT PUSH2 0x167B JUMPI POP POP POP JUMP JUMPDEST PUSH1 0x0 SWAP2 PUSH1 0x0 MSTORE PUSH1 0x20 PUSH1 0x0 KECCAK256 SWAP1 PUSH1 0x20 PUSH1 0x1F DUP6 ADD PUSH1 0x5 SHR DUP4 ADD SWAP5 LT PUSH2 0x16B9 JUMPI JUMPDEST PUSH1 0x1F ADD PUSH1 0x5 SHR ADD SWAP2 JUMPDEST DUP3 DUP2 LT PUSH2 0x16AE JUMPI POP POP POP JUMP JUMPDEST DUP2 DUP2 SSTORE PUSH1 0x1 ADD PUSH2 0x16A2 JUMP JUMPDEST SWAP1 SWAP3 POP DUP3 SWAP1 PUSH2 0x1699 JUMP JUMPDEST PUSH1 0x0 NOT DUP2 EQ PUSH2 0x510 JUMPI PUSH1 0x1 ADD SWAP1 JUMP JUMPDEST SWAP2 SWAP1 DUP2 LT ISZERO PUSH2 0x1713 JUMPI PUSH1 0x5 SHL DUP2 ADD CALLDATALOAD SWAP1 PUSH1 0x1E NOT DUP2 CALLDATASIZE SUB ADD DUP3 SLT ISZERO PUSH2 0x1D1 JUMPI ADD SWAP1 DUP2 CALLDATALOAD SWAP2 PUSH1 0x1 PUSH1 0x1 PUSH1 0x40 SHL SUB DUP4 GT PUSH2 0x1D1 JUMPI PUSH1 0x20 ADD DUP3 CALLDATASIZE SUB DUP2 SGT PUSH2 0x1D1 JUMPI SWAP2 SWAP1 JUMP JUMPDEST PUSH4 0x4E487B71 PUSH1 0xE0 SHL PUSH1 0x0 MSTORE PUSH1 0x32 PUSH1 0x4 MSTORE PUSH1 0x24 PUSH1 0x0 REVERT JUMPDEST PUSH2 0x1732 DUP2 PUSH2 0x1764 JUMP JUMPDEST POP PUSH1 0x0 MSTORE PUSH1 0x6 PUSH1 0x20 MSTORE PUSH2 0x484 PUSH2 0x1752 PUSH1 0x40 PUSH1 0x0 KECCAK256 PUSH1 0x40 MLOAD SWAP3 DUP4 DUP1 SWAP3 PUSH2 0x13E0 JUMP JUMPDEST PUSH1 0x0 PUSH1 0x40 MLOAD PUSH2 0x1760 DUP2 PUSH2 0x12CA JUMP JUMPDEST MSTORE SWAP1 JUMP JUMPDEST PUSH1 0x0 DUP2 DUP2 MSTORE PUSH1 0x2 PUSH1 0x20 MSTORE PUSH1 0x40 SWAP1 KECCAK256 SLOAD PUSH1 0x1 PUSH1 0x1 PUSH1 0xA0 SHL SUB AND SWAP1 DUP2 ISZERO PUSH2 0x1787 JUMPI POP SWAP1 JUMP JUMPDEST PUSH1 0x24 SWAP1 PUSH1 0x40 MLOAD SWAP1 PUSH4 0x7E273289 PUSH1 0xE0 SHL DUP3 MSTORE PUSH1 0x4 DUP3 ADD MSTORE REVERT JUMPDEST PUSH2 0x17A8 DUP2 PUSH2 0x1764 JUMP JUMPDEST CALLER PUSH1 0x1 PUSH1 0x1 PUSH1 0xA0 SHL SUB SWAP2 DUP3 AND EQ ISZERO SWAP1 DUP2 PUSH2 0x17E5 JUMPI JUMPDEST POP PUSH2 0x17C5 JUMPI POP JUMP JUMPDEST PUSH1 0x40 MLOAD PUSH4 0x6FD36239 PUSH1 0xE0 SHL DUP2 MSTORE PUSH1 0x4 DUP2 ADD SWAP2 SWAP1 SWAP2 MSTORE CALLER PUSH1 0x24 DUP3 ADD MSTORE PUSH1 0x44 SWAP1 REVERT JUMPDEST SWAP1 POP DUP2 PUSH1 0x0 MSTORE PUSH1 0x9 PUSH1 0x20 MSTORE PUSH1 0x40 PUSH1 0x0 KECCAK256 SLOAD AND CALLER EQ ISZERO CODESIZE PUSH2 0x17BD JUMP JUMPDEST SWAP2 SWAP1 SWAP2 PUSH1 0x0 SWAP1 DUP1 DUP3 MSTORE PUSH1 0x20 SWAP2 PUSH1 0x6 DUP4 MSTORE PUSH1 0x40 DUP2 KECCAK256 SWAP1 DUP6 MLOAD SWAP6 PUSH1 0x1 PUSH1 0x1 PUSH1 0x40 SHL SUB DUP8 GT PUSH2 0x1926 JUMPI PUSH2 0x183A DUP8 PUSH2 0x1834 DUP6 SLOAD PUSH2 0x13A6 JUMP JUMPDEST DUP6 PUSH2 0x166D JUMP JUMPDEST DUP5 SWAP2 PUSH1 0x1F DUP9 GT PUSH1 0x1 EQ PUSH2 0x18A2 JUMPI SWAP7 PUSH2 0x188B SWAP3 DUP2 SWAP3 PUSH32 0xF8E1A15ABA9398E019F0B49DF1A4FDE98EE17AE345CB5F6B5E2C27F5033E8CE7 SWAP9 SWAP10 SWAP3 PUSH2 0x1897 JUMPI POP POP DUP2 PUSH1 0x1 SHL SWAP2 PUSH1 0x0 NOT SWAP1 PUSH1 0x3 SHL SHR NOT AND OR SWAP1 JUMP JUMPDEST SWAP1 SSTORE JUMPDEST PUSH1 0x40 MLOAD SWAP1 DUP2 MSTORE LOG1 JUMP JUMPDEST ADD MLOAD SWAP1 POP CODESIZE DUP1 PUSH2 0x9E1 JUMP JUMPDEST SWAP2 SWAP1 PUSH1 0x1F NOT DUP9 AND DUP5 DUP5 MSTORE DUP7 DUP5 KECCAK256 SWAP4 JUMPDEST DUP2 DUP2 LT PUSH2 0x190F JUMPI POP SWAP2 PUSH1 0x1 SWAP4 SWAP2 DUP10 PUSH32 0xF8E1A15ABA9398E019F0B49DF1A4FDE98EE17AE345CB5F6B5E2C27F5033E8CE7 SWAP10 SWAP11 SWAP5 LT PUSH2 0x18F6 JUMPI JUMPDEST POP POP POP DUP2 SHL ADD SWAP1 SSTORE PUSH2 0x188E JUMP JUMPDEST ADD MLOAD PUSH1 0x0 NOT PUSH1 0xF8 DUP5 PUSH1 0x3 SHL AND SHR NOT AND SWAP1 SSTORE CODESIZE DUP1 DUP1 PUSH2 0x18E9 JUMP JUMPDEST SWAP3 SWAP4 DUP8 PUSH1 0x1 DUP2 SWAP3 DUP8 DUP7 ADD MLOAD DUP2 SSTORE ADD SWAP6 ADD SWAP4 ADD PUSH2 0x18B1 JUMP JUMPDEST PUSH4 0x4E487B71 PUSH1 0xE0 SHL DUP3 MSTORE PUSH1 0x41 PUSH1 0x4 MSTORE PUSH1 0x24 DUP3 REVERT JUMPDEST PUSH1 0x40 DUP1 MLOAD PUSH2 0x1947 DUP2 PUSH2 0x12CA JUMP JUMPDEST PUSH1 0x0 DUP1 DUP3 MSTORE SWAP4 PUSH1 0x1 PUSH1 0x1 PUSH1 0xA0 SHL SUB DUP5 DUP2 AND SWAP5 SWAP1 SWAP3 SWAP1 DUP6 ISZERO PUSH2 0x1B50 JUMPI DUP3 DUP8 MSTORE PUSH1 0x20 SWAP4 PUSH1 0x2 DUP6 MSTORE DUP6 DUP9 KECCAK256 SLOAD AND DUP4 DUP8 DUP3 ISZERO ISZERO SWAP3 DUP4 PUSH2 0x1B1D JUMPI JUMPDEST DUP2 DUP12 MSTORE PUSH1 0x3 DUP9 MSTORE DUP9 DUP12 KECCAK256 DUP1 SLOAD PUSH1 0x1 ADD SWAP1 SSTORE DUP3 DUP12 MSTORE PUSH1 0x2 DUP9 MSTORE DUP9 DUP12 KECCAK256 DUP1 SLOAD PUSH1 0x1 PUSH1 0x1 PUSH1 0xA0 SHL SUB NOT AND DUP4 OR SWAP1 SSTORE PUSH32 0xDDF252AD1BE2C89B69C2B068FC378DAA952BA7F163C4A11628F55A4DF523B3EF DUP12 DUP1 LOG4 PUSH2 0x1B05 JUMPI EXTCODESIZE PUSH2 0x19DE JUMPI JUMPDEST POP POP POP POP POP POP JUMP JUMPDEST DUP3 PUSH2 0x1A1C SWAP2 DUP6 SWAP7 SWAP8 SWAP9 SWAP5 SWAP6 MLOAD DUP1 SWAP4 DUP2 SWAP3 PUSH4 0xA85BD01 PUSH1 0xE1 SHL SWAP7 DUP8 DUP5 MSTORE CALLER PUSH1 0x4 DUP6 ADD MSTORE DUP13 PUSH1 0x24 DUP6 ADD MSTORE PUSH1 0x44 DUP5 ADD MSTORE PUSH1 0x80 PUSH1 0x64 DUP5 ADD MSTORE PUSH1 0x84 DUP4 ADD SWAP1 PUSH2 0x1217 JUMP JUMPDEST SUB DUP2 DUP11 DUP11 GAS CALL DUP8 SWAP2 DUP2 PUSH2 0x1AC1 JUMPI JUMPDEST POP PUSH2 0x1A8A JUMPI POP POP POP RETURNDATASIZE PUSH1 0x0 EQ PUSH2 0x1A81 JUMPI RETURNDATASIZE PUSH2 0x1A44 DUP2 PUSH2 0x1306 JUMP JUMPDEST SWAP1 PUSH2 0x1A51 DUP5 MLOAD SWAP3 DUP4 PUSH2 0x12E5 JUMP JUMPDEST DUP2 MSTORE DUP1 SWAP5 DUP3 RETURNDATASIZE SWAP3 ADD RETURNDATACOPY JUMPDEST DUP4 MLOAD SWAP4 DUP5 PUSH2 0x1A7B JUMPI DUP3 MLOAD PUSH4 0x32505749 PUSH1 0xE1 SHL DUP2 MSTORE PUSH1 0x4 DUP2 ADD DUP6 SWAP1 MSTORE PUSH1 0x24 SWAP1 REVERT JUMPDEST DUP5 SWAP3 POP ADD REVERT JUMPDEST PUSH1 0x60 SWAP4 POP PUSH2 0x1A5B JUMP JUMPDEST SWAP2 SWAP6 POP SWAP2 POP PUSH4 0xFFFFFFFF PUSH1 0xE0 SHL AND SUB PUSH2 0x1AAA JUMPI POP POP CODESIZE DUP1 DUP1 DUP1 DUP1 DUP1 PUSH2 0x19D6 JUMP JUMPDEST PUSH1 0x24 SWAP3 POP MLOAD SWAP1 PUSH4 0x32505749 PUSH1 0xE1 SHL DUP3 MSTORE PUSH1 0x4 DUP3 ADD MSTORE REVERT JUMPDEST SWAP1 SWAP2 POP DUP5 DUP2 DUP2 RETURNDATASIZE DUP4 GT PUSH2 0x1AFE JUMPI JUMPDEST PUSH2 0x1AD9 DUP2 DUP4 PUSH2 0x12E5 JUMP JUMPDEST DUP2 ADD SUB SLT PUSH2 0x1AFA JUMPI MLOAD PUSH1 0x1 PUSH1 0x1 PUSH1 0xE0 SHL SUB NOT DUP2 AND DUP2 SUB PUSH2 0x1AFA JUMPI SWAP1 CODESIZE PUSH2 0x1A2A JUMP JUMPDEST DUP8 DUP1 REVERT JUMPDEST POP RETURNDATASIZE PUSH2 0x1ACF JUMP JUMPDEST DUP5 MLOAD PUSH4 0x39E35637 PUSH1 0xE1 SHL DUP2 MSTORE PUSH1 0x4 DUP2 ADD DUP9 SWAP1 MSTORE PUSH1 0x24 SWAP1 REVERT JUMPDEST PUSH1 0x0 DUP4 DUP2 MSTORE PUSH1 0x4 PUSH1 0x20 MSTORE PUSH1 0x40 SWAP1 KECCAK256 DUP1 SLOAD PUSH1 0x1 PUSH1 0x1 PUSH1 0xA0 SHL SUB NOT AND SWAP1 SSTORE DUP1 DUP12 MSTORE PUSH1 0x3 DUP9 MSTORE DUP9 DUP12 KECCAK256 DUP1 SLOAD PUSH1 0x0 NOT ADD SWAP1 SSTORE PUSH2 0x197D JUMP JUMPDEST DUP5 MLOAD PUSH4 0x32505749 PUSH1 0xE1 SHL DUP2 MSTORE PUSH1 0x4 DUP2 ADD DUP9 SWAP1 MSTORE PUSH1 0x24 SWAP1 REVERT JUMPDEST PUSH1 0x7 SLOAD PUSH1 0x1 PUSH1 0x1 PUSH1 0xA0 SHL SUB AND CALLER SUB PUSH2 0x1B7C JUMPI JUMP JUMPDEST PUSH1 0x40 MLOAD PUSH4 0x118CDAA7 PUSH1 0xE0 SHL DUP2 MSTORE CALLER PUSH1 0x4 DUP3 ADD MSTORE PUSH1 0x24 SWAP1 REVERT JUMPDEST SWAP1 SWAP4 SWAP2 SWAP3 DUP4 EXTCODESIZE PUSH2 0x1BA5 JUMPI POP POP POP POP POP JUMP JUMPDEST PUSH1 0x40 MLOAD PUSH4 0xA85BD01 PUSH1 0xE1 SHL DUP1 DUP3 MSTORE PUSH1 0x1 PUSH1 0x1 PUSH1 0xA0 SHL SUB SWAP4 DUP5 AND PUSH1 0x4 DUP4 ADD MSTORE SWAP6 DUP4 AND PUSH1 0x24 DUP3 ADD MSTORE PUSH1 0x44 DUP2 ADD SWAP2 SWAP1 SWAP2 MSTORE PUSH1 0x80 PUSH1 0x64 DUP3 ADD MSTORE SWAP5 SWAP3 AND SWAP3 PUSH1 0x20 SWAP3 SWAP2 DUP6 SWAP1 PUSH2 0x1BF2 SWAP1 PUSH1 0x84 DUP4 ADD SWAP1 PUSH2 0x1217 JUMP JUMPDEST SUB SWAP5 DUP4 DUP2 PUSH1 0x0 SWAP8 DUP2 DUP10 DUP10 GAS CALL DUP7 SWAP2 DUP2 PUSH2 0x1C9D JUMPI JUMPDEST POP PUSH2 0x1C67 JUMPI POP POP POP RETURNDATASIZE PUSH1 0x0 EQ PUSH2 0x1C5E JUMPI RETURNDATASIZE PUSH2 0x1C20 DUP2 PUSH2 0x1306 JUMP JUMPDEST SWAP1 PUSH2 0x1C2E PUSH1 0x40 MLOAD SWAP3 DUP4 PUSH2 0x12E5 JUMP JUMPDEST DUP2 MSTORE DUP1 SWAP4 DUP3 RETURNDATASIZE SWAP3 ADD RETURNDATACOPY JUMPDEST DUP3 MLOAD SWAP3 DUP4 PUSH2 0x1C59 JUMPI PUSH1 0x40 MLOAD PUSH4 0x32505749 PUSH1 0xE1 SHL DUP2 MSTORE PUSH1 0x4 DUP2 ADD DUP5 SWAP1 MSTORE PUSH1 0x24 SWAP1 REVERT JUMPDEST ADD SWAP1 POP REVERT JUMPDEST PUSH1 0x60 SWAP3 POP PUSH2 0x1C38 JUMP JUMPDEST SWAP2 SWAP5 POP SWAP2 POP PUSH4 0xFFFFFFFF PUSH1 0xE0 SHL AND SUB PUSH2 0x1C85 JUMPI POP CODESIZE DUP1 DUP1 DUP1 DUP1 PUSH2 0x140F JUMP JUMPDEST PUSH1 0x24 SWAP1 PUSH1 0x40 MLOAD SWAP1 PUSH4 0x32505749 PUSH1 0xE1 SHL DUP3 MSTORE PUSH1 0x4 DUP3 ADD MSTORE REVERT JUMPDEST SWAP1 SWAP2 POP DUP5 DUP2 DUP2 RETURNDATASIZE DUP4 GT PUSH2 0x1CDA JUMPI JUMPDEST PUSH2 0x1CB5 DUP2 DUP4 PUSH2 0x12E5 JUMP JUMPDEST DUP2 ADD SUB SLT PUSH2 0x1CD6 JUMPI MLOAD PUSH1 0x1 PUSH1 0x1 PUSH1 0xE0 SHL SUB NOT DUP2 AND DUP2 SUB PUSH2 0x1CD6 JUMPI SWAP1 CODESIZE PUSH2 0x1C06 JUMP JUMPDEST DUP7 DUP1 REVERT JUMPDEST POP RETURNDATASIZE PUSH2 0x1CAB JUMP INVALID LOG2 PUSH5 0x6970667358 0x22 SLT KECCAK256 0xB4 0xB8 0xE2 LOG1 0xAE LOG4 SWAP5 SWAP1 BLOBBASEFEE PUSH11 0xD33986BB5CDE5BDFFAB55F SWAP7 0xE1 SWAP14 ADDRESS PUSH18 0x198C4CA15A8064736F6C6343000818003300 "},"methodIdentifiers":{"agentURI(uint256)":"78396cb3","agentWallets(uint256)":"ebf1f859","approve(address,uint256)":"095ea7b3","balanceOf(address)":"70a08231","getApproved(uint256)":"081812fc","getMetadata(uint256,string)":"cb4799f2","isApprovedForAll(address,address)":"e985e9c5","name()":"06fdde03","operators(uint256)":"e28d4906","owner()":"8da5cb5b","ownerOf(uint256)":"6352211e","register(string)":"f2c298be","register(string,string[],bytes[])":"5491e75d","renounceOwnership()":"715018a6","safeTransferFrom(address,address,uint256)":"42842e0e","safeTransferFrom(address,address,uint256,bytes)":"b88d4fde","setAgentURI(uint256,string)":"0af28bd3","setApprovalForAll(address,bool)":"a22cb465","setMetadata(uint256,string,bytes)":"466648da","setOperator(uint256,address)":"e7a1c1c0","supportsInterface(bytes4)":"01ffc9a7","symbol()":"95d89b41","tokenURI(uint256)":"c87b56dd","totalAgents()":"c5053712","transferFrom(address,address,uint256)":"23b872dd","transferOwnership(address)":"f2fde38b","updateAgentWallet(uint256,address,bytes)":"512c6074"}}}}}