{"contracts/ReputationRegistry.sol":{"ReputationRegistry":{"abi":[{"inputs":[],"name":"InvalidAgentId","type":"error"},{"inputs":[{"internalType":"uint8","name":"score","type":"uint8"}],"name":"InvalidScore","type":"error"},{"inputs":[{"internalType":"address","name":"reviewer","type":"address"},{"internalType":"uint256","name":"cooldownEnds","type":"uint256"}],"name":"ReviewCooldownActive","type":"error"},{"anonymous":false,"inputs":[{"indexed":true,"internalType":"uint256","name":"agentId","type":"uint256"},{"indexed":true,"internalType":"address","name":"reviewer","type":"address"},{"indexed":false,"internalType":"uint8","name":"score","type":"uint8"},{"indexed":false,"internalType":"enum ReputationRegistry.FeedbackType","name":"feedbackType","type":"uint8"},{"indexed":false,"internalType":"bytes32","name":"evidenceHash","type":"bytes32"}],"name":"FeedbackPosted","type":"event"},{"anonymous":false,"inputs":[{"indexed":true,"internalType":"uint256","name":"agentId","type":"uint256"},{"indexed":false,"internalType":"uint256","name":"newAverageScore","type":"uint256"},{"indexed":false,"internalType":"uint256","name":"totalFeedback","type":"uint256"}],"name":"ReputationUpdated","type":"event"},{"inputs":[],"name":"REVIEW_COOLDOWN","outputs":[{"internalType":"uint256","name":"","type":"uint256"}],"stateMutability":"view","type":"function"},{"inputs":[{"internalType":"uint256","name":"agentId","type":"uint256"}],"name":"getAverageScore","outputs":[{"internalType":"uint256","name":"","type":"uint256"}],"stateMutability":"view","type":"function"},{"inputs":[{"internalType":"uint256","name":"agentId","type":"uint256"}],"name":"getFeedbackCount","outputs":[{"internalType":"uint256","name":"","type":"uint256"}],"stateMutability":"view","type":"function"},{"inputs":[{"internalType":"uint256","name":"agentId","type":"uint256"},{"internalType":"uint256","name":"offset","type":"uint256"},{"internalType":"uint256","name":"limit","type":"uint256"}],"name":"getFeedbacks","outputs":[{"components":[{"internalType":"address","name":"reviewer","type":"address"},{"internalType":"uint256","name":"agentId","type":"uint256"},{"internalType":"uint8","name":"score","type":"uint8"},{"internalType":"enum ReputationRegistry.FeedbackType","name":"feedbackType","type":"uint8"},{"internalType":"string","name":"comment","type":"string"},{"internalType":"uint256","name":"timestamp","type":"uint256"},{"internalType":"bytes32","name":"evidenceHash","type":"bytes32"}],"internalType":"struct ReputationRegistry.Feedback[]","name":"","type":"tuple[]"}],"stateMutability":"view","type":"function"},{"inputs":[{"internalType":"uint256","name":"agentId","type":"uint256"}],"name":"getTrustScore","outputs":[{"internalType":"uint256","name":"","type":"uint256"}],"stateMutability":"view","type":"function"},{"inputs":[{"internalType":"address","name":"","type":"address"},{"internalType":"uint256","name":"","type":"uint256"}],"name":"lastReviewTimestamp","outputs":[{"internalType":"uint256","name":"","type":"uint256"}],"stateMutability":"view","type":"function"},{"inputs":[{"internalType":"uint256","name":"agentId","type":"uint256"},{"internalType":"uint8","name":"score","type":"uint8"},{"internalType":"enum ReputationRegistry.FeedbackType","name":"feedbackType","type":"uint8"},{"internalType":"string","name":"comment","type":"string"},{"internalType":"bytes32","name":"evidenceHash","type":"bytes32"}],"name":"postFeedback","outputs":[],"stateMutability":"nonpayable","type":"function"},{"inputs":[{"internalType":"uint256","name":"","type":"uint256"}],"name":"reputations","outputs":[{"internalType":"uint256","name":"totalFeedback","type":"uint256"},{"internalType":"uint256","name":"totalScore","type":"uint256"},{"internalType":"uint256","name":"claimPayouts","type":"uint256"},{"internalType":"uint256","name":"rebalances","type":"uint256"},{"internalType":"uint256","name":"premiumPricings","type":"uint256"},{"internalType":"uint8","name":"latestScore","type":"uint8"}],"stateMutability":"view","type":"function"}],"evm":{"bytecode":{"linkReferences":{},"object":"6080806040523461001657610c1a908161001c8239f35b600080fdfe608080604052600436101561001357600080fd5b60003560e01c90816314496ba7146104d9575080633b84d62b146101bb5780634537b7641461018f57806372fa9b851461012957806383f3d4481461010b578063de3a2b59146100e5578063e22fc561146100995763f53d6e171461007757600080fd5b34610094576000366003190112610094576020604051610e108152f35b600080fd5b34610094576040366003190112610094576004356001600160a01b0381169081900361009457600052600260205260406000206024356000526020526020604060002054604051908152f35b34610094576020366003190112610094576020610103600435610bb8565b604051908152f35b34610094576020366003190112610094576020610103600435610ae6565b3461009457602036600319011261009457600435600052600160205260c06040600020805490600181015490600281015460038201549060ff600560048501549401541693604051958652602086015260408501526060840152608083015260a0820152f35b346100945760203660031901126100945760043560005260006020526020604060002054604051908152f35b3461009457606036600319011261009457600435600052600060205260406000206101ea6044356024356109b2565b81548082116104d1575b506024358111156104c95760243581039081116104b3575b61021581610aba565b9161022360405193846109f1565b81835261022f82610aba565b601f190160005b81811061046b57505060005b82811061033b578360405160208101916020825280518093526040820192602060408260051b8501019201936000905b82821061027f5784840385f35b909192603f1985820301825285519060018060a01b0382511681526020820151602082015260ff60408301511660408201526102c36060830151606083019061098f565b608060e081840151918301528051908160e084015260005b828110610324575050600192602092839261010092600084838501015260a0808201519084015260c08091015190830152601f8019910116010197019201920190949291610272565b8060208092840101516101008287010152016102db565b61035061034a826024356109b2565b83610a1f565b506040519061035e826109bf565b80546001600160a01b0316825260018101546020830152600281015460ff80821660408501526103959160081c1660608401610a13565b6040516003820180546000916103aa82610a51565b8085529160018116908115610444575060011461040a575b505091816103d8600593600197969503826109f1565b6080840152600481015460a0840152015460c08201526103f88287610ad2565b526104038186610ad2565b5001610242565b6000908152602081209092505b81831061042e5750508101602001816103d86103c2565b6001816020925483868801015201920191610417565b60ff191660208087019190915292151560051b850190920192508391506103d890506103c2565b60209060405161047a816109bf565b60008152600083820152600060408201526000606082015260606080820152600060a0820152600060c082015282828801015201610236565b634e487b7160e01b600052601160045260246000fd5b50600061020c565b9050826101f4565b346100945760a03660031901126100945760249081359160ff831683036100945760046044351015610094576064359067ffffffffffffffff90818311610094573660238401121561009457826004013593828511610094573682868601011161009457600435156109805750606460ff861611610968573360005260026020526040600020600435600052602052604060002054610e1081018091116109535780421061093657506004356000526000602052604060002092604051936105a0856109bf565b33855260208501956004358752604086019160ff891683526000602060608901936105cd60443586610a13565b8088604051986105e685601f19601f860116018b6109f1565b828a52018389013786010152608087019384524260a088015260843560c088015280549068010000000000000000821015610921579061062b91600182018155610a1f565b97909761090c5760018060a01b038751166bffffffffffffffffffffffff60a01b89541617885551600188015560ff600288019251168254915160048110156108f75761ff009060081b169161ffff191617179055519081519283116108e357506106996003850154610a51565b601f811161089c575b50602090601f83116001146108295791806005949260c09460009261081e575b50508160011b916000199060031b1c19161760038501555b60a0810151600485015501519101553360005260026020526040600020600435600052602052426040600020556001602052604060002061071b8154610a8b565b81556107676001820161073260ff851682546109b2565b815560058301805460ff191660ff86161790556044356107e7576002830161075a8154610a8b565b90555b5491548092610a9a565b9160ff604051911681526107806020820160443561098f565b608435604082015233907f1f076cd1f3e165d476ee14de802db5b9336c6e60c19bde714b86f87ac72737b4606060043592a360405191825260208201527fd9f66501c000653403d74ddfa62a75c8dd44cc05d910ee81bf1d852262dd5fa1604060043592a2005b60443560010361080657600383016107ff8154610a8b565b905561075d565b60026044350361075d57600483016107ff8154610a8b565b0151905087806106c2565b90601f198316916003860160005260206000209260005b818110610884575092600192859260c096600598961061086b575b505050811b0160038501556106da565b015160001960f88460031b161c1916905587808061085b565b92936020600181928786015181550195019301610840565b600385016000526020600020601f840160051c8101602085106108dc575b601f830160051c820181106108d05750506106a2565b600081556001016108ba565b50806108ba565b634e487b7160e01b60009081526041600452fd5b85634e487b7160e01b60005260216004526000fd5b84634e487b7160e01b60005260006004526000fd5b85634e487b7160e01b60005260416004526000fd5b604051636e89a8f760e11b81523360048201529182015260449150fd5b50634e487b7160e01b60009081526011600452fd5b6040516306fae60560e11b815260ff86166004820152fd5b63e6394a7760e01b8152600490fd5b90600482101561099c5752565b634e487b7160e01b600052602160045260246000fd5b919082018092116104b357565b60e0810190811067ffffffffffffffff8211176109db57604052565b634e487b7160e01b600052604160045260246000fd5b90601f8019910116810190811067ffffffffffffffff8211176109db57604052565b600482101561099c5752565b8054821015610a3b576000526006602060002091020190600090565b634e487b7160e01b600052603260045260246000fd5b90600182811c92168015610a81575b6020831014610a6b57565b634e487b7160e01b600052602260045260246000fd5b91607f1691610a60565b60001981146104b35760010190565b8115610aa4570490565b634e487b7160e01b600052601260045260246000fd5b67ffffffffffffffff81116109db5760051b60200190565b8051821015610a3b5760209160051b010190565b6000908152600180602052604082208054908115610bb257816001610b0c920154610a9a565b9060018101809111610b9e579183925b818111610b89575050818102918183041490151715610b75576106a49182821115610b4957505050606490565b606482029180830460641490151715610b6157500490565b634e487b7160e01b81526011600452602490fd5b634e487b7160e01b82526011600452602482fd5b610b97908294921c91610a8b565b9290610b1c565b634e487b7160e01b84526011600452602484fd5b50505090565b6000526001602052604060002080548015610bdd576001610bda920154610a9a565b90565b505060009056fea2646970667358221220aeb73dd4b814b1ae9ef0e7c286a57a35aac203ea4572df7c99e83b802e828cbc64736f6c63430008180033","opcodes":"PUSH1 0x80 DUP1 PUSH1 0x40 MSTORE CALLVALUE PUSH2 0x16 JUMPI PUSH2 0xC1A SWAP1 DUP2 PUSH2 0x1C DUP3 CODECOPY RETURN JUMPDEST PUSH1 0x0 DUP1 REVERT INVALID PUSH1 0x80 DUP1 PUSH1 0x40 MSTORE PUSH1 0x4 CALLDATASIZE LT ISZERO PUSH2 0x13 JUMPI PUSH1 0x0 DUP1 REVERT JUMPDEST PUSH1 0x0 CALLDATALOAD PUSH1 0xE0 SHR SWAP1 DUP2 PUSH4 0x14496BA7 EQ PUSH2 0x4D9 JUMPI POP DUP1 PUSH4 0x3B84D62B EQ PUSH2 0x1BB JUMPI DUP1 PUSH4 0x4537B764 EQ PUSH2 0x18F JUMPI DUP1 PUSH4 0x72FA9B85 EQ PUSH2 0x129 JUMPI DUP1 PUSH4 0x83F3D448 EQ PUSH2 0x10B JUMPI DUP1 PUSH4 0xDE3A2B59 EQ PUSH2 0xE5 JUMPI DUP1 PUSH4 0xE22FC561 EQ PUSH2 0x99 JUMPI PUSH4 0xF53D6E17 EQ PUSH2 0x77 JUMPI PUSH1 0x0 DUP1 REVERT JUMPDEST CALLVALUE PUSH2 0x94 JUMPI PUSH1 0x0 CALLDATASIZE PUSH1 0x3 NOT ADD SLT PUSH2 0x94 JUMPI PUSH1 0x20 PUSH1 0x40 MLOAD PUSH2 0xE10 DUP2 MSTORE RETURN JUMPDEST PUSH1 0x0 DUP1 REVERT JUMPDEST CALLVALUE PUSH2 0x94 JUMPI PUSH1 0x40 CALLDATASIZE PUSH1 0x3 NOT ADD SLT PUSH2 0x94 JUMPI PUSH1 0x4 CALLDATALOAD PUSH1 0x1 PUSH1 0x1 PUSH1 0xA0 SHL SUB DUP2 AND SWAP1 DUP2 SWAP1 SUB PUSH2 0x94 JUMPI PUSH1 0x0 MSTORE PUSH1 0x2 PUSH1 0x20 MSTORE PUSH1 0x40 PUSH1 0x0 KECCAK256 PUSH1 0x24 CALLDATALOAD PUSH1 0x0 MSTORE PUSH1 0x20 MSTORE PUSH1 0x20 PUSH1 0x40 PUSH1 0x0 KECCAK256 SLOAD PUSH1 0x40 MLOAD SWAP1 DUP2 MSTORE RETURN JUMPDEST CALLVALUE PUSH2 0x94 JUMPI PUSH1 0x20 CALLDATASIZE PUSH1 0x3 NOT ADD SLT PUSH2 0x94 JUMPI PUSH1 0x20 PUSH2 0x103 PUSH1 0x4 CALLDATALOAD PUSH2 0xBB8 JUMP JUMPDEST PUSH1 0x40 MLOAD SWAP1 DUP2 MSTORE RETURN JUMPDEST CALLVALUE PUSH2 0x94 JUMPI PUSH1 0x20 CALLDATASIZE PUSH1 0x3 NOT ADD SLT PUSH2 0x94 JUMPI PUSH1 0x20 PUSH2 0x103 PUSH1 0x4 CALLDATALOAD PUSH2 0xAE6 JUMP JUMPDEST CALLVALUE PUSH2 0x94 JUMPI PUSH1 0x20 CALLDATASIZE PUSH1 0x3 NOT ADD SLT PUSH2 0x94 JUMPI PUSH1 0x4 CALLDATALOAD PUSH1 0x0 MSTORE PUSH1 0x1 PUSH1 0x20 MSTORE PUSH1 0xC0 PUSH1 0x40 PUSH1 0x0 KECCAK256 DUP1 SLOAD SWAP1 PUSH1 0x1 DUP2 ADD SLOAD SWAP1 PUSH1 0x2 DUP2 ADD SLOAD PUSH1 0x3 DUP3 ADD SLOAD SWAP1 PUSH1 0xFF PUSH1 0x5 PUSH1 0x4 DUP6 ADD SLOAD SWAP5 ADD SLOAD AND SWAP4 PUSH1 0x40 MLOAD SWAP6 DUP7 MSTORE PUSH1 0x20 DUP7 ADD MSTORE PUSH1 0x40 DUP6 ADD MSTORE PUSH1 0x60 DUP5 ADD MSTORE PUSH1 0x80 DUP4 ADD MSTORE PUSH1 0xA0 DUP3 ADD MSTORE RETURN JUMPDEST CALLVALUE PUSH2 0x94 JUMPI PUSH1 0x20 CALLDATASIZE PUSH1 0x3 NOT ADD SLT PUSH2 0x94 JUMPI PUSH1 0x4 CALLDATALOAD PUSH1 0x0 MSTORE PUSH1 0x0 PUSH1 0x20 MSTORE PUSH1 0x20 PUSH1 0x40 PUSH1 0x0 KECCAK256 SLOAD PUSH1 0x40 MLOAD SWAP1 DUP2 MSTORE RETURN JUMPDEST CALLVALUE PUSH2 0x94 JUMPI PUSH1 0x60 CALLDATASIZE PUSH1 0x3 NOT ADD SLT PUSH2 0x94 JUMPI PUSH1 0x4 CALLDATALOAD PUSH1 0x0 MSTORE PUSH1 0x0 PUSH1 0x20 MSTORE PUSH1 0x40 PUSH1 0x0 KECCAK256 PUSH2 0x1EA PUSH1 0x44 CALLDATALOAD PUSH1 0x24 CALLDATALOAD PUSH2 0x9B2 JUMP JUMPDEST DUP2 SLOAD DUP1 DUP3 GT PUSH2 0x4D1 JUMPI JUMPDEST POP PUSH1 0x24 CALLDATALOAD DUP2 GT ISZERO PUSH2 0x4C9 JUMPI PUSH1 0x24 CALLDATALOAD DUP2 SUB SWAP1 DUP2 GT PUSH2 0x4B3 JUMPI JUMPDEST PUSH2 0x215 DUP2 PUSH2 0xABA JUMP JUMPDEST SWAP2 PUSH2 0x223 PUSH1 0x40 MLOAD SWAP4 DUP5 PUSH2 0x9F1 JUMP JUMPDEST DUP2 DUP4 MSTORE PUSH2 0x22F DUP3 PUSH2 0xABA JUMP JUMPDEST PUSH1 0x1F NOT ADD PUSH1 0x0 JUMPDEST DUP2 DUP2 LT PUSH2 0x46B JUMPI POP POP PUSH1 0x0 JUMPDEST DUP3 DUP2 LT PUSH2 0x33B JUMPI DUP4 PUSH1 0x40 MLOAD PUSH1 0x20 DUP2 ADD SWAP2 PUSH1 0x20 DUP3 MSTORE DUP1 MLOAD DUP1 SWAP4 MSTORE PUSH1 0x40 DUP3 ADD SWAP3 PUSH1 0x20 PUSH1 0x40 DUP3 PUSH1 0x5 SHL DUP6 ADD ADD SWAP3 ADD SWAP4 PUSH1 0x0 SWAP1 JUMPDEST DUP3 DUP3 LT PUSH2 0x27F JUMPI DUP5 DUP5 SUB DUP6 RETURN JUMPDEST SWAP1 SWAP2 SWAP3 PUSH1 0x3F NOT DUP6 DUP3 SUB ADD DUP3 MSTORE DUP6 MLOAD SWAP1 PUSH1 0x1 DUP1 PUSH1 0xA0 SHL SUB DUP3 MLOAD AND DUP2 MSTORE PUSH1 0x20 DUP3 ADD MLOAD PUSH1 0x20 DUP3 ADD MSTORE PUSH1 0xFF PUSH1 0x40 DUP4 ADD MLOAD AND PUSH1 0x40 DUP3 ADD MSTORE PUSH2 0x2C3 PUSH1 0x60 DUP4 ADD MLOAD PUSH1 0x60 DUP4 ADD SWAP1 PUSH2 0x98F JUMP JUMPDEST PUSH1 0x80 PUSH1 0xE0 DUP2 DUP5 ADD MLOAD SWAP2 DUP4 ADD MSTORE DUP1 MLOAD SWAP1 DUP2 PUSH1 0xE0 DUP5 ADD MSTORE PUSH1 0x0 JUMPDEST DUP3 DUP2 LT PUSH2 0x324 JUMPI POP POP PUSH1 0x1 SWAP3 PUSH1 0x20 SWAP3 DUP4 SWAP3 PUSH2 0x100 SWAP3 PUSH1 0x0 DUP5 DUP4 DUP6 ADD ADD MSTORE PUSH1 0xA0 DUP1 DUP3 ADD MLOAD SWAP1 DUP5 ADD MSTORE PUSH1 0xC0 DUP1 SWAP2 ADD MLOAD SWAP1 DUP4 ADD MSTORE PUSH1 0x1F DUP1 NOT SWAP2 ADD AND ADD ADD SWAP8 ADD SWAP3 ADD SWAP3 ADD SWAP1 SWAP5 SWAP3 SWAP2 PUSH2 0x272 JUMP JUMPDEST DUP1 PUSH1 0x20 DUP1 SWAP3 DUP5 ADD ADD MLOAD PUSH2 0x100 DUP3 DUP8 ADD ADD MSTORE ADD PUSH2 0x2DB JUMP JUMPDEST PUSH2 0x350 PUSH2 0x34A DUP3 PUSH1 0x24 CALLDATALOAD PUSH2 0x9B2 JUMP JUMPDEST DUP4 PUSH2 0xA1F JUMP JUMPDEST POP PUSH1 0x40 MLOAD SWAP1 PUSH2 0x35E DUP3 PUSH2 0x9BF JUMP JUMPDEST DUP1 SLOAD PUSH1 0x1 PUSH1 0x1 PUSH1 0xA0 SHL SUB AND DUP3 MSTORE PUSH1 0x1 DUP2 ADD SLOAD PUSH1 0x20 DUP4 ADD MSTORE PUSH1 0x2 DUP2 ADD SLOAD PUSH1 0xFF DUP1 DUP3 AND PUSH1 0x40 DUP6 ADD MSTORE PUSH2 0x395 SWAP2 PUSH1 0x8 SHR AND PUSH1 0x60 DUP5 ADD PUSH2 0xA13 JUMP JUMPDEST PUSH1 0x40 MLOAD PUSH1 0x3 DUP3 ADD DUP1 SLOAD PUSH1 0x0 SWAP2 PUSH2 0x3AA DUP3 PUSH2 0xA51 JUMP JUMPDEST DUP1 DUP6 MSTORE SWAP2 PUSH1 0x1 DUP2 AND SWAP1 DUP2 ISZERO PUSH2 0x444 JUMPI POP PUSH1 0x1 EQ PUSH2 0x40A JUMPI JUMPDEST POP POP SWAP2 DUP2 PUSH2 0x3D8 PUSH1 0x5 SWAP4 PUSH1 0x1 SWAP8 SWAP7 SWAP6 SUB DUP3 PUSH2 0x9F1 JUMP JUMPDEST PUSH1 0x80 DUP5 ADD MSTORE PUSH1 0x4 DUP2 ADD SLOAD PUSH1 0xA0 DUP5 ADD MSTORE ADD SLOAD PUSH1 0xC0 DUP3 ADD MSTORE PUSH2 0x3F8 DUP3 DUP8 PUSH2 0xAD2 JUMP JUMPDEST MSTORE PUSH2 0x403 DUP2 DUP7 PUSH2 0xAD2 JUMP JUMPDEST POP ADD PUSH2 0x242 JUMP JUMPDEST PUSH1 0x0 SWAP1 DUP2 MSTORE PUSH1 0x20 DUP2 KECCAK256 SWAP1 SWAP3 POP JUMPDEST DUP2 DUP4 LT PUSH2 0x42E JUMPI POP POP DUP2 ADD PUSH1 0x20 ADD DUP2 PUSH2 0x3D8 PUSH2 0x3C2 JUMP JUMPDEST PUSH1 0x1 DUP2 PUSH1 0x20 SWAP3 SLOAD DUP4 DUP7 DUP9 ADD ADD MSTORE ADD SWAP3 ADD SWAP2 PUSH2 0x417 JUMP JUMPDEST PUSH1 0xFF NOT AND PUSH1 0x20 DUP1 DUP8 ADD SWAP2 SWAP1 SWAP2 MSTORE SWAP3 ISZERO ISZERO PUSH1 0x5 SHL DUP6 ADD SWAP1 SWAP3 ADD SWAP3 POP DUP4 SWAP2 POP PUSH2 0x3D8 SWAP1 POP PUSH2 0x3C2 JUMP JUMPDEST PUSH1 0x20 SWAP1 PUSH1 0x40 MLOAD PUSH2 0x47A DUP2 PUSH2 0x9BF JUMP JUMPDEST PUSH1 0x0 DUP2 MSTORE PUSH1 0x0 DUP4 DUP3 ADD MSTORE PUSH1 0x0 PUSH1 0x40 DUP3 ADD MSTORE PUSH1 0x0 PUSH1 0x60 DUP3 ADD MSTORE PUSH1 0x60 PUSH1 0x80 DUP3 ADD MSTORE PUSH1 0x0 PUSH1 0xA0 DUP3 ADD MSTORE PUSH1 0x0 PUSH1 0xC0 DUP3 ADD MSTORE DUP3 DUP3 DUP9 ADD ADD MSTORE ADD PUSH2 0x236 JUMP JUMPDEST PUSH4 0x4E487B71 PUSH1 0xE0 SHL PUSH1 0x0 MSTORE PUSH1 0x11 PUSH1 0x4 MSTORE PUSH1 0x24 PUSH1 0x0 REVERT JUMPDEST POP PUSH1 0x0 PUSH2 0x20C JUMP JUMPDEST SWAP1 POP DUP3 PUSH2 0x1F4 JUMP JUMPDEST CALLVALUE PUSH2 0x94 JUMPI PUSH1 0xA0 CALLDATASIZE PUSH1 0x3 NOT ADD SLT PUSH2 0x94 JUMPI PUSH1 0x24 SWAP1 DUP2 CALLDATALOAD SWAP2 PUSH1 0xFF DUP4 AND DUP4 SUB PUSH2 0x94 JUMPI PUSH1 0x4 PUSH1 0x44 CALLDATALOAD LT ISZERO PUSH2 0x94 JUMPI PUSH1 0x64 CALLDATALOAD SWAP1 PUSH8 0xFFFFFFFFFFFFFFFF SWAP1 DUP2 DUP4 GT PUSH2 0x94 JUMPI CALLDATASIZE PUSH1 0x23 DUP5 ADD SLT ISZERO PUSH2 0x94 JUMPI DUP3 PUSH1 0x4 ADD CALLDATALOAD SWAP4 DUP3 DUP6 GT PUSH2 0x94 JUMPI CALLDATASIZE DUP3 DUP7 DUP7 ADD ADD GT PUSH2 0x94 JUMPI PUSH1 0x4 CALLDATALOAD ISZERO PUSH2 0x980 JUMPI POP PUSH1 0x64 PUSH1 0xFF DUP7 AND GT PUSH2 0x968 JUMPI CALLER PUSH1 0x0 MSTORE PUSH1 0x2 PUSH1 0x20 MSTORE PUSH1 0x40 PUSH1 0x0 KECCAK256 PUSH1 0x4 CALLDATALOAD PUSH1 0x0 MSTORE PUSH1 0x20 MSTORE PUSH1 0x40 PUSH1 0x0 KECCAK256 SLOAD PUSH2 0xE10 DUP2 ADD DUP1 SWAP2 GT PUSH2 0x953 JUMPI DUP1 TIMESTAMP LT PUSH2 0x936 JUMPI POP PUSH1 0x4 CALLDATALOAD PUSH1 0x0 MSTORE PUSH1 0x0 PUSH1 0x20 MSTORE PUSH1 0x40 PUSH1 0x0 KECCAK256 SWAP3 PUSH1 0x40 MLOAD SWAP4 PUSH2 0x5A0 DUP6 PUSH2 0x9BF JUMP JUMPDEST CALLER DUP6 MSTORE PUSH1 0x20 DUP6 ADD SWAP6 PUSH1 0x4 CALLDATALOAD DUP8 MSTORE PUSH1 0x40 DUP7 ADD SWAP2 PUSH1 0xFF DUP10 AND DUP4 MSTORE PUSH1 0x0 PUSH1 0x20 PUSH1 0x60 DUP10 ADD SWAP4 PUSH2 0x5CD PUSH1 0x44 CALLDATALOAD DUP7 PUSH2 0xA13 JUMP JUMPDEST DUP1 DUP9 PUSH1 0x40 MLOAD SWAP9 PUSH2 0x5E6 DUP6 PUSH1 0x1F NOT PUSH1 0x1F DUP7 ADD AND ADD DUP12 PUSH2 0x9F1 JUMP JUMPDEST DUP3 DUP11 MSTORE ADD DUP4 DUP10 ADD CALLDATACOPY DUP7 ADD ADD MSTORE PUSH1 0x80 DUP8 ADD SWAP4 DUP5 MSTORE TIMESTAMP PUSH1 0xA0 DUP9 ADD MSTORE PUSH1 0x84 CALLDATALOAD PUSH1 0xC0 DUP9 ADD MSTORE DUP1 SLOAD SWAP1 PUSH9 0x10000000000000000 DUP3 LT ISZERO PUSH2 0x921 JUMPI SWAP1 PUSH2 0x62B SWAP2 PUSH1 0x1 DUP3 ADD DUP2 SSTORE PUSH2 0xA1F JUMP JUMPDEST SWAP8 SWAP1 SWAP8 PUSH2 0x90C JUMPI PUSH1 0x1 DUP1 PUSH1 0xA0 SHL SUB DUP8 MLOAD AND PUSH12 0xFFFFFFFFFFFFFFFFFFFFFFFF PUSH1 0xA0 SHL DUP10 SLOAD AND OR DUP9 SSTORE MLOAD PUSH1 0x1 DUP9 ADD SSTORE PUSH1 0xFF PUSH1 0x2 DUP9 ADD SWAP3 MLOAD AND DUP3 SLOAD SWAP2 MLOAD PUSH1 0x4 DUP2 LT ISZERO PUSH2 0x8F7 JUMPI PUSH2 0xFF00 SWAP1 PUSH1 0x8 SHL AND SWAP2 PUSH2 0xFFFF NOT AND OR OR SWAP1 SSTORE MLOAD SWAP1 DUP2 MLOAD SWAP3 DUP4 GT PUSH2 0x8E3 JUMPI POP PUSH2 0x699 PUSH1 0x3 DUP6 ADD SLOAD PUSH2 0xA51 JUMP JUMPDEST PUSH1 0x1F DUP2 GT PUSH2 0x89C JUMPI JUMPDEST POP PUSH1 0x20 SWAP1 PUSH1 0x1F DUP4 GT PUSH1 0x1 EQ PUSH2 0x829 JUMPI SWAP2 DUP1 PUSH1 0x5 SWAP5 SWAP3 PUSH1 0xC0 SWAP5 PUSH1 0x0 SWAP3 PUSH2 0x81E JUMPI JUMPDEST POP POP DUP2 PUSH1 0x1 SHL SWAP2 PUSH1 0x0 NOT SWAP1 PUSH1 0x3 SHL SHR NOT AND OR PUSH1 0x3 DUP6 ADD SSTORE JUMPDEST PUSH1 0xA0 DUP2 ADD MLOAD PUSH1 0x4 DUP6 ADD SSTORE ADD MLOAD SWAP2 ADD SSTORE CALLER PUSH1 0x0 MSTORE PUSH1 0x2 PUSH1 0x20 MSTORE PUSH1 0x40 PUSH1 0x0 KECCAK256 PUSH1 0x4 CALLDATALOAD PUSH1 0x0 MSTORE PUSH1 0x20 MSTORE TIMESTAMP PUSH1 0x40 PUSH1 0x0 KECCAK256 SSTORE PUSH1 0x1 PUSH1 0x20 MSTORE PUSH1 0x40 PUSH1 0x0 KECCAK256 PUSH2 0x71B DUP2 SLOAD PUSH2 0xA8B JUMP JUMPDEST DUP2 SSTORE PUSH2 0x767 PUSH1 0x1 DUP3 ADD PUSH2 0x732 PUSH1 0xFF DUP6 AND DUP3 SLOAD PUSH2 0x9B2 JUMP JUMPDEST DUP2 SSTORE PUSH1 0x5 DUP4 ADD DUP1 SLOAD PUSH1 0xFF NOT AND PUSH1 0xFF DUP7 AND OR SWAP1 SSTORE PUSH1 0x44 CALLDATALOAD PUSH2 0x7E7 JUMPI PUSH1 0x2 DUP4 ADD PUSH2 0x75A DUP2 SLOAD PUSH2 0xA8B JUMP JUMPDEST SWAP1 SSTORE JUMPDEST SLOAD SWAP2 SLOAD DUP1 SWAP3 PUSH2 0xA9A JUMP JUMPDEST SWAP2 PUSH1 0xFF PUSH1 0x40 MLOAD SWAP2 AND DUP2 MSTORE PUSH2 0x780 PUSH1 0x20 DUP3 ADD PUSH1 0x44 CALLDATALOAD PUSH2 0x98F JUMP JUMPDEST PUSH1 0x84 CALLDATALOAD PUSH1 0x40 DUP3 ADD MSTORE CALLER SWAP1 PUSH32 0x1F076CD1F3E165D476EE14DE802DB5B9336C6E60C19BDE714B86F87AC72737B4 PUSH1 0x60 PUSH1 0x4 CALLDATALOAD SWAP3 LOG3 PUSH1 0x40 MLOAD SWAP2 DUP3 MSTORE PUSH1 0x20 DUP3 ADD MSTORE PUSH32 0xD9F66501C000653403D74DDFA62A75C8DD44CC05D910EE81BF1D852262DD5FA1 PUSH1 0x40 PUSH1 0x4 CALLDATALOAD SWAP3 LOG2 STOP JUMPDEST PUSH1 0x44 CALLDATALOAD PUSH1 0x1 SUB PUSH2 0x806 JUMPI PUSH1 0x3 DUP4 ADD PUSH2 0x7FF DUP2 SLOAD PUSH2 0xA8B JUMP JUMPDEST SWAP1 SSTORE PUSH2 0x75D JUMP JUMPDEST PUSH1 0x2 PUSH1 0x44 CALLDATALOAD SUB PUSH2 0x75D JUMPI PUSH1 0x4 DUP4 ADD PUSH2 0x7FF DUP2 SLOAD PUSH2 0xA8B JUMP JUMPDEST ADD MLOAD SWAP1 POP DUP8 DUP1 PUSH2 0x6C2 JUMP JUMPDEST SWAP1 PUSH1 0x1F NOT DUP4 AND SWAP2 PUSH1 0x3 DUP7 ADD PUSH1 0x0 MSTORE PUSH1 0x20 PUSH1 0x0 KECCAK256 SWAP3 PUSH1 0x0 JUMPDEST DUP2 DUP2 LT PUSH2 0x884 JUMPI POP SWAP3 PUSH1 0x1 SWAP3 DUP6 SWAP3 PUSH1 0xC0 SWAP7 PUSH1 0x5 SWAP9 SWAP7 LT PUSH2 0x86B JUMPI JUMPDEST POP POP POP DUP2 SHL ADD PUSH1 0x3 DUP6 ADD SSTORE PUSH2 0x6DA JUMP JUMPDEST ADD MLOAD PUSH1 0x0 NOT PUSH1 0xF8 DUP5 PUSH1 0x3 SHL AND SHR NOT AND SWAP1 SSTORE DUP8 DUP1 DUP1 PUSH2 0x85B JUMP JUMPDEST SWAP3 SWAP4 PUSH1 0x20 PUSH1 0x1 DUP2 SWAP3 DUP8 DUP7 ADD MLOAD DUP2 SSTORE ADD SWAP6 ADD SWAP4 ADD PUSH2 0x840 JUMP JUMPDEST PUSH1 0x3 DUP6 ADD PUSH1 0x0 MSTORE PUSH1 0x20 PUSH1 0x0 KECCAK256 PUSH1 0x1F DUP5 ADD PUSH1 0x5 SHR DUP2 ADD PUSH1 0x20 DUP6 LT PUSH2 0x8DC JUMPI JUMPDEST PUSH1 0x1F DUP4 ADD PUSH1 0x5 SHR DUP3 ADD DUP2 LT PUSH2 0x8D0 JUMPI POP POP PUSH2 0x6A2 JUMP JUMPDEST PUSH1 0x0 DUP2 SSTORE PUSH1 0x1 ADD PUSH2 0x8BA JUMP JUMPDEST POP DUP1 PUSH2 0x8BA JUMP JUMPDEST PUSH4 0x4E487B71 PUSH1 0xE0 SHL PUSH1 0x0 SWAP1 DUP2 MSTORE PUSH1 0x41 PUSH1 0x4 MSTORE REVERT JUMPDEST DUP6 PUSH4 0x4E487B71 PUSH1 0xE0 SHL PUSH1 0x0 MSTORE PUSH1 0x21 PUSH1 0x4 MSTORE PUSH1 0x0 REVERT JUMPDEST DUP5 PUSH4 0x4E487B71 PUSH1 0xE0 SHL PUSH1 0x0 MSTORE PUSH1 0x0 PUSH1 0x4 MSTORE PUSH1 0x0 REVERT JUMPDEST DUP6 PUSH4 0x4E487B71 PUSH1 0xE0 SHL PUSH1 0x0 MSTORE PUSH1 0x41 PUSH1 0x4 MSTORE PUSH1 0x0 REVERT JUMPDEST PUSH1 0x40 MLOAD PUSH4 0x6E89A8F7 PUSH1 0xE1 SHL DUP2 MSTORE CALLER PUSH1 0x4 DUP3 ADD MSTORE SWAP2 DUP3 ADD MSTORE PUSH1 0x44 SWAP2 POP REVERT JUMPDEST POP PUSH4 0x4E487B71 PUSH1 0xE0 SHL PUSH1 0x0 SWAP1 DUP2 MSTORE PUSH1 0x11 PUSH1 0x4 MSTORE REVERT JUMPDEST PUSH1 0x40 MLOAD PUSH4 0x6FAE605 PUSH1 0xE1 SHL DUP2 MSTORE PUSH1 0xFF DUP7 AND PUSH1 0x4 DUP3 ADD MSTORE REVERT JUMPDEST PUSH4 0xE6394A77 PUSH1 0xE0 SHL DUP2 MSTORE PUSH1 0x4 SWAP1 REVERT JUMPDEST SWAP1 PUSH1 0x4 DUP3 LT ISZERO PUSH2 0x99C JUMPI MSTORE JUMP JUMPDEST PUSH4 0x4E487B71 PUSH1 0xE0 SHL PUSH1 0x0 MSTORE PUSH1 0x21 PUSH1 0x4 MSTORE PUSH1 0x24 PUSH1 0x0 REVERT JUMPDEST SWAP2 SWAP1 DUP3 ADD DUP1 SWAP3 GT PUSH2 0x4B3 JUMPI JUMP JUMPDEST PUSH1 0xE0 DUP2 ADD SWAP1 DUP2 LT PUSH8 0xFFFFFFFFFFFFFFFF DUP3 GT OR PUSH2 0x9DB JUMPI PUSH1 0x40 MSTORE JUMP JUMPDEST PUSH4 0x4E487B71 PUSH1 0xE0 SHL PUSH1 0x0 MSTORE PUSH1 0x41 PUSH1 0x4 MSTORE PUSH1 0x24 PUSH1 0x0 REVERT JUMPDEST SWAP1 PUSH1 0x1F DUP1 NOT SWAP2 ADD AND DUP2 ADD SWAP1 DUP2 LT PUSH8 0xFFFFFFFFFFFFFFFF DUP3 GT OR PUSH2 0x9DB JUMPI PUSH1 0x40 MSTORE JUMP JUMPDEST PUSH1 0x4 DUP3 LT ISZERO PUSH2 0x99C JUMPI MSTORE JUMP JUMPDEST DUP1 SLOAD DUP3 LT ISZERO PUSH2 0xA3B JUMPI PUSH1 0x0 MSTORE PUSH1 0x6 PUSH1 0x20 PUSH1 0x0 KECCAK256 SWAP2 MUL ADD SWAP1 PUSH1 0x0 SWAP1 JUMP JUMPDEST PUSH4 0x4E487B71 PUSH1 0xE0 SHL PUSH1 0x0 MSTORE PUSH1 0x32 PUSH1 0x4 MSTORE PUSH1 0x24 PUSH1 0x0 REVERT JUMPDEST SWAP1 PUSH1 0x1 DUP3 DUP2 SHR SWAP3 AND DUP1 ISZERO PUSH2 0xA81 JUMPI JUMPDEST PUSH1 0x20 DUP4 LT EQ PUSH2 0xA6B JUMPI JUMP JUMPDEST PUSH4 0x4E487B71 PUSH1 0xE0 SHL PUSH1 0x0 MSTORE PUSH1 0x22 PUSH1 0x4 MSTORE PUSH1 0x24 PUSH1 0x0 REVERT JUMPDEST SWAP2 PUSH1 0x7F AND SWAP2 PUSH2 0xA60 JUMP JUMPDEST PUSH1 0x0 NOT DUP2 EQ PUSH2 0x4B3 JUMPI PUSH1 0x1 ADD SWAP1 JUMP JUMPDEST DUP2 ISZERO PUSH2 0xAA4 JUMPI DIV SWAP1 JUMP JUMPDEST PUSH4 0x4E487B71 PUSH1 0xE0 SHL PUSH1 0x0 MSTORE PUSH1 0x12 PUSH1 0x4 MSTORE PUSH1 0x24 PUSH1 0x0 REVERT JUMPDEST PUSH8 0xFFFFFFFFFFFFFFFF DUP2 GT PUSH2 0x9DB JUMPI PUSH1 0x5 SHL PUSH1 0x20 ADD SWAP1 JUMP JUMPDEST DUP1 MLOAD DUP3 LT ISZERO PUSH2 0xA3B JUMPI PUSH1 0x20 SWAP2 PUSH1 0x5 SHL ADD ADD SWAP1 JUMP JUMPDEST PUSH1 0x0 SWAP1 DUP2 MSTORE PUSH1 0x1 DUP1 PUSH1 0x20 MSTORE PUSH1 0x40 DUP3 KECCAK256 DUP1 SLOAD SWAP1 DUP2 ISZERO PUSH2 0xBB2 JUMPI DUP2 PUSH1 0x1 PUSH2 0xB0C SWAP3 ADD SLOAD PUSH2 0xA9A JUMP JUMPDEST SWAP1 PUSH1 0x1 DUP2 ADD DUP1 SWAP2 GT PUSH2 0xB9E JUMPI SWAP2 DUP4 SWAP3 JUMPDEST DUP2 DUP2 GT PUSH2 0xB89 JUMPI POP POP DUP2 DUP2 MUL SWAP2 DUP2 DUP4 DIV EQ SWAP1 ISZERO OR ISZERO PUSH2 0xB75 JUMPI PUSH2 0x6A4 SWAP2 DUP3 DUP3 GT ISZERO PUSH2 0xB49 JUMPI POP POP POP PUSH1 0x64 SWAP1 JUMP JUMPDEST PUSH1 0x64 DUP3 MUL SWAP2 DUP1 DUP4 DIV PUSH1 0x64 EQ SWAP1 ISZERO OR ISZERO PUSH2 0xB61 JUMPI POP DIV SWAP1 JUMP JUMPDEST PUSH4 0x4E487B71 PUSH1 0xE0 SHL DUP2 MSTORE PUSH1 0x11 PUSH1 0x4 MSTORE PUSH1 0x24 SWAP1 REVERT JUMPDEST PUSH4 0x4E487B71 PUSH1 0xE0 SHL DUP3 MSTORE PUSH1 0x11 PUSH1 0x4 MSTORE PUSH1 0x24 DUP3 REVERT JUMPDEST PUSH2 0xB97 SWAP1 DUP3 SWAP5 SWAP3 SHR SWAP2 PUSH2 0xA8B JUMP JUMPDEST SWAP3 SWAP1 PUSH2 0xB1C JUMP JUMPDEST PUSH4 0x4E487B71 PUSH1 0xE0 SHL DUP5 MSTORE PUSH1 0x11 PUSH1 0x4 MSTORE PUSH1 0x24 DUP5 REVERT JUMPDEST POP POP POP SWAP1 JUMP JUMPDEST PUSH1 0x0 MSTORE PUSH1 0x1 PUSH1 0x20 MSTORE PUSH1 0x40 PUSH1 0x0 KECCAK256 DUP1 SLOAD DUP1 ISZERO PUSH2 0xBDD JUMPI PUSH1 0x1 PUSH2 0xBDA SWAP3 ADD SLOAD PUSH2 0xA9A JUMP JUMPDEST SWAP1 JUMP JUMPDEST POP POP PUSH1 0x0 SWAP1 JUMP INVALID LOG2 PUSH5 0x6970667358 0x22 SLT KECCAK256 0xAE 0xB7 RETURNDATASIZE 0xD4 0xB8 EQ 0xB1 0xAE SWAP15 CREATE 0xE7 0xC2 DUP7 0xA5 PUSH27 0x35AAC203EA4572DF7C99E83B802E828CBC64736F6C634300081800 CALLER "},"methodIdentifiers":{"REVIEW_COOLDOWN()":"f53d6e17","getAverageScore(uint256)":"de3a2b59","getFeedbackCount(uint256)":"4537b764","getFeedbacks(uint256,uint256,uint256)":"3b84d62b","getTrustScore(uint256)":"83f3d448","lastReviewTimestamp(address,uint256)":"e22fc561","postFeedback(uint256,uint8,uint8,string,bytes32)":"14496ba7","reputations(uint256)":"72fa9b85"}}}}}