{
  "_format": "hh-sol-artifact-1",
  "contractName": "ValidationRegistry",
  "sourceName": "contracts/ValidationRegistry.sol",
  "abi": [
    {
      "inputs": [
        {
          "internalType": "uint256",
          "name": "requestId",
          "type": "uint256"
        }
      ],
      "name": "AlreadyResolved",
      "type": "error"
    },
    {
      "inputs": [
        {
          "internalType": "uint256",
          "name": "required",
          "type": "uint256"
        },
        {
          "internalType": "uint256",
          "name": "provided",
          "type": "uint256"
        }
      ],
      "name": "InsufficientStake",
      "type": "error"
    },
    {
      "inputs": [
        {
          "internalType": "uint8",
          "name": "score",
          "type": "uint8"
        }
      ],
      "name": "InvalidScore",
      "type": "error"
    },
    {
      "inputs": [
        {
          "internalType": "address",
          "name": "caller",
          "type": "address"
        }
      ],
      "name": "NotValidator",
      "type": "error"
    },
    {
      "inputs": [
        {
          "internalType": "uint256",
          "name": "requestId",
          "type": "uint256"
        }
      ],
      "name": "RequestNotFound",
      "type": "error"
    },
    {
      "anonymous": false,
      "inputs": [
        {
          "indexed": true,
          "internalType": "uint256",
          "name": "requestId",
          "type": "uint256"
        },
        {
          "indexed": true,
          "internalType": "uint256",
          "name": "agentId",
          "type": "uint256"
        },
        {
          "indexed": false,
          "internalType": "enum ValidationRegistry.ValidationKind",
          "name": "kind",
          "type": "uint8"
        },
        {
          "indexed": false,
          "internalType": "bytes32",
          "name": "dataHash",
          "type": "bytes32"
        }
      ],
      "name": "ValidationRequested",
      "type": "event"
    },
    {
      "anonymous": false,
      "inputs": [
        {
          "indexed": true,
          "internalType": "uint256",
          "name": "requestId",
          "type": "uint256"
        },
        {
          "indexed": true,
          "internalType": "uint256",
          "name": "agentId",
          "type": "uint256"
        },
        {
          "indexed": false,
          "internalType": "enum ValidationRegistry.ValidationStatus",
          "name": "status",
          "type": "uint8"
        },
        {
          "indexed": false,
          "internalType": "uint8",
          "name": "score",
          "type": "uint8"
        },
        {
          "indexed": false,
          "internalType": "address",
          "name": "validator",
          "type": "address"
        }
      ],
      "name": "ValidationResolved",
      "type": "event"
    },
    {
      "anonymous": false,
      "inputs": [
        {
          "indexed": true,
          "internalType": "address",
          "name": "validator",
          "type": "address"
        },
        {
          "indexed": false,
          "internalType": "uint256",
          "name": "stake",
          "type": "uint256"
        }
      ],
      "name": "ValidatorRegistered",
      "type": "event"
    },
    {
      "anonymous": false,
      "inputs": [
        {
          "indexed": true,
          "internalType": "address",
          "name": "validator",
          "type": "address"
        },
        {
          "indexed": false,
          "internalType": "uint256",
          "name": "slashedAmount",
          "type": "uint256"
        }
      ],
      "name": "ValidatorSlashed",
      "type": "event"
    },
    {
      "inputs": [],
      "name": "MIN_VALIDATOR_STAKE",
      "outputs": [
        {
          "internalType": "uint256",
          "name": "",
          "type": "uint256"
        }
      ],
      "stateMutability": "view",
      "type": "function"
    },
    {
      "inputs": [
        {
          "internalType": "uint256",
          "name": "",
          "type": "uint256"
        },
        {
          "internalType": "uint256",
          "name": "",
          "type": "uint256"
        }
      ],
      "name": "agentRequests",
      "outputs": [
        {
          "internalType": "uint256",
          "name": "",
          "type": "uint256"
        }
      ],
      "stateMutability": "view",
      "type": "function"
    },
    {
      "inputs": [
        {
          "internalType": "uint256",
          "name": "agentId",
          "type": "uint256"
        }
      ],
      "name": "getAgentRequests",
      "outputs": [
        {
          "internalType": "uint256[]",
          "name": "",
          "type": "uint256[]"
        }
      ],
      "stateMutability": "view",
      "type": "function"
    },
    {
      "inputs": [
        {
          "internalType": "uint256",
          "name": "agentId",
          "type": "uint256"
        }
      ],
      "name": "getAverageValidationScore",
      "outputs": [
        {
          "internalType": "uint256",
          "name": "",
          "type": "uint256"
        }
      ],
      "stateMutability": "view",
      "type": "function"
    },
    {
      "inputs": [
        {
          "internalType": "uint256",
          "name": "agentId",
          "type": "uint256"
        }
      ],
      "name": "getValidatedCount",
      "outputs": [
        {
          "internalType": "uint256",
          "name": "count",
          "type": "uint256"
        }
      ],
      "stateMutability": "view",
      "type": "function"
    },
    {
      "inputs": [],
      "name": "registerValidator",
      "outputs": [],
      "stateMutability": "payable",
      "type": "function"
    },
    {
      "inputs": [
        {
          "internalType": "uint256",
          "name": "agentId",
          "type": "uint256"
        },
        {
          "internalType": "enum ValidationRegistry.ValidationKind",
          "name": "kind",
          "type": "uint8"
        },
        {
          "internalType": "bytes32",
          "name": "dataHash",
          "type": "bytes32"
        },
        {
          "internalType": "string",
          "name": "dataURI",
          "type": "string"
        }
      ],
      "name": "requestValidation",
      "outputs": [
        {
          "internalType": "uint256",
          "name": "requestId",
          "type": "uint256"
        }
      ],
      "stateMutability": "nonpayable",
      "type": "function"
    },
    {
      "inputs": [
        {
          "internalType": "uint256",
          "name": "",
          "type": "uint256"
        }
      ],
      "name": "requests",
      "outputs": [
        {
          "internalType": "uint256",
          "name": "requestId",
          "type": "uint256"
        },
        {
          "internalType": "uint256",
          "name": "agentId",
          "type": "uint256"
        },
        {
          "internalType": "enum ValidationRegistry.ValidationKind",
          "name": "kind",
          "type": "uint8"
        },
        {
          "internalType": "enum ValidationRegistry.ValidationStatus",
          "name": "status",
          "type": "uint8"
        },
        {
          "internalType": "address",
          "name": "requester",
          "type": "address"
        },
        {
          "internalType": "address",
          "name": "validator",
          "type": "address"
        },
        {
          "internalType": "bytes32",
          "name": "dataHash",
          "type": "bytes32"
        },
        {
          "internalType": "string",
          "name": "dataURI",
          "type": "string"
        },
        {
          "internalType": "uint256",
          "name": "requestedAt",
          "type": "uint256"
        },
        {
          "internalType": "uint256",
          "name": "resolvedAt",
          "type": "uint256"
        },
        {
          "internalType": "uint8",
          "name": "validationScore",
          "type": "uint8"
        },
        {
          "internalType": "string",
          "name": "validatorNote",
          "type": "string"
        },
        {
          "internalType": "uint256",
          "name": "stakeAmount",
          "type": "uint256"
        }
      ],
      "stateMutability": "view",
      "type": "function"
    },
    {
      "inputs": [
        {
          "internalType": "uint256",
          "name": "requestId",
          "type": "uint256"
        },
        {
          "internalType": "enum ValidationRegistry.ValidationStatus",
          "name": "status",
          "type": "uint8"
        },
        {
          "internalType": "uint8",
          "name": "score",
          "type": "uint8"
        },
        {
          "internalType": "string",
          "name": "note",
          "type": "string"
        }
      ],
      "name": "resolveValidation",
      "outputs": [],
      "stateMutability": "nonpayable",
      "type": "function"
    },
    {
      "inputs": [],
      "name": "totalRequests",
      "outputs": [
        {
          "internalType": "uint256",
          "name": "",
          "type": "uint256"
        }
      ],
      "stateMutability": "view",
      "type": "function"
    },
    {
      "inputs": [
        {
          "internalType": "address",
          "name": "",
          "type": "address"
        }
      ],
      "name": "validatorStake",
      "outputs": [
        {
          "internalType": "uint256",
          "name": "",
          "type": "uint256"
        }
      ],
      "stateMutability": "view",
      "type": "function"
    }
  ],
  "bytecode": "0x6080806040523461001657610ed5908161001c8239f35b600080fdfe6080604052600436101561001257600080fd5b60003560e01c806317876c6514610b5a57806324da5f8414610b1357806339b7fcc614610ad55780633a76b49714610a41578063600844381461099b57806381d12c58146108905780638aea61dc146108725780639c2a225914610850578063b23fd686146105b4578063bcc6587f146105235763de4cc54d1461009557600080fd5b3461051e57608036600319011261051e576004602435101561051e5760643567ffffffffffffffff811161051e576100d1903690600401610dca565b906100dd600054610e1b565b9081600055604051926101a0840184811067ffffffffffffffff82111761041f576040528284526004356020850152610117602435610d6a565b602435604085015260006060850152336080850152600060a085015260443560c085015267ffffffffffffffff811161041f5760405191610162601f8301601f191660200184610ca3565b818352368282011161051e5781600092602092838601378301015260e0830152426101008301526000610120830152600061014083015260405180602081011067ffffffffffffffff60208301111761041f5760208101604052600081526101608301526000610180830152806000526001602052604060002082518155602083015160018201556002810160408401516101fc81610d6a565b61020581610d6a565b60ff80198354169116178155610228606085015161022281610d6a565b82610e2a565b6080840151815462010000600160b01b03191660109190911b62010000600160b01b031617905560a08301516003820180546001600160a01b0319166001600160a01b039290921691909117905560c0830151600482015560e0830151805190939067ffffffffffffffff811161041f576102b3816102aa6005860154610c69565b60058601610e49565b6020601f82116001146104af5781906102e693949596600092610435575b50508160011b916000199060031b1c19161790565b60058301555b610100810151600683015561012081015160078301556008820160ff6101408301511660ff198254161790556009820161016082015180519067ffffffffffffffff821161041f57610348826103428554610c69565b85610e49565b602090601f83116001146104405782600a95936101809593610380936000926104355750508160011b916000199060031b1c19161790565b90555b015191015560043560005260026020526040600020908154916801000000000000000083101561041f57826103bf916001602095018155610c3b565b81549060031b9083821b91600019901b19161790556040516103e2602435610d6a565b602435815260443583820152817fa9c351ab071c40fd9c097e094c4b8b5f99b70bdebbe59d949debe0e122bf3f0d604060043593a3604051908152f35b634e487b7160e01b600052604160045260246000fd5b0151905038806102d1565b90601f198316918460005260206000209260005b8181106104975750926001928592600a989661018098961061047e575b505050811b019055610383565b015160001960f88460031b161c19169055388080610471565b92936020600181928786015181550195019301610454565b6005840160005260206000209060005b601f1984168110610506575060019394959683601f198116106104ed575b505050811b0160058301556102ec565b015160001960f88460031b161c191690553880806104dd565b9091602060018192858b0151815501930191016104bf565b600080fd5b600036600319011261051e57662386f26fc10000803410610596573360005260036020526040600020610557348254610df8565b90553360005260036020526040600020546040519081527fb4a7f5c563a0e35593d156394ed681bdc9c39467d7d722749d23862c2e4b712c60203392a2005b604490604051906322df051360e11b82526004820152346024820152fd5b3461051e57608036600319011261051e576004356024908135600481101561051e5760443560ff811680910361051e5767ffffffffffffffff9360643585811161051e57610606903690600401610dca565b9590953360005260209660038852662386f26fc1000060406000205410610839576064851161082157866000526001906001895260406000209485541561080b576002860160ff815460081c1661065c81610d6a565b6107f4578861066a91610e2a565b6003860180546001600160a01b0319163317905542600787015560088601805460ff191688179055600986019484116107e057506106b2836106ac8654610c69565b86610e49565b600091601f841160011461074c57509261070d836001947fc2c7973e68171b8a8c09ed9fe98efb67784086e2a7f8d981bbc32d25bb19f7bf999794606099976000926107415750508160011b916000199060031b1c19161790565b90555b3360005260038852604060002054600a8201550154956040519261073381610d6a565b8352820152336040820152a3005b013590508c806102d1565b91601f198416856000528a600020936000905b8c8383106107c857505050937fc2c7973e68171b8a8c09ed9fe98efb67784086e2a7f8d981bbc32d25bb19f7bf989693606098969360019693838895106107ae575b505050811b019055610710565b0135600019600384901b60f8161c191690558b80806107a1565b8585013587559581019593840193919091019061075f565b634e487b7160e01b60009081526041600452fd5b5060405163e1ba032d60e01b8152600481018a9052fd5b604051634ec726c760e01b8152600481018a9052fd5b6040516306fae60560e11b8152600481018690528490fd5b604051633b4f6e2b60e21b81523360048201528490fd5b3461051e57600036600319011261051e576020604051662386f26fc100008152f35b3461051e57600036600319011261051e576020600054604051908152f35b3461051e57602036600319011261051e576004356000526001602052604060002080549060018101549060028101549060ff8216938260081c60ff1692600160a01b600190038060038501541692600485015490600586016108f190610cc5565b91600687015495600788015494600889015460ff169660098a0161091490610cc5565b99600a01549a6040519d8e9d8e6101a0988152602001528d61093582610d6a565b6040015261094281610d6a565b60608d015260101c1660808b015260a08a015260c08901528060e0890152870161096b91610d8a565b9261010087015261012086015261014085015283810361016085015261099091610d8a565b906101808301520390f35b3461051e5760208060031936011261051e5760043560005260028152604060002060405190818382549182815201908192600052846000209060005b86828210610a2d5786866109ed82880383610ca3565b604051928392818401908285525180915260408401929160005b828110610a1657505050500390f35b835185528695509381019392810192600101610a07565b8354855290930192600192830192016109d7565b3461051e5760208060031936011261051e5760009060043560005260029060026020526040600020916000928054935b848110610a8357602086604051908152f35b610a8d8183610c3b565b90549060031b1c600052600180855260ff846040600020015460081c16610ab381610d6a565b14610ac1575b600101610a71565b94610acd600191610e1b565b959050610ab9565b3461051e57602036600319011261051e576004356001600160a01b0381169081900361051e5760005260036020526020604060002054604051908152f35b3461051e57604036600319011261051e5760243560043560005260026020526040600020805482101561051e57602091610b4c91610c3b565b90546040519160031b1c8152f35b3461051e5760208060031936011261051e5760043560005260028060205260406000206000926000926000928054935b848110610bcd578686801580610bc157610bab57602091045b604051908152f35b634e487b7160e01b600052601260045260246000fd5b50505060206000610ba3565b610bd78183610c3b565b90549060031b1c600052600180855260406000209060ff91858101549183600893841c16610c0481610d6a565b14610c15575b505050600101610b8a565b98610c3292610c2c926001959a9b01541690610df8565b97610e1b565b95908880610c0a565b8054821015610c535760005260206000200190600090565b634e487b7160e01b600052603260045260246000fd5b90600182811c92168015610c99575b6020831014610c8357565b634e487b7160e01b600052602260045260246000fd5b91607f1691610c78565b90601f8019910116810190811067ffffffffffffffff82111761041f57604052565b90604051918260008254610cd881610c69565b90818452602094600191600181169081600014610d485750600114610d09575b505050610d0792500383610ca3565b565b600090815285812095935091905b818310610d30575050610d079350820101388080610cf8565b85548884018501529485019487945091830191610d17565b92505050610d0794925060ff191682840152151560051b820101388080610cf8565b60041115610d7457565b634e487b7160e01b600052602160045260246000fd5b919082519283825260005b848110610db6575050826000602080949584010152601f8019910116010190565b602081830181015184830182015201610d95565b9181601f8401121561051e5782359167ffffffffffffffff831161051e576020838186019501011161051e57565b91908201809211610e0557565b634e487b7160e01b600052601160045260246000fd5b6000198114610e055760010190565b90610e3481610d6a565b61ff0082549160081b169061ff001916179055565b90601f8111610e5757505050565b6000916000526020600020906020601f850160051c83019410610e95575b601f0160051c01915b828110610e8a57505050565b818155600101610e7e565b9092508290610e7556fea264697066735822122015c5e31e07e88b83b86c0b45f78eae2cde108485bf74eda8185d401af287e27164736f6c63430008180033",
  "linkReferences": {},
  "deployedLinkReferences": {}
}